{
	"AMMProject/contracts/AMM.sol": {
		"ConstantProductAMM": {
			"abi": [
				{
					"inputs": [
						{
							"internalType": "address",
							"name": "_token0",
							"type": "address"
						},
						{
							"internalType": "address",
							"name": "_token1",
							"type": "address"
						}
					],
					"stateMutability": "nonpayable",
					"type": "constructor"
				},
				{
					"inputs": [],
					"name": "DECIMALS",
					"outputs": [
						{
							"internalType": "uint8",
							"name": "",
							"type": "uint8"
						}
					],
					"stateMutability": "view",
					"type": "function"
				},
				{
					"inputs": [],
					"name": "SCALE",
					"outputs": [
						{
							"internalType": "uint256",
							"name": "",
							"type": "uint256"
						}
					],
					"stateMutability": "view",
					"type": "function"
				},
				{
					"inputs": [
						{
							"internalType": "uint256",
							"name": "amount0",
							"type": "uint256"
						},
						{
							"internalType": "uint256",
							"name": "amount1",
							"type": "uint256"
						}
					],
					"name": "addLiquidity",
					"outputs": [],
					"stateMutability": "nonpayable",
					"type": "function"
				},
				{
					"inputs": [],
					"name": "getReserves",
					"outputs": [
						{
							"internalType": "uint256",
							"name": "",
							"type": "uint256"
						},
						{
							"internalType": "uint256",
							"name": "",
							"type": "uint256"
						}
					],
					"stateMutability": "view",
					"type": "function"
				},
				{
					"inputs": [],
					"name": "price",
					"outputs": [
						{
							"internalType": "uint256",
							"name": "",
							"type": "uint256"
						}
					],
					"stateMutability": "view",
					"type": "function"
				},
				{
					"inputs": [],
					"name": "reserve0",
					"outputs": [
						{
							"internalType": "uint256",
							"name": "",
							"type": "uint256"
						}
					],
					"stateMutability": "view",
					"type": "function"
				},
				{
					"inputs": [],
					"name": "reserve1",
					"outputs": [
						{
							"internalType": "uint256",
							"name": "",
							"type": "uint256"
						}
					],
					"stateMutability": "view",
					"type": "function"
				},
				{
					"inputs": [
						{
							"internalType": "uint256",
							"name": "targetPrice",
							"type": "uint256"
						}
					],
					"name": "setExchangeRate",
					"outputs": [],
					"stateMutability": "nonpayable",
					"type": "function"
				},
				{
					"inputs": [],
					"name": "token0",
					"outputs": [
						{
							"internalType": "contract IERC20",
							"name": "",
							"type": "address"
						}
					],
					"stateMutability": "view",
					"type": "function"
				},
				{
					"inputs": [],
					"name": "token1",
					"outputs": [
						{
							"internalType": "contract IERC20",
							"name": "",
							"type": "address"
						}
					],
					"stateMutability": "view",
					"type": "function"
				}
			],
			"devdoc": {
				"kind": "dev",
				"methods": {},
				"version": 1
			},
			"evm": {
				"assembly": "    /* \"AMMProject/contracts/AMM.sol\":115:4206  contract ConstantProductAMM {... */\n  mstore(0x40, 0x80)\n    /* \"AMMProject/contracts/AMM.sol\":440:561  constructor(address _token0, address _token1) {... */\n  callvalue\n  dup1\n  iszero\n  tag_1\n  jumpi\n  0x00\n  dup1\n  revert\ntag_1:\n  pop\n  mload(0x40)\n  sub(codesize, bytecodeSize)\n  dup1\n  bytecodeSize\n  dup4\n  codecopy\n  dup2\n  dup2\n  add\n  0x40\n  mstore\n  dup2\n  add\n  swap1\n  tag_2\n  swap2\n  swap1\n  tag_3\n  jump\t// in\ntag_2:\n    /* \"AMMProject/contracts/AMM.sol\":512:519  _token0 */\n  dup2\n    /* \"AMMProject/contracts/AMM.sol\":496:502  token0 */\n  0x00\n  dup1\n    /* \"AMMProject/contracts/AMM.sol\":496:520  token0 = IERC20(_token0) */\n  0x0100\n  exp\n  dup2\n  sload\n  dup2\n  0xffffffffffffffffffffffffffffffffffffffff\n  mul\n  not\n  and\n  swap1\n  dup4\n  0xffffffffffffffffffffffffffffffffffffffff\n  and\n  mul\n  or\n  swap1\n  sstore\n  pop\n    /* \"AMMProject/contracts/AMM.sol\":546:553  _token1 */\n  dup1\n    /* \"AMMProject/contracts/AMM.sol\":530:536  token1 */\n  0x01\n  0x00\n    /* \"AMMProject/contracts/AMM.sol\":530:554  token1 = IERC20(_token1) */\n  0x0100\n  exp\n  dup2\n  sload\n  dup2\n  0xffffffffffffffffffffffffffffffffffffffff\n  mul\n  not\n  and\n  swap1\n  dup4\n  0xffffffffffffffffffffffffffffffffffffffff\n  and\n  mul\n  or\n  swap1\n  sstore\n  pop\n    /* \"AMMProject/contracts/AMM.sol\":440:561  constructor(address _token0, address _token1) {... */\n  pop\n  pop\n    /* \"AMMProject/contracts/AMM.sol\":115:4206  contract ConstantProductAMM {... */\n  jump(tag_6)\n    /* \"#utility.yul\":88:205   */\ntag_8:\n    /* \"#utility.yul\":197:198   */\n  0x00\n    /* \"#utility.yul\":194:195   */\n  dup1\n    /* \"#utility.yul\":187:199   */\n  revert\n    /* \"#utility.yul\":334:460   */\ntag_10:\n    /* \"#utility.yul\":371:378   */\n  0x00\n    /* \"#utility.yul\":411:453   */\n  0xffffffffffffffffffffffffffffffffffffffff\n    /* \"#utility.yul\":404:409   */\n  dup3\n    /* \"#utility.yul\":400:454   */\n  and\n    /* \"#utility.yul\":389:454   */\n  swap1\n  pop\n    /* \"#utility.yul\":334:460   */\n  swap2\n  swap1\n  pop\n  jump\t// out\n    /* \"#utility.yul\":466:562   */\ntag_11:\n    /* \"#utility.yul\":503:510   */\n  0x00\n    /* \"#utility.yul\":532:556   */\n  tag_20\n    /* \"#utility.yul\":550:555   */\n  dup3\n    /* \"#utility.yul\":532:556   */\n  tag_10\n  jump\t// in\ntag_20:\n    /* \"#utility.yul\":521:556   */\n  swap1\n  pop\n    /* \"#utility.yul\":466:562   */\n  swap2\n  swap1\n  pop\n  jump\t// out\n    /* \"#utility.yul\":568:690   */\ntag_12:\n    /* \"#utility.yul\":641:665   */\n  tag_22\n    /* \"#utility.yul\":659:664   */\n  dup2\n    /* \"#utility.yul\":641:665   */\n  tag_11\n  jump\t// in\ntag_22:\n    /* \"#utility.yul\":634:639   */\n  dup2\n    /* \"#utility.yul\":631:666   */\n  eq\n    /* \"#utility.yul\":621:684   */\n  tag_23\n  jumpi\n    /* \"#utility.yul\":680:681   */\n  0x00\n    /* \"#utility.yul\":677:678   */\n  dup1\n    /* \"#utility.yul\":670:682   */\n  revert\n    /* \"#utility.yul\":621:684   */\ntag_23:\n    /* \"#utility.yul\":568:690   */\n  pop\n  jump\t// out\n    /* \"#utility.yul\":696:839   */\ntag_13:\n    /* \"#utility.yul\":753:758   */\n  0x00\n    /* \"#utility.yul\":784:790   */\n  dup2\n    /* \"#utility.yul\":778:791   */\n  mload\n    /* \"#utility.yul\":769:791   */\n  swap1\n  pop\n    /* \"#utility.yul\":800:833   */\n  tag_25\n    /* \"#utility.yul\":827:832   */\n  dup2\n    /* \"#utility.yul\":800:833   */\n  tag_12\n  jump\t// in\ntag_25:\n    /* \"#utility.yul\":696:839   */\n  swap3\n  swap2\n  pop\n  pop\n  jump\t// out\n    /* \"#utility.yul\":845:1352   */\ntag_3:\n    /* \"#utility.yul\":924:930   */\n  0x00\n    /* \"#utility.yul\":932:938   */\n  dup1\n    /* \"#utility.yul\":981:983   */\n  0x40\n    /* \"#utility.yul\":969:978   */\n  dup4\n    /* \"#utility.yul\":960:967   */\n  dup6\n    /* \"#utility.yul\":956:979   */\n  sub\n    /* \"#utility.yul\":952:984   */\n  slt\n    /* \"#utility.yul\":949:1068   */\n  iszero\n  tag_27\n  jumpi\n    /* \"#utility.yul\":987:1066   */\n  tag_28\n  tag_8\n  jump\t// in\ntag_28:\n    /* \"#utility.yul\":949:1068   */\ntag_27:\n    /* \"#utility.yul\":1107:1108   */\n  0x00\n    /* \"#utility.yul\":1132:1196   */\n  tag_29\n    /* \"#utility.yul\":1188:1195   */\n  dup6\n    /* \"#utility.yul\":1179:1185   */\n  dup3\n    /* \"#utility.yul\":1168:1177   */\n  dup7\n    /* \"#utility.yul\":1164:1186   */\n  add\n    /* \"#utility.yul\":1132:1196   */\n  tag_13\n  jump\t// in\ntag_29:\n    /* \"#utility.yul\":1122:1196   */\n  swap3\n  pop\n    /* \"#utility.yul\":1078:1206   */\n  pop\n    /* \"#utility.yul\":1245:1247   */\n  0x20\n    /* \"#utility.yul\":1271:1335   */\n  tag_30\n    /* \"#utility.yul\":1327:1334   */\n  dup6\n    /* \"#utility.yul\":1318:1324   */\n  dup3\n    /* \"#utility.yul\":1307:1316   */\n  dup7\n    /* \"#utility.yul\":1303:1325   */\n  add\n    /* \"#utility.yul\":1271:1335   */\n  tag_13\n  jump\t// in\ntag_30:\n    /* \"#utility.yul\":1261:1335   */\n  swap2\n  pop\n    /* \"#utility.yul\":1216:1345   */\n  pop\n    /* \"#utility.yul\":845:1352   */\n  swap3\n  pop\n  swap3\n  swap1\n  pop\n  jump\t// out\n    /* \"AMMProject/contracts/AMM.sol\":115:4206  contract ConstantProductAMM {... */\ntag_6:\n  dataSize(sub_0)\n  dup1\n  dataOffset(sub_0)\n  0x00\n  codecopy\n  0x00\n  return\nstop\n\nsub_0: assembly {\n        /* \"AMMProject/contracts/AMM.sol\":115:4206  contract ConstantProductAMM {... */\n      mstore(0x40, 0x80)\n      callvalue\n      dup1\n      iszero\n      tag_1\n      jumpi\n      0x00\n      dup1\n      revert\n    tag_1:\n      pop\n      jumpi(tag_2, lt(calldatasize, 0x04))\n      shr(0xe0, calldataload(0x00))\n      dup1\n      0x9cd441da\n      gt\n      tag_13\n      jumpi\n      dup1\n      0x9cd441da\n      eq\n      tag_8\n      jumpi\n      dup1\n      0xa035b1fe\n      eq\n      tag_9\n      jumpi\n      dup1\n      0xd21220a7\n      eq\n      tag_10\n      jumpi\n      dup1\n      0xdb068e0e\n      eq\n      tag_11\n      jumpi\n      dup1\n      0xeced5526\n      eq\n      tag_12\n      jumpi\n      jump(tag_2)\n    tag_13:\n      dup1\n      0x0902f1ac\n      eq\n      tag_3\n      jumpi\n      dup1\n      0x0dfe1681\n      eq\n      tag_4\n      jumpi\n      dup1\n      0x2e0f2625\n      eq\n      tag_5\n      jumpi\n      dup1\n      0x443cb4bc\n      eq\n      tag_6\n      jumpi\n      dup1\n      0x5a76f25e\n      eq\n      tag_7\n      jumpi\n    tag_2:\n      0x00\n      dup1\n      revert\n        /* \"AMMProject/contracts/AMM.sol\":2990:3114  function getReserves() external view returns (uint256, uint256) {... */\n    tag_3:\n      tag_14\n      tag_15\n      jump\t// in\n    tag_14:\n      mload(0x40)\n      tag_16\n      swap3\n      swap2\n      swap1\n      tag_17\n      jump\t// in\n    tag_16:\n      mload(0x40)\n      dup1\n      swap2\n      sub\n      swap1\n      return\n        /* \"AMMProject/contracts/AMM.sol\":149:169  IERC20 public token0 */\n    tag_4:\n      tag_18\n      tag_19\n      jump\t// in\n    tag_18:\n      mload(0x40)\n      tag_20\n      swap2\n      swap1\n      tag_21\n      jump\t// in\n    tag_20:\n      mload(0x40)\n      dup1\n      swap2\n      sub\n      swap1\n      return\n        /* \"AMMProject/contracts/AMM.sol\":347:381  uint8 public constant DECIMALS = 3 */\n    tag_5:\n      tag_22\n      tag_23\n      jump\t// in\n    tag_22:\n      mload(0x40)\n      tag_24\n      swap2\n      swap1\n      tag_25\n      jump\t// in\n    tag_24:\n      mload(0x40)\n      dup1\n      swap2\n      sub\n      swap1\n      return\n        /* \"AMMProject/contracts/AMM.sol\":201:224  uint256 public reserve0 */\n    tag_6:\n      tag_26\n      tag_27\n      jump\t// in\n    tag_26:\n      mload(0x40)\n      tag_28\n      swap2\n      swap1\n      tag_29\n      jump\t// in\n    tag_28:\n      mload(0x40)\n      dup1\n      swap2\n      sub\n      swap1\n      return\n        /* \"AMMProject/contracts/AMM.sol\":230:253  uint256 public reserve1 */\n    tag_7:\n      tag_30\n      tag_31\n      jump\t// in\n    tag_30:\n      mload(0x40)\n      tag_32\n      swap2\n      swap1\n      tag_29\n      jump\t// in\n    tag_32:\n      mload(0x40)\n      dup1\n      swap2\n      sub\n      swap1\n      return\n        /* \"AMMProject/contracts/AMM.sol\":567:923  function addLiquidity(uint256 amount0, uint256 amount1) external {... */\n    tag_8:\n      tag_33\n      0x04\n      dup1\n      calldatasize\n      sub\n      dup2\n      add\n      swap1\n      tag_34\n      swap2\n      swap1\n      tag_35\n      jump\t// in\n    tag_34:\n      tag_36\n      jump\t// in\n    tag_33:\n      stop\n        /* \"AMMProject/contracts/AMM.sol\":259:279  uint256 public price */\n    tag_9:\n      tag_37\n      tag_38\n      jump\t// in\n    tag_37:\n      mload(0x40)\n      tag_39\n      swap2\n      swap1\n      tag_29\n      jump\t// in\n    tag_39:\n      mload(0x40)\n      dup1\n      swap2\n      sub\n      swap1\n      return\n        /* \"AMMProject/contracts/AMM.sol\":175:195  IERC20 public token1 */\n    tag_10:\n      tag_40\n      tag_41\n      jump\t// in\n    tag_40:\n      mload(0x40)\n      tag_42\n      swap2\n      swap1\n      tag_21\n      jump\t// in\n    tag_42:\n      mload(0x40)\n      dup1\n      swap2\n      sub\n      swap1\n      return\n        /* \"AMMProject/contracts/AMM.sol\":3120:3349  function setExchangeRate(uint256 targetPrice) external {... */\n    tag_11:\n      tag_43\n      0x04\n      dup1\n      calldatasize\n      sub\n      dup2\n      add\n      swap1\n      tag_44\n      swap2\n      swap1\n      tag_45\n      jump\t// in\n    tag_44:\n      tag_46\n      jump\t// in\n    tag_43:\n      stop\n        /* \"AMMProject/contracts/AMM.sol\":387:433  uint256 public constant SCALE = 10 ** DECIMALS */\n    tag_12:\n      tag_47\n      tag_48\n      jump\t// in\n    tag_47:\n      mload(0x40)\n      tag_49\n      swap2\n      swap1\n      tag_29\n      jump\t// in\n    tag_49:\n      mload(0x40)\n      dup1\n      swap2\n      sub\n      swap1\n      return\n        /* \"AMMProject/contracts/AMM.sol\":2990:3114  function getReserves() external view returns (uint256, uint256) {... */\n    tag_15:\n        /* \"AMMProject/contracts/AMM.sol\":3036:3043  uint256 */\n      0x00\n        /* \"AMMProject/contracts/AMM.sol\":3045:3052  uint256 */\n      dup1\n        /* \"AMMProject/contracts/AMM.sol\":380:381  3 */\n      0x03\n        /* \"AMMProject/contracts/AMM.sol\":419:421  10 */\n      0x0a\n        /* \"AMMProject/contracts/AMM.sol\":419:433  10 ** DECIMALS */\n      tag_51\n      swap2\n      swap1\n      tag_52\n      jump\t// in\n    tag_51:\n        /* \"AMMProject/contracts/AMM.sol\":3072:3080  reserve0 */\n      sload(0x02)\n        /* \"AMMProject/contracts/AMM.sol\":3072:3088  reserve0 / SCALE */\n      tag_53\n      swap2\n      swap1\n      tag_54\n      jump\t// in\n    tag_53:\n        /* \"AMMProject/contracts/AMM.sol\":380:381  3 */\n      0x03\n        /* \"AMMProject/contracts/AMM.sol\":419:421  10 */\n      0x0a\n        /* \"AMMProject/contracts/AMM.sol\":419:433  10 ** DECIMALS */\n      tag_55\n      swap2\n      swap1\n      tag_52\n      jump\t// in\n    tag_55:\n        /* \"AMMProject/contracts/AMM.sol\":3090:3098  reserve1 */\n      sload(0x03)\n        /* \"AMMProject/contracts/AMM.sol\":3090:3106  reserve1 / SCALE */\n      tag_56\n      swap2\n      swap1\n      tag_54\n      jump\t// in\n    tag_56:\n        /* \"AMMProject/contracts/AMM.sol\":3064:3107  return (reserve0 / SCALE, reserve1 / SCALE) */\n      swap2\n      pop\n      swap2\n      pop\n        /* \"AMMProject/contracts/AMM.sol\":2990:3114  function getReserves() external view returns (uint256, uint256) {... */\n      swap1\n      swap2\n      jump\t// out\n        /* \"AMMProject/contracts/AMM.sol\":149:169  IERC20 public token0 */\n    tag_19:\n      0x00\n      dup1\n      sload\n      swap1\n      0x0100\n      exp\n      swap1\n      div\n      0xffffffffffffffffffffffffffffffffffffffff\n      and\n      dup2\n      jump\t// out\n        /* \"AMMProject/contracts/AMM.sol\":347:381  uint8 public constant DECIMALS = 3 */\n    tag_23:\n        /* \"AMMProject/contracts/AMM.sol\":380:381  3 */\n      0x03\n        /* \"AMMProject/contracts/AMM.sol\":347:381  uint8 public constant DECIMALS = 3 */\n      dup2\n      jump\t// out\n        /* \"AMMProject/contracts/AMM.sol\":201:224  uint256 public reserve0 */\n    tag_27:\n      sload(0x02)\n      dup2\n      jump\t// out\n        /* \"AMMProject/contracts/AMM.sol\":230:253  uint256 public reserve1 */\n    tag_31:\n      sload(0x03)\n      dup2\n      jump\t// out\n        /* \"AMMProject/contracts/AMM.sol\":567:923  function addLiquidity(uint256 amount0, uint256 amount1) external {... */\n    tag_36:\n        /* \"AMMProject/contracts/AMM.sol\":660:661  0 */\n      0x00\n        /* \"AMMProject/contracts/AMM.sol\":650:657  amount0 */\n      dup3\n        /* \"AMMProject/contracts/AMM.sol\":650:661  amount0 > 0 */\n      gt\n        /* \"AMMProject/contracts/AMM.sol\":650:676  amount0 > 0 && amount1 > 0 */\n      dup1\n      iszero\n      tag_58\n      jumpi\n      pop\n        /* \"AMMProject/contracts/AMM.sol\":675:676  0 */\n      0x00\n        /* \"AMMProject/contracts/AMM.sol\":665:672  amount1 */\n      dup2\n        /* \"AMMProject/contracts/AMM.sol\":665:676  amount1 > 0 */\n      gt\n        /* \"AMMProject/contracts/AMM.sol\":650:676  amount0 > 0 && amount1 > 0 */\n    tag_58:\n        /* \"AMMProject/contracts/AMM.sol\":642:696  require(amount0 > 0 && amount1 > 0, \"Invalid amounts\") */\n      tag_59\n      jumpi\n      mload(0x40)\n      0x08c379a000000000000000000000000000000000000000000000000000000000\n      dup2\n      mstore\n      0x04\n      add\n      tag_60\n      swap1\n      tag_61\n      jump\t// in\n    tag_60:\n      mload(0x40)\n      dup1\n      swap2\n      sub\n      swap1\n      revert\n    tag_59:\n        /* \"AMMProject/contracts/AMM.sol\":706:712  token0 */\n      0x00\n      dup1\n      sload\n      swap1\n      0x0100\n      exp\n      swap1\n      div\n      0xffffffffffffffffffffffffffffffffffffffff\n      and\n        /* \"AMMProject/contracts/AMM.sol\":706:725  token0.transferFrom */\n      0xffffffffffffffffffffffffffffffffffffffff\n      and\n      0x23b872dd\n        /* \"AMMProject/contracts/AMM.sol\":726:736  msg.sender */\n      caller\n        /* \"AMMProject/contracts/AMM.sol\":746:750  this */\n      address\n        /* \"AMMProject/contracts/AMM.sol\":380:381  3 */\n      0x03\n        /* \"AMMProject/contracts/AMM.sol\":419:421  10 */\n      0x0a\n        /* \"AMMProject/contracts/AMM.sol\":419:433  10 ** DECIMALS */\n      tag_62\n      swap2\n      swap1\n      tag_52\n      jump\t// in\n    tag_62:\n        /* \"AMMProject/contracts/AMM.sol\":753:760  amount0 */\n      dup7\n        /* \"AMMProject/contracts/AMM.sol\":753:768  amount0 * SCALE */\n      tag_63\n      swap2\n      swap1\n      tag_64\n      jump\t// in\n    tag_63:\n        /* \"AMMProject/contracts/AMM.sol\":706:769  token0.transferFrom(msg.sender, address(this), amount0 * SCALE) */\n      mload(0x40)\n      dup5\n      0xffffffff\n      and\n      0xe0\n      shl\n      dup2\n      mstore\n      0x04\n      add\n      tag_65\n      swap4\n      swap3\n      swap2\n      swap1\n      tag_66\n      jump\t// in\n    tag_65:\n      0x20\n      mload(0x40)\n      dup1\n      dup4\n      sub\n      dup2\n      0x00\n      dup8\n      gas\n      call\n      iszero\n      dup1\n      iszero\n      tag_68\n      jumpi\n      returndatasize\n      0x00\n      dup1\n      returndatacopy\n      revert(0x00, returndatasize)\n    tag_68:\n      pop\n      pop\n      pop\n      pop\n      mload(0x40)\n      returndatasize\n      not(0x1f)\n      0x1f\n      dup3\n      add\n      and\n      dup3\n      add\n      dup1\n      0x40\n      mstore\n      pop\n      dup2\n      add\n      swap1\n      tag_69\n      swap2\n      swap1\n      tag_70\n      jump\t// in\n    tag_69:\n      pop\n        /* \"AMMProject/contracts/AMM.sol\":779:785  token1 */\n      0x01\n      0x00\n      swap1\n      sload\n      swap1\n      0x0100\n      exp\n      swap1\n      div\n      0xffffffffffffffffffffffffffffffffffffffff\n      and\n        /* \"AMMProject/contracts/AMM.sol\":779:798  token1.transferFrom */\n      0xffffffffffffffffffffffffffffffffffffffff\n      and\n      0x23b872dd\n        /* \"AMMProject/contracts/AMM.sol\":799:809  msg.sender */\n      caller\n        /* \"AMMProject/contracts/AMM.sol\":819:823  this */\n      address\n        /* \"AMMProject/contracts/AMM.sol\":380:381  3 */\n      0x03\n        /* \"AMMProject/contracts/AMM.sol\":419:421  10 */\n      0x0a\n        /* \"AMMProject/contracts/AMM.sol\":419:433  10 ** DECIMALS */\n      tag_71\n      swap2\n      swap1\n      tag_52\n      jump\t// in\n    tag_71:\n        /* \"AMMProject/contracts/AMM.sol\":826:833  amount1 */\n      dup6\n        /* \"AMMProject/contracts/AMM.sol\":826:841  amount1 * SCALE */\n      tag_72\n      swap2\n      swap1\n      tag_64\n      jump\t// in\n    tag_72:\n        /* \"AMMProject/contracts/AMM.sol\":779:842  token1.transferFrom(msg.sender, address(this), amount1 * SCALE) */\n      mload(0x40)\n      dup5\n      0xffffffff\n      and\n      0xe0\n      shl\n      dup2\n      mstore\n      0x04\n      add\n      tag_73\n      swap4\n      swap3\n      swap2\n      swap1\n      tag_66\n      jump\t// in\n    tag_73:\n      0x20\n      mload(0x40)\n      dup1\n      dup4\n      sub\n      dup2\n      0x00\n      dup8\n      gas\n      call\n      iszero\n      dup1\n      iszero\n      tag_75\n      jumpi\n      returndatasize\n      0x00\n      dup1\n      returndatacopy\n      revert(0x00, returndatasize)\n    tag_75:\n      pop\n      pop\n      pop\n      pop\n      mload(0x40)\n      returndatasize\n      not(0x1f)\n      0x1f\n      dup3\n      add\n      and\n      dup3\n      add\n      dup1\n      0x40\n      mstore\n      pop\n      dup2\n      add\n      swap1\n      tag_76\n      swap2\n      swap1\n      tag_70\n      jump\t// in\n    tag_76:\n      pop\n        /* \"AMMProject/contracts/AMM.sol\":380:381  3 */\n      0x03\n        /* \"AMMProject/contracts/AMM.sol\":419:421  10 */\n      0x0a\n        /* \"AMMProject/contracts/AMM.sol\":419:433  10 ** DECIMALS */\n      tag_77\n      swap2\n      swap1\n      tag_52\n      jump\t// in\n    tag_77:\n        /* \"AMMProject/contracts/AMM.sol\":864:871  amount0 */\n      dup3\n        /* \"AMMProject/contracts/AMM.sol\":864:879  amount0 * SCALE */\n      tag_78\n      swap2\n      swap1\n      tag_64\n      jump\t// in\n    tag_78:\n        /* \"AMMProject/contracts/AMM.sol\":852:860  reserve0 */\n      0x02\n      0x00\n        /* \"AMMProject/contracts/AMM.sol\":852:879  reserve0 += amount0 * SCALE */\n      dup3\n      dup3\n      sload\n      tag_79\n      swap2\n      swap1\n      tag_80\n      jump\t// in\n    tag_79:\n      swap3\n      pop\n      pop\n      dup2\n      swap1\n      sstore\n      pop\n        /* \"AMMProject/contracts/AMM.sol\":380:381  3 */\n      0x03\n        /* \"AMMProject/contracts/AMM.sol\":419:421  10 */\n      0x0a\n        /* \"AMMProject/contracts/AMM.sol\":419:433  10 ** DECIMALS */\n      tag_81\n      swap2\n      swap1\n      tag_52\n      jump\t// in\n    tag_81:\n        /* \"AMMProject/contracts/AMM.sol\":901:908  amount1 */\n      dup2\n        /* \"AMMProject/contracts/AMM.sol\":901:916  amount1 * SCALE */\n      tag_82\n      swap2\n      swap1\n      tag_64\n      jump\t// in\n    tag_82:\n        /* \"AMMProject/contracts/AMM.sol\":889:897  reserve1 */\n      0x03\n      0x00\n        /* \"AMMProject/contracts/AMM.sol\":889:916  reserve1 += amount1 * SCALE */\n      dup3\n      dup3\n      sload\n      tag_83\n      swap2\n      swap1\n      tag_80\n      jump\t// in\n    tag_83:\n      swap3\n      pop\n      pop\n      dup2\n      swap1\n      sstore\n      pop\n        /* \"AMMProject/contracts/AMM.sol\":567:923  function addLiquidity(uint256 amount0, uint256 amount1) external {... */\n      pop\n      pop\n      jump\t// out\n        /* \"AMMProject/contracts/AMM.sol\":259:279  uint256 public price */\n    tag_38:\n      sload(0x04)\n      dup2\n      jump\t// out\n        /* \"AMMProject/contracts/AMM.sol\":175:195  IERC20 public token1 */\n    tag_41:\n      0x01\n      0x00\n      swap1\n      sload\n      swap1\n      0x0100\n      exp\n      swap1\n      div\n      0xffffffffffffffffffffffffffffffffffffffff\n      and\n      dup2\n      jump\t// out\n        /* \"AMMProject/contracts/AMM.sol\":3120:3349  function setExchangeRate(uint256 targetPrice) external {... */\n    tag_46:\n        /* \"AMMProject/contracts/AMM.sol\":3207:3208  0 */\n      0x00\n        /* \"AMMProject/contracts/AMM.sol\":3193:3204  targetPrice */\n      dup2\n        /* \"AMMProject/contracts/AMM.sol\":3193:3208  targetPrice > 0 */\n      gt\n        /* \"AMMProject/contracts/AMM.sol\":3185:3233  require(targetPrice > 0, \"Invalid target price\") */\n      tag_85\n      jumpi\n      mload(0x40)\n      0x08c379a000000000000000000000000000000000000000000000000000000000\n      dup2\n      mstore\n      0x04\n      add\n      tag_86\n      swap1\n      tag_87\n      jump\t// in\n    tag_86:\n      mload(0x40)\n      dup1\n      swap2\n      sub\n      swap1\n      revert\n    tag_85:\n        /* \"AMMProject/contracts/AMM.sol\":3243:3259  uint256 oldPrice */\n      0x00\n        /* \"AMMProject/contracts/AMM.sol\":3262:3267  price */\n      sload(0x04)\n        /* \"AMMProject/contracts/AMM.sol\":3243:3267  uint256 oldPrice = price */\n      swap1\n      pop\n        /* \"AMMProject/contracts/AMM.sol\":380:381  3 */\n      0x03\n        /* \"AMMProject/contracts/AMM.sol\":419:421  10 */\n      0x0a\n        /* \"AMMProject/contracts/AMM.sol\":419:433  10 ** DECIMALS */\n      tag_88\n      swap2\n      swap1\n      tag_52\n      jump\t// in\n    tag_88:\n        /* \"AMMProject/contracts/AMM.sol\":3285:3296  targetPrice */\n      dup3\n        /* \"AMMProject/contracts/AMM.sol\":3285:3304  targetPrice * SCALE */\n      tag_89\n      swap2\n      swap1\n      tag_64\n      jump\t// in\n    tag_89:\n        /* \"AMMProject/contracts/AMM.sol\":3277:3282  price */\n      0x04\n        /* \"AMMProject/contracts/AMM.sol\":3277:3304  price = targetPrice * SCALE */\n      dup2\n      swap1\n      sstore\n      pop\n        /* \"AMMProject/contracts/AMM.sol\":3314:3342  balancePool(oldPrice, price) */\n      tag_90\n        /* \"AMMProject/contracts/AMM.sol\":3326:3334  oldPrice */\n      dup2\n        /* \"AMMProject/contracts/AMM.sol\":3336:3341  price */\n      sload(0x04)\n        /* \"AMMProject/contracts/AMM.sol\":3314:3325  balancePool */\n      tag_91\n        /* \"AMMProject/contracts/AMM.sol\":3314:3342  balancePool(oldPrice, price) */\n      jump\t// in\n    tag_90:\n        /* \"AMMProject/contracts/AMM.sol\":3175:3349  {... */\n      pop\n        /* \"AMMProject/contracts/AMM.sol\":3120:3349  function setExchangeRate(uint256 targetPrice) external {... */\n      pop\n      jump\t// out\n        /* \"AMMProject/contracts/AMM.sol\":387:433  uint256 public constant SCALE = 10 ** DECIMALS */\n    tag_48:\n        /* \"AMMProject/contracts/AMM.sol\":380:381  3 */\n      0x03\n        /* \"AMMProject/contracts/AMM.sol\":419:421  10 */\n      0x0a\n        /* \"AMMProject/contracts/AMM.sol\":419:433  10 ** DECIMALS */\n      tag_92\n      swap2\n      swap1\n      tag_52\n      jump\t// in\n    tag_92:\n        /* \"AMMProject/contracts/AMM.sol\":387:433  uint256 public constant SCALE = 10 ** DECIMALS */\n      dup2\n      jump\t// out\n        /* \"AMMProject/contracts/AMM.sol\":3355:3906  function balancePool(uint256 oldPrice, uint256 newPrice) internal {... */\n    tag_91:\n        /* \"AMMProject/contracts/AMM.sol\":3431:3454  uint256 desiredReserve1 */\n      0x00\n        /* \"AMMProject/contracts/AMM.sol\":3457:3513  sqrt((reserve0 * oldPrice * newPrice) / (SCALE * SCALE)) */\n      tag_94\n        /* \"AMMProject/contracts/AMM.sol\":380:381  3 */\n      0x03\n        /* \"AMMProject/contracts/AMM.sol\":419:421  10 */\n      0x0a\n        /* \"AMMProject/contracts/AMM.sol\":419:433  10 ** DECIMALS */\n      tag_95\n      swap2\n      swap1\n      tag_52\n      jump\t// in\n    tag_95:\n        /* \"AMMProject/contracts/AMM.sol\":380:381  3 */\n      0x03\n        /* \"AMMProject/contracts/AMM.sol\":419:421  10 */\n      0x0a\n        /* \"AMMProject/contracts/AMM.sol\":419:433  10 ** DECIMALS */\n      tag_96\n      swap2\n      swap1\n      tag_52\n      jump\t// in\n    tag_96:\n        /* \"AMMProject/contracts/AMM.sol\":3498:3511  SCALE * SCALE */\n      tag_97\n      swap2\n      swap1\n      tag_64\n      jump\t// in\n    tag_97:\n        /* \"AMMProject/contracts/AMM.sol\":3485:3493  newPrice */\n      dup4\n        /* \"AMMProject/contracts/AMM.sol\":3474:3482  oldPrice */\n      dup6\n        /* \"AMMProject/contracts/AMM.sol\":3463:3471  reserve0 */\n      sload(0x02)\n        /* \"AMMProject/contracts/AMM.sol\":3463:3482  reserve0 * oldPrice */\n      tag_98\n      swap2\n      swap1\n      tag_64\n      jump\t// in\n    tag_98:\n        /* \"AMMProject/contracts/AMM.sol\":3463:3493  reserve0 * oldPrice * newPrice */\n      tag_99\n      swap2\n      swap1\n      tag_64\n      jump\t// in\n    tag_99:\n        /* \"AMMProject/contracts/AMM.sol\":3462:3512  (reserve0 * oldPrice * newPrice) / (SCALE * SCALE) */\n      tag_100\n      swap2\n      swap1\n      tag_54\n      jump\t// in\n    tag_100:\n        /* \"AMMProject/contracts/AMM.sol\":3457:3461  sqrt */\n      tag_101\n        /* \"AMMProject/contracts/AMM.sol\":3457:3513  sqrt((reserve0 * oldPrice * newPrice) / (SCALE * SCALE)) */\n      jump\t// in\n    tag_94:\n        /* \"AMMProject/contracts/AMM.sol\":3431:3513  uint256 desiredReserve1 = sqrt((reserve0 * oldPrice * newPrice) / (SCALE * SCALE)) */\n      swap1\n      pop\n        /* \"AMMProject/contracts/AMM.sol\":3523:3546  uint256 desiredReserve0 */\n      0x00\n        /* \"AMMProject/contracts/AMM.sol\":3573:3588  desiredReserve1 */\n      dup2\n        /* \"AMMProject/contracts/AMM.sol\":3561:3569  reserve1 */\n      sload(0x03)\n        /* \"AMMProject/contracts/AMM.sol\":3550:3558  reserve0 */\n      sload(0x02)\n        /* \"AMMProject/contracts/AMM.sol\":3550:3569  reserve0 * reserve1 */\n      tag_102\n      swap2\n      swap1\n      tag_64\n      jump\t// in\n    tag_102:\n        /* \"AMMProject/contracts/AMM.sol\":3549:3588  (reserve0 * reserve1) / desiredReserve1 */\n      tag_103\n      swap2\n      swap1\n      tag_54\n      jump\t// in\n    tag_103:\n        /* \"AMMProject/contracts/AMM.sol\":3523:3588  uint256 desiredReserve0 = (reserve0 * reserve1) / desiredReserve1 */\n      swap1\n      pop\n        /* \"AMMProject/contracts/AMM.sol\":3629:3637  reserve0 */\n      sload(0x02)\n        /* \"AMMProject/contracts/AMM.sol\":3611:3626  desiredReserve0 */\n      dup2\n        /* \"AMMProject/contracts/AMM.sol\":3611:3637  desiredReserve0 > reserve0 */\n      gt\n        /* \"AMMProject/contracts/AMM.sol\":3607:3900  if (desiredReserve0 > reserve0) {... */\n      iszero\n      tag_104\n      jumpi\n        /* \"AMMProject/contracts/AMM.sol\":3653:3673  uint256 amountToSwap */\n      0x00\n        /* \"AMMProject/contracts/AMM.sol\":380:381  3 */\n      0x03\n        /* \"AMMProject/contracts/AMM.sol\":419:421  10 */\n      0x0a\n        /* \"AMMProject/contracts/AMM.sol\":419:433  10 ** DECIMALS */\n      tag_105\n      swap2\n      swap1\n      tag_52\n      jump\t// in\n    tag_105:\n        /* \"AMMProject/contracts/AMM.sol\":3695:3703  reserve0 */\n      sload(0x02)\n        /* \"AMMProject/contracts/AMM.sol\":3677:3692  desiredReserve0 */\n      dup4\n        /* \"AMMProject/contracts/AMM.sol\":3677:3703  desiredReserve0 - reserve0 */\n      tag_106\n      swap2\n      swap1\n      tag_107\n      jump\t// in\n    tag_106:\n        /* \"AMMProject/contracts/AMM.sol\":3676:3712  (desiredReserve0 - reserve0) / SCALE */\n      tag_108\n      swap2\n      swap1\n      tag_54\n      jump\t// in\n    tag_108:\n        /* \"AMMProject/contracts/AMM.sol\":3653:3712  uint256 amountToSwap = (desiredReserve0 - reserve0) / SCALE */\n      swap1\n      pop\n        /* \"AMMProject/contracts/AMM.sol\":3726:3755  swap(0, int256(amountToSwap)) */\n      tag_109\n        /* \"AMMProject/contracts/AMM.sol\":3731:3732  0 */\n      0x00\n        /* \"AMMProject/contracts/AMM.sol\":3741:3753  amountToSwap */\n      dup3\n        /* \"AMMProject/contracts/AMM.sol\":3726:3730  swap */\n      tag_110\n        /* \"AMMProject/contracts/AMM.sol\":3726:3755  swap(0, int256(amountToSwap)) */\n      jump\t// in\n    tag_109:\n        /* \"AMMProject/contracts/AMM.sol\":3639:3766  {... */\n      pop\n        /* \"AMMProject/contracts/AMM.sol\":3607:3900  if (desiredReserve0 > reserve0) {... */\n      jump(tag_111)\n    tag_104:\n        /* \"AMMProject/contracts/AMM.sol\":3786:3806  uint256 amountToSwap */\n      0x00\n        /* \"AMMProject/contracts/AMM.sol\":380:381  3 */\n      0x03\n        /* \"AMMProject/contracts/AMM.sol\":419:421  10 */\n      0x0a\n        /* \"AMMProject/contracts/AMM.sol\":419:433  10 ** DECIMALS */\n      tag_112\n      swap2\n      swap1\n      tag_52\n      jump\t// in\n    tag_112:\n        /* \"AMMProject/contracts/AMM.sol\":3821:3836  desiredReserve0 */\n      dup3\n        /* \"AMMProject/contracts/AMM.sol\":3810:3818  reserve0 */\n      sload(0x02)\n        /* \"AMMProject/contracts/AMM.sol\":3810:3836  reserve0 - desiredReserve0 */\n      tag_113\n      swap2\n      swap1\n      tag_107\n      jump\t// in\n    tag_113:\n        /* \"AMMProject/contracts/AMM.sol\":3809:3845  (reserve0 - desiredReserve0) / SCALE */\n      tag_114\n      swap2\n      swap1\n      tag_54\n      jump\t// in\n    tag_114:\n        /* \"AMMProject/contracts/AMM.sol\":3786:3845  uint256 amountToSwap = (reserve0 - desiredReserve0) / SCALE */\n      swap1\n      pop\n        /* \"AMMProject/contracts/AMM.sol\":3859:3889  swap(0, -int256(amountToSwap)) */\n      tag_115\n        /* \"AMMProject/contracts/AMM.sol\":3864:3865  0 */\n      0x00\n        /* \"AMMProject/contracts/AMM.sol\":3875:3887  amountToSwap */\n      dup3\n        /* \"AMMProject/contracts/AMM.sol\":3867:3888  -int256(amountToSwap) */\n      tag_116\n      swap1\n      tag_117\n      jump\t// in\n    tag_116:\n        /* \"AMMProject/contracts/AMM.sol\":3859:3863  swap */\n      tag_110\n        /* \"AMMProject/contracts/AMM.sol\":3859:3889  swap(0, -int256(amountToSwap)) */\n      jump\t// in\n    tag_115:\n        /* \"AMMProject/contracts/AMM.sol\":3772:3900  {... */\n      pop\n        /* \"AMMProject/contracts/AMM.sol\":3607:3900  if (desiredReserve0 > reserve0) {... */\n    tag_111:\n        /* \"AMMProject/contracts/AMM.sol\":3421:3906  {... */\n      pop\n      pop\n        /* \"AMMProject/contracts/AMM.sol\":3355:3906  function balancePool(uint256 oldPrice, uint256 newPrice) internal {... */\n      pop\n      pop\n      jump\t// out\n        /* \"AMMProject/contracts/AMM.sol\":3912:4204  function sqrt(uint y) internal pure returns (uint z) {... */\n    tag_101:\n        /* \"AMMProject/contracts/AMM.sol\":3957:3963  uint z */\n      0x00\n        /* \"AMMProject/contracts/AMM.sol\":3983:3984  3 */\n      0x03\n        /* \"AMMProject/contracts/AMM.sol\":3979:3980  y */\n      dup3\n        /* \"AMMProject/contracts/AMM.sol\":3979:3984  y > 3 */\n      gt\n        /* \"AMMProject/contracts/AMM.sol\":3975:4198  if (y > 3) {... */\n      iszero\n      tag_119\n      jumpi\n        /* \"AMMProject/contracts/AMM.sol\":4004:4005  y */\n      dup2\n        /* \"AMMProject/contracts/AMM.sol\":4000:4005  z = y */\n      swap1\n      pop\n        /* \"AMMProject/contracts/AMM.sol\":4019:4025  uint x */\n      0x00\n        /* \"AMMProject/contracts/AMM.sol\":4036:4037  1 */\n      0x01\n        /* \"AMMProject/contracts/AMM.sol\":4032:4033  2 */\n      0x02\n        /* \"AMMProject/contracts/AMM.sol\":4028:4029  y */\n      dup5\n        /* \"AMMProject/contracts/AMM.sol\":4028:4033  y / 2 */\n      tag_120\n      swap2\n      swap1\n      tag_54\n      jump\t// in\n    tag_120:\n        /* \"AMMProject/contracts/AMM.sol\":4028:4037  y / 2 + 1 */\n      tag_121\n      swap2\n      swap1\n      tag_80\n      jump\t// in\n    tag_121:\n        /* \"AMMProject/contracts/AMM.sol\":4019:4037  uint x = y / 2 + 1 */\n      swap1\n      pop\n        /* \"AMMProject/contracts/AMM.sol\":4051:4140  while (x < z) {... */\n    tag_122:\n        /* \"AMMProject/contracts/AMM.sol\":4062:4063  z */\n      dup2\n        /* \"AMMProject/contracts/AMM.sol\":4058:4059  x */\n      dup2\n        /* \"AMMProject/contracts/AMM.sol\":4058:4063  x < z */\n      lt\n        /* \"AMMProject/contracts/AMM.sol\":4051:4140  while (x < z) {... */\n      iszero\n      tag_123\n      jumpi\n        /* \"AMMProject/contracts/AMM.sol\":4087:4088  x */\n      dup1\n        /* \"AMMProject/contracts/AMM.sol\":4083:4088  z = x */\n      swap2\n      pop\n        /* \"AMMProject/contracts/AMM.sol\":4124:4125  2 */\n      0x02\n        /* \"AMMProject/contracts/AMM.sol\":4119:4120  x */\n      dup2\n        /* \"AMMProject/contracts/AMM.sol\":4115:4116  x */\n      dup3\n        /* \"AMMProject/contracts/AMM.sol\":4111:4112  y */\n      dup6\n        /* \"AMMProject/contracts/AMM.sol\":4111:4116  y / x */\n      tag_124\n      swap2\n      swap1\n      tag_54\n      jump\t// in\n    tag_124:\n        /* \"AMMProject/contracts/AMM.sol\":4111:4120  y / x + x */\n      tag_125\n      swap2\n      swap1\n      tag_80\n      jump\t// in\n    tag_125:\n        /* \"AMMProject/contracts/AMM.sol\":4110:4125  (y / x + x) / 2 */\n      tag_126\n      swap2\n      swap1\n      tag_54\n      jump\t// in\n    tag_126:\n        /* \"AMMProject/contracts/AMM.sol\":4106:4125  x = (y / x + x) / 2 */\n      swap1\n      pop\n        /* \"AMMProject/contracts/AMM.sol\":4051:4140  while (x < z) {... */\n      jump(tag_122)\n    tag_123:\n        /* \"AMMProject/contracts/AMM.sol\":3986:4150  {... */\n      pop\n        /* \"AMMProject/contracts/AMM.sol\":3975:4198  if (y > 3) {... */\n      jump(tag_127)\n    tag_119:\n        /* \"AMMProject/contracts/AMM.sol\":4165:4166  0 */\n      0x00\n        /* \"AMMProject/contracts/AMM.sol\":4160:4161  y */\n      dup3\n        /* \"AMMProject/contracts/AMM.sol\":4160:4166  y != 0 */\n      eq\n        /* \"AMMProject/contracts/AMM.sol\":4156:4198  if (y != 0) {... */\n      tag_128\n      jumpi\n        /* \"AMMProject/contracts/AMM.sol\":4186:4187  1 */\n      0x01\n        /* \"AMMProject/contracts/AMM.sol\":4182:4187  z = 1 */\n      swap1\n      pop\n        /* \"AMMProject/contracts/AMM.sol\":4156:4198  if (y != 0) {... */\n    tag_128:\n        /* \"AMMProject/contracts/AMM.sol\":3975:4198  if (y > 3) {... */\n    tag_127:\n        /* \"AMMProject/contracts/AMM.sol\":3912:4204  function sqrt(uint y) internal pure returns (uint z) {... */\n      swap2\n      swap1\n      pop\n      jump\t// out\n        /* \"AMMProject/contracts/AMM.sol\":929:2984  function swap(int8 tokenIndex, int256 amount) internal {... */\n    tag_110:\n        /* \"AMMProject/contracts/AMM.sol\":1016:1017  0 */\n      0x00\n        /* \"AMMProject/contracts/AMM.sol\":1002:1012  tokenIndex */\n      dup3\n        /* \"AMMProject/contracts/AMM.sol\":1002:1017  tokenIndex == 0 */\n      0x00\n      signextend\n      eq\n        /* \"AMMProject/contracts/AMM.sol\":1002:1036  tokenIndex == 0 || tokenIndex == 1 */\n      dup1\n      tag_130\n      jumpi\n      pop\n        /* \"AMMProject/contracts/AMM.sol\":1035:1036  1 */\n      0x01\n        /* \"AMMProject/contracts/AMM.sol\":1021:1031  tokenIndex */\n      dup3\n        /* \"AMMProject/contracts/AMM.sol\":1021:1036  tokenIndex == 1 */\n      0x00\n      signextend\n      eq\n        /* \"AMMProject/contracts/AMM.sol\":1002:1036  tokenIndex == 0 || tokenIndex == 1 */\n    tag_130:\n        /* \"AMMProject/contracts/AMM.sol\":994:1060  require(tokenIndex == 0 || tokenIndex == 1, \"Invalid token index\") */\n      tag_131\n      jumpi\n      mload(0x40)\n      0x08c379a000000000000000000000000000000000000000000000000000000000\n      dup2\n      mstore\n      0x04\n      add\n      tag_132\n      swap1\n      tag_133\n      jump\t// in\n    tag_132:\n      mload(0x40)\n      dup1\n      swap2\n      sub\n      swap1\n      revert\n    tag_131:\n        /* \"AMMProject/contracts/AMM.sol\":1088:1089  0 */\n      0x00\n        /* \"AMMProject/contracts/AMM.sol\":1078:1084  amount */\n      dup2\n        /* \"AMMProject/contracts/AMM.sol\":1078:1089  amount != 0 */\n      sub\n        /* \"AMMProject/contracts/AMM.sol\":1070:1108  require(amount != 0, \"Invalid amount\") */\n      tag_134\n      jumpi\n      mload(0x40)\n      0x08c379a000000000000000000000000000000000000000000000000000000000\n      dup2\n      mstore\n      0x04\n      add\n      tag_135\n      swap1\n      tag_136\n      jump\t// in\n    tag_135:\n      mload(0x40)\n      dup1\n      swap2\n      sub\n      swap1\n      revert\n    tag_134:\n        /* \"AMMProject/contracts/AMM.sol\":1137:1138  0 */\n      0x00\n        /* \"AMMProject/contracts/AMM.sol\":1123:1133  tokenIndex */\n      dup3\n        /* \"AMMProject/contracts/AMM.sol\":1123:1138  tokenIndex == 0 */\n      0x00\n      signextend\n      sub\n        /* \"AMMProject/contracts/AMM.sol\":1119:2978  if (tokenIndex == 0) {... */\n      tag_137\n      jumpi\n        /* \"AMMProject/contracts/AMM.sol\":1167:1168  0 */\n      0x00\n        /* \"AMMProject/contracts/AMM.sol\":1158:1164  amount */\n      dup2\n        /* \"AMMProject/contracts/AMM.sol\":1158:1168  amount > 0 */\n      sgt\n        /* \"AMMProject/contracts/AMM.sol\":1154:2046  if (amount > 0) {... */\n      iszero\n      tag_138\n      jumpi\n        /* \"AMMProject/contracts/AMM.sol\":1188:1205  uint256 amount0In */\n      0x00\n        /* \"AMMProject/contracts/AMM.sol\":380:381  3 */\n      0x03\n        /* \"AMMProject/contracts/AMM.sol\":419:421  10 */\n      0x0a\n        /* \"AMMProject/contracts/AMM.sol\":419:433  10 ** DECIMALS */\n      tag_139\n      swap2\n      swap1\n      tag_52\n      jump\t// in\n    tag_139:\n        /* \"AMMProject/contracts/AMM.sol\":1216:1222  amount */\n      dup3\n        /* \"AMMProject/contracts/AMM.sol\":1208:1231  uint256(amount) * SCALE */\n      tag_140\n      swap2\n      swap1\n      tag_64\n      jump\t// in\n    tag_140:\n        /* \"AMMProject/contracts/AMM.sol\":1188:1231  uint256 amount0In = uint256(amount) * SCALE */\n      swap1\n      pop\n        /* \"AMMProject/contracts/AMM.sol\":1249:1267  uint256 amount1Out */\n      0x00\n        /* \"AMMProject/contracts/AMM.sol\":380:381  3 */\n      0x03\n        /* \"AMMProject/contracts/AMM.sol\":419:421  10 */\n      0x0a\n        /* \"AMMProject/contracts/AMM.sol\":419:433  10 ** DECIMALS */\n      tag_141\n      swap2\n      swap1\n      tag_52\n      jump\t// in\n    tag_141:\n        /* \"AMMProject/contracts/AMM.sol\":1283:1288  price */\n      sload(0x04)\n        /* \"AMMProject/contracts/AMM.sol\":1271:1280  amount0In */\n      dup4\n        /* \"AMMProject/contracts/AMM.sol\":1271:1288  amount0In * price */\n      tag_142\n      swap2\n      swap1\n      tag_64\n      jump\t// in\n    tag_142:\n        /* \"AMMProject/contracts/AMM.sol\":1270:1297  (amount0In * price) / SCALE */\n      tag_143\n      swap2\n      swap1\n      tag_54\n      jump\t// in\n    tag_143:\n        /* \"AMMProject/contracts/AMM.sol\":1249:1297  uint256 amount1Out = (amount0In * price) / SCALE */\n      swap1\n      pop\n        /* \"AMMProject/contracts/AMM.sol\":1337:1345  reserve1 */\n      sload(0x03)\n        /* \"AMMProject/contracts/AMM.sol\":1323:1333  amount1Out */\n      dup2\n        /* \"AMMProject/contracts/AMM.sol\":1323:1345  amount1Out <= reserve1 */\n      gt\n      iszero\n        /* \"AMMProject/contracts/AMM.sol\":1315:1370  require(amount1Out <= reserve1, \"Not enough liquidity\") */\n      tag_144\n      jumpi\n      mload(0x40)\n      0x08c379a000000000000000000000000000000000000000000000000000000000\n      dup2\n      mstore\n      0x04\n      add\n      tag_145\n      swap1\n      tag_146\n      jump\t// in\n    tag_145:\n      mload(0x40)\n      dup1\n      swap2\n      sub\n      swap1\n      revert\n    tag_144:\n        /* \"AMMProject/contracts/AMM.sol\":1388:1394  token0 */\n      0x00\n      dup1\n      sload\n      swap1\n      0x0100\n      exp\n      swap1\n      div\n      0xffffffffffffffffffffffffffffffffffffffff\n      and\n        /* \"AMMProject/contracts/AMM.sol\":1388:1407  token0.transferFrom */\n      0xffffffffffffffffffffffffffffffffffffffff\n      and\n      0x23b872dd\n        /* \"AMMProject/contracts/AMM.sol\":1408:1418  msg.sender */\n      caller\n        /* \"AMMProject/contracts/AMM.sol\":1428:1432  this */\n      address\n        /* \"AMMProject/contracts/AMM.sol\":1435:1444  amount0In */\n      dup6\n        /* \"AMMProject/contracts/AMM.sol\":1388:1445  token0.transferFrom(msg.sender, address(this), amount0In) */\n      mload(0x40)\n      dup5\n      0xffffffff\n      and\n      0xe0\n      shl\n      dup2\n      mstore\n      0x04\n      add\n      tag_147\n      swap4\n      swap3\n      swap2\n      swap1\n      tag_66\n      jump\t// in\n    tag_147:\n      0x20\n      mload(0x40)\n      dup1\n      dup4\n      sub\n      dup2\n      0x00\n      dup8\n      gas\n      call\n      iszero\n      dup1\n      iszero\n      tag_149\n      jumpi\n      returndatasize\n      0x00\n      dup1\n      returndatacopy\n      revert(0x00, returndatasize)\n    tag_149:\n      pop\n      pop\n      pop\n      pop\n      mload(0x40)\n      returndatasize\n      not(0x1f)\n      0x1f\n      dup3\n      add\n      and\n      dup3\n      add\n      dup1\n      0x40\n      mstore\n      pop\n      dup2\n      add\n      swap1\n      tag_150\n      swap2\n      swap1\n      tag_70\n      jump\t// in\n    tag_150:\n      pop\n        /* \"AMMProject/contracts/AMM.sol\":1463:1469  token1 */\n      0x01\n      0x00\n      swap1\n      sload\n      swap1\n      0x0100\n      exp\n      swap1\n      div\n      0xffffffffffffffffffffffffffffffffffffffff\n      and\n        /* \"AMMProject/contracts/AMM.sol\":1463:1478  token1.transfer */\n      0xffffffffffffffffffffffffffffffffffffffff\n      and\n      0xa9059cbb\n        /* \"AMMProject/contracts/AMM.sol\":1479:1489  msg.sender */\n      caller\n        /* \"AMMProject/contracts/AMM.sol\":380:381  3 */\n      0x03\n        /* \"AMMProject/contracts/AMM.sol\":419:421  10 */\n      0x0a\n        /* \"AMMProject/contracts/AMM.sol\":419:433  10 ** DECIMALS */\n      tag_151\n      swap2\n      swap1\n      tag_52\n      jump\t// in\n    tag_151:\n        /* \"AMMProject/contracts/AMM.sol\":1491:1501  amount1Out */\n      dup5\n        /* \"AMMProject/contracts/AMM.sol\":1491:1509  amount1Out / SCALE */\n      tag_152\n      swap2\n      swap1\n      tag_54\n      jump\t// in\n    tag_152:\n        /* \"AMMProject/contracts/AMM.sol\":1463:1510  token1.transfer(msg.sender, amount1Out / SCALE) */\n      mload(0x40)\n      dup4\n      0xffffffff\n      and\n      0xe0\n      shl\n      dup2\n      mstore\n      0x04\n      add\n      tag_153\n      swap3\n      swap2\n      swap1\n      tag_154\n      jump\t// in\n    tag_153:\n      0x20\n      mload(0x40)\n      dup1\n      dup4\n      sub\n      dup2\n      0x00\n      dup8\n      gas\n      call\n      iszero\n      dup1\n      iszero\n      tag_156\n      jumpi\n      returndatasize\n      0x00\n      dup1\n      returndatacopy\n      revert(0x00, returndatasize)\n    tag_156:\n      pop\n      pop\n      pop\n      pop\n      mload(0x40)\n      returndatasize\n      not(0x1f)\n      0x1f\n      dup3\n      add\n      and\n      dup3\n      add\n      dup1\n      0x40\n      mstore\n      pop\n      dup2\n      add\n      swap1\n      tag_157\n      swap2\n      swap1\n      tag_70\n      jump\t// in\n    tag_157:\n      pop\n        /* \"AMMProject/contracts/AMM.sol\":1540:1549  amount0In */\n      dup2\n        /* \"AMMProject/contracts/AMM.sol\":1528:1536  reserve0 */\n      0x02\n      0x00\n        /* \"AMMProject/contracts/AMM.sol\":1528:1549  reserve0 += amount0In */\n      dup3\n      dup3\n      sload\n      tag_158\n      swap2\n      swap1\n      tag_80\n      jump\t// in\n    tag_158:\n      swap3\n      pop\n      pop\n      dup2\n      swap1\n      sstore\n      pop\n        /* \"AMMProject/contracts/AMM.sol\":1579:1589  amount1Out */\n      dup1\n        /* \"AMMProject/contracts/AMM.sol\":1567:1575  reserve1 */\n      0x03\n      0x00\n        /* \"AMMProject/contracts/AMM.sol\":1567:1589  reserve1 -= amount1Out */\n      dup3\n      dup3\n      sload\n      tag_159\n      swap2\n      swap1\n      tag_107\n      jump\t// in\n    tag_159:\n      swap3\n      pop\n      pop\n      dup2\n      swap1\n      sstore\n      pop\n        /* \"AMMProject/contracts/AMM.sol\":1170:1604  {... */\n      pop\n      pop\n        /* \"AMMProject/contracts/AMM.sol\":1154:2046  if (amount > 0) {... */\n      jump(tag_160)\n    tag_138:\n        /* \"AMMProject/contracts/AMM.sol\":1628:1646  uint256 amount0Out */\n      0x00\n        /* \"AMMProject/contracts/AMM.sol\":380:381  3 */\n      0x03\n        /* \"AMMProject/contracts/AMM.sol\":419:421  10 */\n      0x0a\n        /* \"AMMProject/contracts/AMM.sol\":419:433  10 ** DECIMALS */\n      tag_161\n      swap2\n      swap1\n      tag_52\n      jump\t// in\n    tag_161:\n        /* \"AMMProject/contracts/AMM.sol\":1658:1664  amount */\n      dup3\n        /* \"AMMProject/contracts/AMM.sol\":1657:1664  -amount */\n      tag_162\n      swap1\n      tag_117\n      jump\t// in\n    tag_162:\n        /* \"AMMProject/contracts/AMM.sol\":1649:1673  uint256(-amount) * SCALE */\n      tag_163\n      swap2\n      swap1\n      tag_64\n      jump\t// in\n    tag_163:\n        /* \"AMMProject/contracts/AMM.sol\":1628:1673  uint256 amount0Out = uint256(-amount) * SCALE */\n      swap1\n      pop\n        /* \"AMMProject/contracts/AMM.sol\":1691:1708  uint256 amount1In */\n      0x00\n        /* \"AMMProject/contracts/AMM.sol\":380:381  3 */\n      0x03\n        /* \"AMMProject/contracts/AMM.sol\":419:421  10 */\n      0x0a\n        /* \"AMMProject/contracts/AMM.sol\":419:433  10 ** DECIMALS */\n      tag_164\n      swap2\n      swap1\n      tag_52\n      jump\t// in\n    tag_164:\n        /* \"AMMProject/contracts/AMM.sol\":1725:1730  price */\n      sload(0x04)\n        /* \"AMMProject/contracts/AMM.sol\":1712:1722  amount0Out */\n      dup4\n        /* \"AMMProject/contracts/AMM.sol\":1712:1730  amount0Out * price */\n      tag_165\n      swap2\n      swap1\n      tag_64\n      jump\t// in\n    tag_165:\n        /* \"AMMProject/contracts/AMM.sol\":1711:1739  (amount0Out * price) / SCALE */\n      tag_166\n      swap2\n      swap1\n      tag_54\n      jump\t// in\n    tag_166:\n        /* \"AMMProject/contracts/AMM.sol\":1691:1739  uint256 amount1In = (amount0Out * price) / SCALE */\n      swap1\n      pop\n        /* \"AMMProject/contracts/AMM.sol\":1779:1787  reserve0 */\n      sload(0x02)\n        /* \"AMMProject/contracts/AMM.sol\":1765:1775  amount0Out */\n      dup3\n        /* \"AMMProject/contracts/AMM.sol\":1765:1787  amount0Out <= reserve0 */\n      gt\n      iszero\n        /* \"AMMProject/contracts/AMM.sol\":1757:1812  require(amount0Out <= reserve0, \"Not enough liquidity\") */\n      tag_167\n      jumpi\n      mload(0x40)\n      0x08c379a000000000000000000000000000000000000000000000000000000000\n      dup2\n      mstore\n      0x04\n      add\n      tag_168\n      swap1\n      tag_146\n      jump\t// in\n    tag_168:\n      mload(0x40)\n      dup1\n      swap2\n      sub\n      swap1\n      revert\n    tag_167:\n        /* \"AMMProject/contracts/AMM.sol\":1830:1836  token1 */\n      0x01\n      0x00\n      swap1\n      sload\n      swap1\n      0x0100\n      exp\n      swap1\n      div\n      0xffffffffffffffffffffffffffffffffffffffff\n      and\n        /* \"AMMProject/contracts/AMM.sol\":1830:1849  token1.transferFrom */\n      0xffffffffffffffffffffffffffffffffffffffff\n      and\n      0x23b872dd\n        /* \"AMMProject/contracts/AMM.sol\":1850:1860  msg.sender */\n      caller\n        /* \"AMMProject/contracts/AMM.sol\":1870:1874  this */\n      address\n        /* \"AMMProject/contracts/AMM.sol\":1877:1886  amount1In */\n      dup5\n        /* \"AMMProject/contracts/AMM.sol\":1830:1887  token1.transferFrom(msg.sender, address(this), amount1In) */\n      mload(0x40)\n      dup5\n      0xffffffff\n      and\n      0xe0\n      shl\n      dup2\n      mstore\n      0x04\n      add\n      tag_169\n      swap4\n      swap3\n      swap2\n      swap1\n      tag_66\n      jump\t// in\n    tag_169:\n      0x20\n      mload(0x40)\n      dup1\n      dup4\n      sub\n      dup2\n      0x00\n      dup8\n      gas\n      call\n      iszero\n      dup1\n      iszero\n      tag_171\n      jumpi\n      returndatasize\n      0x00\n      dup1\n      returndatacopy\n      revert(0x00, returndatasize)\n    tag_171:\n      pop\n      pop\n      pop\n      pop\n      mload(0x40)\n      returndatasize\n      not(0x1f)\n      0x1f\n      dup3\n      add\n      and\n      dup3\n      add\n      dup1\n      0x40\n      mstore\n      pop\n      dup2\n      add\n      swap1\n      tag_172\n      swap2\n      swap1\n      tag_70\n      jump\t// in\n    tag_172:\n      pop\n        /* \"AMMProject/contracts/AMM.sol\":1905:1911  token0 */\n      0x00\n      dup1\n      sload\n      swap1\n      0x0100\n      exp\n      swap1\n      div\n      0xffffffffffffffffffffffffffffffffffffffff\n      and\n        /* \"AMMProject/contracts/AMM.sol\":1905:1920  token0.transfer */\n      0xffffffffffffffffffffffffffffffffffffffff\n      and\n      0xa9059cbb\n        /* \"AMMProject/contracts/AMM.sol\":1921:1931  msg.sender */\n      caller\n        /* \"AMMProject/contracts/AMM.sol\":380:381  3 */\n      0x03\n        /* \"AMMProject/contracts/AMM.sol\":419:421  10 */\n      0x0a\n        /* \"AMMProject/contracts/AMM.sol\":419:433  10 ** DECIMALS */\n      tag_173\n      swap2\n      swap1\n      tag_52\n      jump\t// in\n    tag_173:\n        /* \"AMMProject/contracts/AMM.sol\":1933:1943  amount0Out */\n      dup6\n        /* \"AMMProject/contracts/AMM.sol\":1933:1951  amount0Out / SCALE */\n      tag_174\n      swap2\n      swap1\n      tag_54\n      jump\t// in\n    tag_174:\n        /* \"AMMProject/contracts/AMM.sol\":1905:1952  token0.transfer(msg.sender, amount0Out / SCALE) */\n      mload(0x40)\n      dup4\n      0xffffffff\n      and\n      0xe0\n      shl\n      dup2\n      mstore\n      0x04\n      add\n      tag_175\n      swap3\n      swap2\n      swap1\n      tag_154\n      jump\t// in\n    tag_175:\n      0x20\n      mload(0x40)\n      dup1\n      dup4\n      sub\n      dup2\n      0x00\n      dup8\n      gas\n      call\n      iszero\n      dup1\n      iszero\n      tag_177\n      jumpi\n      returndatasize\n      0x00\n      dup1\n      returndatacopy\n      revert(0x00, returndatasize)\n    tag_177:\n      pop\n      pop\n      pop\n      pop\n      mload(0x40)\n      returndatasize\n      not(0x1f)\n      0x1f\n      dup3\n      add\n      and\n      dup3\n      add\n      dup1\n      0x40\n      mstore\n      pop\n      dup2\n      add\n      swap1\n      tag_178\n      swap2\n      swap1\n      tag_70\n      jump\t// in\n    tag_178:\n      pop\n        /* \"AMMProject/contracts/AMM.sol\":1982:1991  amount1In */\n      dup1\n        /* \"AMMProject/contracts/AMM.sol\":1970:1978  reserve1 */\n      0x03\n      0x00\n        /* \"AMMProject/contracts/AMM.sol\":1970:1991  reserve1 += amount1In */\n      dup3\n      dup3\n      sload\n      tag_179\n      swap2\n      swap1\n      tag_80\n      jump\t// in\n    tag_179:\n      swap3\n      pop\n      pop\n      dup2\n      swap1\n      sstore\n      pop\n        /* \"AMMProject/contracts/AMM.sol\":2021:2031  amount0Out */\n      dup2\n        /* \"AMMProject/contracts/AMM.sol\":2009:2017  reserve0 */\n      0x02\n      0x00\n        /* \"AMMProject/contracts/AMM.sol\":2009:2031  reserve0 -= amount0Out */\n      dup3\n      dup3\n      sload\n      tag_180\n      swap2\n      swap1\n      tag_107\n      jump\t// in\n    tag_180:\n      swap3\n      pop\n      pop\n      dup2\n      swap1\n      sstore\n      pop\n        /* \"AMMProject/contracts/AMM.sol\":1610:2046  {... */\n      pop\n      pop\n        /* \"AMMProject/contracts/AMM.sol\":1154:2046  if (amount > 0) {... */\n    tag_160:\n        /* \"AMMProject/contracts/AMM.sol\":1119:2978  if (tokenIndex == 0) {... */\n      jump(tag_181)\n    tag_137:\n        /* \"AMMProject/contracts/AMM.sol\":2089:2090  0 */\n      0x00\n        /* \"AMMProject/contracts/AMM.sol\":2080:2086  amount */\n      dup2\n        /* \"AMMProject/contracts/AMM.sol\":2080:2090  amount > 0 */\n      sgt\n        /* \"AMMProject/contracts/AMM.sol\":2076:2968  if (amount > 0) {... */\n      iszero\n      tag_182\n      jumpi\n        /* \"AMMProject/contracts/AMM.sol\":2110:2127  uint256 amount1In */\n      0x00\n        /* \"AMMProject/contracts/AMM.sol\":380:381  3 */\n      0x03\n        /* \"AMMProject/contracts/AMM.sol\":419:421  10 */\n      0x0a\n        /* \"AMMProject/contracts/AMM.sol\":419:433  10 ** DECIMALS */\n      tag_183\n      swap2\n      swap1\n      tag_52\n      jump\t// in\n    tag_183:\n        /* \"AMMProject/contracts/AMM.sol\":2138:2144  amount */\n      dup3\n        /* \"AMMProject/contracts/AMM.sol\":2130:2153  uint256(amount) * SCALE */\n      tag_184\n      swap2\n      swap1\n      tag_64\n      jump\t// in\n    tag_184:\n        /* \"AMMProject/contracts/AMM.sol\":2110:2153  uint256 amount1In = uint256(amount) * SCALE */\n      swap1\n      pop\n        /* \"AMMProject/contracts/AMM.sol\":2171:2189  uint256 amount0Out */\n      0x00\n        /* \"AMMProject/contracts/AMM.sol\":2214:2219  price */\n      sload(0x04)\n        /* \"AMMProject/contracts/AMM.sol\":380:381  3 */\n      0x03\n        /* \"AMMProject/contracts/AMM.sol\":419:421  10 */\n      0x0a\n        /* \"AMMProject/contracts/AMM.sol\":419:433  10 ** DECIMALS */\n      tag_185\n      swap2\n      swap1\n      tag_52\n      jump\t// in\n    tag_185:\n        /* \"AMMProject/contracts/AMM.sol\":2193:2202  amount1In */\n      dup4\n        /* \"AMMProject/contracts/AMM.sol\":2193:2210  amount1In * SCALE */\n      tag_186\n      swap2\n      swap1\n      tag_64\n      jump\t// in\n    tag_186:\n        /* \"AMMProject/contracts/AMM.sol\":2192:2219  (amount1In * SCALE) / price */\n      tag_187\n      swap2\n      swap1\n      tag_54\n      jump\t// in\n    tag_187:\n        /* \"AMMProject/contracts/AMM.sol\":2171:2219  uint256 amount0Out = (amount1In * SCALE) / price */\n      swap1\n      pop\n        /* \"AMMProject/contracts/AMM.sol\":2259:2267  reserve0 */\n      sload(0x02)\n        /* \"AMMProject/contracts/AMM.sol\":2245:2255  amount0Out */\n      dup2\n        /* \"AMMProject/contracts/AMM.sol\":2245:2267  amount0Out <= reserve0 */\n      gt\n      iszero\n        /* \"AMMProject/contracts/AMM.sol\":2237:2292  require(amount0Out <= reserve0, \"Not enough liquidity\") */\n      tag_188\n      jumpi\n      mload(0x40)\n      0x08c379a000000000000000000000000000000000000000000000000000000000\n      dup2\n      mstore\n      0x04\n      add\n      tag_189\n      swap1\n      tag_146\n      jump\t// in\n    tag_189:\n      mload(0x40)\n      dup1\n      swap2\n      sub\n      swap1\n      revert\n    tag_188:\n        /* \"AMMProject/contracts/AMM.sol\":2310:2316  token1 */\n      0x01\n      0x00\n      swap1\n      sload\n      swap1\n      0x0100\n      exp\n      swap1\n      div\n      0xffffffffffffffffffffffffffffffffffffffff\n      and\n        /* \"AMMProject/contracts/AMM.sol\":2310:2329  token1.transferFrom */\n      0xffffffffffffffffffffffffffffffffffffffff\n      and\n      0x23b872dd\n        /* \"AMMProject/contracts/AMM.sol\":2330:2340  msg.sender */\n      caller\n        /* \"AMMProject/contracts/AMM.sol\":2350:2354  this */\n      address\n        /* \"AMMProject/contracts/AMM.sol\":2357:2366  amount1In */\n      dup6\n        /* \"AMMProject/contracts/AMM.sol\":2310:2367  token1.transferFrom(msg.sender, address(this), amount1In) */\n      mload(0x40)\n      dup5\n      0xffffffff\n      and\n      0xe0\n      shl\n      dup2\n      mstore\n      0x04\n      add\n      tag_190\n      swap4\n      swap3\n      swap2\n      swap1\n      tag_66\n      jump\t// in\n    tag_190:\n      0x20\n      mload(0x40)\n      dup1\n      dup4\n      sub\n      dup2\n      0x00\n      dup8\n      gas\n      call\n      iszero\n      dup1\n      iszero\n      tag_192\n      jumpi\n      returndatasize\n      0x00\n      dup1\n      returndatacopy\n      revert(0x00, returndatasize)\n    tag_192:\n      pop\n      pop\n      pop\n      pop\n      mload(0x40)\n      returndatasize\n      not(0x1f)\n      0x1f\n      dup3\n      add\n      and\n      dup3\n      add\n      dup1\n      0x40\n      mstore\n      pop\n      dup2\n      add\n      swap1\n      tag_193\n      swap2\n      swap1\n      tag_70\n      jump\t// in\n    tag_193:\n      pop\n        /* \"AMMProject/contracts/AMM.sol\":2385:2391  token0 */\n      0x00\n      dup1\n      sload\n      swap1\n      0x0100\n      exp\n      swap1\n      div\n      0xffffffffffffffffffffffffffffffffffffffff\n      and\n        /* \"AMMProject/contracts/AMM.sol\":2385:2400  token0.transfer */\n      0xffffffffffffffffffffffffffffffffffffffff\n      and\n      0xa9059cbb\n        /* \"AMMProject/contracts/AMM.sol\":2401:2411  msg.sender */\n      caller\n        /* \"AMMProject/contracts/AMM.sol\":380:381  3 */\n      0x03\n        /* \"AMMProject/contracts/AMM.sol\":419:421  10 */\n      0x0a\n        /* \"AMMProject/contracts/AMM.sol\":419:433  10 ** DECIMALS */\n      tag_194\n      swap2\n      swap1\n      tag_52\n      jump\t// in\n    tag_194:\n        /* \"AMMProject/contracts/AMM.sol\":2413:2423  amount0Out */\n      dup5\n        /* \"AMMProject/contracts/AMM.sol\":2413:2431  amount0Out / SCALE */\n      tag_195\n      swap2\n      swap1\n      tag_54\n      jump\t// in\n    tag_195:\n        /* \"AMMProject/contracts/AMM.sol\":2385:2432  token0.transfer(msg.sender, amount0Out / SCALE) */\n      mload(0x40)\n      dup4\n      0xffffffff\n      and\n      0xe0\n      shl\n      dup2\n      mstore\n      0x04\n      add\n      tag_196\n      swap3\n      swap2\n      swap1\n      tag_154\n      jump\t// in\n    tag_196:\n      0x20\n      mload(0x40)\n      dup1\n      dup4\n      sub\n      dup2\n      0x00\n      dup8\n      gas\n      call\n      iszero\n      dup1\n      iszero\n      tag_198\n      jumpi\n      returndatasize\n      0x00\n      dup1\n      returndatacopy\n      revert(0x00, returndatasize)\n    tag_198:\n      pop\n      pop\n      pop\n      pop\n      mload(0x40)\n      returndatasize\n      not(0x1f)\n      0x1f\n      dup3\n      add\n      and\n      dup3\n      add\n      dup1\n      0x40\n      mstore\n      pop\n      dup2\n      add\n      swap1\n      tag_199\n      swap2\n      swap1\n      tag_70\n      jump\t// in\n    tag_199:\n      pop\n        /* \"AMMProject/contracts/AMM.sol\":2462:2471  amount1In */\n      dup2\n        /* \"AMMProject/contracts/AMM.sol\":2450:2458  reserve1 */\n      0x03\n      0x00\n        /* \"AMMProject/contracts/AMM.sol\":2450:2471  reserve1 += amount1In */\n      dup3\n      dup3\n      sload\n      tag_200\n      swap2\n      swap1\n      tag_80\n      jump\t// in\n    tag_200:\n      swap3\n      pop\n      pop\n      dup2\n      swap1\n      sstore\n      pop\n        /* \"AMMProject/contracts/AMM.sol\":2501:2511  amount0Out */\n      dup1\n        /* \"AMMProject/contracts/AMM.sol\":2489:2497  reserve0 */\n      0x02\n      0x00\n        /* \"AMMProject/contracts/AMM.sol\":2489:2511  reserve0 -= amount0Out */\n      dup3\n      dup3\n      sload\n      tag_201\n      swap2\n      swap1\n      tag_107\n      jump\t// in\n    tag_201:\n      swap3\n      pop\n      pop\n      dup2\n      swap1\n      sstore\n      pop\n        /* \"AMMProject/contracts/AMM.sol\":2092:2526  {... */\n      pop\n      pop\n        /* \"AMMProject/contracts/AMM.sol\":2076:2968  if (amount > 0) {... */\n      jump(tag_202)\n    tag_182:\n        /* \"AMMProject/contracts/AMM.sol\":2550:2568  uint256 amount1Out */\n      0x00\n        /* \"AMMProject/contracts/AMM.sol\":380:381  3 */\n      0x03\n        /* \"AMMProject/contracts/AMM.sol\":419:421  10 */\n      0x0a\n        /* \"AMMProject/contracts/AMM.sol\":419:433  10 ** DECIMALS */\n      tag_203\n      swap2\n      swap1\n      tag_52\n      jump\t// in\n    tag_203:\n        /* \"AMMProject/contracts/AMM.sol\":2580:2586  amount */\n      dup3\n        /* \"AMMProject/contracts/AMM.sol\":2579:2586  -amount */\n      tag_204\n      swap1\n      tag_117\n      jump\t// in\n    tag_204:\n        /* \"AMMProject/contracts/AMM.sol\":2571:2595  uint256(-amount) * SCALE */\n      tag_205\n      swap2\n      swap1\n      tag_64\n      jump\t// in\n    tag_205:\n        /* \"AMMProject/contracts/AMM.sol\":2550:2595  uint256 amount1Out = uint256(-amount) * SCALE */\n      swap1\n      pop\n        /* \"AMMProject/contracts/AMM.sol\":2613:2630  uint256 amount0In */\n      0x00\n        /* \"AMMProject/contracts/AMM.sol\":2656:2661  price */\n      sload(0x04)\n        /* \"AMMProject/contracts/AMM.sol\":380:381  3 */\n      0x03\n        /* \"AMMProject/contracts/AMM.sol\":419:421  10 */\n      0x0a\n        /* \"AMMProject/contracts/AMM.sol\":419:433  10 ** DECIMALS */\n      tag_206\n      swap2\n      swap1\n      tag_52\n      jump\t// in\n    tag_206:\n        /* \"AMMProject/contracts/AMM.sol\":2634:2644  amount1Out */\n      dup4\n        /* \"AMMProject/contracts/AMM.sol\":2634:2652  amount1Out * SCALE */\n      tag_207\n      swap2\n      swap1\n      tag_64\n      jump\t// in\n    tag_207:\n        /* \"AMMProject/contracts/AMM.sol\":2633:2661  (amount1Out * SCALE) / price */\n      tag_208\n      swap2\n      swap1\n      tag_54\n      jump\t// in\n    tag_208:\n        /* \"AMMProject/contracts/AMM.sol\":2613:2661  uint256 amount0In = (amount1Out * SCALE) / price */\n      swap1\n      pop\n        /* \"AMMProject/contracts/AMM.sol\":2701:2709  reserve1 */\n      sload(0x03)\n        /* \"AMMProject/contracts/AMM.sol\":2687:2697  amount1Out */\n      dup3\n        /* \"AMMProject/contracts/AMM.sol\":2687:2709  amount1Out <= reserve1 */\n      gt\n      iszero\n        /* \"AMMProject/contracts/AMM.sol\":2679:2734  require(amount1Out <= reserve1, \"Not enough liquidity\") */\n      tag_209\n      jumpi\n      mload(0x40)\n      0x08c379a000000000000000000000000000000000000000000000000000000000\n      dup2\n      mstore\n      0x04\n      add\n      tag_210\n      swap1\n      tag_146\n      jump\t// in\n    tag_210:\n      mload(0x40)\n      dup1\n      swap2\n      sub\n      swap1\n      revert\n    tag_209:\n        /* \"AMMProject/contracts/AMM.sol\":2752:2758  token0 */\n      0x00\n      dup1\n      sload\n      swap1\n      0x0100\n      exp\n      swap1\n      div\n      0xffffffffffffffffffffffffffffffffffffffff\n      and\n        /* \"AMMProject/contracts/AMM.sol\":2752:2771  token0.transferFrom */\n      0xffffffffffffffffffffffffffffffffffffffff\n      and\n      0x23b872dd\n        /* \"AMMProject/contracts/AMM.sol\":2772:2782  msg.sender */\n      caller\n        /* \"AMMProject/contracts/AMM.sol\":2792:2796  this */\n      address\n        /* \"AMMProject/contracts/AMM.sol\":2799:2808  amount0In */\n      dup5\n        /* \"AMMProject/contracts/AMM.sol\":2752:2809  token0.transferFrom(msg.sender, address(this), amount0In) */\n      mload(0x40)\n      dup5\n      0xffffffff\n      and\n      0xe0\n      shl\n      dup2\n      mstore\n      0x04\n      add\n      tag_211\n      swap4\n      swap3\n      swap2\n      swap1\n      tag_66\n      jump\t// in\n    tag_211:\n      0x20\n      mload(0x40)\n      dup1\n      dup4\n      sub\n      dup2\n      0x00\n      dup8\n      gas\n      call\n      iszero\n      dup1\n      iszero\n      tag_213\n      jumpi\n      returndatasize\n      0x00\n      dup1\n      returndatacopy\n      revert(0x00, returndatasize)\n    tag_213:\n      pop\n      pop\n      pop\n      pop\n      mload(0x40)\n      returndatasize\n      not(0x1f)\n      0x1f\n      dup3\n      add\n      and\n      dup3\n      add\n      dup1\n      0x40\n      mstore\n      pop\n      dup2\n      add\n      swap1\n      tag_214\n      swap2\n      swap1\n      tag_70\n      jump\t// in\n    tag_214:\n      pop\n        /* \"AMMProject/contracts/AMM.sol\":2827:2833  token1 */\n      0x01\n      0x00\n      swap1\n      sload\n      swap1\n      0x0100\n      exp\n      swap1\n      div\n      0xffffffffffffffffffffffffffffffffffffffff\n      and\n        /* \"AMMProject/contracts/AMM.sol\":2827:2842  token1.transfer */\n      0xffffffffffffffffffffffffffffffffffffffff\n      and\n      0xa9059cbb\n        /* \"AMMProject/contracts/AMM.sol\":2843:2853  msg.sender */\n      caller\n        /* \"AMMProject/contracts/AMM.sol\":380:381  3 */\n      0x03\n        /* \"AMMProject/contracts/AMM.sol\":419:421  10 */\n      0x0a\n        /* \"AMMProject/contracts/AMM.sol\":419:433  10 ** DECIMALS */\n      tag_215\n      swap2\n      swap1\n      tag_52\n      jump\t// in\n    tag_215:\n        /* \"AMMProject/contracts/AMM.sol\":2855:2865  amount1Out */\n      dup6\n        /* \"AMMProject/contracts/AMM.sol\":2855:2873  amount1Out / SCALE */\n      tag_216\n      swap2\n      swap1\n      tag_54\n      jump\t// in\n    tag_216:\n        /* \"AMMProject/contracts/AMM.sol\":2827:2874  token1.transfer(msg.sender, amount1Out / SCALE) */\n      mload(0x40)\n      dup4\n      0xffffffff\n      and\n      0xe0\n      shl\n      dup2\n      mstore\n      0x04\n      add\n      tag_217\n      swap3\n      swap2\n      swap1\n      tag_154\n      jump\t// in\n    tag_217:\n      0x20\n      mload(0x40)\n      dup1\n      dup4\n      sub\n      dup2\n      0x00\n      dup8\n      gas\n      call\n      iszero\n      dup1\n      iszero\n      tag_219\n      jumpi\n      returndatasize\n      0x00\n      dup1\n      returndatacopy\n      revert(0x00, returndatasize)\n    tag_219:\n      pop\n      pop\n      pop\n      pop\n      mload(0x40)\n      returndatasize\n      not(0x1f)\n      0x1f\n      dup3\n      add\n      and\n      dup3\n      add\n      dup1\n      0x40\n      mstore\n      pop\n      dup2\n      add\n      swap1\n      tag_220\n      swap2\n      swap1\n      tag_70\n      jump\t// in\n    tag_220:\n      pop\n        /* \"AMMProject/contracts/AMM.sol\":2904:2913  amount0In */\n      dup1\n        /* \"AMMProject/contracts/AMM.sol\":2892:2900  reserve0 */\n      0x02\n      0x00\n        /* \"AMMProject/contracts/AMM.sol\":2892:2913  reserve0 += amount0In */\n      dup3\n      dup3\n      sload\n      tag_221\n      swap2\n      swap1\n      tag_80\n      jump\t// in\n    tag_221:\n      swap3\n      pop\n      pop\n      dup2\n      swap1\n      sstore\n      pop\n        /* \"AMMProject/contracts/AMM.sol\":2943:2953  amount1Out */\n      dup2\n        /* \"AMMProject/contracts/AMM.sol\":2931:2939  reserve1 */\n      0x03\n      0x00\n        /* \"AMMProject/contracts/AMM.sol\":2931:2953  reserve1 -= amount1Out */\n      dup3\n      dup3\n      sload\n      tag_222\n      swap2\n      swap1\n      tag_107\n      jump\t// in\n    tag_222:\n      swap3\n      pop\n      pop\n      dup2\n      swap1\n      sstore\n      pop\n        /* \"AMMProject/contracts/AMM.sol\":2532:2968  {... */\n      pop\n      pop\n        /* \"AMMProject/contracts/AMM.sol\":2076:2968  if (amount > 0) {... */\n    tag_202:\n        /* \"AMMProject/contracts/AMM.sol\":1119:2978  if (tokenIndex == 0) {... */\n    tag_181:\n        /* \"AMMProject/contracts/AMM.sol\":929:2984  function swap(int8 tokenIndex, int256 amount) internal {... */\n      pop\n      pop\n      jump\t// out\n        /* \"#utility.yul\":7:84   */\n    tag_223:\n        /* \"#utility.yul\":44:51   */\n      0x00\n        /* \"#utility.yul\":73:78   */\n      dup2\n        /* \"#utility.yul\":62:78   */\n      swap1\n      pop\n        /* \"#utility.yul\":7:84   */\n      swap2\n      swap1\n      pop\n      jump\t// out\n        /* \"#utility.yul\":90:208   */\n    tag_224:\n        /* \"#utility.yul\":177:201   */\n      tag_263\n        /* \"#utility.yul\":195:200   */\n      dup2\n        /* \"#utility.yul\":177:201   */\n      tag_223\n      jump\t// in\n    tag_263:\n        /* \"#utility.yul\":172:175   */\n      dup3\n        /* \"#utility.yul\":165:202   */\n      mstore\n        /* \"#utility.yul\":90:208   */\n      pop\n      pop\n      jump\t// out\n        /* \"#utility.yul\":214:546   */\n    tag_17:\n        /* \"#utility.yul\":335:339   */\n      0x00\n        /* \"#utility.yul\":373:375   */\n      0x40\n        /* \"#utility.yul\":362:371   */\n      dup3\n        /* \"#utility.yul\":358:376   */\n      add\n        /* \"#utility.yul\":350:376   */\n      swap1\n      pop\n        /* \"#utility.yul\":386:457   */\n      tag_265\n        /* \"#utility.yul\":454:455   */\n      0x00\n        /* \"#utility.yul\":443:452   */\n      dup4\n        /* \"#utility.yul\":439:456   */\n      add\n        /* \"#utility.yul\":430:436   */\n      dup6\n        /* \"#utility.yul\":386:457   */\n      tag_224\n      jump\t// in\n    tag_265:\n        /* \"#utility.yul\":467:539   */\n      tag_266\n        /* \"#utility.yul\":535:537   */\n      0x20\n        /* \"#utility.yul\":524:533   */\n      dup4\n        /* \"#utility.yul\":520:538   */\n      add\n        /* \"#utility.yul\":511:517   */\n      dup5\n        /* \"#utility.yul\":467:539   */\n      tag_224\n      jump\t// in\n    tag_266:\n        /* \"#utility.yul\":214:546   */\n      swap4\n      swap3\n      pop\n      pop\n      pop\n      jump\t// out\n        /* \"#utility.yul\":552:678   */\n    tag_225:\n        /* \"#utility.yul\":589:596   */\n      0x00\n        /* \"#utility.yul\":629:671   */\n      0xffffffffffffffffffffffffffffffffffffffff\n        /* \"#utility.yul\":622:627   */\n      dup3\n        /* \"#utility.yul\":618:672   */\n      and\n        /* \"#utility.yul\":607:672   */\n      swap1\n      pop\n        /* \"#utility.yul\":552:678   */\n      swap2\n      swap1\n      pop\n      jump\t// out\n        /* \"#utility.yul\":684:744   */\n    tag_226:\n        /* \"#utility.yul\":712:715   */\n      0x00\n        /* \"#utility.yul\":733:738   */\n      dup2\n        /* \"#utility.yul\":726:738   */\n      swap1\n      pop\n        /* \"#utility.yul\":684:744   */\n      swap2\n      swap1\n      pop\n      jump\t// out\n        /* \"#utility.yul\":750:892   */\n    tag_227:\n        /* \"#utility.yul\":800:809   */\n      0x00\n        /* \"#utility.yul\":833:886   */\n      tag_270\n        /* \"#utility.yul\":851:885   */\n      tag_271\n        /* \"#utility.yul\":860:884   */\n      tag_272\n        /* \"#utility.yul\":878:883   */\n      dup5\n        /* \"#utility.yul\":860:884   */\n      tag_225\n      jump\t// in\n    tag_272:\n        /* \"#utility.yul\":851:885   */\n      tag_226\n      jump\t// in\n    tag_271:\n        /* \"#utility.yul\":833:886   */\n      tag_225\n      jump\t// in\n    tag_270:\n        /* \"#utility.yul\":820:886   */\n      swap1\n      pop\n        /* \"#utility.yul\":750:892   */\n      swap2\n      swap1\n      pop\n      jump\t// out\n        /* \"#utility.yul\":898:1024   */\n    tag_228:\n        /* \"#utility.yul\":948:957   */\n      0x00\n        /* \"#utility.yul\":981:1018   */\n      tag_274\n        /* \"#utility.yul\":1012:1017   */\n      dup3\n        /* \"#utility.yul\":981:1018   */\n      tag_227\n      jump\t// in\n    tag_274:\n        /* \"#utility.yul\":968:1018   */\n      swap1\n      pop\n        /* \"#utility.yul\":898:1024   */\n      swap2\n      swap1\n      pop\n      jump\t// out\n        /* \"#utility.yul\":1030:1169   */\n    tag_229:\n        /* \"#utility.yul\":1093:1102   */\n      0x00\n        /* \"#utility.yul\":1126:1163   */\n      tag_276\n        /* \"#utility.yul\":1157:1162   */\n      dup3\n        /* \"#utility.yul\":1126:1163   */\n      tag_228\n      jump\t// in\n    tag_276:\n        /* \"#utility.yul\":1113:1163   */\n      swap1\n      pop\n        /* \"#utility.yul\":1030:1169   */\n      swap2\n      swap1\n      pop\n      jump\t// out\n        /* \"#utility.yul\":1175:1332   */\n    tag_230:\n        /* \"#utility.yul\":1275:1325   */\n      tag_278\n        /* \"#utility.yul\":1319:1324   */\n      dup2\n        /* \"#utility.yul\":1275:1325   */\n      tag_229\n      jump\t// in\n    tag_278:\n        /* \"#utility.yul\":1270:1273   */\n      dup3\n        /* \"#utility.yul\":1263:1326   */\n      mstore\n        /* \"#utility.yul\":1175:1332   */\n      pop\n      pop\n      jump\t// out\n        /* \"#utility.yul\":1338:1586   */\n    tag_21:\n        /* \"#utility.yul\":1444:1448   */\n      0x00\n        /* \"#utility.yul\":1482:1484   */\n      0x20\n        /* \"#utility.yul\":1471:1480   */\n      dup3\n        /* \"#utility.yul\":1467:1485   */\n      add\n        /* \"#utility.yul\":1459:1485   */\n      swap1\n      pop\n        /* \"#utility.yul\":1495:1579   */\n      tag_280\n        /* \"#utility.yul\":1576:1577   */\n      0x00\n        /* \"#utility.yul\":1565:1574   */\n      dup4\n        /* \"#utility.yul\":1561:1578   */\n      add\n        /* \"#utility.yul\":1552:1558   */\n      dup5\n        /* \"#utility.yul\":1495:1579   */\n      tag_230\n      jump\t// in\n    tag_280:\n        /* \"#utility.yul\":1338:1586   */\n      swap3\n      swap2\n      pop\n      pop\n      jump\t// out\n        /* \"#utility.yul\":1592:1678   */\n    tag_231:\n        /* \"#utility.yul\":1627:1634   */\n      0x00\n        /* \"#utility.yul\":1667:1671   */\n      0xff\n        /* \"#utility.yul\":1660:1665   */\n      dup3\n        /* \"#utility.yul\":1656:1672   */\n      and\n        /* \"#utility.yul\":1645:1672   */\n      swap1\n      pop\n        /* \"#utility.yul\":1592:1678   */\n      swap2\n      swap1\n      pop\n      jump\t// out\n        /* \"#utility.yul\":1684:1796   */\n    tag_232:\n        /* \"#utility.yul\":1767:1789   */\n      tag_283\n        /* \"#utility.yul\":1783:1788   */\n      dup2\n        /* \"#utility.yul\":1767:1789   */\n      tag_231\n      jump\t// in\n    tag_283:\n        /* \"#utility.yul\":1762:1765   */\n      dup3\n        /* \"#utility.yul\":1755:1790   */\n      mstore\n        /* \"#utility.yul\":1684:1796   */\n      pop\n      pop\n      jump\t// out\n        /* \"#utility.yul\":1802:2016   */\n    tag_25:\n        /* \"#utility.yul\":1891:1895   */\n      0x00\n        /* \"#utility.yul\":1929:1931   */\n      0x20\n        /* \"#utility.yul\":1918:1927   */\n      dup3\n        /* \"#utility.yul\":1914:1932   */\n      add\n        /* \"#utility.yul\":1906:1932   */\n      swap1\n      pop\n        /* \"#utility.yul\":1942:2009   */\n      tag_285\n        /* \"#utility.yul\":2006:2007   */\n      0x00\n        /* \"#utility.yul\":1995:2004   */\n      dup4\n        /* \"#utility.yul\":1991:2008   */\n      add\n        /* \"#utility.yul\":1982:1988   */\n      dup5\n        /* \"#utility.yul\":1942:2009   */\n      tag_232\n      jump\t// in\n    tag_285:\n        /* \"#utility.yul\":1802:2016   */\n      swap3\n      swap2\n      pop\n      pop\n      jump\t// out\n        /* \"#utility.yul\":2022:2244   */\n    tag_29:\n        /* \"#utility.yul\":2115:2119   */\n      0x00\n        /* \"#utility.yul\":2153:2155   */\n      0x20\n        /* \"#utility.yul\":2142:2151   */\n      dup3\n        /* \"#utility.yul\":2138:2156   */\n      add\n        /* \"#utility.yul\":2130:2156   */\n      swap1\n      pop\n        /* \"#utility.yul\":2166:2237   */\n      tag_287\n        /* \"#utility.yul\":2234:2235   */\n      0x00\n        /* \"#utility.yul\":2223:2232   */\n      dup4\n        /* \"#utility.yul\":2219:2236   */\n      add\n        /* \"#utility.yul\":2210:2216   */\n      dup5\n        /* \"#utility.yul\":2166:2237   */\n      tag_224\n      jump\t// in\n    tag_287:\n        /* \"#utility.yul\":2022:2244   */\n      swap3\n      swap2\n      pop\n      pop\n      jump\t// out\n        /* \"#utility.yul\":2331:2448   */\n    tag_234:\n        /* \"#utility.yul\":2440:2441   */\n      0x00\n        /* \"#utility.yul\":2437:2438   */\n      dup1\n        /* \"#utility.yul\":2430:2442   */\n      revert\n        /* \"#utility.yul\":2577:2699   */\n    tag_236:\n        /* \"#utility.yul\":2650:2674   */\n      tag_292\n        /* \"#utility.yul\":2668:2673   */\n      dup2\n        /* \"#utility.yul\":2650:2674   */\n      tag_223\n      jump\t// in\n    tag_292:\n        /* \"#utility.yul\":2643:2648   */\n      dup2\n        /* \"#utility.yul\":2640:2675   */\n      eq\n        /* \"#utility.yul\":2630:2693   */\n      tag_293\n      jumpi\n        /* \"#utility.yul\":2689:2690   */\n      0x00\n        /* \"#utility.yul\":2686:2687   */\n      dup1\n        /* \"#utility.yul\":2679:2691   */\n      revert\n        /* \"#utility.yul\":2630:2693   */\n    tag_293:\n        /* \"#utility.yul\":2577:2699   */\n      pop\n      jump\t// out\n        /* \"#utility.yul\":2705:2844   */\n    tag_237:\n        /* \"#utility.yul\":2751:2756   */\n      0x00\n        /* \"#utility.yul\":2789:2795   */\n      dup2\n        /* \"#utility.yul\":2776:2796   */\n      calldataload\n        /* \"#utility.yul\":2767:2796   */\n      swap1\n      pop\n        /* \"#utility.yul\":2805:2838   */\n      tag_295\n        /* \"#utility.yul\":2832:2837   */\n      dup2\n        /* \"#utility.yul\":2805:2838   */\n      tag_236\n      jump\t// in\n    tag_295:\n        /* \"#utility.yul\":2705:2844   */\n      swap3\n      swap2\n      pop\n      pop\n      jump\t// out\n        /* \"#utility.yul\":2850:3324   */\n    tag_35:\n        /* \"#utility.yul\":2918:2924   */\n      0x00\n        /* \"#utility.yul\":2926:2932   */\n      dup1\n        /* \"#utility.yul\":2975:2977   */\n      0x40\n        /* \"#utility.yul\":2963:2972   */\n      dup4\n        /* \"#utility.yul\":2954:2961   */\n      dup6\n        /* \"#utility.yul\":2950:2973   */\n      sub\n        /* \"#utility.yul\":2946:2978   */\n      slt\n        /* \"#utility.yul\":2943:3062   */\n      iszero\n      tag_297\n      jumpi\n        /* \"#utility.yul\":2981:3060   */\n      tag_298\n      tag_234\n      jump\t// in\n    tag_298:\n        /* \"#utility.yul\":2943:3062   */\n    tag_297:\n        /* \"#utility.yul\":3101:3102   */\n      0x00\n        /* \"#utility.yul\":3126:3179   */\n      tag_299\n        /* \"#utility.yul\":3171:3178   */\n      dup6\n        /* \"#utility.yul\":3162:3168   */\n      dup3\n        /* \"#utility.yul\":3151:3160   */\n      dup7\n        /* \"#utility.yul\":3147:3169   */\n      add\n        /* \"#utility.yul\":3126:3179   */\n      tag_237\n      jump\t// in\n    tag_299:\n        /* \"#utility.yul\":3116:3179   */\n      swap3\n      pop\n        /* \"#utility.yul\":3072:3189   */\n      pop\n        /* \"#utility.yul\":3228:3230   */\n      0x20\n        /* \"#utility.yul\":3254:3307   */\n      tag_300\n        /* \"#utility.yul\":3299:3306   */\n      dup6\n        /* \"#utility.yul\":3290:3296   */\n      dup3\n        /* \"#utility.yul\":3279:3288   */\n      dup7\n        /* \"#utility.yul\":3275:3297   */\n      add\n        /* \"#utility.yul\":3254:3307   */\n      tag_237\n      jump\t// in\n    tag_300:\n        /* \"#utility.yul\":3244:3307   */\n      swap2\n      pop\n        /* \"#utility.yul\":3199:3317   */\n      pop\n        /* \"#utility.yul\":2850:3324   */\n      swap3\n      pop\n      swap3\n      swap1\n      pop\n      jump\t// out\n        /* \"#utility.yul\":3330:3659   */\n    tag_45:\n        /* \"#utility.yul\":3389:3395   */\n      0x00\n        /* \"#utility.yul\":3438:3440   */\n      0x20\n        /* \"#utility.yul\":3426:3435   */\n      dup3\n        /* \"#utility.yul\":3417:3424   */\n      dup5\n        /* \"#utility.yul\":3413:3436   */\n      sub\n        /* \"#utility.yul\":3409:3441   */\n      slt\n        /* \"#utility.yul\":3406:3525   */\n      iszero\n      tag_302\n      jumpi\n        /* \"#utility.yul\":3444:3523   */\n      tag_303\n      tag_234\n      jump\t// in\n    tag_303:\n        /* \"#utility.yul\":3406:3525   */\n    tag_302:\n        /* \"#utility.yul\":3564:3565   */\n      0x00\n        /* \"#utility.yul\":3589:3642   */\n      tag_304\n        /* \"#utility.yul\":3634:3641   */\n      dup5\n        /* \"#utility.yul\":3625:3631   */\n      dup3\n        /* \"#utility.yul\":3614:3623   */\n      dup6\n        /* \"#utility.yul\":3610:3632   */\n      add\n        /* \"#utility.yul\":3589:3642   */\n      tag_237\n      jump\t// in\n    tag_304:\n        /* \"#utility.yul\":3579:3642   */\n      swap2\n      pop\n        /* \"#utility.yul\":3535:3652   */\n      pop\n        /* \"#utility.yul\":3330:3659   */\n      swap3\n      swap2\n      pop\n      pop\n      jump\t// out\n        /* \"#utility.yul\":3665:3845   */\n    tag_238:\n        /* \"#utility.yul\":3713:3790   */\n      0x4e487b7100000000000000000000000000000000000000000000000000000000\n        /* \"#utility.yul\":3710:3711   */\n      0x00\n        /* \"#utility.yul\":3703:3791   */\n      mstore\n        /* \"#utility.yul\":3810:3814   */\n      0x11\n        /* \"#utility.yul\":3807:3808   */\n      0x04\n        /* \"#utility.yul\":3800:3815   */\n      mstore\n        /* \"#utility.yul\":3834:3838   */\n      0x24\n        /* \"#utility.yul\":3831:3832   */\n      0x00\n        /* \"#utility.yul\":3824:3839   */\n      revert\n        /* \"#utility.yul\":3851:3953   */\n    tag_239:\n        /* \"#utility.yul\":3893:3901   */\n      0x00\n        /* \"#utility.yul\":3940:3945   */\n      dup2\n        /* \"#utility.yul\":3937:3938   */\n      0x01\n        /* \"#utility.yul\":3933:3946   */\n      shr\n        /* \"#utility.yul\":3912:3946   */\n      swap1\n      pop\n        /* \"#utility.yul\":3851:3953   */\n      swap2\n      swap1\n      pop\n      jump\t// out\n        /* \"#utility.yul\":3959:4807   */\n    tag_240:\n        /* \"#utility.yul\":4020:4025   */\n      0x00\n        /* \"#utility.yul\":4027:4031   */\n      dup1\n        /* \"#utility.yul\":4051:4057   */\n      dup3\n        /* \"#utility.yul\":4042:4057   */\n      swap2\n      pop\n        /* \"#utility.yul\":4075:4080   */\n      dup4\n        /* \"#utility.yul\":4066:4080   */\n      swap1\n      pop\n        /* \"#utility.yul\":4089:4801   */\n    tag_308:\n        /* \"#utility.yul\":4110:4111   */\n      0x01\n        /* \"#utility.yul\":4100:4108   */\n      dup6\n        /* \"#utility.yul\":4097:4112   */\n      gt\n        /* \"#utility.yul\":4089:4801   */\n      iszero\n      tag_310\n      jumpi\n        /* \"#utility.yul\":4205:4209   */\n      dup1\n        /* \"#utility.yul\":4200:4203   */\n      dup7\n        /* \"#utility.yul\":4196:4210   */\n      div\n        /* \"#utility.yul\":4190:4194   */\n      dup2\n        /* \"#utility.yul\":4187:4211   */\n      gt\n        /* \"#utility.yul\":4184:4234   */\n      iszero\n      tag_311\n      jumpi\n        /* \"#utility.yul\":4214:4232   */\n      tag_312\n      tag_238\n      jump\t// in\n    tag_312:\n        /* \"#utility.yul\":4184:4234   */\n    tag_311:\n        /* \"#utility.yul\":4264:4265   */\n      0x01\n        /* \"#utility.yul\":4254:4262   */\n      dup6\n        /* \"#utility.yul\":4250:4266   */\n      and\n        /* \"#utility.yul\":4247:4698   */\n      iszero\n      tag_313\n      jumpi\n        /* \"#utility.yul\":4679:4683   */\n      dup1\n        /* \"#utility.yul\":4672:4677   */\n      dup3\n        /* \"#utility.yul\":4668:4684   */\n      mul\n        /* \"#utility.yul\":4659:4684   */\n      swap2\n      pop\n        /* \"#utility.yul\":4247:4698   */\n    tag_313:\n        /* \"#utility.yul\":4729:4733   */\n      dup1\n        /* \"#utility.yul\":4723:4727   */\n      dup2\n        /* \"#utility.yul\":4719:4734   */\n      mul\n        /* \"#utility.yul\":4711:4734   */\n      swap1\n      pop\n        /* \"#utility.yul\":4759:4791   */\n      tag_314\n        /* \"#utility.yul\":4782:4790   */\n      dup6\n        /* \"#utility.yul\":4759:4791   */\n      tag_239\n      jump\t// in\n    tag_314:\n        /* \"#utility.yul\":4747:4791   */\n      swap5\n      pop\n        /* \"#utility.yul\":4089:4801   */\n      jump(tag_308)\n    tag_310:\n        /* \"#utility.yul\":3959:4807   */\n      swap5\n      pop\n      swap5\n      swap3\n      pop\n      pop\n      pop\n      jump\t// out\n        /* \"#utility.yul\":4813:5886   */\n    tag_241:\n        /* \"#utility.yul\":4867:4872   */\n      0x00\n        /* \"#utility.yul\":5058:5066   */\n      dup3\n        /* \"#utility.yul\":5048:5088   */\n      tag_316\n      jumpi\n        /* \"#utility.yul\":5079:5080   */\n      0x01\n        /* \"#utility.yul\":5070:5080   */\n      swap1\n      pop\n        /* \"#utility.yul\":5081:5086   */\n      jump(tag_315)\n        /* \"#utility.yul\":5048:5088   */\n    tag_316:\n        /* \"#utility.yul\":5107:5111   */\n      dup2\n        /* \"#utility.yul\":5097:5133   */\n      tag_317\n      jumpi\n        /* \"#utility.yul\":5124:5125   */\n      0x00\n        /* \"#utility.yul\":5115:5125   */\n      swap1\n      pop\n        /* \"#utility.yul\":5126:5131   */\n      jump(tag_315)\n        /* \"#utility.yul\":5097:5133   */\n    tag_317:\n        /* \"#utility.yul\":5193:5197   */\n      dup2\n        /* \"#utility.yul\":5241:5242   */\n      0x01\n        /* \"#utility.yul\":5236:5263   */\n      dup2\n      eq\n      tag_319\n      jumpi\n        /* \"#utility.yul\":5277:5278   */\n      0x02\n        /* \"#utility.yul\":5272:5463   */\n      dup2\n      eq\n      tag_320\n      jumpi\n        /* \"#utility.yul\":5186:5463   */\n      jump(tag_318)\n        /* \"#utility.yul\":5236:5263   */\n    tag_319:\n        /* \"#utility.yul\":5254:5255   */\n      0x01\n        /* \"#utility.yul\":5245:5255   */\n      swap2\n      pop\n        /* \"#utility.yul\":5256:5261   */\n      pop\n      jump(tag_315)\n        /* \"#utility.yul\":5272:5463   */\n    tag_320:\n        /* \"#utility.yul\":5317:5320   */\n      0xff\n        /* \"#utility.yul\":5307:5315   */\n      dup5\n        /* \"#utility.yul\":5304:5321   */\n      gt\n        /* \"#utility.yul\":5301:5344   */\n      iszero\n      tag_321\n      jumpi\n        /* \"#utility.yul\":5324:5342   */\n      tag_322\n      tag_238\n      jump\t// in\n    tag_322:\n        /* \"#utility.yul\":5301:5344   */\n    tag_321:\n        /* \"#utility.yul\":5373:5381   */\n      dup4\n        /* \"#utility.yul\":5370:5371   */\n      0x02\n        /* \"#utility.yul\":5366:5382   */\n      exp\n        /* \"#utility.yul\":5357:5382   */\n      swap2\n      pop\n        /* \"#utility.yul\":5408:5411   */\n      dup5\n        /* \"#utility.yul\":5401:5406   */\n      dup3\n        /* \"#utility.yul\":5398:5412   */\n      gt\n        /* \"#utility.yul\":5395:5435   */\n      iszero\n      tag_323\n      jumpi\n        /* \"#utility.yul\":5415:5433   */\n      tag_324\n      tag_238\n      jump\t// in\n    tag_324:\n        /* \"#utility.yul\":5395:5435   */\n    tag_323:\n        /* \"#utility.yul\":5448:5453   */\n      pop\n      jump(tag_315)\n        /* \"#utility.yul\":5186:5463   */\n    tag_318:\n      pop\n        /* \"#utility.yul\":5572:5574   */\n      0x20\n        /* \"#utility.yul\":5562:5570   */\n      dup4\n        /* \"#utility.yul\":5559:5575   */\n      lt\n        /* \"#utility.yul\":5553:5556   */\n      0x0133\n        /* \"#utility.yul\":5547:5551   */\n      dup4\n        /* \"#utility.yul\":5544:5557   */\n      lt\n        /* \"#utility.yul\":5540:5576   */\n      and\n        /* \"#utility.yul\":5522:5524   */\n      0x4e\n        /* \"#utility.yul\":5512:5520   */\n      dup5\n        /* \"#utility.yul\":5509:5525   */\n      lt\n        /* \"#utility.yul\":5504:5506   */\n      0x0b\n        /* \"#utility.yul\":5498:5502   */\n      dup5\n        /* \"#utility.yul\":5495:5507   */\n      lt\n        /* \"#utility.yul\":5491:5526   */\n      and\n        /* \"#utility.yul\":5475:5586   */\n      or\n        /* \"#utility.yul\":5472:5718   */\n      iszero\n      tag_325\n      jumpi\n        /* \"#utility.yul\":5628:5636   */\n      dup3\n        /* \"#utility.yul\":5622:5626   */\n      dup3\n        /* \"#utility.yul\":5618:5637   */\n      exp\n        /* \"#utility.yul\":5609:5637   */\n      swap1\n      pop\n        /* \"#utility.yul\":5663:5666   */\n      dup4\n        /* \"#utility.yul\":5656:5661   */\n      dup2\n        /* \"#utility.yul\":5653:5667   */\n      gt\n        /* \"#utility.yul\":5650:5690   */\n      iszero\n      tag_326\n      jumpi\n        /* \"#utility.yul\":5670:5688   */\n      tag_327\n      tag_238\n      jump\t// in\n    tag_327:\n        /* \"#utility.yul\":5650:5690   */\n    tag_326:\n        /* \"#utility.yul\":5703:5708   */\n      jump(tag_315)\n        /* \"#utility.yul\":5472:5718   */\n    tag_325:\n        /* \"#utility.yul\":5743:5785   */\n      tag_328\n        /* \"#utility.yul\":5781:5784   */\n      dup5\n        /* \"#utility.yul\":5771:5779   */\n      dup5\n        /* \"#utility.yul\":5765:5769   */\n      dup5\n        /* \"#utility.yul\":5762:5763   */\n      0x01\n        /* \"#utility.yul\":5743:5785   */\n      tag_240\n      jump\t// in\n    tag_328:\n        /* \"#utility.yul\":5728:5785   */\n      swap3\n      pop\n      swap1\n      pop\n        /* \"#utility.yul\":5817:5821   */\n      dup2\n        /* \"#utility.yul\":5812:5815   */\n      dup5\n        /* \"#utility.yul\":5808:5822   */\n      div\n        /* \"#utility.yul\":5801:5806   */\n      dup2\n        /* \"#utility.yul\":5798:5823   */\n      gt\n        /* \"#utility.yul\":5795:5846   */\n      iszero\n      tag_329\n      jumpi\n        /* \"#utility.yul\":5826:5844   */\n      tag_330\n      tag_238\n      jump\t// in\n    tag_330:\n        /* \"#utility.yul\":5795:5846   */\n    tag_329:\n        /* \"#utility.yul\":5875:5879   */\n      dup2\n        /* \"#utility.yul\":5868:5873   */\n      dup2\n        /* \"#utility.yul\":5864:5880   */\n      mul\n        /* \"#utility.yul\":5855:5880   */\n      swap1\n      pop\n        /* \"#utility.yul\":4813:5886   */\n    tag_315:\n      swap4\n      swap3\n      pop\n      pop\n      pop\n      jump\t// out\n        /* \"#utility.yul\":5892:6173   */\n    tag_52:\n        /* \"#utility.yul\":5950:5955   */\n      0x00\n        /* \"#utility.yul\":5974:5997   */\n      tag_332\n        /* \"#utility.yul\":5992:5996   */\n      dup3\n        /* \"#utility.yul\":5974:5997   */\n      tag_223\n      jump\t// in\n    tag_332:\n        /* \"#utility.yul\":5966:5997   */\n      swap2\n      pop\n        /* \"#utility.yul\":6018:6043   */\n      tag_333\n        /* \"#utility.yul\":6034:6042   */\n      dup4\n        /* \"#utility.yul\":6018:6043   */\n      tag_231\n      jump\t// in\n    tag_333:\n        /* \"#utility.yul\":6006:6043   */\n      swap3\n      pop\n        /* \"#utility.yul\":6062:6166   */\n      tag_334\n        /* \"#utility.yul\":6099:6165   */\n      0xffffffffffffffffffffffffffffffffffffffffffffffffffffffffffffffff\n        /* \"#utility.yul\":6089:6097   */\n      dup5\n        /* \"#utility.yul\":6083:6087   */\n      dup5\n        /* \"#utility.yul\":6062:6166   */\n      tag_241\n      jump\t// in\n    tag_334:\n        /* \"#utility.yul\":6053:6166   */\n      swap1\n      pop\n        /* \"#utility.yul\":5892:6173   */\n      swap3\n      swap2\n      pop\n      pop\n      jump\t// out\n        /* \"#utility.yul\":6179:6359   */\n    tag_242:\n        /* \"#utility.yul\":6227:6304   */\n      0x4e487b7100000000000000000000000000000000000000000000000000000000\n        /* \"#utility.yul\":6224:6225   */\n      0x00\n        /* \"#utility.yul\":6217:6305   */\n      mstore\n        /* \"#utility.yul\":6324:6328   */\n      0x12\n        /* \"#utility.yul\":6321:6322   */\n      0x04\n        /* \"#utility.yul\":6314:6329   */\n      mstore\n        /* \"#utility.yul\":6348:6352   */\n      0x24\n        /* \"#utility.yul\":6345:6346   */\n      0x00\n        /* \"#utility.yul\":6338:6353   */\n      revert\n        /* \"#utility.yul\":6365:6550   */\n    tag_54:\n        /* \"#utility.yul\":6405:6406   */\n      0x00\n        /* \"#utility.yul\":6422:6442   */\n      tag_337\n        /* \"#utility.yul\":6440:6441   */\n      dup3\n        /* \"#utility.yul\":6422:6442   */\n      tag_223\n      jump\t// in\n    tag_337:\n        /* \"#utility.yul\":6417:6442   */\n      swap2\n      pop\n        /* \"#utility.yul\":6456:6476   */\n      tag_338\n        /* \"#utility.yul\":6474:6475   */\n      dup4\n        /* \"#utility.yul\":6456:6476   */\n      tag_223\n      jump\t// in\n    tag_338:\n        /* \"#utility.yul\":6451:6476   */\n      swap3\n      pop\n        /* \"#utility.yul\":6495:6496   */\n      dup3\n        /* \"#utility.yul\":6485:6520   */\n      tag_339\n      jumpi\n        /* \"#utility.yul\":6500:6518   */\n      tag_340\n      tag_242\n      jump\t// in\n    tag_340:\n        /* \"#utility.yul\":6485:6520   */\n    tag_339:\n        /* \"#utility.yul\":6542:6543   */\n      dup3\n        /* \"#utility.yul\":6539:6540   */\n      dup3\n        /* \"#utility.yul\":6535:6544   */\n      div\n        /* \"#utility.yul\":6530:6544   */\n      swap1\n      pop\n        /* \"#utility.yul\":6365:6550   */\n      swap3\n      swap2\n      pop\n      pop\n      jump\t// out\n        /* \"#utility.yul\":6556:6725   */\n    tag_243:\n        /* \"#utility.yul\":6640:6651   */\n      0x00\n        /* \"#utility.yul\":6674:6680   */\n      dup3\n        /* \"#utility.yul\":6669:6672   */\n      dup3\n        /* \"#utility.yul\":6662:6681   */\n      mstore\n        /* \"#utility.yul\":6714:6718   */\n      0x20\n        /* \"#utility.yul\":6709:6712   */\n      dup3\n        /* \"#utility.yul\":6705:6719   */\n      add\n        /* \"#utility.yul\":6690:6719   */\n      swap1\n      pop\n        /* \"#utility.yul\":6556:6725   */\n      swap3\n      swap2\n      pop\n      pop\n      jump\t// out\n        /* \"#utility.yul\":6731:6896   */\n    tag_244:\n        /* \"#utility.yul\":6871:6888   */\n      0x496e76616c696420616d6f756e74730000000000000000000000000000000000\n        /* \"#utility.yul\":6867:6868   */\n      0x00\n        /* \"#utility.yul\":6859:6865   */\n      dup3\n        /* \"#utility.yul\":6855:6869   */\n      add\n        /* \"#utility.yul\":6848:6889   */\n      mstore\n        /* \"#utility.yul\":6731:6896   */\n      pop\n      jump\t// out\n        /* \"#utility.yul\":6902:7268   */\n    tag_245:\n        /* \"#utility.yul\":7044:7047   */\n      0x00\n        /* \"#utility.yul\":7065:7132   */\n      tag_344\n        /* \"#utility.yul\":7129:7131   */\n      0x0f\n        /* \"#utility.yul\":7124:7127   */\n      dup4\n        /* \"#utility.yul\":7065:7132   */\n      tag_243\n      jump\t// in\n    tag_344:\n        /* \"#utility.yul\":7058:7132   */\n      swap2\n      pop\n        /* \"#utility.yul\":7141:7234   */\n      tag_345\n        /* \"#utility.yul\":7230:7233   */\n      dup3\n        /* \"#utility.yul\":7141:7234   */\n      tag_244\n      jump\t// in\n    tag_345:\n        /* \"#utility.yul\":7259:7261   */\n      0x20\n        /* \"#utility.yul\":7254:7257   */\n      dup3\n        /* \"#utility.yul\":7250:7262   */\n      add\n        /* \"#utility.yul\":7243:7262   */\n      swap1\n      pop\n        /* \"#utility.yul\":6902:7268   */\n      swap2\n      swap1\n      pop\n      jump\t// out\n        /* \"#utility.yul\":7274:7693   */\n    tag_61:\n        /* \"#utility.yul\":7440:7444   */\n      0x00\n        /* \"#utility.yul\":7478:7480   */\n      0x20\n        /* \"#utility.yul\":7467:7476   */\n      dup3\n        /* \"#utility.yul\":7463:7481   */\n      add\n        /* \"#utility.yul\":7455:7481   */\n      swap1\n      pop\n        /* \"#utility.yul\":7527:7536   */\n      dup2\n        /* \"#utility.yul\":7521:7525   */\n      dup2\n        /* \"#utility.yul\":7517:7537   */\n      sub\n        /* \"#utility.yul\":7513:7514   */\n      0x00\n        /* \"#utility.yul\":7502:7511   */\n      dup4\n        /* \"#utility.yul\":7498:7515   */\n      add\n        /* \"#utility.yul\":7491:7538   */\n      mstore\n        /* \"#utility.yul\":7555:7686   */\n      tag_347\n        /* \"#utility.yul\":7681:7685   */\n      dup2\n        /* \"#utility.yul\":7555:7686   */\n      tag_245\n      jump\t// in\n    tag_347:\n        /* \"#utility.yul\":7547:7686   */\n      swap1\n      pop\n        /* \"#utility.yul\":7274:7693   */\n      swap2\n      swap1\n      pop\n      jump\t// out\n        /* \"#utility.yul\":7699:8109   */\n    tag_64:\n        /* \"#utility.yul\":7739:7746   */\n      0x00\n        /* \"#utility.yul\":7762:7782   */\n      tag_349\n        /* \"#utility.yul\":7780:7781   */\n      dup3\n        /* \"#utility.yul\":7762:7782   */\n      tag_223\n      jump\t// in\n    tag_349:\n        /* \"#utility.yul\":7757:7782   */\n      swap2\n      pop\n        /* \"#utility.yul\":7796:7816   */\n      tag_350\n        /* \"#utility.yul\":7814:7815   */\n      dup4\n        /* \"#utility.yul\":7796:7816   */\n      tag_223\n      jump\t// in\n    tag_350:\n        /* \"#utility.yul\":7791:7816   */\n      swap3\n      pop\n        /* \"#utility.yul\":7851:7852   */\n      dup3\n        /* \"#utility.yul\":7848:7849   */\n      dup3\n        /* \"#utility.yul\":7844:7853   */\n      mul\n        /* \"#utility.yul\":7873:7903   */\n      tag_351\n        /* \"#utility.yul\":7891:7902   */\n      dup2\n        /* \"#utility.yul\":7873:7903   */\n      tag_223\n      jump\t// in\n    tag_351:\n        /* \"#utility.yul\":7862:7903   */\n      swap2\n      pop\n        /* \"#utility.yul\":8052:8053   */\n      dup3\n        /* \"#utility.yul\":8043:8050   */\n      dup3\n        /* \"#utility.yul\":8039:8054   */\n      div\n        /* \"#utility.yul\":8036:8037   */\n      dup5\n        /* \"#utility.yul\":8033:8055   */\n      eq\n        /* \"#utility.yul\":8013:8014   */\n      dup4\n        /* \"#utility.yul\":8006:8015   */\n      iszero\n        /* \"#utility.yul\":7986:8069   */\n      or\n        /* \"#utility.yul\":7963:8102   */\n      tag_352\n      jumpi\n        /* \"#utility.yul\":8082:8100   */\n      tag_353\n      tag_238\n      jump\t// in\n    tag_353:\n        /* \"#utility.yul\":7963:8102   */\n    tag_352:\n        /* \"#utility.yul\":7747:8109   */\n      pop\n        /* \"#utility.yul\":7699:8109   */\n      swap3\n      swap2\n      pop\n      pop\n      jump\t// out\n        /* \"#utility.yul\":8115:8211   */\n    tag_246:\n        /* \"#utility.yul\":8152:8159   */\n      0x00\n        /* \"#utility.yul\":8181:8205   */\n      tag_355\n        /* \"#utility.yul\":8199:8204   */\n      dup3\n        /* \"#utility.yul\":8181:8205   */\n      tag_225\n      jump\t// in\n    tag_355:\n        /* \"#utility.yul\":8170:8205   */\n      swap1\n      pop\n        /* \"#utility.yul\":8115:8211   */\n      swap2\n      swap1\n      pop\n      jump\t// out\n        /* \"#utility.yul\":8217:8335   */\n    tag_247:\n        /* \"#utility.yul\":8304:8328   */\n      tag_357\n        /* \"#utility.yul\":8322:8327   */\n      dup2\n        /* \"#utility.yul\":8304:8328   */\n      tag_246\n      jump\t// in\n    tag_357:\n        /* \"#utility.yul\":8299:8302   */\n      dup3\n        /* \"#utility.yul\":8292:8329   */\n      mstore\n        /* \"#utility.yul\":8217:8335   */\n      pop\n      pop\n      jump\t// out\n        /* \"#utility.yul\":8341:8783   */\n    tag_66:\n        /* \"#utility.yul\":8490:8494   */\n      0x00\n        /* \"#utility.yul\":8528:8530   */\n      0x60\n        /* \"#utility.yul\":8517:8526   */\n      dup3\n        /* \"#utility.yul\":8513:8531   */\n      add\n        /* \"#utility.yul\":8505:8531   */\n      swap1\n      pop\n        /* \"#utility.yul\":8541:8612   */\n      tag_359\n        /* \"#utility.yul\":8609:8610   */\n      0x00\n        /* \"#utility.yul\":8598:8607   */\n      dup4\n        /* \"#utility.yul\":8594:8611   */\n      add\n        /* \"#utility.yul\":8585:8591   */\n      dup7\n        /* \"#utility.yul\":8541:8612   */\n      tag_247\n      jump\t// in\n    tag_359:\n        /* \"#utility.yul\":8622:8694   */\n      tag_360\n        /* \"#utility.yul\":8690:8692   */\n      0x20\n        /* \"#utility.yul\":8679:8688   */\n      dup4\n        /* \"#utility.yul\":8675:8693   */\n      add\n        /* \"#utility.yul\":8666:8672   */\n      dup6\n        /* \"#utility.yul\":8622:8694   */\n      tag_247\n      jump\t// in\n    tag_360:\n        /* \"#utility.yul\":8704:8776   */\n      tag_361\n        /* \"#utility.yul\":8772:8774   */\n      0x40\n        /* \"#utility.yul\":8761:8770   */\n      dup4\n        /* \"#utility.yul\":8757:8775   */\n      add\n        /* \"#utility.yul\":8748:8754   */\n      dup5\n        /* \"#utility.yul\":8704:8776   */\n      tag_224\n      jump\t// in\n    tag_361:\n        /* \"#utility.yul\":8341:8783   */\n      swap5\n      swap4\n      pop\n      pop\n      pop\n      pop\n      jump\t// out\n        /* \"#utility.yul\":8789:8879   */\n    tag_248:\n        /* \"#utility.yul\":8823:8830   */\n      0x00\n        /* \"#utility.yul\":8866:8871   */\n      dup2\n        /* \"#utility.yul\":8859:8872   */\n      iszero\n        /* \"#utility.yul\":8852:8873   */\n      iszero\n        /* \"#utility.yul\":8841:8873   */\n      swap1\n      pop\n        /* \"#utility.yul\":8789:8879   */\n      swap2\n      swap1\n      pop\n      jump\t// out\n        /* \"#utility.yul\":8885:9001   */\n    tag_249:\n        /* \"#utility.yul\":8955:8976   */\n      tag_364\n        /* \"#utility.yul\":8970:8975   */\n      dup2\n        /* \"#utility.yul\":8955:8976   */\n      tag_248\n      jump\t// in\n    tag_364:\n        /* \"#utility.yul\":8948:8953   */\n      dup2\n        /* \"#utility.yul\":8945:8977   */\n      eq\n        /* \"#utility.yul\":8935:8995   */\n      tag_365\n      jumpi\n        /* \"#utility.yul\":8991:8992   */\n      0x00\n        /* \"#utility.yul\":8988:8989   */\n      dup1\n        /* \"#utility.yul\":8981:8993   */\n      revert\n        /* \"#utility.yul\":8935:8995   */\n    tag_365:\n        /* \"#utility.yul\":8885:9001   */\n      pop\n      jump\t// out\n        /* \"#utility.yul\":9007:9144   */\n    tag_250:\n        /* \"#utility.yul\":9061:9066   */\n      0x00\n        /* \"#utility.yul\":9092:9098   */\n      dup2\n        /* \"#utility.yul\":9086:9099   */\n      mload\n        /* \"#utility.yul\":9077:9099   */\n      swap1\n      pop\n        /* \"#utility.yul\":9108:9138   */\n      tag_367\n        /* \"#utility.yul\":9132:9137   */\n      dup2\n        /* \"#utility.yul\":9108:9138   */\n      tag_249\n      jump\t// in\n    tag_367:\n        /* \"#utility.yul\":9007:9144   */\n      swap3\n      swap2\n      pop\n      pop\n      jump\t// out\n        /* \"#utility.yul\":9150:9495   */\n    tag_70:\n        /* \"#utility.yul\":9217:9223   */\n      0x00\n        /* \"#utility.yul\":9266:9268   */\n      0x20\n        /* \"#utility.yul\":9254:9263   */\n      dup3\n        /* \"#utility.yul\":9245:9252   */\n      dup5\n        /* \"#utility.yul\":9241:9264   */\n      sub\n        /* \"#utility.yul\":9237:9269   */\n      slt\n        /* \"#utility.yul\":9234:9353   */\n      iszero\n      tag_369\n      jumpi\n        /* \"#utility.yul\":9272:9351   */\n      tag_370\n      tag_234\n      jump\t// in\n    tag_370:\n        /* \"#utility.yul\":9234:9353   */\n    tag_369:\n        /* \"#utility.yul\":9392:9393   */\n      0x00\n        /* \"#utility.yul\":9417:9478   */\n      tag_371\n        /* \"#utility.yul\":9470:9477   */\n      dup5\n        /* \"#utility.yul\":9461:9467   */\n      dup3\n        /* \"#utility.yul\":9450:9459   */\n      dup6\n        /* \"#utility.yul\":9446:9468   */\n      add\n        /* \"#utility.yul\":9417:9478   */\n      tag_250\n      jump\t// in\n    tag_371:\n        /* \"#utility.yul\":9407:9478   */\n      swap2\n      pop\n        /* \"#utility.yul\":9363:9488   */\n      pop\n        /* \"#utility.yul\":9150:9495   */\n      swap3\n      swap2\n      pop\n      pop\n      jump\t// out\n        /* \"#utility.yul\":9501:9692   */\n    tag_80:\n        /* \"#utility.yul\":9541:9544   */\n      0x00\n        /* \"#utility.yul\":9560:9580   */\n      tag_373\n        /* \"#utility.yul\":9578:9579   */\n      dup3\n        /* \"#utility.yul\":9560:9580   */\n      tag_223\n      jump\t// in\n    tag_373:\n        /* \"#utility.yul\":9555:9580   */\n      swap2\n      pop\n        /* \"#utility.yul\":9594:9614   */\n      tag_374\n        /* \"#utility.yul\":9612:9613   */\n      dup4\n        /* \"#utility.yul\":9594:9614   */\n      tag_223\n      jump\t// in\n    tag_374:\n        /* \"#utility.yul\":9589:9614   */\n      swap3\n      pop\n        /* \"#utility.yul\":9637:9638   */\n      dup3\n        /* \"#utility.yul\":9634:9635   */\n      dup3\n        /* \"#utility.yul\":9630:9639   */\n      add\n        /* \"#utility.yul\":9623:9639   */\n      swap1\n      pop\n        /* \"#utility.yul\":9658:9661   */\n      dup1\n        /* \"#utility.yul\":9655:9656   */\n      dup3\n        /* \"#utility.yul\":9652:9662   */\n      gt\n        /* \"#utility.yul\":9649:9685   */\n      iszero\n      tag_375\n      jumpi\n        /* \"#utility.yul\":9665:9683   */\n      tag_376\n      tag_238\n      jump\t// in\n    tag_376:\n        /* \"#utility.yul\":9649:9685   */\n    tag_375:\n        /* \"#utility.yul\":9501:9692   */\n      swap3\n      swap2\n      pop\n      pop\n      jump\t// out\n        /* \"#utility.yul\":9698:9868   */\n    tag_251:\n        /* \"#utility.yul\":9838:9860   */\n      0x496e76616c696420746172676574207072696365000000000000000000000000\n        /* \"#utility.yul\":9834:9835   */\n      0x00\n        /* \"#utility.yul\":9826:9832   */\n      dup3\n        /* \"#utility.yul\":9822:9836   */\n      add\n        /* \"#utility.yul\":9815:9861   */\n      mstore\n        /* \"#utility.yul\":9698:9868   */\n      pop\n      jump\t// out\n        /* \"#utility.yul\":9874:10240   */\n    tag_252:\n        /* \"#utility.yul\":10016:10019   */\n      0x00\n        /* \"#utility.yul\":10037:10104   */\n      tag_379\n        /* \"#utility.yul\":10101:10103   */\n      0x14\n        /* \"#utility.yul\":10096:10099   */\n      dup4\n        /* \"#utility.yul\":10037:10104   */\n      tag_243\n      jump\t// in\n    tag_379:\n        /* \"#utility.yul\":10030:10104   */\n      swap2\n      pop\n        /* \"#utility.yul\":10113:10206   */\n      tag_380\n        /* \"#utility.yul\":10202:10205   */\n      dup3\n        /* \"#utility.yul\":10113:10206   */\n      tag_251\n      jump\t// in\n    tag_380:\n        /* \"#utility.yul\":10231:10233   */\n      0x20\n        /* \"#utility.yul\":10226:10229   */\n      dup3\n        /* \"#utility.yul\":10222:10234   */\n      add\n        /* \"#utility.yul\":10215:10234   */\n      swap1\n      pop\n        /* \"#utility.yul\":9874:10240   */\n      swap2\n      swap1\n      pop\n      jump\t// out\n        /* \"#utility.yul\":10246:10665   */\n    tag_87:\n        /* \"#utility.yul\":10412:10416   */\n      0x00\n        /* \"#utility.yul\":10450:10452   */\n      0x20\n        /* \"#utility.yul\":10439:10448   */\n      dup3\n        /* \"#utility.yul\":10435:10453   */\n      add\n        /* \"#utility.yul\":10427:10453   */\n      swap1\n      pop\n        /* \"#utility.yul\":10499:10508   */\n      dup2\n        /* \"#utility.yul\":10493:10497   */\n      dup2\n        /* \"#utility.yul\":10489:10509   */\n      sub\n        /* \"#utility.yul\":10485:10486   */\n      0x00\n        /* \"#utility.yul\":10474:10483   */\n      dup4\n        /* \"#utility.yul\":10470:10487   */\n      add\n        /* \"#utility.yul\":10463:10510   */\n      mstore\n        /* \"#utility.yul\":10527:10658   */\n      tag_382\n        /* \"#utility.yul\":10653:10657   */\n      dup2\n        /* \"#utility.yul\":10527:10658   */\n      tag_252\n      jump\t// in\n    tag_382:\n        /* \"#utility.yul\":10519:10658   */\n      swap1\n      pop\n        /* \"#utility.yul\":10246:10665   */\n      swap2\n      swap1\n      pop\n      jump\t// out\n        /* \"#utility.yul\":10671:10865   */\n    tag_107:\n        /* \"#utility.yul\":10711:10715   */\n      0x00\n        /* \"#utility.yul\":10731:10751   */\n      tag_384\n        /* \"#utility.yul\":10749:10750   */\n      dup3\n        /* \"#utility.yul\":10731:10751   */\n      tag_223\n      jump\t// in\n    tag_384:\n        /* \"#utility.yul\":10726:10751   */\n      swap2\n      pop\n        /* \"#utility.yul\":10765:10785   */\n      tag_385\n        /* \"#utility.yul\":10783:10784   */\n      dup4\n        /* \"#utility.yul\":10765:10785   */\n      tag_223\n      jump\t// in\n    tag_385:\n        /* \"#utility.yul\":10760:10785   */\n      swap3\n      pop\n        /* \"#utility.yul\":10809:10810   */\n      dup3\n        /* \"#utility.yul\":10806:10807   */\n      dup3\n        /* \"#utility.yul\":10802:10811   */\n      sub\n        /* \"#utility.yul\":10794:10811   */\n      swap1\n      pop\n        /* \"#utility.yul\":10833:10834   */\n      dup2\n        /* \"#utility.yul\":10827:10831   */\n      dup2\n        /* \"#utility.yul\":10824:10835   */\n      gt\n        /* \"#utility.yul\":10821:10858   */\n      iszero\n      tag_386\n      jumpi\n        /* \"#utility.yul\":10838:10856   */\n      tag_387\n      tag_238\n      jump\t// in\n    tag_387:\n        /* \"#utility.yul\":10821:10858   */\n    tag_386:\n        /* \"#utility.yul\":10671:10865   */\n      swap3\n      swap2\n      pop\n      pop\n      jump\t// out\n        /* \"#utility.yul\":10871:10947   */\n    tag_253:\n        /* \"#utility.yul\":10907:10914   */\n      0x00\n        /* \"#utility.yul\":10936:10941   */\n      dup2\n        /* \"#utility.yul\":10925:10941   */\n      swap1\n      pop\n        /* \"#utility.yul\":10871:10947   */\n      swap2\n      swap1\n      pop\n      jump\t// out\n        /* \"#utility.yul\":10953:11181   */\n    tag_117:\n        /* \"#utility.yul\":10988:10991   */\n      0x00\n        /* \"#utility.yul\":11011:11034   */\n      tag_390\n        /* \"#utility.yul\":11028:11033   */\n      dup3\n        /* \"#utility.yul\":11011:11034   */\n      tag_253\n      jump\t// in\n    tag_390:\n        /* \"#utility.yul\":11002:11034   */\n      swap2\n      pop\n        /* \"#utility.yul\":11056:11122   */\n      0x8000000000000000000000000000000000000000000000000000000000000000\n        /* \"#utility.yul\":11049:11054   */\n      dup3\n        /* \"#utility.yul\":11046:11123   */\n      sub\n        /* \"#utility.yul\":11043:11146   */\n      tag_391\n      jumpi\n        /* \"#utility.yul\":11126:11144   */\n      tag_392\n      tag_238\n      jump\t// in\n    tag_392:\n        /* \"#utility.yul\":11043:11146   */\n    tag_391:\n        /* \"#utility.yul\":11169:11174   */\n      dup2\n        /* \"#utility.yul\":11166:11167   */\n      0x00\n        /* \"#utility.yul\":11162:11175   */\n      sub\n        /* \"#utility.yul\":11155:11175   */\n      swap1\n      pop\n        /* \"#utility.yul\":10953:11181   */\n      swap2\n      swap1\n      pop\n      jump\t// out\n        /* \"#utility.yul\":11187:11356   */\n    tag_254:\n        /* \"#utility.yul\":11327:11348   */\n      0x496e76616c696420746f6b656e20696e64657800000000000000000000000000\n        /* \"#utility.yul\":11323:11324   */\n      0x00\n        /* \"#utility.yul\":11315:11321   */\n      dup3\n        /* \"#utility.yul\":11311:11325   */\n      add\n        /* \"#utility.yul\":11304:11349   */\n      mstore\n        /* \"#utility.yul\":11187:11356   */\n      pop\n      jump\t// out\n        /* \"#utility.yul\":11362:11728   */\n    tag_255:\n        /* \"#utility.yul\":11504:11507   */\n      0x00\n        /* \"#utility.yul\":11525:11592   */\n      tag_395\n        /* \"#utility.yul\":11589:11591   */\n      0x13\n        /* \"#utility.yul\":11584:11587   */\n      dup4\n        /* \"#utility.yul\":11525:11592   */\n      tag_243\n      jump\t// in\n    tag_395:\n        /* \"#utility.yul\":11518:11592   */\n      swap2\n      pop\n        /* \"#utility.yul\":11601:11694   */\n      tag_396\n        /* \"#utility.yul\":11690:11693   */\n      dup3\n        /* \"#utility.yul\":11601:11694   */\n      tag_254\n      jump\t// in\n    tag_396:\n        /* \"#utility.yul\":11719:11721   */\n      0x20\n        /* \"#utility.yul\":11714:11717   */\n      dup3\n        /* \"#utility.yul\":11710:11722   */\n      add\n        /* \"#utility.yul\":11703:11722   */\n      swap1\n      pop\n        /* \"#utility.yul\":11362:11728   */\n      swap2\n      swap1\n      pop\n      jump\t// out\n        /* \"#utility.yul\":11734:12153   */\n    tag_133:\n        /* \"#utility.yul\":11900:11904   */\n      0x00\n        /* \"#utility.yul\":11938:11940   */\n      0x20\n        /* \"#utility.yul\":11927:11936   */\n      dup3\n        /* \"#utility.yul\":11923:11941   */\n      add\n        /* \"#utility.yul\":11915:11941   */\n      swap1\n      pop\n        /* \"#utility.yul\":11987:11996   */\n      dup2\n        /* \"#utility.yul\":11981:11985   */\n      dup2\n        /* \"#utility.yul\":11977:11997   */\n      sub\n        /* \"#utility.yul\":11973:11974   */\n      0x00\n        /* \"#utility.yul\":11962:11971   */\n      dup4\n        /* \"#utility.yul\":11958:11975   */\n      add\n        /* \"#utility.yul\":11951:11998   */\n      mstore\n        /* \"#utility.yul\":12015:12146   */\n      tag_398\n        /* \"#utility.yul\":12141:12145   */\n      dup2\n        /* \"#utility.yul\":12015:12146   */\n      tag_255\n      jump\t// in\n    tag_398:\n        /* \"#utility.yul\":12007:12146   */\n      swap1\n      pop\n        /* \"#utility.yul\":11734:12153   */\n      swap2\n      swap1\n      pop\n      jump\t// out\n        /* \"#utility.yul\":12159:12323   */\n    tag_256:\n        /* \"#utility.yul\":12299:12315   */\n      0x496e76616c696420616d6f756e74000000000000000000000000000000000000\n        /* \"#utility.yul\":12295:12296   */\n      0x00\n        /* \"#utility.yul\":12287:12293   */\n      dup3\n        /* \"#utility.yul\":12283:12297   */\n      add\n        /* \"#utility.yul\":12276:12316   */\n      mstore\n        /* \"#utility.yul\":12159:12323   */\n      pop\n      jump\t// out\n        /* \"#utility.yul\":12329:12695   */\n    tag_257:\n        /* \"#utility.yul\":12471:12474   */\n      0x00\n        /* \"#utility.yul\":12492:12559   */\n      tag_401\n        /* \"#utility.yul\":12556:12558   */\n      0x0e\n        /* \"#utility.yul\":12551:12554   */\n      dup4\n        /* \"#utility.yul\":12492:12559   */\n      tag_243\n      jump\t// in\n    tag_401:\n        /* \"#utility.yul\":12485:12559   */\n      swap2\n      pop\n        /* \"#utility.yul\":12568:12661   */\n      tag_402\n        /* \"#utility.yul\":12657:12660   */\n      dup3\n        /* \"#utility.yul\":12568:12661   */\n      tag_256\n      jump\t// in\n    tag_402:\n        /* \"#utility.yul\":12686:12688   */\n      0x20\n        /* \"#utility.yul\":12681:12684   */\n      dup3\n        /* \"#utility.yul\":12677:12689   */\n      add\n        /* \"#utility.yul\":12670:12689   */\n      swap1\n      pop\n        /* \"#utility.yul\":12329:12695   */\n      swap2\n      swap1\n      pop\n      jump\t// out\n        /* \"#utility.yul\":12701:13120   */\n    tag_136:\n        /* \"#utility.yul\":12867:12871   */\n      0x00\n        /* \"#utility.yul\":12905:12907   */\n      0x20\n        /* \"#utility.yul\":12894:12903   */\n      dup3\n        /* \"#utility.yul\":12890:12908   */\n      add\n        /* \"#utility.yul\":12882:12908   */\n      swap1\n      pop\n        /* \"#utility.yul\":12954:12963   */\n      dup2\n        /* \"#utility.yul\":12948:12952   */\n      dup2\n        /* \"#utility.yul\":12944:12964   */\n      sub\n        /* \"#utility.yul\":12940:12941   */\n      0x00\n        /* \"#utility.yul\":12929:12938   */\n      dup4\n        /* \"#utility.yul\":12925:12942   */\n      add\n        /* \"#utility.yul\":12918:12965   */\n      mstore\n        /* \"#utility.yul\":12982:13113   */\n      tag_404\n        /* \"#utility.yul\":13108:13112   */\n      dup2\n        /* \"#utility.yul\":12982:13113   */\n      tag_257\n      jump\t// in\n    tag_404:\n        /* \"#utility.yul\":12974:13113   */\n      swap1\n      pop\n        /* \"#utility.yul\":12701:13120   */\n      swap2\n      swap1\n      pop\n      jump\t// out\n        /* \"#utility.yul\":13126:13296   */\n    tag_258:\n        /* \"#utility.yul\":13266:13288   */\n      0x4e6f7420656e6f756768206c6971756964697479000000000000000000000000\n        /* \"#utility.yul\":13262:13263   */\n      0x00\n        /* \"#utility.yul\":13254:13260   */\n      dup3\n        /* \"#utility.yul\":13250:13264   */\n      add\n        /* \"#utility.yul\":13243:13289   */\n      mstore\n        /* \"#utility.yul\":13126:13296   */\n      pop\n      jump\t// out\n        /* \"#utility.yul\":13302:13668   */\n    tag_259:\n        /* \"#utility.yul\":13444:13447   */\n      0x00\n        /* \"#utility.yul\":13465:13532   */\n      tag_407\n        /* \"#utility.yul\":13529:13531   */\n      0x14\n        /* \"#utility.yul\":13524:13527   */\n      dup4\n        /* \"#utility.yul\":13465:13532   */\n      tag_243\n      jump\t// in\n    tag_407:\n        /* \"#utility.yul\":13458:13532   */\n      swap2\n      pop\n        /* \"#utility.yul\":13541:13634   */\n      tag_408\n        /* \"#utility.yul\":13630:13633   */\n      dup3\n        /* \"#utility.yul\":13541:13634   */\n      tag_258\n      jump\t// in\n    tag_408:\n        /* \"#utility.yul\":13659:13661   */\n      0x20\n        /* \"#utility.yul\":13654:13657   */\n      dup3\n        /* \"#utility.yul\":13650:13662   */\n      add\n        /* \"#utility.yul\":13643:13662   */\n      swap1\n      pop\n        /* \"#utility.yul\":13302:13668   */\n      swap2\n      swap1\n      pop\n      jump\t// out\n        /* \"#utility.yul\":13674:14093   */\n    tag_146:\n        /* \"#utility.yul\":13840:13844   */\n      0x00\n        /* \"#utility.yul\":13878:13880   */\n      0x20\n        /* \"#utility.yul\":13867:13876   */\n      dup3\n        /* \"#utility.yul\":13863:13881   */\n      add\n        /* \"#utility.yul\":13855:13881   */\n      swap1\n      pop\n        /* \"#utility.yul\":13927:13936   */\n      dup2\n        /* \"#utility.yul\":13921:13925   */\n      dup2\n        /* \"#utility.yul\":13917:13937   */\n      sub\n        /* \"#utility.yul\":13913:13914   */\n      0x00\n        /* \"#utility.yul\":13902:13911   */\n      dup4\n        /* \"#utility.yul\":13898:13915   */\n      add\n        /* \"#utility.yul\":13891:13938   */\n      mstore\n        /* \"#utility.yul\":13955:14086   */\n      tag_410\n        /* \"#utility.yul\":14081:14085   */\n      dup2\n        /* \"#utility.yul\":13955:14086   */\n      tag_259\n      jump\t// in\n    tag_410:\n        /* \"#utility.yul\":13947:14086   */\n      swap1\n      pop\n        /* \"#utility.yul\":13674:14093   */\n      swap2\n      swap1\n      pop\n      jump\t// out\n        /* \"#utility.yul\":14099:14431   */\n    tag_154:\n        /* \"#utility.yul\":14220:14224   */\n      0x00\n        /* \"#utility.yul\":14258:14260   */\n      0x40\n        /* \"#utility.yul\":14247:14256   */\n      dup3\n        /* \"#utility.yul\":14243:14261   */\n      add\n        /* \"#utility.yul\":14235:14261   */\n      swap1\n      pop\n        /* \"#utility.yul\":14271:14342   */\n      tag_412\n        /* \"#utility.yul\":14339:14340   */\n      0x00\n        /* \"#utility.yul\":14328:14337   */\n      dup4\n        /* \"#utility.yul\":14324:14341   */\n      add\n        /* \"#utility.yul\":14315:14321   */\n      dup6\n        /* \"#utility.yul\":14271:14342   */\n      tag_247\n      jump\t// in\n    tag_412:\n        /* \"#utility.yul\":14352:14424   */\n      tag_413\n        /* \"#utility.yul\":14420:14422   */\n      0x20\n        /* \"#utility.yul\":14409:14418   */\n      dup4\n        /* \"#utility.yul\":14405:14423   */\n      add\n        /* \"#utility.yul\":14396:14402   */\n      dup5\n        /* \"#utility.yul\":14352:14424   */\n      tag_224\n      jump\t// in\n    tag_413:\n        /* \"#utility.yul\":14099:14431   */\n      swap4\n      swap3\n      pop\n      pop\n      pop\n      jump\t// out\n\n    auxdata: 0xa26469706673582212201c0a25d4af3e76bfe58d3cec6aef6c7f3f0aacc49dbc8163cd8c7ed9298a69a064736f6c634300081a0033\n}\n",
				"bytecode": {
					"linkReferences": {},
					"object": "608060405234801561001057600080fd5b506040516119683803806119688339818101604052810190610032919061011d565b816000806101000a81548173ffffffffffffffffffffffffffffffffffffffff021916908373ffffffffffffffffffffffffffffffffffffffff16021790555080600160006101000a81548173ffffffffffffffffffffffffffffffffffffffff021916908373ffffffffffffffffffffffffffffffffffffffff160217905550505061015d565b600080fd5b600073ffffffffffffffffffffffffffffffffffffffff82169050919050565b60006100ea826100bf565b9050919050565b6100fa816100df565b811461010557600080fd5b50565b600081519050610117816100f1565b92915050565b60008060408385031215610134576101336100ba565b5b600061014285828601610108565b925050602061015385828601610108565b9150509250929050565b6117fc8061016c6000396000f3fe608060405234801561001057600080fd5b506004361061009e5760003560e01c80639cd441da116100665780639cd441da1461013a578063a035b1fe14610156578063d21220a714610174578063db068e0e14610192578063eced5526146101ae5761009e565b80630902f1ac146100a35780630dfe1681146100c25780632e0f2625146100e0578063443cb4bc146100fe5780635a76f25e1461011c575b600080fd5b6100ab6101cc565b6040516100b9929190610ff7565b60405180910390f35b6100ca61020d565b6040516100d7919061109f565b60405180910390f35b6100e8610231565b6040516100f591906110d6565b60405180910390f35b610106610236565b60405161011391906110f1565b60405180910390f35b61012461023c565b60405161013191906110f1565b60405180910390f35b610154600480360381019061014f919061113d565b610242565b005b61015e61046b565b60405161016b91906110f1565b60405180910390f35b61017c610471565b604051610189919061109f565b60405180910390f35b6101ac60048036038101906101a7919061117d565b610497565b005b6101b6610510565b6040516101c391906110f1565b60405180910390f35b6000806003600a6101dd919061130c565b6002546101ea9190611386565b6003600a6101f8919061130c565b6003546102059190611386565b915091509091565b60008054906101000a900473ffffffffffffffffffffffffffffffffffffffff1681565b600381565b60025481565b60035481565b6000821180156102525750600081115b610291576040517f08c379a000000000000000000000000000000000000000000000000000000000815260040161028890611414565b60405180910390fd5b60008054906101000a900473ffffffffffffffffffffffffffffffffffffffff1673ffffffffffffffffffffffffffffffffffffffff166323b872dd33306003600a6102dd919061130c565b866102e89190611434565b6040518463ffffffff1660e01b815260040161030693929190611497565b6020604051808303816000875af1158015610325573d6000803e3d6000fd5b505050506040513d601f19601f820116820180604052508101906103499190611506565b50600160009054906101000a900473ffffffffffffffffffffffffffffffffffffffff1673ffffffffffffffffffffffffffffffffffffffff166323b872dd33306003600a610398919061130c565b856103a39190611434565b6040518463ffffffff1660e01b81526004016103c193929190611497565b6020604051808303816000875af11580156103e0573d6000803e3d6000fd5b505050506040513d601f19601f820116820180604052508101906104049190611506565b506003600a610413919061130c565b8261041e9190611434565b6002600082825461042f9190611533565b925050819055506003600a610444919061130c565b8161044f9190611434565b600360008282546104609190611533565b925050819055505050565b60045481565b600160009054906101000a900473ffffffffffffffffffffffffffffffffffffffff1681565b600081116104da576040517f08c379a00000000000000000000000000000000000000000000000000000000081526004016104d1906115b3565b60405180910390fd5b600060045490506003600a6104ef919061130c565b826104fa9190611434565b60048190555061050c81600454610521565b5050565b6003600a61051e919061130c565b81565b60006105746003600a610534919061130c565b6003600a610542919061130c565b61054c9190611434565b838560025461055b9190611434565b6105659190611434565b61056f9190611386565b610620565b90506000816003546002546105899190611434565b6105939190611386565b90506002548111156105da5760006003600a6105af919061130c565b600254836105bd91906115d3565b6105c79190611386565b90506105d460008261069a565b5061061a565b60006003600a6105ea919061130c565b826002546105f891906115d3565b6106029190611386565b905061061860008261061390611611565b61069a565b505b50505050565b60006003821115610687578190506000600160028461063f9190611386565b6106499190611533565b90505b818110156106815780915060028182856106669190611386565b6106709190611533565b61067a9190611386565b905061064c565b50610695565b6000821461069457600190505b5b919050565b60008260000b14806106af575060018260000b145b6106ee576040517f08c379a00000000000000000000000000000000000000000000000000000000081526004016106e5906116a5565b60405180910390fd5b60008103610731576040517f08c379a000000000000000000000000000000000000000000000000000000000815260040161072890611711565b60405180910390fd5b60008260000b03610b8d5760008113156109645760006003600a610755919061130c565b826107609190611434565b905060006003600a610772919061130c565b600454836107809190611434565b61078a9190611386565b90506003548111156107d1576040517f08c379a00000000000000000000000000000000000000000000000000000000081526004016107c89061177d565b60405180910390fd5b60008054906101000a900473ffffffffffffffffffffffffffffffffffffffff1673ffffffffffffffffffffffffffffffffffffffff166323b872dd3330856040518463ffffffff1660e01b815260040161082e93929190611497565b6020604051808303816000875af115801561084d573d6000803e3d6000fd5b505050506040513d601f19601f820116820180604052508101906108719190611506565b50600160009054906101000a900473ffffffffffffffffffffffffffffffffffffffff1673ffffffffffffffffffffffffffffffffffffffff1663a9059cbb336003600a6108bf919061130c565b846108ca9190611386565b6040518363ffffffff1660e01b81526004016108e792919061179d565b6020604051808303816000875af1158015610906573d6000803e3d6000fd5b505050506040513d601f19601f8201168201806040525081019061092a9190611506565b50816002600082825461093d9190611533565b92505081905550806003600082825461095691906115d3565b925050819055505050610b88565b60006003600a610974919061130c565b8261097e90611611565b6109889190611434565b905060006003600a61099a919061130c565b600454836109a89190611434565b6109b29190611386565b90506002548211156109f9576040517f08c379a00000000000000000000000000000000000000000000000000000000081526004016109f09061177d565b60405180910390fd5b600160009054906101000a900473ffffffffffffffffffffffffffffffffffffffff1673ffffffffffffffffffffffffffffffffffffffff166323b872dd3330846040518463ffffffff1660e01b8152600401610a5893929190611497565b6020604051808303816000875af1158015610a77573d6000803e3d6000fd5b505050506040513d601f19601f82011682018060405250810190610a9b9190611506565b5060008054906101000a900473ffffffffffffffffffffffffffffffffffffffff1673ffffffffffffffffffffffffffffffffffffffff1663a9059cbb336003600a610ae7919061130c565b85610af29190611386565b6040518363ffffffff1660e01b8152600401610b0f92919061179d565b6020604051808303816000875af1158015610b2e573d6000803e3d6000fd5b505050506040513d601f19601f82011682018060405250810190610b529190611506565b508060036000828254610b659190611533565b925050819055508160026000828254610b7e91906115d3565b9250508190555050505b610fda565b6000811315610db55760006003600a610ba6919061130c565b82610bb19190611434565b905060006004546003600a610bc6919061130c565b83610bd19190611434565b610bdb9190611386565b9050600254811115610c22576040517f08c379a0000000000000000000000000000000000000000000000000000000008152600401610c199061177d565b60405180910390fd5b600160009054906101000a900473ffffffffffffffffffffffffffffffffffffffff1673ffffffffffffffffffffffffffffffffffffffff166323b872dd3330856040518463ffffffff1660e01b8152600401610c8193929190611497565b6020604051808303816000875af1158015610ca0573d6000803e3d6000fd5b505050506040513d601f19601f82011682018060405250810190610cc49190611506565b5060008054906101000a900473ffffffffffffffffffffffffffffffffffffffff1673ffffffffffffffffffffffffffffffffffffffff1663a9059cbb336003600a610d10919061130c565b84610d1b9190611386565b6040518363ffffffff1660e01b8152600401610d3892919061179d565b6020604051808303816000875af1158015610d57573d6000803e3d6000fd5b505050506040513d601f19601f82011682018060405250810190610d7b9190611506565b508160036000828254610d8e9190611533565b925050819055508060026000828254610da791906115d3565b925050819055505050610fd9565b60006003600a610dc5919061130c565b82610dcf90611611565b610dd99190611434565b905060006004546003600a610dee919061130c565b83610df99190611434565b610e039190611386565b9050600354821115610e4a576040517f08c379a0000000000000000000000000000000000000000000000000000000008152600401610e419061177d565b60405180910390fd5b60008054906101000a900473ffffffffffffffffffffffffffffffffffffffff1673ffffffffffffffffffffffffffffffffffffffff166323b872dd3330846040518463ffffffff1660e01b8152600401610ea793929190611497565b6020604051808303816000875af1158015610ec6573d6000803e3d6000fd5b505050506040513d601f19601f82011682018060405250810190610eea9190611506565b50600160009054906101000a900473ffffffffffffffffffffffffffffffffffffffff1673ffffffffffffffffffffffffffffffffffffffff1663a9059cbb336003600a610f38919061130c565b85610f439190611386565b6040518363ffffffff1660e01b8152600401610f6092919061179d565b6020604051808303816000875af1158015610f7f573d6000803e3d6000fd5b505050506040513d601f19601f82011682018060405250810190610fa39190611506565b508060026000828254610fb69190611533565b925050819055508160036000828254610fcf91906115d3565b9250508190555050505b5b5050565b6000819050919050565b610ff181610fde565b82525050565b600060408201905061100c6000830185610fe8565b6110196020830184610fe8565b9392505050565b600073ffffffffffffffffffffffffffffffffffffffff82169050919050565b6000819050919050565b600061106561106061105b84611020565b611040565b611020565b9050919050565b60006110778261104a565b9050919050565b60006110898261106c565b9050919050565b6110998161107e565b82525050565b60006020820190506110b46000830184611090565b92915050565b600060ff82169050919050565b6110d0816110ba565b82525050565b60006020820190506110eb60008301846110c7565b92915050565b60006020820190506111066000830184610fe8565b92915050565b600080fd5b61111a81610fde565b811461112557600080fd5b50565b60008135905061113781611111565b92915050565b600080604083850312156111545761115361110c565b5b600061116285828601611128565b925050602061117385828601611128565b9150509250929050565b6000602082840312156111935761119261110c565b5b60006111a184828501611128565b91505092915050565b7f4e487b7100000000000000000000000000000000000000000000000000000000600052601160045260246000fd5b60008160011c9050919050565b6000808291508390505b60018511156112305780860481111561120c5761120b6111aa565b5b600185161561121b5780820291505b8081029050611229856111d9565b94506111f0565b94509492505050565b6000826112495760019050611305565b816112575760009050611305565b816001811461126d5760028114611277576112a6565b6001915050611305565b60ff841115611289576112886111aa565b5b8360020a9150848211156112a05761129f6111aa565b5b50611305565b5060208310610133831016604e8410600b84101617156112db5782820a9050838111156112d6576112d56111aa565b5b611305565b6112e884848460016111e6565b925090508184048111156112ff576112fe6111aa565b5b81810290505b9392505050565b600061131782610fde565b9150611322836110ba565b925061134f7fffffffffffffffffffffffffffffffffffffffffffffffffffffffffffffffff8484611239565b905092915050565b7f4e487b7100000000000000000000000000000000000000000000000000000000600052601260045260246000fd5b600061139182610fde565b915061139c83610fde565b9250826113ac576113ab611357565b5b828204905092915050565b600082825260208201905092915050565b7f496e76616c696420616d6f756e74730000000000000000000000000000000000600082015250565b60006113fe600f836113b7565b9150611409826113c8565b602082019050919050565b6000602082019050818103600083015261142d816113f1565b9050919050565b600061143f82610fde565b915061144a83610fde565b925082820261145881610fde565b9150828204841483151761146f5761146e6111aa565b5b5092915050565b600061148182611020565b9050919050565b61149181611476565b82525050565b60006060820190506114ac6000830186611488565b6114b96020830185611488565b6114c66040830184610fe8565b949350505050565b60008115159050919050565b6114e3816114ce565b81146114ee57600080fd5b50565b600081519050611500816114da565b92915050565b60006020828403121561151c5761151b61110c565b5b600061152a848285016114f1565b91505092915050565b600061153e82610fde565b915061154983610fde565b9250828201905080821115611561576115606111aa565b5b92915050565b7f496e76616c696420746172676574207072696365000000000000000000000000600082015250565b600061159d6014836113b7565b91506115a882611567565b602082019050919050565b600060208201905081810360008301526115cc81611590565b9050919050565b60006115de82610fde565b91506115e983610fde565b9250828203905081811115611601576116006111aa565b5b92915050565b6000819050919050565b600061161c82611607565b91507f8000000000000000000000000000000000000000000000000000000000000000820361164e5761164d6111aa565b5b816000039050919050565b7f496e76616c696420746f6b656e20696e64657800000000000000000000000000600082015250565b600061168f6013836113b7565b915061169a82611659565b602082019050919050565b600060208201905081810360008301526116be81611682565b9050919050565b7f496e76616c696420616d6f756e74000000000000000000000000000000000000600082015250565b60006116fb600e836113b7565b9150611706826116c5565b602082019050919050565b6000602082019050818103600083015261172a816116ee565b9050919050565b7f4e6f7420656e6f756768206c6971756964697479000000000000000000000000600082015250565b60006117676014836113b7565b915061177282611731565b602082019050919050565b600060208201905081810360008301526117968161175a565b9050919050565b60006040820190506117b26000830185611488565b6117bf6020830184610fe8565b939250505056fea26469706673582212201c0a25d4af3e76bfe58d3cec6aef6c7f3f0aacc49dbc8163cd8c7ed9298a69a064736f6c634300081a0033",
					"opcodes": "PUSH1 0x80 PUSH1 0x40 MSTORE CALLVALUE DUP1 ISZERO PUSH2 0x10 JUMPI PUSH1 0x0 DUP1 REVERT JUMPDEST POP PUSH1 0x40 MLOAD PUSH2 0x1968 CODESIZE SUB DUP1 PUSH2 0x1968 DUP4 CODECOPY DUP2 DUP2 ADD PUSH1 0x40 MSTORE DUP2 ADD SWAP1 PUSH2 0x32 SWAP2 SWAP1 PUSH2 0x11D JUMP JUMPDEST DUP2 PUSH1 0x0 DUP1 PUSH2 0x100 EXP DUP2 SLOAD DUP2 PUSH20 0xFFFFFFFFFFFFFFFFFFFFFFFFFFFFFFFFFFFFFFFF MUL NOT AND SWAP1 DUP4 PUSH20 0xFFFFFFFFFFFFFFFFFFFFFFFFFFFFFFFFFFFFFFFF AND MUL OR SWAP1 SSTORE POP DUP1 PUSH1 0x1 PUSH1 0x0 PUSH2 0x100 EXP DUP2 SLOAD DUP2 PUSH20 0xFFFFFFFFFFFFFFFFFFFFFFFFFFFFFFFFFFFFFFFF MUL NOT AND SWAP1 DUP4 PUSH20 0xFFFFFFFFFFFFFFFFFFFFFFFFFFFFFFFFFFFFFFFF AND MUL OR SWAP1 SSTORE POP POP POP PUSH2 0x15D JUMP JUMPDEST PUSH1 0x0 DUP1 REVERT JUMPDEST PUSH1 0x0 PUSH20 0xFFFFFFFFFFFFFFFFFFFFFFFFFFFFFFFFFFFFFFFF DUP3 AND SWAP1 POP SWAP2 SWAP1 POP JUMP JUMPDEST PUSH1 0x0 PUSH2 0xEA DUP3 PUSH2 0xBF JUMP JUMPDEST SWAP1 POP SWAP2 SWAP1 POP JUMP JUMPDEST PUSH2 0xFA DUP2 PUSH2 0xDF JUMP JUMPDEST DUP2 EQ PUSH2 0x105 JUMPI PUSH1 0x0 DUP1 REVERT JUMPDEST POP JUMP JUMPDEST PUSH1 0x0 DUP2 MLOAD SWAP1 POP PUSH2 0x117 DUP2 PUSH2 0xF1 JUMP JUMPDEST SWAP3 SWAP2 POP POP JUMP JUMPDEST PUSH1 0x0 DUP1 PUSH1 0x40 DUP4 DUP6 SUB SLT ISZERO PUSH2 0x134 JUMPI PUSH2 0x133 PUSH2 0xBA JUMP JUMPDEST JUMPDEST PUSH1 0x0 PUSH2 0x142 DUP6 DUP3 DUP7 ADD PUSH2 0x108 JUMP JUMPDEST SWAP3 POP POP PUSH1 0x20 PUSH2 0x153 DUP6 DUP3 DUP7 ADD PUSH2 0x108 JUMP JUMPDEST SWAP2 POP POP SWAP3 POP SWAP3 SWAP1 POP JUMP JUMPDEST PUSH2 0x17FC DUP1 PUSH2 0x16C PUSH1 0x0 CODECOPY PUSH1 0x0 RETURN INVALID PUSH1 0x80 PUSH1 0x40 MSTORE CALLVALUE DUP1 ISZERO PUSH2 0x10 JUMPI PUSH1 0x0 DUP1 REVERT JUMPDEST POP PUSH1 0x4 CALLDATASIZE LT PUSH2 0x9E JUMPI PUSH1 0x0 CALLDATALOAD PUSH1 0xE0 SHR DUP1 PUSH4 0x9CD441DA GT PUSH2 0x66 JUMPI DUP1 PUSH4 0x9CD441DA EQ PUSH2 0x13A JUMPI DUP1 PUSH4 0xA035B1FE EQ PUSH2 0x156 JUMPI DUP1 PUSH4 0xD21220A7 EQ PUSH2 0x174 JUMPI DUP1 PUSH4 0xDB068E0E EQ PUSH2 0x192 JUMPI DUP1 PUSH4 0xECED5526 EQ PUSH2 0x1AE JUMPI PUSH2 0x9E JUMP JUMPDEST DUP1 PUSH4 0x902F1AC EQ PUSH2 0xA3 JUMPI DUP1 PUSH4 0xDFE1681 EQ PUSH2 0xC2 JUMPI DUP1 PUSH4 0x2E0F2625 EQ PUSH2 0xE0 JUMPI DUP1 PUSH4 0x443CB4BC EQ PUSH2 0xFE JUMPI DUP1 PUSH4 0x5A76F25E EQ PUSH2 0x11C JUMPI JUMPDEST PUSH1 0x0 DUP1 REVERT JUMPDEST PUSH2 0xAB PUSH2 0x1CC JUMP JUMPDEST PUSH1 0x40 MLOAD PUSH2 0xB9 SWAP3 SWAP2 SWAP1 PUSH2 0xFF7 JUMP JUMPDEST PUSH1 0x40 MLOAD DUP1 SWAP2 SUB SWAP1 RETURN JUMPDEST PUSH2 0xCA PUSH2 0x20D JUMP JUMPDEST PUSH1 0x40 MLOAD PUSH2 0xD7 SWAP2 SWAP1 PUSH2 0x109F JUMP JUMPDEST PUSH1 0x40 MLOAD DUP1 SWAP2 SUB SWAP1 RETURN JUMPDEST PUSH2 0xE8 PUSH2 0x231 JUMP JUMPDEST PUSH1 0x40 MLOAD PUSH2 0xF5 SWAP2 SWAP1 PUSH2 0x10D6 JUMP JUMPDEST PUSH1 0x40 MLOAD DUP1 SWAP2 SUB SWAP1 RETURN JUMPDEST PUSH2 0x106 PUSH2 0x236 JUMP JUMPDEST PUSH1 0x40 MLOAD PUSH2 0x113 SWAP2 SWAP1 PUSH2 0x10F1 JUMP JUMPDEST PUSH1 0x40 MLOAD DUP1 SWAP2 SUB SWAP1 RETURN JUMPDEST PUSH2 0x124 PUSH2 0x23C JUMP JUMPDEST PUSH1 0x40 MLOAD PUSH2 0x131 SWAP2 SWAP1 PUSH2 0x10F1 JUMP JUMPDEST PUSH1 0x40 MLOAD DUP1 SWAP2 SUB SWAP1 RETURN JUMPDEST PUSH2 0x154 PUSH1 0x4 DUP1 CALLDATASIZE SUB DUP2 ADD SWAP1 PUSH2 0x14F SWAP2 SWAP1 PUSH2 0x113D JUMP JUMPDEST PUSH2 0x242 JUMP JUMPDEST STOP JUMPDEST PUSH2 0x15E PUSH2 0x46B JUMP JUMPDEST PUSH1 0x40 MLOAD PUSH2 0x16B SWAP2 SWAP1 PUSH2 0x10F1 JUMP JUMPDEST PUSH1 0x40 MLOAD DUP1 SWAP2 SUB SWAP1 RETURN JUMPDEST PUSH2 0x17C PUSH2 0x471 JUMP JUMPDEST PUSH1 0x40 MLOAD PUSH2 0x189 SWAP2 SWAP1 PUSH2 0x109F JUMP JUMPDEST PUSH1 0x40 MLOAD DUP1 SWAP2 SUB SWAP1 RETURN JUMPDEST PUSH2 0x1AC PUSH1 0x4 DUP1 CALLDATASIZE SUB DUP2 ADD SWAP1 PUSH2 0x1A7 SWAP2 SWAP1 PUSH2 0x117D JUMP JUMPDEST PUSH2 0x497 JUMP JUMPDEST STOP JUMPDEST PUSH2 0x1B6 PUSH2 0x510 JUMP JUMPDEST PUSH1 0x40 MLOAD PUSH2 0x1C3 SWAP2 SWAP1 PUSH2 0x10F1 JUMP JUMPDEST PUSH1 0x40 MLOAD DUP1 SWAP2 SUB SWAP1 RETURN JUMPDEST PUSH1 0x0 DUP1 PUSH1 0x3 PUSH1 0xA PUSH2 0x1DD SWAP2 SWAP1 PUSH2 0x130C JUMP JUMPDEST PUSH1 0x2 SLOAD PUSH2 0x1EA SWAP2 SWAP1 PUSH2 0x1386 JUMP JUMPDEST PUSH1 0x3 PUSH1 0xA PUSH2 0x1F8 SWAP2 SWAP1 PUSH2 0x130C JUMP JUMPDEST PUSH1 0x3 SLOAD PUSH2 0x205 SWAP2 SWAP1 PUSH2 0x1386 JUMP JUMPDEST SWAP2 POP SWAP2 POP SWAP1 SWAP2 JUMP JUMPDEST PUSH1 0x0 DUP1 SLOAD SWAP1 PUSH2 0x100 EXP SWAP1 DIV PUSH20 0xFFFFFFFFFFFFFFFFFFFFFFFFFFFFFFFFFFFFFFFF AND DUP2 JUMP JUMPDEST PUSH1 0x3 DUP2 JUMP JUMPDEST PUSH1 0x2 SLOAD DUP2 JUMP JUMPDEST PUSH1 0x3 SLOAD DUP2 JUMP JUMPDEST PUSH1 0x0 DUP3 GT DUP1 ISZERO PUSH2 0x252 JUMPI POP PUSH1 0x0 DUP2 GT JUMPDEST PUSH2 0x291 JUMPI PUSH1 0x40 MLOAD PUSH32 0x8C379A000000000000000000000000000000000000000000000000000000000 DUP2 MSTORE PUSH1 0x4 ADD PUSH2 0x288 SWAP1 PUSH2 0x1414 JUMP JUMPDEST PUSH1 0x40 MLOAD DUP1 SWAP2 SUB SWAP1 REVERT JUMPDEST PUSH1 0x0 DUP1 SLOAD SWAP1 PUSH2 0x100 EXP SWAP1 DIV PUSH20 0xFFFFFFFFFFFFFFFFFFFFFFFFFFFFFFFFFFFFFFFF AND PUSH20 0xFFFFFFFFFFFFFFFFFFFFFFFFFFFFFFFFFFFFFFFF AND PUSH4 0x23B872DD CALLER ADDRESS PUSH1 0x3 PUSH1 0xA PUSH2 0x2DD SWAP2 SWAP1 PUSH2 0x130C JUMP JUMPDEST DUP7 PUSH2 0x2E8 SWAP2 SWAP1 PUSH2 0x1434 JUMP JUMPDEST PUSH1 0x40 MLOAD DUP5 PUSH4 0xFFFFFFFF AND PUSH1 0xE0 SHL DUP2 MSTORE PUSH1 0x4 ADD PUSH2 0x306 SWAP4 SWAP3 SWAP2 SWAP1 PUSH2 0x1497 JUMP JUMPDEST PUSH1 0x20 PUSH1 0x40 MLOAD DUP1 DUP4 SUB DUP2 PUSH1 0x0 DUP8 GAS CALL ISZERO DUP1 ISZERO PUSH2 0x325 JUMPI RETURNDATASIZE PUSH1 0x0 DUP1 RETURNDATACOPY RETURNDATASIZE PUSH1 0x0 REVERT JUMPDEST POP POP POP POP PUSH1 0x40 MLOAD RETURNDATASIZE PUSH1 0x1F NOT PUSH1 0x1F DUP3 ADD AND DUP3 ADD DUP1 PUSH1 0x40 MSTORE POP DUP2 ADD SWAP1 PUSH2 0x349 SWAP2 SWAP1 PUSH2 0x1506 JUMP JUMPDEST POP PUSH1 0x1 PUSH1 0x0 SWAP1 SLOAD SWAP1 PUSH2 0x100 EXP SWAP1 DIV PUSH20 0xFFFFFFFFFFFFFFFFFFFFFFFFFFFFFFFFFFFFFFFF AND PUSH20 0xFFFFFFFFFFFFFFFFFFFFFFFFFFFFFFFFFFFFFFFF AND PUSH4 0x23B872DD CALLER ADDRESS PUSH1 0x3 PUSH1 0xA PUSH2 0x398 SWAP2 SWAP1 PUSH2 0x130C JUMP JUMPDEST DUP6 PUSH2 0x3A3 SWAP2 SWAP1 PUSH2 0x1434 JUMP JUMPDEST PUSH1 0x40 MLOAD DUP5 PUSH4 0xFFFFFFFF AND PUSH1 0xE0 SHL DUP2 MSTORE PUSH1 0x4 ADD PUSH2 0x3C1 SWAP4 SWAP3 SWAP2 SWAP1 PUSH2 0x1497 JUMP JUMPDEST PUSH1 0x20 PUSH1 0x40 MLOAD DUP1 DUP4 SUB DUP2 PUSH1 0x0 DUP8 GAS CALL ISZERO DUP1 ISZERO PUSH2 0x3E0 JUMPI RETURNDATASIZE PUSH1 0x0 DUP1 RETURNDATACOPY RETURNDATASIZE PUSH1 0x0 REVERT JUMPDEST POP POP POP POP PUSH1 0x40 MLOAD RETURNDATASIZE PUSH1 0x1F NOT PUSH1 0x1F DUP3 ADD AND DUP3 ADD DUP1 PUSH1 0x40 MSTORE POP DUP2 ADD SWAP1 PUSH2 0x404 SWAP2 SWAP1 PUSH2 0x1506 JUMP JUMPDEST POP PUSH1 0x3 PUSH1 0xA PUSH2 0x413 SWAP2 SWAP1 PUSH2 0x130C JUMP JUMPDEST DUP3 PUSH2 0x41E SWAP2 SWAP1 PUSH2 0x1434 JUMP JUMPDEST PUSH1 0x2 PUSH1 0x0 DUP3 DUP3 SLOAD PUSH2 0x42F SWAP2 SWAP1 PUSH2 0x1533 JUMP JUMPDEST SWAP3 POP POP DUP2 SWAP1 SSTORE POP PUSH1 0x3 PUSH1 0xA PUSH2 0x444 SWAP2 SWAP1 PUSH2 0x130C JUMP JUMPDEST DUP2 PUSH2 0x44F SWAP2 SWAP1 PUSH2 0x1434 JUMP JUMPDEST PUSH1 0x3 PUSH1 0x0 DUP3 DUP3 SLOAD PUSH2 0x460 SWAP2 SWAP1 PUSH2 0x1533 JUMP JUMPDEST SWAP3 POP POP DUP2 SWAP1 SSTORE POP POP POP JUMP JUMPDEST PUSH1 0x4 SLOAD DUP2 JUMP JUMPDEST PUSH1 0x1 PUSH1 0x0 SWAP1 SLOAD SWAP1 PUSH2 0x100 EXP SWAP1 DIV PUSH20 0xFFFFFFFFFFFFFFFFFFFFFFFFFFFFFFFFFFFFFFFF AND DUP2 JUMP JUMPDEST PUSH1 0x0 DUP2 GT PUSH2 0x4DA JUMPI PUSH1 0x40 MLOAD PUSH32 0x8C379A000000000000000000000000000000000000000000000000000000000 DUP2 MSTORE PUSH1 0x4 ADD PUSH2 0x4D1 SWAP1 PUSH2 0x15B3 JUMP JUMPDEST PUSH1 0x40 MLOAD DUP1 SWAP2 SUB SWAP1 REVERT JUMPDEST PUSH1 0x0 PUSH1 0x4 SLOAD SWAP1 POP PUSH1 0x3 PUSH1 0xA PUSH2 0x4EF SWAP2 SWAP1 PUSH2 0x130C JUMP JUMPDEST DUP3 PUSH2 0x4FA SWAP2 SWAP1 PUSH2 0x1434 JUMP JUMPDEST PUSH1 0x4 DUP2 SWAP1 SSTORE POP PUSH2 0x50C DUP2 PUSH1 0x4 SLOAD PUSH2 0x521 JUMP JUMPDEST POP POP JUMP JUMPDEST PUSH1 0x3 PUSH1 0xA PUSH2 0x51E SWAP2 SWAP1 PUSH2 0x130C JUMP JUMPDEST DUP2 JUMP JUMPDEST PUSH1 0x0 PUSH2 0x574 PUSH1 0x3 PUSH1 0xA PUSH2 0x534 SWAP2 SWAP1 PUSH2 0x130C JUMP JUMPDEST PUSH1 0x3 PUSH1 0xA PUSH2 0x542 SWAP2 SWAP1 PUSH2 0x130C JUMP JUMPDEST PUSH2 0x54C SWAP2 SWAP1 PUSH2 0x1434 JUMP JUMPDEST DUP4 DUP6 PUSH1 0x2 SLOAD PUSH2 0x55B SWAP2 SWAP1 PUSH2 0x1434 JUMP JUMPDEST PUSH2 0x565 SWAP2 SWAP1 PUSH2 0x1434 JUMP JUMPDEST PUSH2 0x56F SWAP2 SWAP1 PUSH2 0x1386 JUMP JUMPDEST PUSH2 0x620 JUMP JUMPDEST SWAP1 POP PUSH1 0x0 DUP2 PUSH1 0x3 SLOAD PUSH1 0x2 SLOAD PUSH2 0x589 SWAP2 SWAP1 PUSH2 0x1434 JUMP JUMPDEST PUSH2 0x593 SWAP2 SWAP1 PUSH2 0x1386 JUMP JUMPDEST SWAP1 POP PUSH1 0x2 SLOAD DUP2 GT ISZERO PUSH2 0x5DA JUMPI PUSH1 0x0 PUSH1 0x3 PUSH1 0xA PUSH2 0x5AF SWAP2 SWAP1 PUSH2 0x130C JUMP JUMPDEST PUSH1 0x2 SLOAD DUP4 PUSH2 0x5BD SWAP2 SWAP1 PUSH2 0x15D3 JUMP JUMPDEST PUSH2 0x5C7 SWAP2 SWAP1 PUSH2 0x1386 JUMP JUMPDEST SWAP1 POP PUSH2 0x5D4 PUSH1 0x0 DUP3 PUSH2 0x69A JUMP JUMPDEST POP PUSH2 0x61A JUMP JUMPDEST PUSH1 0x0 PUSH1 0x3 PUSH1 0xA PUSH2 0x5EA SWAP2 SWAP1 PUSH2 0x130C JUMP JUMPDEST DUP3 PUSH1 0x2 SLOAD PUSH2 0x5F8 SWAP2 SWAP1 PUSH2 0x15D3 JUMP JUMPDEST PUSH2 0x602 SWAP2 SWAP1 PUSH2 0x1386 JUMP JUMPDEST SWAP1 POP PUSH2 0x618 PUSH1 0x0 DUP3 PUSH2 0x613 SWAP1 PUSH2 0x1611 JUMP JUMPDEST PUSH2 0x69A JUMP JUMPDEST POP JUMPDEST POP POP POP POP JUMP JUMPDEST PUSH1 0x0 PUSH1 0x3 DUP3 GT ISZERO PUSH2 0x687 JUMPI DUP2 SWAP1 POP PUSH1 0x0 PUSH1 0x1 PUSH1 0x2 DUP5 PUSH2 0x63F SWAP2 SWAP1 PUSH2 0x1386 JUMP JUMPDEST PUSH2 0x649 SWAP2 SWAP1 PUSH2 0x1533 JUMP JUMPDEST SWAP1 POP JUMPDEST DUP2 DUP2 LT ISZERO PUSH2 0x681 JUMPI DUP1 SWAP2 POP PUSH1 0x2 DUP2 DUP3 DUP6 PUSH2 0x666 SWAP2 SWAP1 PUSH2 0x1386 JUMP JUMPDEST PUSH2 0x670 SWAP2 SWAP1 PUSH2 0x1533 JUMP JUMPDEST PUSH2 0x67A SWAP2 SWAP1 PUSH2 0x1386 JUMP JUMPDEST SWAP1 POP PUSH2 0x64C JUMP JUMPDEST POP PUSH2 0x695 JUMP JUMPDEST PUSH1 0x0 DUP3 EQ PUSH2 0x694 JUMPI PUSH1 0x1 SWAP1 POP JUMPDEST JUMPDEST SWAP2 SWAP1 POP JUMP JUMPDEST PUSH1 0x0 DUP3 PUSH1 0x0 SIGNEXTEND EQ DUP1 PUSH2 0x6AF JUMPI POP PUSH1 0x1 DUP3 PUSH1 0x0 SIGNEXTEND EQ JUMPDEST PUSH2 0x6EE JUMPI PUSH1 0x40 MLOAD PUSH32 0x8C379A000000000000000000000000000000000000000000000000000000000 DUP2 MSTORE PUSH1 0x4 ADD PUSH2 0x6E5 SWAP1 PUSH2 0x16A5 JUMP JUMPDEST PUSH1 0x40 MLOAD DUP1 SWAP2 SUB SWAP1 REVERT JUMPDEST PUSH1 0x0 DUP2 SUB PUSH2 0x731 JUMPI PUSH1 0x40 MLOAD PUSH32 0x8C379A000000000000000000000000000000000000000000000000000000000 DUP2 MSTORE PUSH1 0x4 ADD PUSH2 0x728 SWAP1 PUSH2 0x1711 JUMP JUMPDEST PUSH1 0x40 MLOAD DUP1 SWAP2 SUB SWAP1 REVERT JUMPDEST PUSH1 0x0 DUP3 PUSH1 0x0 SIGNEXTEND SUB PUSH2 0xB8D JUMPI PUSH1 0x0 DUP2 SGT ISZERO PUSH2 0x964 JUMPI PUSH1 0x0 PUSH1 0x3 PUSH1 0xA PUSH2 0x755 SWAP2 SWAP1 PUSH2 0x130C JUMP JUMPDEST DUP3 PUSH2 0x760 SWAP2 SWAP1 PUSH2 0x1434 JUMP JUMPDEST SWAP1 POP PUSH1 0x0 PUSH1 0x3 PUSH1 0xA PUSH2 0x772 SWAP2 SWAP1 PUSH2 0x130C JUMP JUMPDEST PUSH1 0x4 SLOAD DUP4 PUSH2 0x780 SWAP2 SWAP1 PUSH2 0x1434 JUMP JUMPDEST PUSH2 0x78A SWAP2 SWAP1 PUSH2 0x1386 JUMP JUMPDEST SWAP1 POP PUSH1 0x3 SLOAD DUP2 GT ISZERO PUSH2 0x7D1 JUMPI PUSH1 0x40 MLOAD PUSH32 0x8C379A000000000000000000000000000000000000000000000000000000000 DUP2 MSTORE PUSH1 0x4 ADD PUSH2 0x7C8 SWAP1 PUSH2 0x177D JUMP JUMPDEST PUSH1 0x40 MLOAD DUP1 SWAP2 SUB SWAP1 REVERT JUMPDEST PUSH1 0x0 DUP1 SLOAD SWAP1 PUSH2 0x100 EXP SWAP1 DIV PUSH20 0xFFFFFFFFFFFFFFFFFFFFFFFFFFFFFFFFFFFFFFFF AND PUSH20 0xFFFFFFFFFFFFFFFFFFFFFFFFFFFFFFFFFFFFFFFF AND PUSH4 0x23B872DD CALLER ADDRESS DUP6 PUSH1 0x40 MLOAD DUP5 PUSH4 0xFFFFFFFF AND PUSH1 0xE0 SHL DUP2 MSTORE PUSH1 0x4 ADD PUSH2 0x82E SWAP4 SWAP3 SWAP2 SWAP1 PUSH2 0x1497 JUMP JUMPDEST PUSH1 0x20 PUSH1 0x40 MLOAD DUP1 DUP4 SUB DUP2 PUSH1 0x0 DUP8 GAS CALL ISZERO DUP1 ISZERO PUSH2 0x84D JUMPI RETURNDATASIZE PUSH1 0x0 DUP1 RETURNDATACOPY RETURNDATASIZE PUSH1 0x0 REVERT JUMPDEST POP POP POP POP PUSH1 0x40 MLOAD RETURNDATASIZE PUSH1 0x1F NOT PUSH1 0x1F DUP3 ADD AND DUP3 ADD DUP1 PUSH1 0x40 MSTORE POP DUP2 ADD SWAP1 PUSH2 0x871 SWAP2 SWAP1 PUSH2 0x1506 JUMP JUMPDEST POP PUSH1 0x1 PUSH1 0x0 SWAP1 SLOAD SWAP1 PUSH2 0x100 EXP SWAP1 DIV PUSH20 0xFFFFFFFFFFFFFFFFFFFFFFFFFFFFFFFFFFFFFFFF AND PUSH20 0xFFFFFFFFFFFFFFFFFFFFFFFFFFFFFFFFFFFFFFFF AND PUSH4 0xA9059CBB CALLER PUSH1 0x3 PUSH1 0xA PUSH2 0x8BF SWAP2 SWAP1 PUSH2 0x130C JUMP JUMPDEST DUP5 PUSH2 0x8CA SWAP2 SWAP1 PUSH2 0x1386 JUMP JUMPDEST PUSH1 0x40 MLOAD DUP4 PUSH4 0xFFFFFFFF AND PUSH1 0xE0 SHL DUP2 MSTORE PUSH1 0x4 ADD PUSH2 0x8E7 SWAP3 SWAP2 SWAP1 PUSH2 0x179D JUMP JUMPDEST PUSH1 0x20 PUSH1 0x40 MLOAD DUP1 DUP4 SUB DUP2 PUSH1 0x0 DUP8 GAS CALL ISZERO DUP1 ISZERO PUSH2 0x906 JUMPI RETURNDATASIZE PUSH1 0x0 DUP1 RETURNDATACOPY RETURNDATASIZE PUSH1 0x0 REVERT JUMPDEST POP POP POP POP PUSH1 0x40 MLOAD RETURNDATASIZE PUSH1 0x1F NOT PUSH1 0x1F DUP3 ADD AND DUP3 ADD DUP1 PUSH1 0x40 MSTORE POP DUP2 ADD SWAP1 PUSH2 0x92A SWAP2 SWAP1 PUSH2 0x1506 JUMP JUMPDEST POP DUP2 PUSH1 0x2 PUSH1 0x0 DUP3 DUP3 SLOAD PUSH2 0x93D SWAP2 SWAP1 PUSH2 0x1533 JUMP JUMPDEST SWAP3 POP POP DUP2 SWAP1 SSTORE POP DUP1 PUSH1 0x3 PUSH1 0x0 DUP3 DUP3 SLOAD PUSH2 0x956 SWAP2 SWAP1 PUSH2 0x15D3 JUMP JUMPDEST SWAP3 POP POP DUP2 SWAP1 SSTORE POP POP POP PUSH2 0xB88 JUMP JUMPDEST PUSH1 0x0 PUSH1 0x3 PUSH1 0xA PUSH2 0x974 SWAP2 SWAP1 PUSH2 0x130C JUMP JUMPDEST DUP3 PUSH2 0x97E SWAP1 PUSH2 0x1611 JUMP JUMPDEST PUSH2 0x988 SWAP2 SWAP1 PUSH2 0x1434 JUMP JUMPDEST SWAP1 POP PUSH1 0x0 PUSH1 0x3 PUSH1 0xA PUSH2 0x99A SWAP2 SWAP1 PUSH2 0x130C JUMP JUMPDEST PUSH1 0x4 SLOAD DUP4 PUSH2 0x9A8 SWAP2 SWAP1 PUSH2 0x1434 JUMP JUMPDEST PUSH2 0x9B2 SWAP2 SWAP1 PUSH2 0x1386 JUMP JUMPDEST SWAP1 POP PUSH1 0x2 SLOAD DUP3 GT ISZERO PUSH2 0x9F9 JUMPI PUSH1 0x40 MLOAD PUSH32 0x8C379A000000000000000000000000000000000000000000000000000000000 DUP2 MSTORE PUSH1 0x4 ADD PUSH2 0x9F0 SWAP1 PUSH2 0x177D JUMP JUMPDEST PUSH1 0x40 MLOAD DUP1 SWAP2 SUB SWAP1 REVERT JUMPDEST PUSH1 0x1 PUSH1 0x0 SWAP1 SLOAD SWAP1 PUSH2 0x100 EXP SWAP1 DIV PUSH20 0xFFFFFFFFFFFFFFFFFFFFFFFFFFFFFFFFFFFFFFFF AND PUSH20 0xFFFFFFFFFFFFFFFFFFFFFFFFFFFFFFFFFFFFFFFF AND PUSH4 0x23B872DD CALLER ADDRESS DUP5 PUSH1 0x40 MLOAD DUP5 PUSH4 0xFFFFFFFF AND PUSH1 0xE0 SHL DUP2 MSTORE PUSH1 0x4 ADD PUSH2 0xA58 SWAP4 SWAP3 SWAP2 SWAP1 PUSH2 0x1497 JUMP JUMPDEST PUSH1 0x20 PUSH1 0x40 MLOAD DUP1 DUP4 SUB DUP2 PUSH1 0x0 DUP8 GAS CALL ISZERO DUP1 ISZERO PUSH2 0xA77 JUMPI RETURNDATASIZE PUSH1 0x0 DUP1 RETURNDATACOPY RETURNDATASIZE PUSH1 0x0 REVERT JUMPDEST POP POP POP POP PUSH1 0x40 MLOAD RETURNDATASIZE PUSH1 0x1F NOT PUSH1 0x1F DUP3 ADD AND DUP3 ADD DUP1 PUSH1 0x40 MSTORE POP DUP2 ADD SWAP1 PUSH2 0xA9B SWAP2 SWAP1 PUSH2 0x1506 JUMP JUMPDEST POP PUSH1 0x0 DUP1 SLOAD SWAP1 PUSH2 0x100 EXP SWAP1 DIV PUSH20 0xFFFFFFFFFFFFFFFFFFFFFFFFFFFFFFFFFFFFFFFF AND PUSH20 0xFFFFFFFFFFFFFFFFFFFFFFFFFFFFFFFFFFFFFFFF AND PUSH4 0xA9059CBB CALLER PUSH1 0x3 PUSH1 0xA PUSH2 0xAE7 SWAP2 SWAP1 PUSH2 0x130C JUMP JUMPDEST DUP6 PUSH2 0xAF2 SWAP2 SWAP1 PUSH2 0x1386 JUMP JUMPDEST PUSH1 0x40 MLOAD DUP4 PUSH4 0xFFFFFFFF AND PUSH1 0xE0 SHL DUP2 MSTORE PUSH1 0x4 ADD PUSH2 0xB0F SWAP3 SWAP2 SWAP1 PUSH2 0x179D JUMP JUMPDEST PUSH1 0x20 PUSH1 0x40 MLOAD DUP1 DUP4 SUB DUP2 PUSH1 0x0 DUP8 GAS CALL ISZERO DUP1 ISZERO PUSH2 0xB2E JUMPI RETURNDATASIZE PUSH1 0x0 DUP1 RETURNDATACOPY RETURNDATASIZE PUSH1 0x0 REVERT JUMPDEST POP POP POP POP PUSH1 0x40 MLOAD RETURNDATASIZE PUSH1 0x1F NOT PUSH1 0x1F DUP3 ADD AND DUP3 ADD DUP1 PUSH1 0x40 MSTORE POP DUP2 ADD SWAP1 PUSH2 0xB52 SWAP2 SWAP1 PUSH2 0x1506 JUMP JUMPDEST POP DUP1 PUSH1 0x3 PUSH1 0x0 DUP3 DUP3 SLOAD PUSH2 0xB65 SWAP2 SWAP1 PUSH2 0x1533 JUMP JUMPDEST SWAP3 POP POP DUP2 SWAP1 SSTORE POP DUP2 PUSH1 0x2 PUSH1 0x0 DUP3 DUP3 SLOAD PUSH2 0xB7E SWAP2 SWAP1 PUSH2 0x15D3 JUMP JUMPDEST SWAP3 POP POP DUP2 SWAP1 SSTORE POP POP POP JUMPDEST PUSH2 0xFDA JUMP JUMPDEST PUSH1 0x0 DUP2 SGT ISZERO PUSH2 0xDB5 JUMPI PUSH1 0x0 PUSH1 0x3 PUSH1 0xA PUSH2 0xBA6 SWAP2 SWAP1 PUSH2 0x130C JUMP JUMPDEST DUP3 PUSH2 0xBB1 SWAP2 SWAP1 PUSH2 0x1434 JUMP JUMPDEST SWAP1 POP PUSH1 0x0 PUSH1 0x4 SLOAD PUSH1 0x3 PUSH1 0xA PUSH2 0xBC6 SWAP2 SWAP1 PUSH2 0x130C JUMP JUMPDEST DUP4 PUSH2 0xBD1 SWAP2 SWAP1 PUSH2 0x1434 JUMP JUMPDEST PUSH2 0xBDB SWAP2 SWAP1 PUSH2 0x1386 JUMP JUMPDEST SWAP1 POP PUSH1 0x2 SLOAD DUP2 GT ISZERO PUSH2 0xC22 JUMPI PUSH1 0x40 MLOAD PUSH32 0x8C379A000000000000000000000000000000000000000000000000000000000 DUP2 MSTORE PUSH1 0x4 ADD PUSH2 0xC19 SWAP1 PUSH2 0x177D JUMP JUMPDEST PUSH1 0x40 MLOAD DUP1 SWAP2 SUB SWAP1 REVERT JUMPDEST PUSH1 0x1 PUSH1 0x0 SWAP1 SLOAD SWAP1 PUSH2 0x100 EXP SWAP1 DIV PUSH20 0xFFFFFFFFFFFFFFFFFFFFFFFFFFFFFFFFFFFFFFFF AND PUSH20 0xFFFFFFFFFFFFFFFFFFFFFFFFFFFFFFFFFFFFFFFF AND PUSH4 0x23B872DD CALLER ADDRESS DUP6 PUSH1 0x40 MLOAD DUP5 PUSH4 0xFFFFFFFF AND PUSH1 0xE0 SHL DUP2 MSTORE PUSH1 0x4 ADD PUSH2 0xC81 SWAP4 SWAP3 SWAP2 SWAP1 PUSH2 0x1497 JUMP JUMPDEST PUSH1 0x20 PUSH1 0x40 MLOAD DUP1 DUP4 SUB DUP2 PUSH1 0x0 DUP8 GAS CALL ISZERO DUP1 ISZERO PUSH2 0xCA0 JUMPI RETURNDATASIZE PUSH1 0x0 DUP1 RETURNDATACOPY RETURNDATASIZE PUSH1 0x0 REVERT JUMPDEST POP POP POP POP PUSH1 0x40 MLOAD RETURNDATASIZE PUSH1 0x1F NOT PUSH1 0x1F DUP3 ADD AND DUP3 ADD DUP1 PUSH1 0x40 MSTORE POP DUP2 ADD SWAP1 PUSH2 0xCC4 SWAP2 SWAP1 PUSH2 0x1506 JUMP JUMPDEST POP PUSH1 0x0 DUP1 SLOAD SWAP1 PUSH2 0x100 EXP SWAP1 DIV PUSH20 0xFFFFFFFFFFFFFFFFFFFFFFFFFFFFFFFFFFFFFFFF AND PUSH20 0xFFFFFFFFFFFFFFFFFFFFFFFFFFFFFFFFFFFFFFFF AND PUSH4 0xA9059CBB CALLER PUSH1 0x3 PUSH1 0xA PUSH2 0xD10 SWAP2 SWAP1 PUSH2 0x130C JUMP JUMPDEST DUP5 PUSH2 0xD1B SWAP2 SWAP1 PUSH2 0x1386 JUMP JUMPDEST PUSH1 0x40 MLOAD DUP4 PUSH4 0xFFFFFFFF AND PUSH1 0xE0 SHL DUP2 MSTORE PUSH1 0x4 ADD PUSH2 0xD38 SWAP3 SWAP2 SWAP1 PUSH2 0x179D JUMP JUMPDEST PUSH1 0x20 PUSH1 0x40 MLOAD DUP1 DUP4 SUB DUP2 PUSH1 0x0 DUP8 GAS CALL ISZERO DUP1 ISZERO PUSH2 0xD57 JUMPI RETURNDATASIZE PUSH1 0x0 DUP1 RETURNDATACOPY RETURNDATASIZE PUSH1 0x0 REVERT JUMPDEST POP POP POP POP PUSH1 0x40 MLOAD RETURNDATASIZE PUSH1 0x1F NOT PUSH1 0x1F DUP3 ADD AND DUP3 ADD DUP1 PUSH1 0x40 MSTORE POP DUP2 ADD SWAP1 PUSH2 0xD7B SWAP2 SWAP1 PUSH2 0x1506 JUMP JUMPDEST POP DUP2 PUSH1 0x3 PUSH1 0x0 DUP3 DUP3 SLOAD PUSH2 0xD8E SWAP2 SWAP1 PUSH2 0x1533 JUMP JUMPDEST SWAP3 POP POP DUP2 SWAP1 SSTORE POP DUP1 PUSH1 0x2 PUSH1 0x0 DUP3 DUP3 SLOAD PUSH2 0xDA7 SWAP2 SWAP1 PUSH2 0x15D3 JUMP JUMPDEST SWAP3 POP POP DUP2 SWAP1 SSTORE POP POP POP PUSH2 0xFD9 JUMP JUMPDEST PUSH1 0x0 PUSH1 0x3 PUSH1 0xA PUSH2 0xDC5 SWAP2 SWAP1 PUSH2 0x130C JUMP JUMPDEST DUP3 PUSH2 0xDCF SWAP1 PUSH2 0x1611 JUMP JUMPDEST PUSH2 0xDD9 SWAP2 SWAP1 PUSH2 0x1434 JUMP JUMPDEST SWAP1 POP PUSH1 0x0 PUSH1 0x4 SLOAD PUSH1 0x3 PUSH1 0xA PUSH2 0xDEE SWAP2 SWAP1 PUSH2 0x130C JUMP JUMPDEST DUP4 PUSH2 0xDF9 SWAP2 SWAP1 PUSH2 0x1434 JUMP JUMPDEST PUSH2 0xE03 SWAP2 SWAP1 PUSH2 0x1386 JUMP JUMPDEST SWAP1 POP PUSH1 0x3 SLOAD DUP3 GT ISZERO PUSH2 0xE4A JUMPI PUSH1 0x40 MLOAD PUSH32 0x8C379A000000000000000000000000000000000000000000000000000000000 DUP2 MSTORE PUSH1 0x4 ADD PUSH2 0xE41 SWAP1 PUSH2 0x177D JUMP JUMPDEST PUSH1 0x40 MLOAD DUP1 SWAP2 SUB SWAP1 REVERT JUMPDEST PUSH1 0x0 DUP1 SLOAD SWAP1 PUSH2 0x100 EXP SWAP1 DIV PUSH20 0xFFFFFFFFFFFFFFFFFFFFFFFFFFFFFFFFFFFFFFFF AND PUSH20 0xFFFFFFFFFFFFFFFFFFFFFFFFFFFFFFFFFFFFFFFF AND PUSH4 0x23B872DD CALLER ADDRESS DUP5 PUSH1 0x40 MLOAD DUP5 PUSH4 0xFFFFFFFF AND PUSH1 0xE0 SHL DUP2 MSTORE PUSH1 0x4 ADD PUSH2 0xEA7 SWAP4 SWAP3 SWAP2 SWAP1 PUSH2 0x1497 JUMP JUMPDEST PUSH1 0x20 PUSH1 0x40 MLOAD DUP1 DUP4 SUB DUP2 PUSH1 0x0 DUP8 GAS CALL ISZERO DUP1 ISZERO PUSH2 0xEC6 JUMPI RETURNDATASIZE PUSH1 0x0 DUP1 RETURNDATACOPY RETURNDATASIZE PUSH1 0x0 REVERT JUMPDEST POP POP POP POP PUSH1 0x40 MLOAD RETURNDATASIZE PUSH1 0x1F NOT PUSH1 0x1F DUP3 ADD AND DUP3 ADD DUP1 PUSH1 0x40 MSTORE POP DUP2 ADD SWAP1 PUSH2 0xEEA SWAP2 SWAP1 PUSH2 0x1506 JUMP JUMPDEST POP PUSH1 0x1 PUSH1 0x0 SWAP1 SLOAD SWAP1 PUSH2 0x100 EXP SWAP1 DIV PUSH20 0xFFFFFFFFFFFFFFFFFFFFFFFFFFFFFFFFFFFFFFFF AND PUSH20 0xFFFFFFFFFFFFFFFFFFFFFFFFFFFFFFFFFFFFFFFF AND PUSH4 0xA9059CBB CALLER PUSH1 0x3 PUSH1 0xA PUSH2 0xF38 SWAP2 SWAP1 PUSH2 0x130C JUMP JUMPDEST DUP6 PUSH2 0xF43 SWAP2 SWAP1 PUSH2 0x1386 JUMP JUMPDEST PUSH1 0x40 MLOAD DUP4 PUSH4 0xFFFFFFFF AND PUSH1 0xE0 SHL DUP2 MSTORE PUSH1 0x4 ADD PUSH2 0xF60 SWAP3 SWAP2 SWAP1 PUSH2 0x179D JUMP JUMPDEST PUSH1 0x20 PUSH1 0x40 MLOAD DUP1 DUP4 SUB DUP2 PUSH1 0x0 DUP8 GAS CALL ISZERO DUP1 ISZERO PUSH2 0xF7F JUMPI RETURNDATASIZE PUSH1 0x0 DUP1 RETURNDATACOPY RETURNDATASIZE PUSH1 0x0 REVERT JUMPDEST POP POP POP POP PUSH1 0x40 MLOAD RETURNDATASIZE PUSH1 0x1F NOT PUSH1 0x1F DUP3 ADD AND DUP3 ADD DUP1 PUSH1 0x40 MSTORE POP DUP2 ADD SWAP1 PUSH2 0xFA3 SWAP2 SWAP1 PUSH2 0x1506 JUMP JUMPDEST POP DUP1 PUSH1 0x2 PUSH1 0x0 DUP3 DUP3 SLOAD PUSH2 0xFB6 SWAP2 SWAP1 PUSH2 0x1533 JUMP JUMPDEST SWAP3 POP POP DUP2 SWAP1 SSTORE POP DUP2 PUSH1 0x3 PUSH1 0x0 DUP3 DUP3 SLOAD PUSH2 0xFCF SWAP2 SWAP1 PUSH2 0x15D3 JUMP JUMPDEST SWAP3 POP POP DUP2 SWAP1 SSTORE POP POP POP JUMPDEST JUMPDEST POP POP JUMP JUMPDEST PUSH1 0x0 DUP2 SWAP1 POP SWAP2 SWAP1 POP JUMP JUMPDEST PUSH2 0xFF1 DUP2 PUSH2 0xFDE JUMP JUMPDEST DUP3 MSTORE POP POP JUMP JUMPDEST PUSH1 0x0 PUSH1 0x40 DUP3 ADD SWAP1 POP PUSH2 0x100C PUSH1 0x0 DUP4 ADD DUP6 PUSH2 0xFE8 JUMP JUMPDEST PUSH2 0x1019 PUSH1 0x20 DUP4 ADD DUP5 PUSH2 0xFE8 JUMP JUMPDEST SWAP4 SWAP3 POP POP POP JUMP JUMPDEST PUSH1 0x0 PUSH20 0xFFFFFFFFFFFFFFFFFFFFFFFFFFFFFFFFFFFFFFFF DUP3 AND SWAP1 POP SWAP2 SWAP1 POP JUMP JUMPDEST PUSH1 0x0 DUP2 SWAP1 POP SWAP2 SWAP1 POP JUMP JUMPDEST PUSH1 0x0 PUSH2 0x1065 PUSH2 0x1060 PUSH2 0x105B DUP5 PUSH2 0x1020 JUMP JUMPDEST PUSH2 0x1040 JUMP JUMPDEST PUSH2 0x1020 JUMP JUMPDEST SWAP1 POP SWAP2 SWAP1 POP JUMP JUMPDEST PUSH1 0x0 PUSH2 0x1077 DUP3 PUSH2 0x104A JUMP JUMPDEST SWAP1 POP SWAP2 SWAP1 POP JUMP JUMPDEST PUSH1 0x0 PUSH2 0x1089 DUP3 PUSH2 0x106C JUMP JUMPDEST SWAP1 POP SWAP2 SWAP1 POP JUMP JUMPDEST PUSH2 0x1099 DUP2 PUSH2 0x107E JUMP JUMPDEST DUP3 MSTORE POP POP JUMP JUMPDEST PUSH1 0x0 PUSH1 0x20 DUP3 ADD SWAP1 POP PUSH2 0x10B4 PUSH1 0x0 DUP4 ADD DUP5 PUSH2 0x1090 JUMP JUMPDEST SWAP3 SWAP2 POP POP JUMP JUMPDEST PUSH1 0x0 PUSH1 0xFF DUP3 AND SWAP1 POP SWAP2 SWAP1 POP JUMP JUMPDEST PUSH2 0x10D0 DUP2 PUSH2 0x10BA JUMP JUMPDEST DUP3 MSTORE POP POP JUMP JUMPDEST PUSH1 0x0 PUSH1 0x20 DUP3 ADD SWAP1 POP PUSH2 0x10EB PUSH1 0x0 DUP4 ADD DUP5 PUSH2 0x10C7 JUMP JUMPDEST SWAP3 SWAP2 POP POP JUMP JUMPDEST PUSH1 0x0 PUSH1 0x20 DUP3 ADD SWAP1 POP PUSH2 0x1106 PUSH1 0x0 DUP4 ADD DUP5 PUSH2 0xFE8 JUMP JUMPDEST SWAP3 SWAP2 POP POP JUMP JUMPDEST PUSH1 0x0 DUP1 REVERT JUMPDEST PUSH2 0x111A DUP2 PUSH2 0xFDE JUMP JUMPDEST DUP2 EQ PUSH2 0x1125 JUMPI PUSH1 0x0 DUP1 REVERT JUMPDEST POP JUMP JUMPDEST PUSH1 0x0 DUP2 CALLDATALOAD SWAP1 POP PUSH2 0x1137 DUP2 PUSH2 0x1111 JUMP JUMPDEST SWAP3 SWAP2 POP POP JUMP JUMPDEST PUSH1 0x0 DUP1 PUSH1 0x40 DUP4 DUP6 SUB SLT ISZERO PUSH2 0x1154 JUMPI PUSH2 0x1153 PUSH2 0x110C JUMP JUMPDEST JUMPDEST PUSH1 0x0 PUSH2 0x1162 DUP6 DUP3 DUP7 ADD PUSH2 0x1128 JUMP JUMPDEST SWAP3 POP POP PUSH1 0x20 PUSH2 0x1173 DUP6 DUP3 DUP7 ADD PUSH2 0x1128 JUMP JUMPDEST SWAP2 POP POP SWAP3 POP SWAP3 SWAP1 POP JUMP JUMPDEST PUSH1 0x0 PUSH1 0x20 DUP3 DUP5 SUB SLT ISZERO PUSH2 0x1193 JUMPI PUSH2 0x1192 PUSH2 0x110C JUMP JUMPDEST JUMPDEST PUSH1 0x0 PUSH2 0x11A1 DUP5 DUP3 DUP6 ADD PUSH2 0x1128 JUMP JUMPDEST SWAP2 POP POP SWAP3 SWAP2 POP POP JUMP JUMPDEST PUSH32 0x4E487B7100000000000000000000000000000000000000000000000000000000 PUSH1 0x0 MSTORE PUSH1 0x11 PUSH1 0x4 MSTORE PUSH1 0x24 PUSH1 0x0 REVERT JUMPDEST PUSH1 0x0 DUP2 PUSH1 0x1 SHR SWAP1 POP SWAP2 SWAP1 POP JUMP JUMPDEST PUSH1 0x0 DUP1 DUP3 SWAP2 POP DUP4 SWAP1 POP JUMPDEST PUSH1 0x1 DUP6 GT ISZERO PUSH2 0x1230 JUMPI DUP1 DUP7 DIV DUP2 GT ISZERO PUSH2 0x120C JUMPI PUSH2 0x120B PUSH2 0x11AA JUMP JUMPDEST JUMPDEST PUSH1 0x1 DUP6 AND ISZERO PUSH2 0x121B JUMPI DUP1 DUP3 MUL SWAP2 POP JUMPDEST DUP1 DUP2 MUL SWAP1 POP PUSH2 0x1229 DUP6 PUSH2 0x11D9 JUMP JUMPDEST SWAP5 POP PUSH2 0x11F0 JUMP JUMPDEST SWAP5 POP SWAP5 SWAP3 POP POP POP JUMP JUMPDEST PUSH1 0x0 DUP3 PUSH2 0x1249 JUMPI PUSH1 0x1 SWAP1 POP PUSH2 0x1305 JUMP JUMPDEST DUP2 PUSH2 0x1257 JUMPI PUSH1 0x0 SWAP1 POP PUSH2 0x1305 JUMP JUMPDEST DUP2 PUSH1 0x1 DUP2 EQ PUSH2 0x126D JUMPI PUSH1 0x2 DUP2 EQ PUSH2 0x1277 JUMPI PUSH2 0x12A6 JUMP JUMPDEST PUSH1 0x1 SWAP2 POP POP PUSH2 0x1305 JUMP JUMPDEST PUSH1 0xFF DUP5 GT ISZERO PUSH2 0x1289 JUMPI PUSH2 0x1288 PUSH2 0x11AA JUMP JUMPDEST JUMPDEST DUP4 PUSH1 0x2 EXP SWAP2 POP DUP5 DUP3 GT ISZERO PUSH2 0x12A0 JUMPI PUSH2 0x129F PUSH2 0x11AA JUMP JUMPDEST JUMPDEST POP PUSH2 0x1305 JUMP JUMPDEST POP PUSH1 0x20 DUP4 LT PUSH2 0x133 DUP4 LT AND PUSH1 0x4E DUP5 LT PUSH1 0xB DUP5 LT AND OR ISZERO PUSH2 0x12DB JUMPI DUP3 DUP3 EXP SWAP1 POP DUP4 DUP2 GT ISZERO PUSH2 0x12D6 JUMPI PUSH2 0x12D5 PUSH2 0x11AA JUMP JUMPDEST JUMPDEST PUSH2 0x1305 JUMP JUMPDEST PUSH2 0x12E8 DUP5 DUP5 DUP5 PUSH1 0x1 PUSH2 0x11E6 JUMP JUMPDEST SWAP3 POP SWAP1 POP DUP2 DUP5 DIV DUP2 GT ISZERO PUSH2 0x12FF JUMPI PUSH2 0x12FE PUSH2 0x11AA JUMP JUMPDEST JUMPDEST DUP2 DUP2 MUL SWAP1 POP JUMPDEST SWAP4 SWAP3 POP POP POP JUMP JUMPDEST PUSH1 0x0 PUSH2 0x1317 DUP3 PUSH2 0xFDE JUMP JUMPDEST SWAP2 POP PUSH2 0x1322 DUP4 PUSH2 0x10BA JUMP JUMPDEST SWAP3 POP PUSH2 0x134F PUSH32 0xFFFFFFFFFFFFFFFFFFFFFFFFFFFFFFFFFFFFFFFFFFFFFFFFFFFFFFFFFFFFFFFF DUP5 DUP5 PUSH2 0x1239 JUMP JUMPDEST SWAP1 POP SWAP3 SWAP2 POP POP JUMP JUMPDEST PUSH32 0x4E487B7100000000000000000000000000000000000000000000000000000000 PUSH1 0x0 MSTORE PUSH1 0x12 PUSH1 0x4 MSTORE PUSH1 0x24 PUSH1 0x0 REVERT JUMPDEST PUSH1 0x0 PUSH2 0x1391 DUP3 PUSH2 0xFDE JUMP JUMPDEST SWAP2 POP PUSH2 0x139C DUP4 PUSH2 0xFDE JUMP JUMPDEST SWAP3 POP DUP3 PUSH2 0x13AC JUMPI PUSH2 0x13AB PUSH2 0x1357 JUMP JUMPDEST JUMPDEST DUP3 DUP3 DIV SWAP1 POP SWAP3 SWAP2 POP POP JUMP JUMPDEST PUSH1 0x0 DUP3 DUP3 MSTORE PUSH1 0x20 DUP3 ADD SWAP1 POP SWAP3 SWAP2 POP POP JUMP JUMPDEST PUSH32 0x496E76616C696420616D6F756E74730000000000000000000000000000000000 PUSH1 0x0 DUP3 ADD MSTORE POP JUMP JUMPDEST PUSH1 0x0 PUSH2 0x13FE PUSH1 0xF DUP4 PUSH2 0x13B7 JUMP JUMPDEST SWAP2 POP PUSH2 0x1409 DUP3 PUSH2 0x13C8 JUMP JUMPDEST PUSH1 0x20 DUP3 ADD SWAP1 POP SWAP2 SWAP1 POP JUMP JUMPDEST PUSH1 0x0 PUSH1 0x20 DUP3 ADD SWAP1 POP DUP2 DUP2 SUB PUSH1 0x0 DUP4 ADD MSTORE PUSH2 0x142D DUP2 PUSH2 0x13F1 JUMP JUMPDEST SWAP1 POP SWAP2 SWAP1 POP JUMP JUMPDEST PUSH1 0x0 PUSH2 0x143F DUP3 PUSH2 0xFDE JUMP JUMPDEST SWAP2 POP PUSH2 0x144A DUP4 PUSH2 0xFDE JUMP JUMPDEST SWAP3 POP DUP3 DUP3 MUL PUSH2 0x1458 DUP2 PUSH2 0xFDE JUMP JUMPDEST SWAP2 POP DUP3 DUP3 DIV DUP5 EQ DUP4 ISZERO OR PUSH2 0x146F JUMPI PUSH2 0x146E PUSH2 0x11AA JUMP JUMPDEST JUMPDEST POP SWAP3 SWAP2 POP POP JUMP JUMPDEST PUSH1 0x0 PUSH2 0x1481 DUP3 PUSH2 0x1020 JUMP JUMPDEST SWAP1 POP SWAP2 SWAP1 POP JUMP JUMPDEST PUSH2 0x1491 DUP2 PUSH2 0x1476 JUMP JUMPDEST DUP3 MSTORE POP POP JUMP JUMPDEST PUSH1 0x0 PUSH1 0x60 DUP3 ADD SWAP1 POP PUSH2 0x14AC PUSH1 0x0 DUP4 ADD DUP7 PUSH2 0x1488 JUMP JUMPDEST PUSH2 0x14B9 PUSH1 0x20 DUP4 ADD DUP6 PUSH2 0x1488 JUMP JUMPDEST PUSH2 0x14C6 PUSH1 0x40 DUP4 ADD DUP5 PUSH2 0xFE8 JUMP JUMPDEST SWAP5 SWAP4 POP POP POP POP JUMP JUMPDEST PUSH1 0x0 DUP2 ISZERO ISZERO SWAP1 POP SWAP2 SWAP1 POP JUMP JUMPDEST PUSH2 0x14E3 DUP2 PUSH2 0x14CE JUMP JUMPDEST DUP2 EQ PUSH2 0x14EE JUMPI PUSH1 0x0 DUP1 REVERT JUMPDEST POP JUMP JUMPDEST PUSH1 0x0 DUP2 MLOAD SWAP1 POP PUSH2 0x1500 DUP2 PUSH2 0x14DA JUMP JUMPDEST SWAP3 SWAP2 POP POP JUMP JUMPDEST PUSH1 0x0 PUSH1 0x20 DUP3 DUP5 SUB SLT ISZERO PUSH2 0x151C JUMPI PUSH2 0x151B PUSH2 0x110C JUMP JUMPDEST JUMPDEST PUSH1 0x0 PUSH2 0x152A DUP5 DUP3 DUP6 ADD PUSH2 0x14F1 JUMP JUMPDEST SWAP2 POP POP SWAP3 SWAP2 POP POP JUMP JUMPDEST PUSH1 0x0 PUSH2 0x153E DUP3 PUSH2 0xFDE JUMP JUMPDEST SWAP2 POP PUSH2 0x1549 DUP4 PUSH2 0xFDE JUMP JUMPDEST SWAP3 POP DUP3 DUP3 ADD SWAP1 POP DUP1 DUP3 GT ISZERO PUSH2 0x1561 JUMPI PUSH2 0x1560 PUSH2 0x11AA JUMP JUMPDEST JUMPDEST SWAP3 SWAP2 POP POP JUMP JUMPDEST PUSH32 0x496E76616C696420746172676574207072696365000000000000000000000000 PUSH1 0x0 DUP3 ADD MSTORE POP JUMP JUMPDEST PUSH1 0x0 PUSH2 0x159D PUSH1 0x14 DUP4 PUSH2 0x13B7 JUMP JUMPDEST SWAP2 POP PUSH2 0x15A8 DUP3 PUSH2 0x1567 JUMP JUMPDEST PUSH1 0x20 DUP3 ADD SWAP1 POP SWAP2 SWAP1 POP JUMP JUMPDEST PUSH1 0x0 PUSH1 0x20 DUP3 ADD SWAP1 POP DUP2 DUP2 SUB PUSH1 0x0 DUP4 ADD MSTORE PUSH2 0x15CC DUP2 PUSH2 0x1590 JUMP JUMPDEST SWAP1 POP SWAP2 SWAP1 POP JUMP JUMPDEST PUSH1 0x0 PUSH2 0x15DE DUP3 PUSH2 0xFDE JUMP JUMPDEST SWAP2 POP PUSH2 0x15E9 DUP4 PUSH2 0xFDE JUMP JUMPDEST SWAP3 POP DUP3 DUP3 SUB SWAP1 POP DUP2 DUP2 GT ISZERO PUSH2 0x1601 JUMPI PUSH2 0x1600 PUSH2 0x11AA JUMP JUMPDEST JUMPDEST SWAP3 SWAP2 POP POP JUMP JUMPDEST PUSH1 0x0 DUP2 SWAP1 POP SWAP2 SWAP1 POP JUMP JUMPDEST PUSH1 0x0 PUSH2 0x161C DUP3 PUSH2 0x1607 JUMP JUMPDEST SWAP2 POP PUSH32 0x8000000000000000000000000000000000000000000000000000000000000000 DUP3 SUB PUSH2 0x164E JUMPI PUSH2 0x164D PUSH2 0x11AA JUMP JUMPDEST JUMPDEST DUP2 PUSH1 0x0 SUB SWAP1 POP SWAP2 SWAP1 POP JUMP JUMPDEST PUSH32 0x496E76616C696420746F6B656E20696E64657800000000000000000000000000 PUSH1 0x0 DUP3 ADD MSTORE POP JUMP JUMPDEST PUSH1 0x0 PUSH2 0x168F PUSH1 0x13 DUP4 PUSH2 0x13B7 JUMP JUMPDEST SWAP2 POP PUSH2 0x169A DUP3 PUSH2 0x1659 JUMP JUMPDEST PUSH1 0x20 DUP3 ADD SWAP1 POP SWAP2 SWAP1 POP JUMP JUMPDEST PUSH1 0x0 PUSH1 0x20 DUP3 ADD SWAP1 POP DUP2 DUP2 SUB PUSH1 0x0 DUP4 ADD MSTORE PUSH2 0x16BE DUP2 PUSH2 0x1682 JUMP JUMPDEST SWAP1 POP SWAP2 SWAP1 POP JUMP JUMPDEST PUSH32 0x496E76616C696420616D6F756E74000000000000000000000000000000000000 PUSH1 0x0 DUP3 ADD MSTORE POP JUMP JUMPDEST PUSH1 0x0 PUSH2 0x16FB PUSH1 0xE DUP4 PUSH2 0x13B7 JUMP JUMPDEST SWAP2 POP PUSH2 0x1706 DUP3 PUSH2 0x16C5 JUMP JUMPDEST PUSH1 0x20 DUP3 ADD SWAP1 POP SWAP2 SWAP1 POP JUMP JUMPDEST PUSH1 0x0 PUSH1 0x20 DUP3 ADD SWAP1 POP DUP2 DUP2 SUB PUSH1 0x0 DUP4 ADD MSTORE PUSH2 0x172A DUP2 PUSH2 0x16EE JUMP JUMPDEST SWAP1 POP SWAP2 SWAP1 POP JUMP JUMPDEST PUSH32 0x4E6F7420656E6F756768206C6971756964697479000000000000000000000000 PUSH1 0x0 DUP3 ADD MSTORE POP JUMP JUMPDEST PUSH1 0x0 PUSH2 0x1767 PUSH1 0x14 DUP4 PUSH2 0x13B7 JUMP JUMPDEST SWAP2 POP PUSH2 0x1772 DUP3 PUSH2 0x1731 JUMP JUMPDEST PUSH1 0x20 DUP3 ADD SWAP1 POP SWAP2 SWAP1 POP JUMP JUMPDEST PUSH1 0x0 PUSH1 0x20 DUP3 ADD SWAP1 POP DUP2 DUP2 SUB PUSH1 0x0 DUP4 ADD MSTORE PUSH2 0x1796 DUP2 PUSH2 0x175A JUMP JUMPDEST SWAP1 POP SWAP2 SWAP1 POP JUMP JUMPDEST PUSH1 0x0 PUSH1 0x40 DUP3 ADD SWAP1 POP PUSH2 0x17B2 PUSH1 0x0 DUP4 ADD DUP6 PUSH2 0x1488 JUMP JUMPDEST PUSH2 0x17BF PUSH1 0x20 DUP4 ADD DUP5 PUSH2 0xFE8 JUMP JUMPDEST SWAP4 SWAP3 POP POP POP JUMP INVALID LOG2 PUSH5 0x6970667358 0x22 SLT KECCAK256 SHR EXP 0x25 0xD4 0xAF RETURNDATACOPY PUSH23 0xBFE58D3CEC6AEF6C7F3F0AACC49DBC8163CD8C7ED9298A PUSH10 0xA064736F6C634300081A STOP CALLER "
				},
				"gasEstimates": {
					"creation": {
						"codeDepositCost": "1228000",
						"executionCost": "infinite",
						"totalCost": "infinite"
					},
					"external": {
						"DECIMALS()": "380",
						"SCALE()": "infinite",
						"addLiquidity(uint256,uint256)": "infinite",
						"getReserves()": "infinite",
						"price()": "2451",
						"reserve0()": "2496",
						"reserve1()": "2518",
						"setExchangeRate(uint256)": "infinite",
						"token0()": "infinite",
						"token1()": "infinite"
					},
					"internal": {
						"balancePool(uint256,uint256)": "infinite",
						"sqrt(uint256)": "infinite",
						"swap(int8,int256)": "infinite"
					}
				},
				"methodIdentifiers": {
					"DECIMALS()": "2e0f2625",
					"SCALE()": "eced5526",
					"addLiquidity(uint256,uint256)": "9cd441da",
					"getReserves()": "0902f1ac",
					"price()": "a035b1fe",
					"reserve0()": "443cb4bc",
					"reserve1()": "5a76f25e",
					"setExchangeRate(uint256)": "db068e0e",
					"token0()": "0dfe1681",
					"token1()": "d21220a7"
				}
			},
			"storageLayout": {
				"storage": [
					{
						"astId": 83,
						"contract": "AMMProject/contracts/AMM.sol:ConstantProductAMM",
						"label": "token0",
						"offset": 0,
						"slot": "0",
						"type": "t_contract(IERC20)77"
					},
					{
						"astId": 86,
						"contract": "AMMProject/contracts/AMM.sol:ConstantProductAMM",
						"label": "token1",
						"offset": 0,
						"slot": "1",
						"type": "t_contract(IERC20)77"
					},
					{
						"astId": 88,
						"contract": "AMMProject/contracts/AMM.sol:ConstantProductAMM",
						"label": "reserve0",
						"offset": 0,
						"slot": "2",
						"type": "t_uint256"
					},
					{
						"astId": 90,
						"contract": "AMMProject/contracts/AMM.sol:ConstantProductAMM",
						"label": "reserve1",
						"offset": 0,
						"slot": "3",
						"type": "t_uint256"
					},
					{
						"astId": 92,
						"contract": "AMMProject/contracts/AMM.sol:ConstantProductAMM",
						"label": "price",
						"offset": 0,
						"slot": "4",
						"type": "t_uint256"
					}
				],
				"types": {
					"t_contract(IERC20)77": {
						"encoding": "inplace",
						"label": "contract IERC20",
						"numberOfBytes": "20"
					},
					"t_uint256": {
						"encoding": "inplace",
						"label": "uint256",
						"numberOfBytes": "32"
					}
				}
			},
			"userdoc": {
				"kind": "user",
				"methods": {},
				"version": 1
			}
		}
	}
}