{
	"contracts/ConstantProductAMM.sol": {
		"ConstantProductAMM": {
			"abi": [
				{
					"inputs": [
						{
							"internalType": "address",
							"name": "_token0",
							"type": "address"
						},
						{
							"internalType": "address",
							"name": "_token1",
							"type": "address"
						},
						{
							"internalType": "address",
							"name": "_apWallet",
							"type": "address"
						}
					],
					"stateMutability": "nonpayable",
					"type": "constructor"
				},
				{
					"inputs": [],
					"name": "DECIMALS",
					"outputs": [
						{
							"internalType": "uint8",
							"name": "",
							"type": "uint8"
						}
					],
					"stateMutability": "view",
					"type": "function"
				},
				{
					"inputs": [],
					"name": "K",
					"outputs": [
						{
							"internalType": "uint256",
							"name": "",
							"type": "uint256"
						}
					],
					"stateMutability": "view",
					"type": "function"
				},
				{
					"inputs": [],
					"name": "SCALE",
					"outputs": [
						{
							"internalType": "uint256",
							"name": "",
							"type": "uint256"
						}
					],
					"stateMutability": "view",
					"type": "function"
				},
				{
					"inputs": [
						{
							"internalType": "uint256",
							"name": "amount0",
							"type": "uint256"
						},
						{
							"internalType": "uint256",
							"name": "amount1",
							"type": "uint256"
						}
					],
					"name": "addLiquidity",
					"outputs": [],
					"stateMutability": "nonpayable",
					"type": "function"
				},
				{
					"inputs": [],
					"name": "apWallet",
					"outputs": [
						{
							"internalType": "address",
							"name": "",
							"type": "address"
						}
					],
					"stateMutability": "view",
					"type": "function"
				},
				{
					"inputs": [],
					"name": "getReserves",
					"outputs": [
						{
							"internalType": "uint256",
							"name": "",
							"type": "uint256"
						},
						{
							"internalType": "uint256",
							"name": "",
							"type": "uint256"
						}
					],
					"stateMutability": "view",
					"type": "function"
				},
				{
					"inputs": [],
					"name": "price",
					"outputs": [
						{
							"internalType": "uint256",
							"name": "",
							"type": "uint256"
						}
					],
					"stateMutability": "view",
					"type": "function"
				},
				{
					"inputs": [],
					"name": "reserve0",
					"outputs": [
						{
							"internalType": "uint256",
							"name": "",
							"type": "uint256"
						}
					],
					"stateMutability": "view",
					"type": "function"
				},
				{
					"inputs": [],
					"name": "reserve1",
					"outputs": [
						{
							"internalType": "uint256",
							"name": "",
							"type": "uint256"
						}
					],
					"stateMutability": "view",
					"type": "function"
				},
				{
					"inputs": [
						{
							"internalType": "uint256",
							"name": "targetPrice",
							"type": "uint256"
						}
					],
					"name": "setExchangeRate",
					"outputs": [],
					"stateMutability": "nonpayable",
					"type": "function"
				},
				{
					"inputs": [],
					"name": "token0",
					"outputs": [
						{
							"internalType": "contract IERC20",
							"name": "",
							"type": "address"
						}
					],
					"stateMutability": "view",
					"type": "function"
				},
				{
					"inputs": [],
					"name": "token1",
					"outputs": [
						{
							"internalType": "contract IERC20",
							"name": "",
							"type": "address"
						}
					],
					"stateMutability": "view",
					"type": "function"
				}
			],
			"devdoc": {
				"kind": "dev",
				"methods": {},
				"version": 1
			},
			"evm": {
				"assembly": "    /* \"contracts/ConstantProductAMM.sol\":115:3493  contract ConstantProductAMM {... */\n  mstore(0x40, 0x80)\n    /* \"contracts/ConstantProductAMM.sol\":469:639  constructor(address _token0, address _token1, address _apWallet) {... */\n  callvalue\n  dup1\n  iszero\n  tag_1\n  jumpi\n  0x00\n  dup1\n  revert\ntag_1:\n  pop\n  mload(0x40)\n  sub(codesize, bytecodeSize)\n  dup1\n  bytecodeSize\n  dup4\n  codecopy\n  dup2\n  dup2\n  add\n  0x40\n  mstore\n  dup2\n  add\n  swap1\n  tag_2\n  swap2\n  swap1\n  tag_3\n  jump\t// in\ntag_2:\n    /* \"contracts/ConstantProductAMM.sol\":560:567  _token0 */\n  dup3\n    /* \"contracts/ConstantProductAMM.sol\":544:550  token0 */\n  0x00\n  dup1\n    /* \"contracts/ConstantProductAMM.sol\":544:568  token0 = IERC20(_token0) */\n  0x0100\n  exp\n  dup2\n  sload\n  dup2\n  0xffffffffffffffffffffffffffffffffffffffff\n  mul\n  not\n  and\n  swap1\n  dup4\n  0xffffffffffffffffffffffffffffffffffffffff\n  and\n  mul\n  or\n  swap1\n  sstore\n  pop\n    /* \"contracts/ConstantProductAMM.sol\":594:601  _token1 */\n  dup2\n    /* \"contracts/ConstantProductAMM.sol\":578:584  token1 */\n  0x01\n  0x00\n    /* \"contracts/ConstantProductAMM.sol\":578:602  token1 = IERC20(_token1) */\n  0x0100\n  exp\n  dup2\n  sload\n  dup2\n  0xffffffffffffffffffffffffffffffffffffffff\n  mul\n  not\n  and\n  swap1\n  dup4\n  0xffffffffffffffffffffffffffffffffffffffff\n  and\n  mul\n  or\n  swap1\n  sstore\n  pop\n    /* \"contracts/ConstantProductAMM.sol\":623:632  _apWallet */\n  dup1\n    /* \"contracts/ConstantProductAMM.sol\":612:620  apWallet */\n  0x02\n  0x00\n    /* \"contracts/ConstantProductAMM.sol\":612:632  apWallet = _apWallet */\n  0x0100\n  exp\n  dup2\n  sload\n  dup2\n  0xffffffffffffffffffffffffffffffffffffffff\n  mul\n  not\n  and\n  swap1\n  dup4\n  0xffffffffffffffffffffffffffffffffffffffff\n  and\n  mul\n  or\n  swap1\n  sstore\n  pop\n    /* \"contracts/ConstantProductAMM.sol\":469:639  constructor(address _token0, address _token1, address _apWallet) {... */\n  pop\n  pop\n  pop\n    /* \"contracts/ConstantProductAMM.sol\":115:3493  contract ConstantProductAMM {... */\n  jump(tag_6)\n    /* \"#utility.yul\":88:205   */\ntag_8:\n    /* \"#utility.yul\":197:198   */\n  0x00\n    /* \"#utility.yul\":194:195   */\n  dup1\n    /* \"#utility.yul\":187:199   */\n  revert\n    /* \"#utility.yul\":334:460   */\ntag_10:\n    /* \"#utility.yul\":371:378   */\n  0x00\n    /* \"#utility.yul\":411:453   */\n  0xffffffffffffffffffffffffffffffffffffffff\n    /* \"#utility.yul\":404:409   */\n  dup3\n    /* \"#utility.yul\":400:454   */\n  and\n    /* \"#utility.yul\":389:454   */\n  swap1\n  pop\n    /* \"#utility.yul\":334:460   */\n  swap2\n  swap1\n  pop\n  jump\t// out\n    /* \"#utility.yul\":466:562   */\ntag_11:\n    /* \"#utility.yul\":503:510   */\n  0x00\n    /* \"#utility.yul\":532:556   */\n  tag_20\n    /* \"#utility.yul\":550:555   */\n  dup3\n    /* \"#utility.yul\":532:556   */\n  tag_10\n  jump\t// in\ntag_20:\n    /* \"#utility.yul\":521:556   */\n  swap1\n  pop\n    /* \"#utility.yul\":466:562   */\n  swap2\n  swap1\n  pop\n  jump\t// out\n    /* \"#utility.yul\":568:690   */\ntag_12:\n    /* \"#utility.yul\":641:665   */\n  tag_22\n    /* \"#utility.yul\":659:664   */\n  dup2\n    /* \"#utility.yul\":641:665   */\n  tag_11\n  jump\t// in\ntag_22:\n    /* \"#utility.yul\":634:639   */\n  dup2\n    /* \"#utility.yul\":631:666   */\n  eq\n    /* \"#utility.yul\":621:684   */\n  tag_23\n  jumpi\n    /* \"#utility.yul\":680:681   */\n  0x00\n    /* \"#utility.yul\":677:678   */\n  dup1\n    /* \"#utility.yul\":670:682   */\n  revert\n    /* \"#utility.yul\":621:684   */\ntag_23:\n    /* \"#utility.yul\":568:690   */\n  pop\n  jump\t// out\n    /* \"#utility.yul\":696:839   */\ntag_13:\n    /* \"#utility.yul\":753:758   */\n  0x00\n    /* \"#utility.yul\":784:790   */\n  dup2\n    /* \"#utility.yul\":778:791   */\n  mload\n    /* \"#utility.yul\":769:791   */\n  swap1\n  pop\n    /* \"#utility.yul\":800:833   */\n  tag_25\n    /* \"#utility.yul\":827:832   */\n  dup2\n    /* \"#utility.yul\":800:833   */\n  tag_12\n  jump\t// in\ntag_25:\n    /* \"#utility.yul\":696:839   */\n  swap3\n  swap2\n  pop\n  pop\n  jump\t// out\n    /* \"#utility.yul\":845:1508   */\ntag_3:\n    /* \"#utility.yul\":933:939   */\n  0x00\n    /* \"#utility.yul\":941:947   */\n  dup1\n    /* \"#utility.yul\":949:955   */\n  0x00\n    /* \"#utility.yul\":998:1000   */\n  0x60\n    /* \"#utility.yul\":986:995   */\n  dup5\n    /* \"#utility.yul\":977:984   */\n  dup7\n    /* \"#utility.yul\":973:996   */\n  sub\n    /* \"#utility.yul\":969:1001   */\n  slt\n    /* \"#utility.yul\":966:1085   */\n  iszero\n  tag_27\n  jumpi\n    /* \"#utility.yul\":1004:1083   */\n  tag_28\n  tag_8\n  jump\t// in\ntag_28:\n    /* \"#utility.yul\":966:1085   */\ntag_27:\n    /* \"#utility.yul\":1124:1125   */\n  0x00\n    /* \"#utility.yul\":1149:1213   */\n  tag_29\n    /* \"#utility.yul\":1205:1212   */\n  dup7\n    /* \"#utility.yul\":1196:1202   */\n  dup3\n    /* \"#utility.yul\":1185:1194   */\n  dup8\n    /* \"#utility.yul\":1181:1203   */\n  add\n    /* \"#utility.yul\":1149:1213   */\n  tag_13\n  jump\t// in\ntag_29:\n    /* \"#utility.yul\":1139:1213   */\n  swap4\n  pop\n    /* \"#utility.yul\":1095:1223   */\n  pop\n    /* \"#utility.yul\":1262:1264   */\n  0x20\n    /* \"#utility.yul\":1288:1352   */\n  tag_30\n    /* \"#utility.yul\":1344:1351   */\n  dup7\n    /* \"#utility.yul\":1335:1341   */\n  dup3\n    /* \"#utility.yul\":1324:1333   */\n  dup8\n    /* \"#utility.yul\":1320:1342   */\n  add\n    /* \"#utility.yul\":1288:1352   */\n  tag_13\n  jump\t// in\ntag_30:\n    /* \"#utility.yul\":1278:1352   */\n  swap3\n  pop\n    /* \"#utility.yul\":1233:1362   */\n  pop\n    /* \"#utility.yul\":1401:1403   */\n  0x40\n    /* \"#utility.yul\":1427:1491   */\n  tag_31\n    /* \"#utility.yul\":1483:1490   */\n  dup7\n    /* \"#utility.yul\":1474:1480   */\n  dup3\n    /* \"#utility.yul\":1463:1472   */\n  dup8\n    /* \"#utility.yul\":1459:1481   */\n  add\n    /* \"#utility.yul\":1427:1491   */\n  tag_13\n  jump\t// in\ntag_31:\n    /* \"#utility.yul\":1417:1491   */\n  swap2\n  pop\n    /* \"#utility.yul\":1372:1501   */\n  pop\n    /* \"#utility.yul\":845:1508   */\n  swap3\n  pop\n  swap3\n  pop\n  swap3\n  jump\t// out\n    /* \"contracts/ConstantProductAMM.sol\":115:3493  contract ConstantProductAMM {... */\ntag_6:\n  dataSize(sub_0)\n  dup1\n  dataOffset(sub_0)\n  0x00\n  codecopy\n  0x00\n  return\nstop\n\nsub_0: assembly {\n        /* \"contracts/ConstantProductAMM.sol\":115:3493  contract ConstantProductAMM {... */\n      mstore(0x40, 0x80)\n      callvalue\n      dup1\n      iszero\n      tag_1\n      jumpi\n      0x00\n      dup1\n      revert\n    tag_1:\n      pop\n      jumpi(tag_2, lt(calldatasize, 0x04))\n      shr(0xe0, calldataload(0x00))\n      dup1\n      0x9cd441da\n      gt\n      tag_15\n      jumpi\n      dup1\n      0x9cd441da\n      eq\n      tag_9\n      jumpi\n      dup1\n      0xa035b1fe\n      eq\n      tag_10\n      jumpi\n      dup1\n      0xa932492f\n      eq\n      tag_11\n      jumpi\n      dup1\n      0xd21220a7\n      eq\n      tag_12\n      jumpi\n      dup1\n      0xdb068e0e\n      eq\n      tag_13\n      jumpi\n      dup1\n      0xeced5526\n      eq\n      tag_14\n      jumpi\n      jump(tag_2)\n    tag_15:\n      dup1\n      0x0902f1ac\n      eq\n      tag_3\n      jumpi\n      dup1\n      0x0dfe1681\n      eq\n      tag_4\n      jumpi\n      dup1\n      0x2e0f2625\n      eq\n      tag_5\n      jumpi\n      dup1\n      0x443cb4bc\n      eq\n      tag_6\n      jumpi\n      dup1\n      0x4dc74d22\n      eq\n      tag_7\n      jumpi\n      dup1\n      0x5a76f25e\n      eq\n      tag_8\n      jumpi\n    tag_2:\n      0x00\n      dup1\n      revert\n        /* \"contracts/ConstantProductAMM.sol\":1697:1819  function getReserves() public view returns (uint256, uint256) {... */\n    tag_3:\n      tag_16\n      tag_17\n      jump\t// in\n    tag_16:\n      mload(0x40)\n      tag_18\n      swap3\n      swap2\n      swap1\n      tag_19\n      jump\t// in\n    tag_18:\n      mload(0x40)\n      dup1\n      swap2\n      sub\n      swap1\n      return\n        /* \"contracts/ConstantProductAMM.sol\":149:169  IERC20 public token0 */\n    tag_4:\n      tag_20\n      tag_21\n      jump\t// in\n    tag_20:\n      mload(0x40)\n      tag_22\n      swap2\n      swap1\n      tag_23\n      jump\t// in\n    tag_22:\n      mload(0x40)\n      dup1\n      swap2\n      sub\n      swap1\n      return\n        /* \"contracts/ConstantProductAMM.sol\":354:388  uint8 public constant DECIMALS = 3 */\n    tag_5:\n      tag_24\n      tag_25\n      jump\t// in\n    tag_24:\n      mload(0x40)\n      tag_26\n      swap2\n      swap1\n      tag_27\n      jump\t// in\n    tag_26:\n      mload(0x40)\n      dup1\n      swap2\n      sub\n      swap1\n      return\n        /* \"contracts/ConstantProductAMM.sol\":230:253  uint256 public reserve0 */\n    tag_6:\n      tag_28\n      tag_29\n      jump\t// in\n    tag_28:\n      mload(0x40)\n      tag_30\n      swap2\n      swap1\n      tag_31\n      jump\t// in\n    tag_30:\n      mload(0x40)\n      dup1\n      swap2\n      sub\n      swap1\n      return\n        /* \"contracts/ConstantProductAMM.sol\":201:224  address public apWallet */\n    tag_7:\n      tag_32\n      tag_33\n      jump\t// in\n    tag_32:\n      mload(0x40)\n      tag_34\n      swap2\n      swap1\n      tag_35\n      jump\t// in\n    tag_34:\n      mload(0x40)\n      dup1\n      swap2\n      sub\n      swap1\n      return\n        /* \"contracts/ConstantProductAMM.sol\":259:282  uint256 public reserve1 */\n    tag_8:\n      tag_36\n      tag_37\n      jump\t// in\n    tag_36:\n      mload(0x40)\n      tag_38\n      swap2\n      swap1\n      tag_31\n      jump\t// in\n    tag_38:\n      mload(0x40)\n      dup1\n      swap2\n      sub\n      swap1\n      return\n        /* \"contracts/ConstantProductAMM.sol\":645:1087  function addLiquidity(uint256 amount0, uint256 amount1) external {... */\n    tag_9:\n      tag_39\n      0x04\n      dup1\n      calldatasize\n      sub\n      dup2\n      add\n      swap1\n      tag_40\n      swap2\n      swap1\n      tag_41\n      jump\t// in\n    tag_40:\n      tag_42\n      jump\t// in\n    tag_39:\n      stop\n        /* \"contracts/ConstantProductAMM.sol\":288:308  uint256 public price */\n    tag_10:\n      tag_43\n      tag_44\n      jump\t// in\n    tag_43:\n      mload(0x40)\n      tag_45\n      swap2\n      swap1\n      tag_31\n      jump\t// in\n    tag_45:\n      mload(0x40)\n      dup1\n      swap2\n      sub\n      swap1\n      return\n        /* \"contracts/ConstantProductAMM.sol\":446:462  uint256 public K */\n    tag_11:\n      tag_46\n      tag_47\n      jump\t// in\n    tag_46:\n      mload(0x40)\n      tag_48\n      swap2\n      swap1\n      tag_31\n      jump\t// in\n    tag_48:\n      mload(0x40)\n      dup1\n      swap2\n      sub\n      swap1\n      return\n        /* \"contracts/ConstantProductAMM.sol\":175:195  IERC20 public token1 */\n    tag_12:\n      tag_49\n      tag_50\n      jump\t// in\n    tag_49:\n      mload(0x40)\n      tag_51\n      swap2\n      swap1\n      tag_23\n      jump\t// in\n    tag_51:\n      mload(0x40)\n      dup1\n      swap2\n      sub\n      swap1\n      return\n        /* \"contracts/ConstantProductAMM.sol\":1825:2075  function setExchangeRate(uint256 targetPrice) external {... */\n    tag_13:\n      tag_52\n      0x04\n      dup1\n      calldatasize\n      sub\n      dup2\n      add\n      swap1\n      tag_53\n      swap2\n      swap1\n      tag_54\n      jump\t// in\n    tag_53:\n      tag_55\n      jump\t// in\n    tag_52:\n      stop\n        /* \"contracts/ConstantProductAMM.sol\":394:440  uint256 public constant SCALE = 10 ** DECIMALS */\n    tag_14:\n      tag_56\n      tag_57\n      jump\t// in\n    tag_56:\n      mload(0x40)\n      tag_58\n      swap2\n      swap1\n      tag_31\n      jump\t// in\n    tag_58:\n      mload(0x40)\n      dup1\n      swap2\n      sub\n      swap1\n      return\n        /* \"contracts/ConstantProductAMM.sol\":1697:1819  function getReserves() public view returns (uint256, uint256) {... */\n    tag_17:\n        /* \"contracts/ConstantProductAMM.sol\":1741:1748  uint256 */\n      0x00\n        /* \"contracts/ConstantProductAMM.sol\":1750:1757  uint256 */\n      dup1\n        /* \"contracts/ConstantProductAMM.sol\":387:388  3 */\n      0x03\n        /* \"contracts/ConstantProductAMM.sol\":426:428  10 */\n      0x0a\n        /* \"contracts/ConstantProductAMM.sol\":426:440  10 ** DECIMALS */\n      tag_60\n      swap2\n      swap1\n      tag_61\n      jump\t// in\n    tag_60:\n        /* \"contracts/ConstantProductAMM.sol\":1777:1785  reserve0 */\n      sload(0x03)\n        /* \"contracts/ConstantProductAMM.sol\":1777:1793  reserve0 / SCALE */\n      tag_62\n      swap2\n      swap1\n      tag_63\n      jump\t// in\n    tag_62:\n        /* \"contracts/ConstantProductAMM.sol\":387:388  3 */\n      0x03\n        /* \"contracts/ConstantProductAMM.sol\":426:428  10 */\n      0x0a\n        /* \"contracts/ConstantProductAMM.sol\":426:440  10 ** DECIMALS */\n      tag_64\n      swap2\n      swap1\n      tag_61\n      jump\t// in\n    tag_64:\n        /* \"contracts/ConstantProductAMM.sol\":1795:1803  reserve1 */\n      sload(0x04)\n        /* \"contracts/ConstantProductAMM.sol\":1795:1811  reserve1 / SCALE */\n      tag_65\n      swap2\n      swap1\n      tag_63\n      jump\t// in\n    tag_65:\n        /* \"contracts/ConstantProductAMM.sol\":1769:1812  return (reserve0 / SCALE, reserve1 / SCALE) */\n      swap2\n      pop\n      swap2\n      pop\n        /* \"contracts/ConstantProductAMM.sol\":1697:1819  function getReserves() public view returns (uint256, uint256) {... */\n      swap1\n      swap2\n      jump\t// out\n        /* \"contracts/ConstantProductAMM.sol\":149:169  IERC20 public token0 */\n    tag_21:\n      0x00\n      dup1\n      sload\n      swap1\n      0x0100\n      exp\n      swap1\n      div\n      0xffffffffffffffffffffffffffffffffffffffff\n      and\n      dup2\n      jump\t// out\n        /* \"contracts/ConstantProductAMM.sol\":354:388  uint8 public constant DECIMALS = 3 */\n    tag_25:\n        /* \"contracts/ConstantProductAMM.sol\":387:388  3 */\n      0x03\n        /* \"contracts/ConstantProductAMM.sol\":354:388  uint8 public constant DECIMALS = 3 */\n      dup2\n      jump\t// out\n        /* \"contracts/ConstantProductAMM.sol\":230:253  uint256 public reserve0 */\n    tag_29:\n      sload(0x03)\n      dup2\n      jump\t// out\n        /* \"contracts/ConstantProductAMM.sol\":201:224  address public apWallet */\n    tag_33:\n      0x02\n      0x00\n      swap1\n      sload\n      swap1\n      0x0100\n      exp\n      swap1\n      div\n      0xffffffffffffffffffffffffffffffffffffffff\n      and\n      dup2\n      jump\t// out\n        /* \"contracts/ConstantProductAMM.sol\":259:282  uint256 public reserve1 */\n    tag_37:\n      sload(0x04)\n      dup2\n      jump\t// out\n        /* \"contracts/ConstantProductAMM.sol\":645:1087  function addLiquidity(uint256 amount0, uint256 amount1) external {... */\n    tag_42:\n        /* \"contracts/ConstantProductAMM.sol\":738:739  0 */\n      0x00\n        /* \"contracts/ConstantProductAMM.sol\":728:735  amount0 */\n      dup3\n        /* \"contracts/ConstantProductAMM.sol\":728:739  amount0 > 0 */\n      gt\n        /* \"contracts/ConstantProductAMM.sol\":728:754  amount0 > 0 && amount1 > 0 */\n      dup1\n      iszero\n      tag_67\n      jumpi\n      pop\n        /* \"contracts/ConstantProductAMM.sol\":753:754  0 */\n      0x00\n        /* \"contracts/ConstantProductAMM.sol\":743:750  amount1 */\n      dup2\n        /* \"contracts/ConstantProductAMM.sol\":743:754  amount1 > 0 */\n      gt\n        /* \"contracts/ConstantProductAMM.sol\":728:754  amount0 > 0 && amount1 > 0 */\n    tag_67:\n        /* \"contracts/ConstantProductAMM.sol\":720:774  require(amount0 > 0 && amount1 > 0, \"Invalid amounts\") */\n      tag_68\n      jumpi\n      mload(0x40)\n      0x08c379a000000000000000000000000000000000000000000000000000000000\n      dup2\n      mstore\n      0x04\n      add\n      tag_69\n      swap1\n      tag_70\n      jump\t// in\n    tag_69:\n      mload(0x40)\n      dup1\n      swap2\n      sub\n      swap1\n      revert\n    tag_68:\n        /* \"contracts/ConstantProductAMM.sol\":784:790  token0 */\n      0x00\n      dup1\n      sload\n      swap1\n      0x0100\n      exp\n      swap1\n      div\n      0xffffffffffffffffffffffffffffffffffffffff\n      and\n        /* \"contracts/ConstantProductAMM.sol\":784:803  token0.transferFrom */\n      0xffffffffffffffffffffffffffffffffffffffff\n      and\n      0x23b872dd\n        /* \"contracts/ConstantProductAMM.sol\":804:814  msg.sender */\n      caller\n        /* \"contracts/ConstantProductAMM.sol\":824:828  this */\n      address\n        /* \"contracts/ConstantProductAMM.sol\":831:838  amount0 */\n      dup6\n        /* \"contracts/ConstantProductAMM.sol\":784:839  token0.transferFrom(msg.sender, address(this), amount0) */\n      mload(0x40)\n      dup5\n      0xffffffff\n      and\n      0xe0\n      shl\n      dup2\n      mstore\n      0x04\n      add\n      tag_71\n      swap4\n      swap3\n      swap2\n      swap1\n      tag_72\n      jump\t// in\n    tag_71:\n      0x20\n      mload(0x40)\n      dup1\n      dup4\n      sub\n      dup2\n      0x00\n      dup8\n      gas\n      call\n      iszero\n      dup1\n      iszero\n      tag_74\n      jumpi\n      returndatasize\n      0x00\n      dup1\n      returndatacopy\n      revert(0x00, returndatasize)\n    tag_74:\n      pop\n      pop\n      pop\n      pop\n      mload(0x40)\n      returndatasize\n      not(0x1f)\n      0x1f\n      dup3\n      add\n      and\n      dup3\n      add\n      dup1\n      0x40\n      mstore\n      pop\n      dup2\n      add\n      swap1\n      tag_75\n      swap2\n      swap1\n      tag_76\n      jump\t// in\n    tag_75:\n      pop\n        /* \"contracts/ConstantProductAMM.sol\":849:855  token1 */\n      0x01\n      0x00\n      swap1\n      sload\n      swap1\n      0x0100\n      exp\n      swap1\n      div\n      0xffffffffffffffffffffffffffffffffffffffff\n      and\n        /* \"contracts/ConstantProductAMM.sol\":849:868  token1.transferFrom */\n      0xffffffffffffffffffffffffffffffffffffffff\n      and\n      0x23b872dd\n        /* \"contracts/ConstantProductAMM.sol\":869:879  msg.sender */\n      caller\n        /* \"contracts/ConstantProductAMM.sol\":889:893  this */\n      address\n        /* \"contracts/ConstantProductAMM.sol\":896:903  amount1 */\n      dup5\n        /* \"contracts/ConstantProductAMM.sol\":849:904  token1.transferFrom(msg.sender, address(this), amount1) */\n      mload(0x40)\n      dup5\n      0xffffffff\n      and\n      0xe0\n      shl\n      dup2\n      mstore\n      0x04\n      add\n      tag_77\n      swap4\n      swap3\n      swap2\n      swap1\n      tag_72\n      jump\t// in\n    tag_77:\n      0x20\n      mload(0x40)\n      dup1\n      dup4\n      sub\n      dup2\n      0x00\n      dup8\n      gas\n      call\n      iszero\n      dup1\n      iszero\n      tag_79\n      jumpi\n      returndatasize\n      0x00\n      dup1\n      returndatacopy\n      revert(0x00, returndatasize)\n    tag_79:\n      pop\n      pop\n      pop\n      pop\n      mload(0x40)\n      returndatasize\n      not(0x1f)\n      0x1f\n      dup3\n      add\n      and\n      dup3\n      add\n      dup1\n      0x40\n      mstore\n      pop\n      dup2\n      add\n      swap1\n      tag_80\n      swap2\n      swap1\n      tag_76\n      jump\t// in\n    tag_80:\n      pop\n        /* \"contracts/ConstantProductAMM.sol\":387:388  3 */\n      0x03\n        /* \"contracts/ConstantProductAMM.sol\":426:428  10 */\n      0x0a\n        /* \"contracts/ConstantProductAMM.sol\":426:440  10 ** DECIMALS */\n      tag_81\n      swap2\n      swap1\n      tag_61\n      jump\t// in\n    tag_81:\n        /* \"contracts/ConstantProductAMM.sol\":926:933  amount0 */\n      dup3\n        /* \"contracts/ConstantProductAMM.sol\":926:941  amount0 * SCALE */\n      tag_82\n      swap2\n      swap1\n      tag_83\n      jump\t// in\n    tag_82:\n        /* \"contracts/ConstantProductAMM.sol\":914:922  reserve0 */\n      0x03\n      0x00\n        /* \"contracts/ConstantProductAMM.sol\":914:941  reserve0 += amount0 * SCALE */\n      dup3\n      dup3\n      sload\n      tag_84\n      swap2\n      swap1\n      tag_85\n      jump\t// in\n    tag_84:\n      swap3\n      pop\n      pop\n      dup2\n      swap1\n      sstore\n      pop\n        /* \"contracts/ConstantProductAMM.sol\":387:388  3 */\n      0x03\n        /* \"contracts/ConstantProductAMM.sol\":426:428  10 */\n      0x0a\n        /* \"contracts/ConstantProductAMM.sol\":426:440  10 ** DECIMALS */\n      tag_86\n      swap2\n      swap1\n      tag_61\n      jump\t// in\n    tag_86:\n        /* \"contracts/ConstantProductAMM.sol\":963:970  amount1 */\n      dup2\n        /* \"contracts/ConstantProductAMM.sol\":963:978  amount1 * SCALE */\n      tag_87\n      swap2\n      swap1\n      tag_83\n      jump\t// in\n    tag_87:\n        /* \"contracts/ConstantProductAMM.sol\":951:959  reserve1 */\n      0x04\n      0x00\n        /* \"contracts/ConstantProductAMM.sol\":951:978  reserve1 += amount1 * SCALE */\n      dup3\n      dup3\n      sload\n      tag_88\n      swap2\n      swap1\n      tag_85\n      jump\t// in\n    tag_88:\n      swap3\n      pop\n      pop\n      dup2\n      swap1\n      sstore\n      pop\n        /* \"contracts/ConstantProductAMM.sol\":1003:1011  reserve1 */\n      sload(0x04)\n        /* \"contracts/ConstantProductAMM.sol\":992:1000  reserve0 */\n      sload(0x03)\n        /* \"contracts/ConstantProductAMM.sol\":992:1011  reserve0 * reserve1 */\n      tag_89\n      swap2\n      swap1\n      tag_83\n      jump\t// in\n    tag_89:\n        /* \"contracts/ConstantProductAMM.sol\":988:989  K */\n      0x06\n        /* \"contracts/ConstantProductAMM.sol\":988:1011  K = reserve0 * reserve1 */\n      dup2\n      swap1\n      sstore\n      pop\n        /* \"contracts/ConstantProductAMM.sol\":645:1087  function addLiquidity(uint256 amount0, uint256 amount1) external {... */\n      pop\n      pop\n      jump\t// out\n        /* \"contracts/ConstantProductAMM.sol\":288:308  uint256 public price */\n    tag_44:\n      sload(0x05)\n      dup2\n      jump\t// out\n        /* \"contracts/ConstantProductAMM.sol\":446:462  uint256 public K */\n    tag_47:\n      sload(0x06)\n      dup2\n      jump\t// out\n        /* \"contracts/ConstantProductAMM.sol\":175:195  IERC20 public token1 */\n    tag_50:\n      0x01\n      0x00\n      swap1\n      sload\n      swap1\n      0x0100\n      exp\n      swap1\n      div\n      0xffffffffffffffffffffffffffffffffffffffff\n      and\n      dup2\n      jump\t// out\n        /* \"contracts/ConstantProductAMM.sol\":1825:2075  function setExchangeRate(uint256 targetPrice) external {... */\n    tag_55:\n        /* \"contracts/ConstantProductAMM.sol\":1912:1913  0 */\n      0x00\n        /* \"contracts/ConstantProductAMM.sol\":1898:1909  targetPrice */\n      dup2\n        /* \"contracts/ConstantProductAMM.sol\":1898:1913  targetPrice > 0 */\n      gt\n        /* \"contracts/ConstantProductAMM.sol\":1890:1938  require(targetPrice > 0, \"Invalid target price\") */\n      tag_91\n      jumpi\n      mload(0x40)\n      0x08c379a000000000000000000000000000000000000000000000000000000000\n      dup2\n      mstore\n      0x04\n      add\n      tag_92\n      swap1\n      tag_93\n      jump\t// in\n    tag_92:\n      mload(0x40)\n      dup1\n      swap2\n      sub\n      swap1\n      revert\n    tag_91:\n        /* \"contracts/ConstantProductAMM.sol\":1948:1964  uint256 oldPrice */\n      0x00\n        /* \"contracts/ConstantProductAMM.sol\":1977:1978  0 */\n      dup1\n        /* \"contracts/ConstantProductAMM.sol\":1968:1973  price */\n      sload(0x05)\n        /* \"contracts/ConstantProductAMM.sol\":1968:1978  price == 0 */\n      eq\n        /* \"contracts/ConstantProductAMM.sol\":1967:2001  (price == 0) ? targetPrice : price */\n      tag_94\n      jumpi\n        /* \"contracts/ConstantProductAMM.sol\":1996:2001  price */\n      sload(0x05)\n        /* \"contracts/ConstantProductAMM.sol\":1967:2001  (price == 0) ? targetPrice : price */\n      jump(tag_95)\n    tag_94:\n        /* \"contracts/ConstantProductAMM.sol\":1982:1993  targetPrice */\n      dup2\n        /* \"contracts/ConstantProductAMM.sol\":1967:2001  (price == 0) ? targetPrice : price */\n    tag_95:\n        /* \"contracts/ConstantProductAMM.sol\":1948:2001  uint256 oldPrice = (price == 0) ? targetPrice : price */\n      swap1\n      pop\n        /* \"contracts/ConstantProductAMM.sol\":2019:2030  targetPrice */\n      dup2\n        /* \"contracts/ConstantProductAMM.sol\":2011:2016  price */\n      0x05\n        /* \"contracts/ConstantProductAMM.sol\":2011:2030  price = targetPrice */\n      dup2\n      swap1\n      sstore\n      pop\n        /* \"contracts/ConstantProductAMM.sol\":2040:2068  balancePool(oldPrice, price) */\n      tag_96\n        /* \"contracts/ConstantProductAMM.sol\":2052:2060  oldPrice */\n      dup2\n        /* \"contracts/ConstantProductAMM.sol\":2062:2067  price */\n      sload(0x05)\n        /* \"contracts/ConstantProductAMM.sol\":2040:2051  balancePool */\n      tag_97\n        /* \"contracts/ConstantProductAMM.sol\":2040:2068  balancePool(oldPrice, price) */\n      jump\t// in\n    tag_96:\n        /* \"contracts/ConstantProductAMM.sol\":1880:2075  {... */\n      pop\n        /* \"contracts/ConstantProductAMM.sol\":1825:2075  function setExchangeRate(uint256 targetPrice) external {... */\n      pop\n      jump\t// out\n        /* \"contracts/ConstantProductAMM.sol\":394:440  uint256 public constant SCALE = 10 ** DECIMALS */\n    tag_57:\n        /* \"contracts/ConstantProductAMM.sol\":387:388  3 */\n      0x03\n        /* \"contracts/ConstantProductAMM.sol\":426:428  10 */\n      0x0a\n        /* \"contracts/ConstantProductAMM.sol\":426:440  10 ** DECIMALS */\n      tag_98\n      swap2\n      swap1\n      tag_61\n      jump\t// in\n    tag_98:\n        /* \"contracts/ConstantProductAMM.sol\":394:440  uint256 public constant SCALE = 10 ** DECIMALS */\n      dup2\n      jump\t// out\n        /* \"contracts/ConstantProductAMM.sol\":2081:3184  function balancePool(uint256 oldPrice, uint256 newPrice) internal {... */\n    tag_97:\n        /* \"contracts/ConstantProductAMM.sol\":2173:2181  newPrice */\n      dup1\n        /* \"contracts/ConstantProductAMM.sol\":2161:2169  oldPrice */\n      dup3\n        /* \"contracts/ConstantProductAMM.sol\":2161:2181  oldPrice == newPrice */\n      sub\n        /* \"contracts/ConstantProductAMM.sol\":2157:2214  if (oldPrice == newPrice) {... */\n      iszero\n        /* \"contracts/ConstantProductAMM.sol\":2197:2204  return; */\n      tag_99\n        /* \"contracts/ConstantProductAMM.sol\":2157:2214  if (oldPrice == newPrice) {... */\n      jumpi\n        /* \"contracts/ConstantProductAMM.sol\":2223:2247  uint256 balancedReserve0 */\n      0x00\n        /* \"contracts/ConstantProductAMM.sol\":2250:2266  sqrt(K/newPrice) */\n      tag_101\n        /* \"contracts/ConstantProductAMM.sol\":2257:2265  newPrice */\n      dup3\n        /* \"contracts/ConstantProductAMM.sol\":2255:2256  K */\n      sload(0x06)\n        /* \"contracts/ConstantProductAMM.sol\":2255:2265  K/newPrice */\n      tag_102\n      swap2\n      swap1\n      tag_63\n      jump\t// in\n    tag_102:\n        /* \"contracts/ConstantProductAMM.sol\":2250:2254  sqrt */\n      tag_103\n        /* \"contracts/ConstantProductAMM.sol\":2250:2266  sqrt(K/newPrice) */\n      jump\t// in\n    tag_101:\n        /* \"contracts/ConstantProductAMM.sol\":2223:2266  uint256 balancedReserve0 = sqrt(K/newPrice) */\n      swap1\n      pop\n        /* \"contracts/ConstantProductAMM.sol\":2276:2300  uint256 balancedReserve1 */\n      0x00\n        /* \"contracts/ConstantProductAMM.sol\":2322:2330  newPrice */\n      dup3\n        /* \"contracts/ConstantProductAMM.sol\":2303:2319  balancedReserve0 */\n      dup3\n        /* \"contracts/ConstantProductAMM.sol\":2303:2330  balancedReserve0 * newPrice */\n      tag_104\n      swap2\n      swap1\n      tag_83\n      jump\t// in\n    tag_104:\n        /* \"contracts/ConstantProductAMM.sol\":2276:2330  uint256 balancedReserve1 = balancedReserve0 * newPrice */\n      swap1\n      pop\n        /* \"contracts/ConstantProductAMM.sol\":2355:2363  newPrice */\n      dup3\n        /* \"contracts/ConstantProductAMM.sol\":2344:2352  oldPrice */\n      dup5\n        /* \"contracts/ConstantProductAMM.sol\":2344:2363  oldPrice < newPrice */\n      lt\n        /* \"contracts/ConstantProductAMM.sol\":2340:2823  if (oldPrice < newPrice) { // selling TOK0... */\n      iszero\n      tag_105\n      jumpi\n        /* \"contracts/ConstantProductAMM.sol\":2395:2415  uint256 amountToSell */\n      0x00\n        /* \"contracts/ConstantProductAMM.sol\":2429:2447  sqrt(K / newPrice) */\n      tag_106\n        /* \"contracts/ConstantProductAMM.sol\":2438:2446  newPrice */\n      dup5\n        /* \"contracts/ConstantProductAMM.sol\":2434:2435  K */\n      sload(0x06)\n        /* \"contracts/ConstantProductAMM.sol\":2434:2446  K / newPrice */\n      tag_107\n      swap2\n      swap1\n      tag_63\n      jump\t// in\n    tag_107:\n        /* \"contracts/ConstantProductAMM.sol\":2429:2433  sqrt */\n      tag_103\n        /* \"contracts/ConstantProductAMM.sol\":2429:2447  sqrt(K / newPrice) */\n      jump\t// in\n    tag_106:\n        /* \"contracts/ConstantProductAMM.sol\":2418:2426  reserve0 */\n      sload(0x03)\n        /* \"contracts/ConstantProductAMM.sol\":2418:2447  reserve0 - sqrt(K / newPrice) */\n      tag_108\n      swap2\n      swap1\n      tag_109\n      jump\t// in\n    tag_108:\n        /* \"contracts/ConstantProductAMM.sol\":2395:2447  uint256 amountToSell = reserve0 - sqrt(K / newPrice) */\n      swap1\n      pop\n        /* \"contracts/ConstantProductAMM.sol\":2461:2481  uint256 amountEarned */\n      0x00\n        /* \"contracts/ConstantProductAMM.sol\":2499:2507  newPrice */\n      dup5\n        /* \"contracts/ConstantProductAMM.sol\":2484:2496  amountToSell */\n      dup3\n        /* \"contracts/ConstantProductAMM.sol\":2484:2507  amountToSell * newPrice */\n      tag_110\n      swap2\n      swap1\n      tag_83\n      jump\t// in\n    tag_110:\n        /* \"contracts/ConstantProductAMM.sol\":2461:2507  uint256 amountEarned = amountToSell * newPrice */\n      swap1\n      pop\n        /* \"contracts/ConstantProductAMM.sol\":2533:2545  amountToSell */\n      dup2\n        /* \"contracts/ConstantProductAMM.sol\":2521:2529  reserve0 */\n      0x03\n      0x00\n        /* \"contracts/ConstantProductAMM.sol\":2521:2545  reserve0 -= amountToSell */\n      dup3\n      dup3\n      sload\n      tag_111\n      swap2\n      swap1\n      tag_109\n      jump\t// in\n    tag_111:\n      swap3\n      pop\n      pop\n      dup2\n      swap1\n      sstore\n      pop\n        /* \"contracts/ConstantProductAMM.sol\":2571:2583  amountEarned */\n      dup1\n        /* \"contracts/ConstantProductAMM.sol\":2559:2567  reserve1 */\n      0x04\n      0x00\n        /* \"contracts/ConstantProductAMM.sol\":2559:2583  reserve1 += amountEarned */\n      dup3\n      dup3\n      sload\n      tag_112\n      swap2\n      swap1\n      tag_85\n      jump\t// in\n    tag_112:\n      swap3\n      pop\n      pop\n      dup2\n      swap1\n      sstore\n      pop\n        /* \"contracts/ConstantProductAMM.sol\":2365:2594  { // selling TOK0... */\n      pop\n      pop\n        /* \"contracts/ConstantProductAMM.sol\":2340:2823  if (oldPrice < newPrice) { // selling TOK0... */\n      jump(tag_113)\n    tag_105:\n        /* \"contracts/ConstantProductAMM.sol\":2629:2648  uint256 amountToBuy */\n      0x00\n        /* \"contracts/ConstantProductAMM.sol\":2672:2680  reserve0 */\n      sload(0x03)\n        /* \"contracts/ConstantProductAMM.sol\":2651:2669  sqrt(K / newPrice) */\n      tag_114\n        /* \"contracts/ConstantProductAMM.sol\":2660:2668  newPrice */\n      dup6\n        /* \"contracts/ConstantProductAMM.sol\":2656:2657  K */\n      sload(0x06)\n        /* \"contracts/ConstantProductAMM.sol\":2656:2668  K / newPrice */\n      tag_115\n      swap2\n      swap1\n      tag_63\n      jump\t// in\n    tag_115:\n        /* \"contracts/ConstantProductAMM.sol\":2651:2655  sqrt */\n      tag_103\n        /* \"contracts/ConstantProductAMM.sol\":2651:2669  sqrt(K / newPrice) */\n      jump\t// in\n    tag_114:\n        /* \"contracts/ConstantProductAMM.sol\":2651:2680  sqrt(K / newPrice) - reserve0 */\n      tag_116\n      swap2\n      swap1\n      tag_109\n      jump\t// in\n    tag_116:\n        /* \"contracts/ConstantProductAMM.sol\":2629:2680  uint256 amountToBuy = sqrt(K / newPrice) - reserve0 */\n      swap1\n      pop\n        /* \"contracts/ConstantProductAMM.sol\":2694:2713  uint256 amountSpent */\n      0x00\n        /* \"contracts/ConstantProductAMM.sol\":2730:2738  newPrice */\n      dup5\n        /* \"contracts/ConstantProductAMM.sol\":2716:2727  amountToBuy */\n      dup3\n        /* \"contracts/ConstantProductAMM.sol\":2716:2738  amountToBuy * newPrice */\n      tag_117\n      swap2\n      swap1\n      tag_83\n      jump\t// in\n    tag_117:\n        /* \"contracts/ConstantProductAMM.sol\":2694:2738  uint256 amountSpent = amountToBuy * newPrice */\n      swap1\n      pop\n        /* \"contracts/ConstantProductAMM.sol\":2764:2775  amountSpent */\n      dup1\n        /* \"contracts/ConstantProductAMM.sol\":2752:2760  reserve1 */\n      0x04\n      0x00\n        /* \"contracts/ConstantProductAMM.sol\":2752:2775  reserve1 -= amountSpent */\n      dup3\n      dup3\n      sload\n      tag_118\n      swap2\n      swap1\n      tag_109\n      jump\t// in\n    tag_118:\n      swap3\n      pop\n      pop\n      dup2\n      swap1\n      sstore\n      pop\n        /* \"contracts/ConstantProductAMM.sol\":2801:2812  amountToBuy */\n      dup2\n        /* \"contracts/ConstantProductAMM.sol\":2789:2797  reserve0 */\n      0x03\n      0x00\n        /* \"contracts/ConstantProductAMM.sol\":2789:2812  reserve0 += amountToBuy */\n      dup3\n      dup3\n      sload\n      tag_119\n      swap2\n      swap1\n      tag_85\n      jump\t// in\n    tag_119:\n      swap3\n      pop\n      pop\n      dup2\n      swap1\n      sstore\n      pop\n        /* \"contracts/ConstantProductAMM.sol\":2600:2823  { // buying TOK0... */\n      pop\n      pop\n        /* \"contracts/ConstantProductAMM.sol\":2340:2823  if (oldPrice < newPrice) { // selling TOK0... */\n    tag_113:\n        /* \"contracts/ConstantProductAMM.sol\":2887:2903  balancedReserve1 */\n      dup1\n        /* \"contracts/ConstantProductAMM.sol\":2876:2884  reserve1 */\n      sload(0x04)\n        /* \"contracts/ConstantProductAMM.sol\":2876:2903  reserve1 > balancedReserve1 */\n      gt\n        /* \"contracts/ConstantProductAMM.sol\":2872:3178  if (reserve1 > balancedReserve1) {... */\n      iszero\n      tag_120\n      jumpi\n        /* \"contracts/ConstantProductAMM.sol\":2919:2943  uint256 amountToTransfer */\n      0x00\n        /* \"contracts/ConstantProductAMM.sol\":2955:2971  balancedReserve1 */\n      dup2\n        /* \"contracts/ConstantProductAMM.sol\":2946:2954  reserve1 */\n      sload(0x04)\n        /* \"contracts/ConstantProductAMM.sol\":2946:2971  reserve1-balancedReserve1 */\n      tag_121\n      swap2\n      swap1\n      tag_109\n      jump\t// in\n    tag_121:\n        /* \"contracts/ConstantProductAMM.sol\":2919:2971  uint256 amountToTransfer = reserve1-balancedReserve1 */\n      swap1\n      pop\n        /* \"contracts/ConstantProductAMM.sol\":3005:3021  amountToTransfer */\n      dup1\n        /* \"contracts/ConstantProductAMM.sol\":2993:3001  reserve1 */\n      sload(0x04)\n        /* \"contracts/ConstantProductAMM.sol\":2993:3021  reserve1 >= amountToTransfer */\n      lt\n      iszero\n        /* \"contracts/ConstantProductAMM.sol\":2985:3062  require(reserve1 >= amountToTransfer, \"Not enough liquidity for AP transfer\") */\n      tag_122\n      jumpi\n      mload(0x40)\n      0x08c379a000000000000000000000000000000000000000000000000000000000\n      dup2\n      mstore\n      0x04\n      add\n      tag_123\n      swap1\n      tag_124\n      jump\t// in\n    tag_123:\n      mload(0x40)\n      dup1\n      swap2\n      sub\n      swap1\n      revert\n    tag_122:\n        /* \"contracts/ConstantProductAMM.sol\":3076:3082  token1 */\n      0x01\n      0x00\n      swap1\n      sload\n      swap1\n      0x0100\n      exp\n      swap1\n      div\n      0xffffffffffffffffffffffffffffffffffffffff\n      and\n        /* \"contracts/ConstantProductAMM.sol\":3076:3091  token1.transfer */\n      0xffffffffffffffffffffffffffffffffffffffff\n      and\n      0xa9059cbb\n        /* \"contracts/ConstantProductAMM.sol\":3092:3100  apWallet */\n      0x02\n      0x00\n      swap1\n      sload\n      swap1\n      0x0100\n      exp\n      swap1\n      div\n      0xffffffffffffffffffffffffffffffffffffffff\n      and\n        /* \"contracts/ConstantProductAMM.sol\":387:388  3 */\n      0x03\n        /* \"contracts/ConstantProductAMM.sol\":426:428  10 */\n      0x0a\n        /* \"contracts/ConstantProductAMM.sol\":426:440  10 ** DECIMALS */\n      tag_125\n      swap2\n      swap1\n      tag_61\n      jump\t// in\n    tag_125:\n        /* \"contracts/ConstantProductAMM.sol\":3102:3118  amountToTransfer */\n      dup5\n        /* \"contracts/ConstantProductAMM.sol\":3102:3124  amountToTransfer/SCALE */\n      tag_126\n      swap2\n      swap1\n      tag_63\n      jump\t// in\n    tag_126:\n        /* \"contracts/ConstantProductAMM.sol\":3076:3125  token1.transfer(apWallet, amountToTransfer/SCALE) */\n      mload(0x40)\n      dup4\n      0xffffffff\n      and\n      0xe0\n      shl\n      dup2\n      mstore\n      0x04\n      add\n      tag_127\n      swap3\n      swap2\n      swap1\n      tag_128\n      jump\t// in\n    tag_127:\n      0x20\n      mload(0x40)\n      dup1\n      dup4\n      sub\n      dup2\n      0x00\n      dup8\n      gas\n      call\n      iszero\n      dup1\n      iszero\n      tag_130\n      jumpi\n      returndatasize\n      0x00\n      dup1\n      returndatacopy\n      revert(0x00, returndatasize)\n    tag_130:\n      pop\n      pop\n      pop\n      pop\n      mload(0x40)\n      returndatasize\n      not(0x1f)\n      0x1f\n      dup3\n      add\n      and\n      dup3\n      add\n      dup1\n      0x40\n      mstore\n      pop\n      dup2\n      add\n      swap1\n      tag_131\n      swap2\n      swap1\n      tag_76\n      jump\t// in\n    tag_131:\n      pop\n        /* \"contracts/ConstantProductAMM.sol\":3151:3167  amountToTransfer */\n      dup1\n        /* \"contracts/ConstantProductAMM.sol\":3139:3147  reserve1 */\n      0x04\n      0x00\n        /* \"contracts/ConstantProductAMM.sol\":3139:3167  reserve1 -= amountToTransfer */\n      dup3\n      dup3\n      sload\n      tag_132\n      swap2\n      swap1\n      tag_109\n      jump\t// in\n    tag_132:\n      swap3\n      pop\n      pop\n      dup2\n      swap1\n      sstore\n      pop\n        /* \"contracts/ConstantProductAMM.sol\":2905:3178  {... */\n      pop\n        /* \"contracts/ConstantProductAMM.sol\":2872:3178  if (reserve1 > balancedReserve1) {... */\n    tag_120:\n        /* \"contracts/ConstantProductAMM.sol\":2147:3184  {... */\n      pop\n      pop\n        /* \"contracts/ConstantProductAMM.sol\":2081:3184  function balancePool(uint256 oldPrice, uint256 newPrice) internal {... */\n    tag_99:\n      pop\n      pop\n      jump\t// out\n        /* \"contracts/ConstantProductAMM.sol\":3190:3491  function sqrt(uint256 y) internal pure returns (uint256 z) {... */\n    tag_103:\n        /* \"contracts/ConstantProductAMM.sol\":3238:3247  uint256 z */\n      0x00\n        /* \"contracts/ConstantProductAMM.sol\":3267:3268  3 */\n      0x03\n        /* \"contracts/ConstantProductAMM.sol\":3263:3264  y */\n      dup3\n        /* \"contracts/ConstantProductAMM.sol\":3263:3268  y > 3 */\n      gt\n        /* \"contracts/ConstantProductAMM.sol\":3259:3485  if (y > 3) {... */\n      iszero\n      tag_134\n      jumpi\n        /* \"contracts/ConstantProductAMM.sol\":3288:3289  y */\n      dup2\n        /* \"contracts/ConstantProductAMM.sol\":3284:3289  z = y */\n      swap1\n      pop\n        /* \"contracts/ConstantProductAMM.sol\":3303:3312  uint256 x */\n      0x00\n        /* \"contracts/ConstantProductAMM.sol\":3323:3324  1 */\n      0x01\n        /* \"contracts/ConstantProductAMM.sol\":3319:3320  2 */\n      0x02\n        /* \"contracts/ConstantProductAMM.sol\":3315:3316  y */\n      dup5\n        /* \"contracts/ConstantProductAMM.sol\":3315:3320  y / 2 */\n      tag_135\n      swap2\n      swap1\n      tag_63\n      jump\t// in\n    tag_135:\n        /* \"contracts/ConstantProductAMM.sol\":3315:3324  y / 2 + 1 */\n      tag_136\n      swap2\n      swap1\n      tag_85\n      jump\t// in\n    tag_136:\n        /* \"contracts/ConstantProductAMM.sol\":3303:3324  uint256 x = y / 2 + 1 */\n      swap1\n      pop\n        /* \"contracts/ConstantProductAMM.sol\":3338:3427  while (x < z) {... */\n    tag_137:\n        /* \"contracts/ConstantProductAMM.sol\":3349:3350  z */\n      dup2\n        /* \"contracts/ConstantProductAMM.sol\":3345:3346  x */\n      dup2\n        /* \"contracts/ConstantProductAMM.sol\":3345:3350  x < z */\n      lt\n        /* \"contracts/ConstantProductAMM.sol\":3338:3427  while (x < z) {... */\n      iszero\n      tag_138\n      jumpi\n        /* \"contracts/ConstantProductAMM.sol\":3374:3375  x */\n      dup1\n        /* \"contracts/ConstantProductAMM.sol\":3370:3375  z = x */\n      swap2\n      pop\n        /* \"contracts/ConstantProductAMM.sol\":3411:3412  2 */\n      0x02\n        /* \"contracts/ConstantProductAMM.sol\":3406:3407  x */\n      dup2\n        /* \"contracts/ConstantProductAMM.sol\":3402:3403  x */\n      dup3\n        /* \"contracts/ConstantProductAMM.sol\":3398:3399  y */\n      dup6\n        /* \"contracts/ConstantProductAMM.sol\":3398:3403  y / x */\n      tag_139\n      swap2\n      swap1\n      tag_63\n      jump\t// in\n    tag_139:\n        /* \"contracts/ConstantProductAMM.sol\":3398:3407  y / x + x */\n      tag_140\n      swap2\n      swap1\n      tag_85\n      jump\t// in\n    tag_140:\n        /* \"contracts/ConstantProductAMM.sol\":3397:3412  (y / x + x) / 2 */\n      tag_141\n      swap2\n      swap1\n      tag_63\n      jump\t// in\n    tag_141:\n        /* \"contracts/ConstantProductAMM.sol\":3393:3412  x = (y / x + x) / 2 */\n      swap1\n      pop\n        /* \"contracts/ConstantProductAMM.sol\":3338:3427  while (x < z) {... */\n      jump(tag_137)\n    tag_138:\n        /* \"contracts/ConstantProductAMM.sol\":3270:3437  {... */\n      pop\n        /* \"contracts/ConstantProductAMM.sol\":3259:3485  if (y > 3) {... */\n      jump(tag_142)\n    tag_134:\n        /* \"contracts/ConstantProductAMM.sol\":3452:3453  0 */\n      0x00\n        /* \"contracts/ConstantProductAMM.sol\":3447:3448  y */\n      dup3\n        /* \"contracts/ConstantProductAMM.sol\":3447:3453  y != 0 */\n      eq\n        /* \"contracts/ConstantProductAMM.sol\":3443:3485  if (y != 0) {... */\n      tag_143\n      jumpi\n        /* \"contracts/ConstantProductAMM.sol\":3473:3474  1 */\n      0x01\n        /* \"contracts/ConstantProductAMM.sol\":3469:3474  z = 1 */\n      swap1\n      pop\n        /* \"contracts/ConstantProductAMM.sol\":3443:3485  if (y != 0) {... */\n    tag_143:\n        /* \"contracts/ConstantProductAMM.sol\":3259:3485  if (y > 3) {... */\n    tag_142:\n        /* \"contracts/ConstantProductAMM.sol\":3190:3491  function sqrt(uint256 y) internal pure returns (uint256 z) {... */\n      swap2\n      swap1\n      pop\n      jump\t// out\n        /* \"#utility.yul\":7:84   */\n    tag_144:\n        /* \"#utility.yul\":44:51   */\n      0x00\n        /* \"#utility.yul\":73:78   */\n      dup2\n        /* \"#utility.yul\":62:78   */\n      swap1\n      pop\n        /* \"#utility.yul\":7:84   */\n      swap2\n      swap1\n      pop\n      jump\t// out\n        /* \"#utility.yul\":90:208   */\n    tag_145:\n        /* \"#utility.yul\":177:201   */\n      tag_179\n        /* \"#utility.yul\":195:200   */\n      dup2\n        /* \"#utility.yul\":177:201   */\n      tag_144\n      jump\t// in\n    tag_179:\n        /* \"#utility.yul\":172:175   */\n      dup3\n        /* \"#utility.yul\":165:202   */\n      mstore\n        /* \"#utility.yul\":90:208   */\n      pop\n      pop\n      jump\t// out\n        /* \"#utility.yul\":214:546   */\n    tag_19:\n        /* \"#utility.yul\":335:339   */\n      0x00\n        /* \"#utility.yul\":373:375   */\n      0x40\n        /* \"#utility.yul\":362:371   */\n      dup3\n        /* \"#utility.yul\":358:376   */\n      add\n        /* \"#utility.yul\":350:376   */\n      swap1\n      pop\n        /* \"#utility.yul\":386:457   */\n      tag_181\n        /* \"#utility.yul\":454:455   */\n      0x00\n        /* \"#utility.yul\":443:452   */\n      dup4\n        /* \"#utility.yul\":439:456   */\n      add\n        /* \"#utility.yul\":430:436   */\n      dup6\n        /* \"#utility.yul\":386:457   */\n      tag_145\n      jump\t// in\n    tag_181:\n        /* \"#utility.yul\":467:539   */\n      tag_182\n        /* \"#utility.yul\":535:537   */\n      0x20\n        /* \"#utility.yul\":524:533   */\n      dup4\n        /* \"#utility.yul\":520:538   */\n      add\n        /* \"#utility.yul\":511:517   */\n      dup5\n        /* \"#utility.yul\":467:539   */\n      tag_145\n      jump\t// in\n    tag_182:\n        /* \"#utility.yul\":214:546   */\n      swap4\n      swap3\n      pop\n      pop\n      pop\n      jump\t// out\n        /* \"#utility.yul\":552:678   */\n    tag_146:\n        /* \"#utility.yul\":589:596   */\n      0x00\n        /* \"#utility.yul\":629:671   */\n      0xffffffffffffffffffffffffffffffffffffffff\n        /* \"#utility.yul\":622:627   */\n      dup3\n        /* \"#utility.yul\":618:672   */\n      and\n        /* \"#utility.yul\":607:672   */\n      swap1\n      pop\n        /* \"#utility.yul\":552:678   */\n      swap2\n      swap1\n      pop\n      jump\t// out\n        /* \"#utility.yul\":684:744   */\n    tag_147:\n        /* \"#utility.yul\":712:715   */\n      0x00\n        /* \"#utility.yul\":733:738   */\n      dup2\n        /* \"#utility.yul\":726:738   */\n      swap1\n      pop\n        /* \"#utility.yul\":684:744   */\n      swap2\n      swap1\n      pop\n      jump\t// out\n        /* \"#utility.yul\":750:892   */\n    tag_148:\n        /* \"#utility.yul\":800:809   */\n      0x00\n        /* \"#utility.yul\":833:886   */\n      tag_186\n        /* \"#utility.yul\":851:885   */\n      tag_187\n        /* \"#utility.yul\":860:884   */\n      tag_188\n        /* \"#utility.yul\":878:883   */\n      dup5\n        /* \"#utility.yul\":860:884   */\n      tag_146\n      jump\t// in\n    tag_188:\n        /* \"#utility.yul\":851:885   */\n      tag_147\n      jump\t// in\n    tag_187:\n        /* \"#utility.yul\":833:886   */\n      tag_146\n      jump\t// in\n    tag_186:\n        /* \"#utility.yul\":820:886   */\n      swap1\n      pop\n        /* \"#utility.yul\":750:892   */\n      swap2\n      swap1\n      pop\n      jump\t// out\n        /* \"#utility.yul\":898:1024   */\n    tag_149:\n        /* \"#utility.yul\":948:957   */\n      0x00\n        /* \"#utility.yul\":981:1018   */\n      tag_190\n        /* \"#utility.yul\":1012:1017   */\n      dup3\n        /* \"#utility.yul\":981:1018   */\n      tag_148\n      jump\t// in\n    tag_190:\n        /* \"#utility.yul\":968:1018   */\n      swap1\n      pop\n        /* \"#utility.yul\":898:1024   */\n      swap2\n      swap1\n      pop\n      jump\t// out\n        /* \"#utility.yul\":1030:1169   */\n    tag_150:\n        /* \"#utility.yul\":1093:1102   */\n      0x00\n        /* \"#utility.yul\":1126:1163   */\n      tag_192\n        /* \"#utility.yul\":1157:1162   */\n      dup3\n        /* \"#utility.yul\":1126:1163   */\n      tag_149\n      jump\t// in\n    tag_192:\n        /* \"#utility.yul\":1113:1163   */\n      swap1\n      pop\n        /* \"#utility.yul\":1030:1169   */\n      swap2\n      swap1\n      pop\n      jump\t// out\n        /* \"#utility.yul\":1175:1332   */\n    tag_151:\n        /* \"#utility.yul\":1275:1325   */\n      tag_194\n        /* \"#utility.yul\":1319:1324   */\n      dup2\n        /* \"#utility.yul\":1275:1325   */\n      tag_150\n      jump\t// in\n    tag_194:\n        /* \"#utility.yul\":1270:1273   */\n      dup3\n        /* \"#utility.yul\":1263:1326   */\n      mstore\n        /* \"#utility.yul\":1175:1332   */\n      pop\n      pop\n      jump\t// out\n        /* \"#utility.yul\":1338:1586   */\n    tag_23:\n        /* \"#utility.yul\":1444:1448   */\n      0x00\n        /* \"#utility.yul\":1482:1484   */\n      0x20\n        /* \"#utility.yul\":1471:1480   */\n      dup3\n        /* \"#utility.yul\":1467:1485   */\n      add\n        /* \"#utility.yul\":1459:1485   */\n      swap1\n      pop\n        /* \"#utility.yul\":1495:1579   */\n      tag_196\n        /* \"#utility.yul\":1576:1577   */\n      0x00\n        /* \"#utility.yul\":1565:1574   */\n      dup4\n        /* \"#utility.yul\":1561:1578   */\n      add\n        /* \"#utility.yul\":1552:1558   */\n      dup5\n        /* \"#utility.yul\":1495:1579   */\n      tag_151\n      jump\t// in\n    tag_196:\n        /* \"#utility.yul\":1338:1586   */\n      swap3\n      swap2\n      pop\n      pop\n      jump\t// out\n        /* \"#utility.yul\":1592:1678   */\n    tag_152:\n        /* \"#utility.yul\":1627:1634   */\n      0x00\n        /* \"#utility.yul\":1667:1671   */\n      0xff\n        /* \"#utility.yul\":1660:1665   */\n      dup3\n        /* \"#utility.yul\":1656:1672   */\n      and\n        /* \"#utility.yul\":1645:1672   */\n      swap1\n      pop\n        /* \"#utility.yul\":1592:1678   */\n      swap2\n      swap1\n      pop\n      jump\t// out\n        /* \"#utility.yul\":1684:1796   */\n    tag_153:\n        /* \"#utility.yul\":1767:1789   */\n      tag_199\n        /* \"#utility.yul\":1783:1788   */\n      dup2\n        /* \"#utility.yul\":1767:1789   */\n      tag_152\n      jump\t// in\n    tag_199:\n        /* \"#utility.yul\":1762:1765   */\n      dup3\n        /* \"#utility.yul\":1755:1790   */\n      mstore\n        /* \"#utility.yul\":1684:1796   */\n      pop\n      pop\n      jump\t// out\n        /* \"#utility.yul\":1802:2016   */\n    tag_27:\n        /* \"#utility.yul\":1891:1895   */\n      0x00\n        /* \"#utility.yul\":1929:1931   */\n      0x20\n        /* \"#utility.yul\":1918:1927   */\n      dup3\n        /* \"#utility.yul\":1914:1932   */\n      add\n        /* \"#utility.yul\":1906:1932   */\n      swap1\n      pop\n        /* \"#utility.yul\":1942:2009   */\n      tag_201\n        /* \"#utility.yul\":2006:2007   */\n      0x00\n        /* \"#utility.yul\":1995:2004   */\n      dup4\n        /* \"#utility.yul\":1991:2008   */\n      add\n        /* \"#utility.yul\":1982:1988   */\n      dup5\n        /* \"#utility.yul\":1942:2009   */\n      tag_153\n      jump\t// in\n    tag_201:\n        /* \"#utility.yul\":1802:2016   */\n      swap3\n      swap2\n      pop\n      pop\n      jump\t// out\n        /* \"#utility.yul\":2022:2244   */\n    tag_31:\n        /* \"#utility.yul\":2115:2119   */\n      0x00\n        /* \"#utility.yul\":2153:2155   */\n      0x20\n        /* \"#utility.yul\":2142:2151   */\n      dup3\n        /* \"#utility.yul\":2138:2156   */\n      add\n        /* \"#utility.yul\":2130:2156   */\n      swap1\n      pop\n        /* \"#utility.yul\":2166:2237   */\n      tag_203\n        /* \"#utility.yul\":2234:2235   */\n      0x00\n        /* \"#utility.yul\":2223:2232   */\n      dup4\n        /* \"#utility.yul\":2219:2236   */\n      add\n        /* \"#utility.yul\":2210:2216   */\n      dup5\n        /* \"#utility.yul\":2166:2237   */\n      tag_145\n      jump\t// in\n    tag_203:\n        /* \"#utility.yul\":2022:2244   */\n      swap3\n      swap2\n      pop\n      pop\n      jump\t// out\n        /* \"#utility.yul\":2250:2346   */\n    tag_154:\n        /* \"#utility.yul\":2287:2294   */\n      0x00\n        /* \"#utility.yul\":2316:2340   */\n      tag_205\n        /* \"#utility.yul\":2334:2339   */\n      dup3\n        /* \"#utility.yul\":2316:2340   */\n      tag_146\n      jump\t// in\n    tag_205:\n        /* \"#utility.yul\":2305:2340   */\n      swap1\n      pop\n        /* \"#utility.yul\":2250:2346   */\n      swap2\n      swap1\n      pop\n      jump\t// out\n        /* \"#utility.yul\":2352:2470   */\n    tag_155:\n        /* \"#utility.yul\":2439:2463   */\n      tag_207\n        /* \"#utility.yul\":2457:2462   */\n      dup2\n        /* \"#utility.yul\":2439:2463   */\n      tag_154\n      jump\t// in\n    tag_207:\n        /* \"#utility.yul\":2434:2437   */\n      dup3\n        /* \"#utility.yul\":2427:2464   */\n      mstore\n        /* \"#utility.yul\":2352:2470   */\n      pop\n      pop\n      jump\t// out\n        /* \"#utility.yul\":2476:2698   */\n    tag_35:\n        /* \"#utility.yul\":2569:2573   */\n      0x00\n        /* \"#utility.yul\":2607:2609   */\n      0x20\n        /* \"#utility.yul\":2596:2605   */\n      dup3\n        /* \"#utility.yul\":2592:2610   */\n      add\n        /* \"#utility.yul\":2584:2610   */\n      swap1\n      pop\n        /* \"#utility.yul\":2620:2691   */\n      tag_209\n        /* \"#utility.yul\":2688:2689   */\n      0x00\n        /* \"#utility.yul\":2677:2686   */\n      dup4\n        /* \"#utility.yul\":2673:2690   */\n      add\n        /* \"#utility.yul\":2664:2670   */\n      dup5\n        /* \"#utility.yul\":2620:2691   */\n      tag_155\n      jump\t// in\n    tag_209:\n        /* \"#utility.yul\":2476:2698   */\n      swap3\n      swap2\n      pop\n      pop\n      jump\t// out\n        /* \"#utility.yul\":2785:2902   */\n    tag_157:\n        /* \"#utility.yul\":2894:2895   */\n      0x00\n        /* \"#utility.yul\":2891:2892   */\n      dup1\n        /* \"#utility.yul\":2884:2896   */\n      revert\n        /* \"#utility.yul\":3031:3153   */\n    tag_159:\n        /* \"#utility.yul\":3104:3128   */\n      tag_214\n        /* \"#utility.yul\":3122:3127   */\n      dup2\n        /* \"#utility.yul\":3104:3128   */\n      tag_144\n      jump\t// in\n    tag_214:\n        /* \"#utility.yul\":3097:3102   */\n      dup2\n        /* \"#utility.yul\":3094:3129   */\n      eq\n        /* \"#utility.yul\":3084:3147   */\n      tag_215\n      jumpi\n        /* \"#utility.yul\":3143:3144   */\n      0x00\n        /* \"#utility.yul\":3140:3141   */\n      dup1\n        /* \"#utility.yul\":3133:3145   */\n      revert\n        /* \"#utility.yul\":3084:3147   */\n    tag_215:\n        /* \"#utility.yul\":3031:3153   */\n      pop\n      jump\t// out\n        /* \"#utility.yul\":3159:3298   */\n    tag_160:\n        /* \"#utility.yul\":3205:3210   */\n      0x00\n        /* \"#utility.yul\":3243:3249   */\n      dup2\n        /* \"#utility.yul\":3230:3250   */\n      calldataload\n        /* \"#utility.yul\":3221:3250   */\n      swap1\n      pop\n        /* \"#utility.yul\":3259:3292   */\n      tag_217\n        /* \"#utility.yul\":3286:3291   */\n      dup2\n        /* \"#utility.yul\":3259:3292   */\n      tag_159\n      jump\t// in\n    tag_217:\n        /* \"#utility.yul\":3159:3298   */\n      swap3\n      swap2\n      pop\n      pop\n      jump\t// out\n        /* \"#utility.yul\":3304:3778   */\n    tag_41:\n        /* \"#utility.yul\":3372:3378   */\n      0x00\n        /* \"#utility.yul\":3380:3386   */\n      dup1\n        /* \"#utility.yul\":3429:3431   */\n      0x40\n        /* \"#utility.yul\":3417:3426   */\n      dup4\n        /* \"#utility.yul\":3408:3415   */\n      dup6\n        /* \"#utility.yul\":3404:3427   */\n      sub\n        /* \"#utility.yul\":3400:3432   */\n      slt\n        /* \"#utility.yul\":3397:3516   */\n      iszero\n      tag_219\n      jumpi\n        /* \"#utility.yul\":3435:3514   */\n      tag_220\n      tag_157\n      jump\t// in\n    tag_220:\n        /* \"#utility.yul\":3397:3516   */\n    tag_219:\n        /* \"#utility.yul\":3555:3556   */\n      0x00\n        /* \"#utility.yul\":3580:3633   */\n      tag_221\n        /* \"#utility.yul\":3625:3632   */\n      dup6\n        /* \"#utility.yul\":3616:3622   */\n      dup3\n        /* \"#utility.yul\":3605:3614   */\n      dup7\n        /* \"#utility.yul\":3601:3623   */\n      add\n        /* \"#utility.yul\":3580:3633   */\n      tag_160\n      jump\t// in\n    tag_221:\n        /* \"#utility.yul\":3570:3633   */\n      swap3\n      pop\n        /* \"#utility.yul\":3526:3643   */\n      pop\n        /* \"#utility.yul\":3682:3684   */\n      0x20\n        /* \"#utility.yul\":3708:3761   */\n      tag_222\n        /* \"#utility.yul\":3753:3760   */\n      dup6\n        /* \"#utility.yul\":3744:3750   */\n      dup3\n        /* \"#utility.yul\":3733:3742   */\n      dup7\n        /* \"#utility.yul\":3729:3751   */\n      add\n        /* \"#utility.yul\":3708:3761   */\n      tag_160\n      jump\t// in\n    tag_222:\n        /* \"#utility.yul\":3698:3761   */\n      swap2\n      pop\n        /* \"#utility.yul\":3653:3771   */\n      pop\n        /* \"#utility.yul\":3304:3778   */\n      swap3\n      pop\n      swap3\n      swap1\n      pop\n      jump\t// out\n        /* \"#utility.yul\":3784:4113   */\n    tag_54:\n        /* \"#utility.yul\":3843:3849   */\n      0x00\n        /* \"#utility.yul\":3892:3894   */\n      0x20\n        /* \"#utility.yul\":3880:3889   */\n      dup3\n        /* \"#utility.yul\":3871:3878   */\n      dup5\n        /* \"#utility.yul\":3867:3890   */\n      sub\n        /* \"#utility.yul\":3863:3895   */\n      slt\n        /* \"#utility.yul\":3860:3979   */\n      iszero\n      tag_224\n      jumpi\n        /* \"#utility.yul\":3898:3977   */\n      tag_225\n      tag_157\n      jump\t// in\n    tag_225:\n        /* \"#utility.yul\":3860:3979   */\n    tag_224:\n        /* \"#utility.yul\":4018:4019   */\n      0x00\n        /* \"#utility.yul\":4043:4096   */\n      tag_226\n        /* \"#utility.yul\":4088:4095   */\n      dup5\n        /* \"#utility.yul\":4079:4085   */\n      dup3\n        /* \"#utility.yul\":4068:4077   */\n      dup6\n        /* \"#utility.yul\":4064:4086   */\n      add\n        /* \"#utility.yul\":4043:4096   */\n      tag_160\n      jump\t// in\n    tag_226:\n        /* \"#utility.yul\":4033:4096   */\n      swap2\n      pop\n        /* \"#utility.yul\":3989:4106   */\n      pop\n        /* \"#utility.yul\":3784:4113   */\n      swap3\n      swap2\n      pop\n      pop\n      jump\t// out\n        /* \"#utility.yul\":4119:4299   */\n    tag_161:\n        /* \"#utility.yul\":4167:4244   */\n      0x4e487b7100000000000000000000000000000000000000000000000000000000\n        /* \"#utility.yul\":4164:4165   */\n      0x00\n        /* \"#utility.yul\":4157:4245   */\n      mstore\n        /* \"#utility.yul\":4264:4268   */\n      0x11\n        /* \"#utility.yul\":4261:4262   */\n      0x04\n        /* \"#utility.yul\":4254:4269   */\n      mstore\n        /* \"#utility.yul\":4288:4292   */\n      0x24\n        /* \"#utility.yul\":4285:4286   */\n      0x00\n        /* \"#utility.yul\":4278:4293   */\n      revert\n        /* \"#utility.yul\":4305:4407   */\n    tag_162:\n        /* \"#utility.yul\":4347:4355   */\n      0x00\n        /* \"#utility.yul\":4394:4399   */\n      dup2\n        /* \"#utility.yul\":4391:4392   */\n      0x01\n        /* \"#utility.yul\":4387:4400   */\n      shr\n        /* \"#utility.yul\":4366:4400   */\n      swap1\n      pop\n        /* \"#utility.yul\":4305:4407   */\n      swap2\n      swap1\n      pop\n      jump\t// out\n        /* \"#utility.yul\":4413:5261   */\n    tag_163:\n        /* \"#utility.yul\":4474:4479   */\n      0x00\n        /* \"#utility.yul\":4481:4485   */\n      dup1\n        /* \"#utility.yul\":4505:4511   */\n      dup3\n        /* \"#utility.yul\":4496:4511   */\n      swap2\n      pop\n        /* \"#utility.yul\":4529:4534   */\n      dup4\n        /* \"#utility.yul\":4520:4534   */\n      swap1\n      pop\n        /* \"#utility.yul\":4543:5255   */\n    tag_230:\n        /* \"#utility.yul\":4564:4565   */\n      0x01\n        /* \"#utility.yul\":4554:4562   */\n      dup6\n        /* \"#utility.yul\":4551:4566   */\n      gt\n        /* \"#utility.yul\":4543:5255   */\n      iszero\n      tag_232\n      jumpi\n        /* \"#utility.yul\":4659:4663   */\n      dup1\n        /* \"#utility.yul\":4654:4657   */\n      dup7\n        /* \"#utility.yul\":4650:4664   */\n      div\n        /* \"#utility.yul\":4644:4648   */\n      dup2\n        /* \"#utility.yul\":4641:4665   */\n      gt\n        /* \"#utility.yul\":4638:4688   */\n      iszero\n      tag_233\n      jumpi\n        /* \"#utility.yul\":4668:4686   */\n      tag_234\n      tag_161\n      jump\t// in\n    tag_234:\n        /* \"#utility.yul\":4638:4688   */\n    tag_233:\n        /* \"#utility.yul\":4718:4719   */\n      0x01\n        /* \"#utility.yul\":4708:4716   */\n      dup6\n        /* \"#utility.yul\":4704:4720   */\n      and\n        /* \"#utility.yul\":4701:5152   */\n      iszero\n      tag_235\n      jumpi\n        /* \"#utility.yul\":5133:5137   */\n      dup1\n        /* \"#utility.yul\":5126:5131   */\n      dup3\n        /* \"#utility.yul\":5122:5138   */\n      mul\n        /* \"#utility.yul\":5113:5138   */\n      swap2\n      pop\n        /* \"#utility.yul\":4701:5152   */\n    tag_235:\n        /* \"#utility.yul\":5183:5187   */\n      dup1\n        /* \"#utility.yul\":5177:5181   */\n      dup2\n        /* \"#utility.yul\":5173:5188   */\n      mul\n        /* \"#utility.yul\":5165:5188   */\n      swap1\n      pop\n        /* \"#utility.yul\":5213:5245   */\n      tag_236\n        /* \"#utility.yul\":5236:5244   */\n      dup6\n        /* \"#utility.yul\":5213:5245   */\n      tag_162\n      jump\t// in\n    tag_236:\n        /* \"#utility.yul\":5201:5245   */\n      swap5\n      pop\n        /* \"#utility.yul\":4543:5255   */\n      jump(tag_230)\n    tag_232:\n        /* \"#utility.yul\":4413:5261   */\n      swap5\n      pop\n      swap5\n      swap3\n      pop\n      pop\n      pop\n      jump\t// out\n        /* \"#utility.yul\":5267:6340   */\n    tag_164:\n        /* \"#utility.yul\":5321:5326   */\n      0x00\n        /* \"#utility.yul\":5512:5520   */\n      dup3\n        /* \"#utility.yul\":5502:5542   */\n      tag_238\n      jumpi\n        /* \"#utility.yul\":5533:5534   */\n      0x01\n        /* \"#utility.yul\":5524:5534   */\n      swap1\n      pop\n        /* \"#utility.yul\":5535:5540   */\n      jump(tag_237)\n        /* \"#utility.yul\":5502:5542   */\n    tag_238:\n        /* \"#utility.yul\":5561:5565   */\n      dup2\n        /* \"#utility.yul\":5551:5587   */\n      tag_239\n      jumpi\n        /* \"#utility.yul\":5578:5579   */\n      0x00\n        /* \"#utility.yul\":5569:5579   */\n      swap1\n      pop\n        /* \"#utility.yul\":5580:5585   */\n      jump(tag_237)\n        /* \"#utility.yul\":5551:5587   */\n    tag_239:\n        /* \"#utility.yul\":5647:5651   */\n      dup2\n        /* \"#utility.yul\":5695:5696   */\n      0x01\n        /* \"#utility.yul\":5690:5717   */\n      dup2\n      eq\n      tag_241\n      jumpi\n        /* \"#utility.yul\":5731:5732   */\n      0x02\n        /* \"#utility.yul\":5726:5917   */\n      dup2\n      eq\n      tag_242\n      jumpi\n        /* \"#utility.yul\":5640:5917   */\n      jump(tag_240)\n        /* \"#utility.yul\":5690:5717   */\n    tag_241:\n        /* \"#utility.yul\":5708:5709   */\n      0x01\n        /* \"#utility.yul\":5699:5709   */\n      swap2\n      pop\n        /* \"#utility.yul\":5710:5715   */\n      pop\n      jump(tag_237)\n        /* \"#utility.yul\":5726:5917   */\n    tag_242:\n        /* \"#utility.yul\":5771:5774   */\n      0xff\n        /* \"#utility.yul\":5761:5769   */\n      dup5\n        /* \"#utility.yul\":5758:5775   */\n      gt\n        /* \"#utility.yul\":5755:5798   */\n      iszero\n      tag_243\n      jumpi\n        /* \"#utility.yul\":5778:5796   */\n      tag_244\n      tag_161\n      jump\t// in\n    tag_244:\n        /* \"#utility.yul\":5755:5798   */\n    tag_243:\n        /* \"#utility.yul\":5827:5835   */\n      dup4\n        /* \"#utility.yul\":5824:5825   */\n      0x02\n        /* \"#utility.yul\":5820:5836   */\n      exp\n        /* \"#utility.yul\":5811:5836   */\n      swap2\n      pop\n        /* \"#utility.yul\":5862:5865   */\n      dup5\n        /* \"#utility.yul\":5855:5860   */\n      dup3\n        /* \"#utility.yul\":5852:5866   */\n      gt\n        /* \"#utility.yul\":5849:5889   */\n      iszero\n      tag_245\n      jumpi\n        /* \"#utility.yul\":5869:5887   */\n      tag_246\n      tag_161\n      jump\t// in\n    tag_246:\n        /* \"#utility.yul\":5849:5889   */\n    tag_245:\n        /* \"#utility.yul\":5902:5907   */\n      pop\n      jump(tag_237)\n        /* \"#utility.yul\":5640:5917   */\n    tag_240:\n      pop\n        /* \"#utility.yul\":6026:6028   */\n      0x20\n        /* \"#utility.yul\":6016:6024   */\n      dup4\n        /* \"#utility.yul\":6013:6029   */\n      lt\n        /* \"#utility.yul\":6007:6010   */\n      0x0133\n        /* \"#utility.yul\":6001:6005   */\n      dup4\n        /* \"#utility.yul\":5998:6011   */\n      lt\n        /* \"#utility.yul\":5994:6030   */\n      and\n        /* \"#utility.yul\":5976:5978   */\n      0x4e\n        /* \"#utility.yul\":5966:5974   */\n      dup5\n        /* \"#utility.yul\":5963:5979   */\n      lt\n        /* \"#utility.yul\":5958:5960   */\n      0x0b\n        /* \"#utility.yul\":5952:5956   */\n      dup5\n        /* \"#utility.yul\":5949:5961   */\n      lt\n        /* \"#utility.yul\":5945:5980   */\n      and\n        /* \"#utility.yul\":5929:6040   */\n      or\n        /* \"#utility.yul\":5926:6172   */\n      iszero\n      tag_247\n      jumpi\n        /* \"#utility.yul\":6082:6090   */\n      dup3\n        /* \"#utility.yul\":6076:6080   */\n      dup3\n        /* \"#utility.yul\":6072:6091   */\n      exp\n        /* \"#utility.yul\":6063:6091   */\n      swap1\n      pop\n        /* \"#utility.yul\":6117:6120   */\n      dup4\n        /* \"#utility.yul\":6110:6115   */\n      dup2\n        /* \"#utility.yul\":6107:6121   */\n      gt\n        /* \"#utility.yul\":6104:6144   */\n      iszero\n      tag_248\n      jumpi\n        /* \"#utility.yul\":6124:6142   */\n      tag_249\n      tag_161\n      jump\t// in\n    tag_249:\n        /* \"#utility.yul\":6104:6144   */\n    tag_248:\n        /* \"#utility.yul\":6157:6162   */\n      jump(tag_237)\n        /* \"#utility.yul\":5926:6172   */\n    tag_247:\n        /* \"#utility.yul\":6197:6239   */\n      tag_250\n        /* \"#utility.yul\":6235:6238   */\n      dup5\n        /* \"#utility.yul\":6225:6233   */\n      dup5\n        /* \"#utility.yul\":6219:6223   */\n      dup5\n        /* \"#utility.yul\":6216:6217   */\n      0x01\n        /* \"#utility.yul\":6197:6239   */\n      tag_163\n      jump\t// in\n    tag_250:\n        /* \"#utility.yul\":6182:6239   */\n      swap3\n      pop\n      swap1\n      pop\n        /* \"#utility.yul\":6271:6275   */\n      dup2\n        /* \"#utility.yul\":6266:6269   */\n      dup5\n        /* \"#utility.yul\":6262:6276   */\n      div\n        /* \"#utility.yul\":6255:6260   */\n      dup2\n        /* \"#utility.yul\":6252:6277   */\n      gt\n        /* \"#utility.yul\":6249:6300   */\n      iszero\n      tag_251\n      jumpi\n        /* \"#utility.yul\":6280:6298   */\n      tag_252\n      tag_161\n      jump\t// in\n    tag_252:\n        /* \"#utility.yul\":6249:6300   */\n    tag_251:\n        /* \"#utility.yul\":6329:6333   */\n      dup2\n        /* \"#utility.yul\":6322:6327   */\n      dup2\n        /* \"#utility.yul\":6318:6334   */\n      mul\n        /* \"#utility.yul\":6309:6334   */\n      swap1\n      pop\n        /* \"#utility.yul\":5267:6340   */\n    tag_237:\n      swap4\n      swap3\n      pop\n      pop\n      pop\n      jump\t// out\n        /* \"#utility.yul\":6346:6627   */\n    tag_61:\n        /* \"#utility.yul\":6404:6409   */\n      0x00\n        /* \"#utility.yul\":6428:6451   */\n      tag_254\n        /* \"#utility.yul\":6446:6450   */\n      dup3\n        /* \"#utility.yul\":6428:6451   */\n      tag_144\n      jump\t// in\n    tag_254:\n        /* \"#utility.yul\":6420:6451   */\n      swap2\n      pop\n        /* \"#utility.yul\":6472:6497   */\n      tag_255\n        /* \"#utility.yul\":6488:6496   */\n      dup4\n        /* \"#utility.yul\":6472:6497   */\n      tag_152\n      jump\t// in\n    tag_255:\n        /* \"#utility.yul\":6460:6497   */\n      swap3\n      pop\n        /* \"#utility.yul\":6516:6620   */\n      tag_256\n        /* \"#utility.yul\":6553:6619   */\n      0xffffffffffffffffffffffffffffffffffffffffffffffffffffffffffffffff\n        /* \"#utility.yul\":6543:6551   */\n      dup5\n        /* \"#utility.yul\":6537:6541   */\n      dup5\n        /* \"#utility.yul\":6516:6620   */\n      tag_164\n      jump\t// in\n    tag_256:\n        /* \"#utility.yul\":6507:6620   */\n      swap1\n      pop\n        /* \"#utility.yul\":6346:6627   */\n      swap3\n      swap2\n      pop\n      pop\n      jump\t// out\n        /* \"#utility.yul\":6633:6813   */\n    tag_165:\n        /* \"#utility.yul\":6681:6758   */\n      0x4e487b7100000000000000000000000000000000000000000000000000000000\n        /* \"#utility.yul\":6678:6679   */\n      0x00\n        /* \"#utility.yul\":6671:6759   */\n      mstore\n        /* \"#utility.yul\":6778:6782   */\n      0x12\n        /* \"#utility.yul\":6775:6776   */\n      0x04\n        /* \"#utility.yul\":6768:6783   */\n      mstore\n        /* \"#utility.yul\":6802:6806   */\n      0x24\n        /* \"#utility.yul\":6799:6800   */\n      0x00\n        /* \"#utility.yul\":6792:6807   */\n      revert\n        /* \"#utility.yul\":6819:7004   */\n    tag_63:\n        /* \"#utility.yul\":6859:6860   */\n      0x00\n        /* \"#utility.yul\":6876:6896   */\n      tag_259\n        /* \"#utility.yul\":6894:6895   */\n      dup3\n        /* \"#utility.yul\":6876:6896   */\n      tag_144\n      jump\t// in\n    tag_259:\n        /* \"#utility.yul\":6871:6896   */\n      swap2\n      pop\n        /* \"#utility.yul\":6910:6930   */\n      tag_260\n        /* \"#utility.yul\":6928:6929   */\n      dup4\n        /* \"#utility.yul\":6910:6930   */\n      tag_144\n      jump\t// in\n    tag_260:\n        /* \"#utility.yul\":6905:6930   */\n      swap3\n      pop\n        /* \"#utility.yul\":6949:6950   */\n      dup3\n        /* \"#utility.yul\":6939:6974   */\n      tag_261\n      jumpi\n        /* \"#utility.yul\":6954:6972   */\n      tag_262\n      tag_165\n      jump\t// in\n    tag_262:\n        /* \"#utility.yul\":6939:6974   */\n    tag_261:\n        /* \"#utility.yul\":6996:6997   */\n      dup3\n        /* \"#utility.yul\":6993:6994   */\n      dup3\n        /* \"#utility.yul\":6989:6998   */\n      div\n        /* \"#utility.yul\":6984:6998   */\n      swap1\n      pop\n        /* \"#utility.yul\":6819:7004   */\n      swap3\n      swap2\n      pop\n      pop\n      jump\t// out\n        /* \"#utility.yul\":7010:7179   */\n    tag_166:\n        /* \"#utility.yul\":7094:7105   */\n      0x00\n        /* \"#utility.yul\":7128:7134   */\n      dup3\n        /* \"#utility.yul\":7123:7126   */\n      dup3\n        /* \"#utility.yul\":7116:7135   */\n      mstore\n        /* \"#utility.yul\":7168:7172   */\n      0x20\n        /* \"#utility.yul\":7163:7166   */\n      dup3\n        /* \"#utility.yul\":7159:7173   */\n      add\n        /* \"#utility.yul\":7144:7173   */\n      swap1\n      pop\n        /* \"#utility.yul\":7010:7179   */\n      swap3\n      swap2\n      pop\n      pop\n      jump\t// out\n        /* \"#utility.yul\":7185:7350   */\n    tag_167:\n        /* \"#utility.yul\":7325:7342   */\n      0x496e76616c696420616d6f756e74730000000000000000000000000000000000\n        /* \"#utility.yul\":7321:7322   */\n      0x00\n        /* \"#utility.yul\":7313:7319   */\n      dup3\n        /* \"#utility.yul\":7309:7323   */\n      add\n        /* \"#utility.yul\":7302:7343   */\n      mstore\n        /* \"#utility.yul\":7185:7350   */\n      pop\n      jump\t// out\n        /* \"#utility.yul\":7356:7722   */\n    tag_168:\n        /* \"#utility.yul\":7498:7501   */\n      0x00\n        /* \"#utility.yul\":7519:7586   */\n      tag_266\n        /* \"#utility.yul\":7583:7585   */\n      0x0f\n        /* \"#utility.yul\":7578:7581   */\n      dup4\n        /* \"#utility.yul\":7519:7586   */\n      tag_166\n      jump\t// in\n    tag_266:\n        /* \"#utility.yul\":7512:7586   */\n      swap2\n      pop\n        /* \"#utility.yul\":7595:7688   */\n      tag_267\n        /* \"#utility.yul\":7684:7687   */\n      dup3\n        /* \"#utility.yul\":7595:7688   */\n      tag_167\n      jump\t// in\n    tag_267:\n        /* \"#utility.yul\":7713:7715   */\n      0x20\n        /* \"#utility.yul\":7708:7711   */\n      dup3\n        /* \"#utility.yul\":7704:7716   */\n      add\n        /* \"#utility.yul\":7697:7716   */\n      swap1\n      pop\n        /* \"#utility.yul\":7356:7722   */\n      swap2\n      swap1\n      pop\n      jump\t// out\n        /* \"#utility.yul\":7728:8147   */\n    tag_70:\n        /* \"#utility.yul\":7894:7898   */\n      0x00\n        /* \"#utility.yul\":7932:7934   */\n      0x20\n        /* \"#utility.yul\":7921:7930   */\n      dup3\n        /* \"#utility.yul\":7917:7935   */\n      add\n        /* \"#utility.yul\":7909:7935   */\n      swap1\n      pop\n        /* \"#utility.yul\":7981:7990   */\n      dup2\n        /* \"#utility.yul\":7975:7979   */\n      dup2\n        /* \"#utility.yul\":7971:7991   */\n      sub\n        /* \"#utility.yul\":7967:7968   */\n      0x00\n        /* \"#utility.yul\":7956:7965   */\n      dup4\n        /* \"#utility.yul\":7952:7969   */\n      add\n        /* \"#utility.yul\":7945:7992   */\n      mstore\n        /* \"#utility.yul\":8009:8140   */\n      tag_269\n        /* \"#utility.yul\":8135:8139   */\n      dup2\n        /* \"#utility.yul\":8009:8140   */\n      tag_168\n      jump\t// in\n    tag_269:\n        /* \"#utility.yul\":8001:8140   */\n      swap1\n      pop\n        /* \"#utility.yul\":7728:8147   */\n      swap2\n      swap1\n      pop\n      jump\t// out\n        /* \"#utility.yul\":8153:8595   */\n    tag_72:\n        /* \"#utility.yul\":8302:8306   */\n      0x00\n        /* \"#utility.yul\":8340:8342   */\n      0x60\n        /* \"#utility.yul\":8329:8338   */\n      dup3\n        /* \"#utility.yul\":8325:8343   */\n      add\n        /* \"#utility.yul\":8317:8343   */\n      swap1\n      pop\n        /* \"#utility.yul\":8353:8424   */\n      tag_271\n        /* \"#utility.yul\":8421:8422   */\n      0x00\n        /* \"#utility.yul\":8410:8419   */\n      dup4\n        /* \"#utility.yul\":8406:8423   */\n      add\n        /* \"#utility.yul\":8397:8403   */\n      dup7\n        /* \"#utility.yul\":8353:8424   */\n      tag_155\n      jump\t// in\n    tag_271:\n        /* \"#utility.yul\":8434:8506   */\n      tag_272\n        /* \"#utility.yul\":8502:8504   */\n      0x20\n        /* \"#utility.yul\":8491:8500   */\n      dup4\n        /* \"#utility.yul\":8487:8505   */\n      add\n        /* \"#utility.yul\":8478:8484   */\n      dup6\n        /* \"#utility.yul\":8434:8506   */\n      tag_155\n      jump\t// in\n    tag_272:\n        /* \"#utility.yul\":8516:8588   */\n      tag_273\n        /* \"#utility.yul\":8584:8586   */\n      0x40\n        /* \"#utility.yul\":8573:8582   */\n      dup4\n        /* \"#utility.yul\":8569:8587   */\n      add\n        /* \"#utility.yul\":8560:8566   */\n      dup5\n        /* \"#utility.yul\":8516:8588   */\n      tag_145\n      jump\t// in\n    tag_273:\n        /* \"#utility.yul\":8153:8595   */\n      swap5\n      swap4\n      pop\n      pop\n      pop\n      pop\n      jump\t// out\n        /* \"#utility.yul\":8601:8691   */\n    tag_169:\n        /* \"#utility.yul\":8635:8642   */\n      0x00\n        /* \"#utility.yul\":8678:8683   */\n      dup2\n        /* \"#utility.yul\":8671:8684   */\n      iszero\n        /* \"#utility.yul\":8664:8685   */\n      iszero\n        /* \"#utility.yul\":8653:8685   */\n      swap1\n      pop\n        /* \"#utility.yul\":8601:8691   */\n      swap2\n      swap1\n      pop\n      jump\t// out\n        /* \"#utility.yul\":8697:8813   */\n    tag_170:\n        /* \"#utility.yul\":8767:8788   */\n      tag_276\n        /* \"#utility.yul\":8782:8787   */\n      dup2\n        /* \"#utility.yul\":8767:8788   */\n      tag_169\n      jump\t// in\n    tag_276:\n        /* \"#utility.yul\":8760:8765   */\n      dup2\n        /* \"#utility.yul\":8757:8789   */\n      eq\n        /* \"#utility.yul\":8747:8807   */\n      tag_277\n      jumpi\n        /* \"#utility.yul\":8803:8804   */\n      0x00\n        /* \"#utility.yul\":8800:8801   */\n      dup1\n        /* \"#utility.yul\":8793:8805   */\n      revert\n        /* \"#utility.yul\":8747:8807   */\n    tag_277:\n        /* \"#utility.yul\":8697:8813   */\n      pop\n      jump\t// out\n        /* \"#utility.yul\":8819:8956   */\n    tag_171:\n        /* \"#utility.yul\":8873:8878   */\n      0x00\n        /* \"#utility.yul\":8904:8910   */\n      dup2\n        /* \"#utility.yul\":8898:8911   */\n      mload\n        /* \"#utility.yul\":8889:8911   */\n      swap1\n      pop\n        /* \"#utility.yul\":8920:8950   */\n      tag_279\n        /* \"#utility.yul\":8944:8949   */\n      dup2\n        /* \"#utility.yul\":8920:8950   */\n      tag_170\n      jump\t// in\n    tag_279:\n        /* \"#utility.yul\":8819:8956   */\n      swap3\n      swap2\n      pop\n      pop\n      jump\t// out\n        /* \"#utility.yul\":8962:9307   */\n    tag_76:\n        /* \"#utility.yul\":9029:9035   */\n      0x00\n        /* \"#utility.yul\":9078:9080   */\n      0x20\n        /* \"#utility.yul\":9066:9075   */\n      dup3\n        /* \"#utility.yul\":9057:9064   */\n      dup5\n        /* \"#utility.yul\":9053:9076   */\n      sub\n        /* \"#utility.yul\":9049:9081   */\n      slt\n        /* \"#utility.yul\":9046:9165   */\n      iszero\n      tag_281\n      jumpi\n        /* \"#utility.yul\":9084:9163   */\n      tag_282\n      tag_157\n      jump\t// in\n    tag_282:\n        /* \"#utility.yul\":9046:9165   */\n    tag_281:\n        /* \"#utility.yul\":9204:9205   */\n      0x00\n        /* \"#utility.yul\":9229:9290   */\n      tag_283\n        /* \"#utility.yul\":9282:9289   */\n      dup5\n        /* \"#utility.yul\":9273:9279   */\n      dup3\n        /* \"#utility.yul\":9262:9271   */\n      dup6\n        /* \"#utility.yul\":9258:9280   */\n      add\n        /* \"#utility.yul\":9229:9290   */\n      tag_171\n      jump\t// in\n    tag_283:\n        /* \"#utility.yul\":9219:9290   */\n      swap2\n      pop\n        /* \"#utility.yul\":9175:9300   */\n      pop\n        /* \"#utility.yul\":8962:9307   */\n      swap3\n      swap2\n      pop\n      pop\n      jump\t// out\n        /* \"#utility.yul\":9313:9723   */\n    tag_83:\n        /* \"#utility.yul\":9353:9360   */\n      0x00\n        /* \"#utility.yul\":9376:9396   */\n      tag_285\n        /* \"#utility.yul\":9394:9395   */\n      dup3\n        /* \"#utility.yul\":9376:9396   */\n      tag_144\n      jump\t// in\n    tag_285:\n        /* \"#utility.yul\":9371:9396   */\n      swap2\n      pop\n        /* \"#utility.yul\":9410:9430   */\n      tag_286\n        /* \"#utility.yul\":9428:9429   */\n      dup4\n        /* \"#utility.yul\":9410:9430   */\n      tag_144\n      jump\t// in\n    tag_286:\n        /* \"#utility.yul\":9405:9430   */\n      swap3\n      pop\n        /* \"#utility.yul\":9465:9466   */\n      dup3\n        /* \"#utility.yul\":9462:9463   */\n      dup3\n        /* \"#utility.yul\":9458:9467   */\n      mul\n        /* \"#utility.yul\":9487:9517   */\n      tag_287\n        /* \"#utility.yul\":9505:9516   */\n      dup2\n        /* \"#utility.yul\":9487:9517   */\n      tag_144\n      jump\t// in\n    tag_287:\n        /* \"#utility.yul\":9476:9517   */\n      swap2\n      pop\n        /* \"#utility.yul\":9666:9667   */\n      dup3\n        /* \"#utility.yul\":9657:9664   */\n      dup3\n        /* \"#utility.yul\":9653:9668   */\n      div\n        /* \"#utility.yul\":9650:9651   */\n      dup5\n        /* \"#utility.yul\":9647:9669   */\n      eq\n        /* \"#utility.yul\":9627:9628   */\n      dup4\n        /* \"#utility.yul\":9620:9629   */\n      iszero\n        /* \"#utility.yul\":9600:9683   */\n      or\n        /* \"#utility.yul\":9577:9716   */\n      tag_288\n      jumpi\n        /* \"#utility.yul\":9696:9714   */\n      tag_289\n      tag_161\n      jump\t// in\n    tag_289:\n        /* \"#utility.yul\":9577:9716   */\n    tag_288:\n        /* \"#utility.yul\":9361:9723   */\n      pop\n        /* \"#utility.yul\":9313:9723   */\n      swap3\n      swap2\n      pop\n      pop\n      jump\t// out\n        /* \"#utility.yul\":9729:9920   */\n    tag_85:\n        /* \"#utility.yul\":9769:9772   */\n      0x00\n        /* \"#utility.yul\":9788:9808   */\n      tag_291\n        /* \"#utility.yul\":9806:9807   */\n      dup3\n        /* \"#utility.yul\":9788:9808   */\n      tag_144\n      jump\t// in\n    tag_291:\n        /* \"#utility.yul\":9783:9808   */\n      swap2\n      pop\n        /* \"#utility.yul\":9822:9842   */\n      tag_292\n        /* \"#utility.yul\":9840:9841   */\n      dup4\n        /* \"#utility.yul\":9822:9842   */\n      tag_144\n      jump\t// in\n    tag_292:\n        /* \"#utility.yul\":9817:9842   */\n      swap3\n      pop\n        /* \"#utility.yul\":9865:9866   */\n      dup3\n        /* \"#utility.yul\":9862:9863   */\n      dup3\n        /* \"#utility.yul\":9858:9867   */\n      add\n        /* \"#utility.yul\":9851:9867   */\n      swap1\n      pop\n        /* \"#utility.yul\":9886:9889   */\n      dup1\n        /* \"#utility.yul\":9883:9884   */\n      dup3\n        /* \"#utility.yul\":9880:9890   */\n      gt\n        /* \"#utility.yul\":9877:9913   */\n      iszero\n      tag_293\n      jumpi\n        /* \"#utility.yul\":9893:9911   */\n      tag_294\n      tag_161\n      jump\t// in\n    tag_294:\n        /* \"#utility.yul\":9877:9913   */\n    tag_293:\n        /* \"#utility.yul\":9729:9920   */\n      swap3\n      swap2\n      pop\n      pop\n      jump\t// out\n        /* \"#utility.yul\":9926:10096   */\n    tag_172:\n        /* \"#utility.yul\":10066:10088   */\n      0x496e76616c696420746172676574207072696365000000000000000000000000\n        /* \"#utility.yul\":10062:10063   */\n      0x00\n        /* \"#utility.yul\":10054:10060   */\n      dup3\n        /* \"#utility.yul\":10050:10064   */\n      add\n        /* \"#utility.yul\":10043:10089   */\n      mstore\n        /* \"#utility.yul\":9926:10096   */\n      pop\n      jump\t// out\n        /* \"#utility.yul\":10102:10468   */\n    tag_173:\n        /* \"#utility.yul\":10244:10247   */\n      0x00\n        /* \"#utility.yul\":10265:10332   */\n      tag_297\n        /* \"#utility.yul\":10329:10331   */\n      0x14\n        /* \"#utility.yul\":10324:10327   */\n      dup4\n        /* \"#utility.yul\":10265:10332   */\n      tag_166\n      jump\t// in\n    tag_297:\n        /* \"#utility.yul\":10258:10332   */\n      swap2\n      pop\n        /* \"#utility.yul\":10341:10434   */\n      tag_298\n        /* \"#utility.yul\":10430:10433   */\n      dup3\n        /* \"#utility.yul\":10341:10434   */\n      tag_172\n      jump\t// in\n    tag_298:\n        /* \"#utility.yul\":10459:10461   */\n      0x20\n        /* \"#utility.yul\":10454:10457   */\n      dup3\n        /* \"#utility.yul\":10450:10462   */\n      add\n        /* \"#utility.yul\":10443:10462   */\n      swap1\n      pop\n        /* \"#utility.yul\":10102:10468   */\n      swap2\n      swap1\n      pop\n      jump\t// out\n        /* \"#utility.yul\":10474:10893   */\n    tag_93:\n        /* \"#utility.yul\":10640:10644   */\n      0x00\n        /* \"#utility.yul\":10678:10680   */\n      0x20\n        /* \"#utility.yul\":10667:10676   */\n      dup3\n        /* \"#utility.yul\":10663:10681   */\n      add\n        /* \"#utility.yul\":10655:10681   */\n      swap1\n      pop\n        /* \"#utility.yul\":10727:10736   */\n      dup2\n        /* \"#utility.yul\":10721:10725   */\n      dup2\n        /* \"#utility.yul\":10717:10737   */\n      sub\n        /* \"#utility.yul\":10713:10714   */\n      0x00\n        /* \"#utility.yul\":10702:10711   */\n      dup4\n        /* \"#utility.yul\":10698:10715   */\n      add\n        /* \"#utility.yul\":10691:10738   */\n      mstore\n        /* \"#utility.yul\":10755:10886   */\n      tag_300\n        /* \"#utility.yul\":10881:10885   */\n      dup2\n        /* \"#utility.yul\":10755:10886   */\n      tag_173\n      jump\t// in\n    tag_300:\n        /* \"#utility.yul\":10747:10886   */\n      swap1\n      pop\n        /* \"#utility.yul\":10474:10893   */\n      swap2\n      swap1\n      pop\n      jump\t// out\n        /* \"#utility.yul\":10899:11093   */\n    tag_109:\n        /* \"#utility.yul\":10939:10943   */\n      0x00\n        /* \"#utility.yul\":10959:10979   */\n      tag_302\n        /* \"#utility.yul\":10977:10978   */\n      dup3\n        /* \"#utility.yul\":10959:10979   */\n      tag_144\n      jump\t// in\n    tag_302:\n        /* \"#utility.yul\":10954:10979   */\n      swap2\n      pop\n        /* \"#utility.yul\":10993:11013   */\n      tag_303\n        /* \"#utility.yul\":11011:11012   */\n      dup4\n        /* \"#utility.yul\":10993:11013   */\n      tag_144\n      jump\t// in\n    tag_303:\n        /* \"#utility.yul\":10988:11013   */\n      swap3\n      pop\n        /* \"#utility.yul\":11037:11038   */\n      dup3\n        /* \"#utility.yul\":11034:11035   */\n      dup3\n        /* \"#utility.yul\":11030:11039   */\n      sub\n        /* \"#utility.yul\":11022:11039   */\n      swap1\n      pop\n        /* \"#utility.yul\":11061:11062   */\n      dup2\n        /* \"#utility.yul\":11055:11059   */\n      dup2\n        /* \"#utility.yul\":11052:11063   */\n      gt\n        /* \"#utility.yul\":11049:11086   */\n      iszero\n      tag_304\n      jumpi\n        /* \"#utility.yul\":11066:11084   */\n      tag_305\n      tag_161\n      jump\t// in\n    tag_305:\n        /* \"#utility.yul\":11049:11086   */\n    tag_304:\n        /* \"#utility.yul\":10899:11093   */\n      swap3\n      swap2\n      pop\n      pop\n      jump\t// out\n        /* \"#utility.yul\":11099:11322   */\n    tag_174:\n        /* \"#utility.yul\":11239:11273   */\n      0x4e6f7420656e6f756768206c697175696469747920666f72204150207472616e\n        /* \"#utility.yul\":11235:11236   */\n      0x00\n        /* \"#utility.yul\":11227:11233   */\n      dup3\n        /* \"#utility.yul\":11223:11237   */\n      add\n        /* \"#utility.yul\":11216:11274   */\n      mstore\n        /* \"#utility.yul\":11308:11314   */\n      0x7366657200000000000000000000000000000000000000000000000000000000\n        /* \"#utility.yul\":11303:11305   */\n      0x20\n        /* \"#utility.yul\":11295:11301   */\n      dup3\n        /* \"#utility.yul\":11291:11306   */\n      add\n        /* \"#utility.yul\":11284:11315   */\n      mstore\n        /* \"#utility.yul\":11099:11322   */\n      pop\n      jump\t// out\n        /* \"#utility.yul\":11328:11694   */\n    tag_175:\n        /* \"#utility.yul\":11470:11473   */\n      0x00\n        /* \"#utility.yul\":11491:11558   */\n      tag_308\n        /* \"#utility.yul\":11555:11557   */\n      0x24\n        /* \"#utility.yul\":11550:11553   */\n      dup4\n        /* \"#utility.yul\":11491:11558   */\n      tag_166\n      jump\t// in\n    tag_308:\n        /* \"#utility.yul\":11484:11558   */\n      swap2\n      pop\n        /* \"#utility.yul\":11567:11660   */\n      tag_309\n        /* \"#utility.yul\":11656:11659   */\n      dup3\n        /* \"#utility.yul\":11567:11660   */\n      tag_174\n      jump\t// in\n    tag_309:\n        /* \"#utility.yul\":11685:11687   */\n      0x40\n        /* \"#utility.yul\":11680:11683   */\n      dup3\n        /* \"#utility.yul\":11676:11688   */\n      add\n        /* \"#utility.yul\":11669:11688   */\n      swap1\n      pop\n        /* \"#utility.yul\":11328:11694   */\n      swap2\n      swap1\n      pop\n      jump\t// out\n        /* \"#utility.yul\":11700:12119   */\n    tag_124:\n        /* \"#utility.yul\":11866:11870   */\n      0x00\n        /* \"#utility.yul\":11904:11906   */\n      0x20\n        /* \"#utility.yul\":11893:11902   */\n      dup3\n        /* \"#utility.yul\":11889:11907   */\n      add\n        /* \"#utility.yul\":11881:11907   */\n      swap1\n      pop\n        /* \"#utility.yul\":11953:11962   */\n      dup2\n        /* \"#utility.yul\":11947:11951   */\n      dup2\n        /* \"#utility.yul\":11943:11963   */\n      sub\n        /* \"#utility.yul\":11939:11940   */\n      0x00\n        /* \"#utility.yul\":11928:11937   */\n      dup4\n        /* \"#utility.yul\":11924:11941   */\n      add\n        /* \"#utility.yul\":11917:11964   */\n      mstore\n        /* \"#utility.yul\":11981:12112   */\n      tag_311\n        /* \"#utility.yul\":12107:12111   */\n      dup2\n        /* \"#utility.yul\":11981:12112   */\n      tag_175\n      jump\t// in\n    tag_311:\n        /* \"#utility.yul\":11973:12112   */\n      swap1\n      pop\n        /* \"#utility.yul\":11700:12119   */\n      swap2\n      swap1\n      pop\n      jump\t// out\n        /* \"#utility.yul\":12125:12457   */\n    tag_128:\n        /* \"#utility.yul\":12246:12250   */\n      0x00\n        /* \"#utility.yul\":12284:12286   */\n      0x40\n        /* \"#utility.yul\":12273:12282   */\n      dup3\n        /* \"#utility.yul\":12269:12287   */\n      add\n        /* \"#utility.yul\":12261:12287   */\n      swap1\n      pop\n        /* \"#utility.yul\":12297:12368   */\n      tag_313\n        /* \"#utility.yul\":12365:12366   */\n      0x00\n        /* \"#utility.yul\":12354:12363   */\n      dup4\n        /* \"#utility.yul\":12350:12367   */\n      add\n        /* \"#utility.yul\":12341:12347   */\n      dup6\n        /* \"#utility.yul\":12297:12368   */\n      tag_155\n      jump\t// in\n    tag_313:\n        /* \"#utility.yul\":12378:12450   */\n      tag_314\n        /* \"#utility.yul\":12446:12448   */\n      0x20\n        /* \"#utility.yul\":12435:12444   */\n      dup4\n        /* \"#utility.yul\":12431:12449   */\n      add\n        /* \"#utility.yul\":12422:12428   */\n      dup5\n        /* \"#utility.yul\":12378:12450   */\n      tag_145\n      jump\t// in\n    tag_314:\n        /* \"#utility.yul\":12125:12457   */\n      swap4\n      swap3\n      pop\n      pop\n      pop\n      jump\t// out\n\n    auxdata: 0xa264697066735822122054923c3bee7ccad9793f3416943671028cb9a46f58d9d5758330ef1fedd3e28b64736f6c634300081a0033\n}\n",
				"bytecode": {
					"linkReferences": {},
					"object": "608060405234801561001057600080fd5b506040516111613803806111618339818101604052810190610032919061015f565b826000806101000a81548173ffffffffffffffffffffffffffffffffffffffff021916908373ffffffffffffffffffffffffffffffffffffffff16021790555081600160006101000a81548173ffffffffffffffffffffffffffffffffffffffff021916908373ffffffffffffffffffffffffffffffffffffffff16021790555080600260006101000a81548173ffffffffffffffffffffffffffffffffffffffff021916908373ffffffffffffffffffffffffffffffffffffffff1602179055505050506101b2565b600080fd5b600073ffffffffffffffffffffffffffffffffffffffff82169050919050565b600061012c82610101565b9050919050565b61013c81610121565b811461014757600080fd5b50565b60008151905061015981610133565b92915050565b600080600060608486031215610178576101776100fc565b5b60006101868682870161014a565b93505060206101978682870161014a565b92505060406101a88682870161014a565b9150509250925092565b610fa0806101c16000396000f3fe608060405234801561001057600080fd5b50600436106100b45760003560e01c80639cd441da116100715780639cd441da1461016e578063a035b1fe1461018a578063a932492f146101a8578063d21220a7146101c6578063db068e0e146101e4578063eced552614610200576100b4565b80630902f1ac146100b95780630dfe1681146100d85780632e0f2625146100f6578063443cb4bc146101145780634dc74d22146101325780635a76f25e14610150575b600080fd5b6100c161021e565b6040516100cf929190610884565b60405180910390f35b6100e061025f565b6040516100ed919061092c565b60405180910390f35b6100fe610283565b60405161010b9190610963565b60405180910390f35b61011c610288565b604051610129919061097e565b60405180910390f35b61013a61028e565b60405161014791906109ba565b60405180910390f35b6101586102b4565b604051610165919061097e565b60405180910390f35b61018860048036038101906101839190610a06565b6102ba565b005b6101926104c9565b60405161019f919061097e565b60405180910390f35b6101b06104cf565b6040516101bd919061097e565b60405180910390f35b6101ce6104d5565b6040516101db919061092c565b60405180910390f35b6101fe60048036038101906101f99190610a46565b6104fb565b005b61020861056c565b604051610215919061097e565b60405180910390f35b6000806003600a61022f9190610bd5565b60035461023c9190610c4f565b6003600a61024a9190610bd5565b6004546102579190610c4f565b915091509091565b60008054906101000a900473ffffffffffffffffffffffffffffffffffffffff1681565b600381565b60035481565b600260009054906101000a900473ffffffffffffffffffffffffffffffffffffffff1681565b60045481565b6000821180156102ca5750600081115b610309576040517f08c379a000000000000000000000000000000000000000000000000000000000815260040161030090610cdd565b60405180910390fd5b60008054906101000a900473ffffffffffffffffffffffffffffffffffffffff1673ffffffffffffffffffffffffffffffffffffffff166323b872dd3330856040518463ffffffff1660e01b815260040161036693929190610cfd565b6020604051808303816000875af1158015610385573d6000803e3d6000fd5b505050506040513d601f19601f820116820180604052508101906103a99190610d6c565b50600160009054906101000a900473ffffffffffffffffffffffffffffffffffffffff1673ffffffffffffffffffffffffffffffffffffffff166323b872dd3330846040518463ffffffff1660e01b815260040161040993929190610cfd565b6020604051808303816000875af1158015610428573d6000803e3d6000fd5b505050506040513d601f19601f8201168201806040525081019061044c9190610d6c565b506003600a61045b9190610bd5565b826104669190610d99565b600360008282546104779190610ddb565b925050819055506003600a61048c9190610bd5565b816104979190610d99565b600460008282546104a89190610ddb565b925050819055506004546003546104bf9190610d99565b6006819055505050565b60055481565b60065481565b600160009054906101000a900473ffffffffffffffffffffffffffffffffffffffff1681565b6000811161053e576040517f08c379a000000000000000000000000000000000000000000000000000000000815260040161053590610e5b565b60405180910390fd5b6000806005541461055157600554610553565b815b9050816005819055506105688160055461057d565b5050565b6003600a61057a9190610bd5565b81565b808203156107ed57600061059d826006546105989190610c4f565b6107f1565b9050600082826105ad9190610d99565b9050828410156106275760006105cf846006546105ca9190610c4f565b6107f1565b6003546105dc9190610e7b565b9050600084826105ec9190610d99565b905081600360008282546106009190610e7b565b9250508190555080600460008282546106199190610ddb565b925050819055505050610693565b60006003546106428560065461063d9190610c4f565b6107f1565b61064c9190610e7b565b90506000848261065c9190610d99565b905080600460008282546106709190610e7b565b9250508190555081600360008282546106899190610ddb565b9250508190555050505b8060045411156107ea576000816004546106ad9190610e7b565b90508060045410156106f4576040517f08c379a00000000000000000000000000000000000000000000000000000000081526004016106eb90610f21565b60405180910390fd5b600160009054906101000a900473ffffffffffffffffffffffffffffffffffffffff1673ffffffffffffffffffffffffffffffffffffffff1663a9059cbb600260009054906101000a900473ffffffffffffffffffffffffffffffffffffffff166003600a6107639190610bd5565b8461076e9190610c4f565b6040518363ffffffff1660e01b815260040161078b929190610f41565b6020604051808303816000875af11580156107aa573d6000803e3d6000fd5b505050506040513d601f19601f820116820180604052508101906107ce9190610d6c565b5080600460008282546107e19190610e7b565b92505081905550505b50505b5050565b6000600382111561085857819050600060016002846108109190610c4f565b61081a9190610ddb565b90505b818110156108525780915060028182856108379190610c4f565b6108419190610ddb565b61084b9190610c4f565b905061081d565b50610866565b6000821461086557600190505b5b919050565b6000819050919050565b61087e8161086b565b82525050565b60006040820190506108996000830185610875565b6108a66020830184610875565b9392505050565b600073ffffffffffffffffffffffffffffffffffffffff82169050919050565b6000819050919050565b60006108f26108ed6108e8846108ad565b6108cd565b6108ad565b9050919050565b6000610904826108d7565b9050919050565b6000610916826108f9565b9050919050565b6109268161090b565b82525050565b6000602082019050610941600083018461091d565b92915050565b600060ff82169050919050565b61095d81610947565b82525050565b60006020820190506109786000830184610954565b92915050565b60006020820190506109936000830184610875565b92915050565b60006109a4826108ad565b9050919050565b6109b481610999565b82525050565b60006020820190506109cf60008301846109ab565b92915050565b600080fd5b6109e38161086b565b81146109ee57600080fd5b50565b600081359050610a00816109da565b92915050565b60008060408385031215610a1d57610a1c6109d5565b5b6000610a2b858286016109f1565b9250506020610a3c858286016109f1565b9150509250929050565b600060208284031215610a5c57610a5b6109d5565b5b6000610a6a848285016109f1565b91505092915050565b7f4e487b7100000000000000000000000000000000000000000000000000000000600052601160045260246000fd5b60008160011c9050919050565b6000808291508390505b6001851115610af957808604811115610ad557610ad4610a73565b5b6001851615610ae45780820291505b8081029050610af285610aa2565b9450610ab9565b94509492505050565b600082610b125760019050610bce565b81610b205760009050610bce565b8160018114610b365760028114610b4057610b6f565b6001915050610bce565b60ff841115610b5257610b51610a73565b5b8360020a915084821115610b6957610b68610a73565b5b50610bce565b5060208310610133831016604e8410600b8410161715610ba45782820a905083811115610b9f57610b9e610a73565b5b610bce565b610bb18484846001610aaf565b92509050818404811115610bc857610bc7610a73565b5b81810290505b9392505050565b6000610be08261086b565b9150610beb83610947565b9250610c187fffffffffffffffffffffffffffffffffffffffffffffffffffffffffffffffff8484610b02565b905092915050565b7f4e487b7100000000000000000000000000000000000000000000000000000000600052601260045260246000fd5b6000610c5a8261086b565b9150610c658361086b565b925082610c7557610c74610c20565b5b828204905092915050565b600082825260208201905092915050565b7f496e76616c696420616d6f756e74730000000000000000000000000000000000600082015250565b6000610cc7600f83610c80565b9150610cd282610c91565b602082019050919050565b60006020820190508181036000830152610cf681610cba565b9050919050565b6000606082019050610d1260008301866109ab565b610d1f60208301856109ab565b610d2c6040830184610875565b949350505050565b60008115159050919050565b610d4981610d34565b8114610d5457600080fd5b50565b600081519050610d6681610d40565b92915050565b600060208284031215610d8257610d816109d5565b5b6000610d9084828501610d57565b91505092915050565b6000610da48261086b565b9150610daf8361086b565b9250828202610dbd8161086b565b91508282048414831517610dd457610dd3610a73565b5b5092915050565b6000610de68261086b565b9150610df18361086b565b9250828201905080821115610e0957610e08610a73565b5b92915050565b7f496e76616c696420746172676574207072696365000000000000000000000000600082015250565b6000610e45601483610c80565b9150610e5082610e0f565b602082019050919050565b60006020820190508181036000830152610e7481610e38565b9050919050565b6000610e868261086b565b9150610e918361086b565b9250828203905081811115610ea957610ea8610a73565b5b92915050565b7f4e6f7420656e6f756768206c697175696469747920666f72204150207472616e60008201527f7366657200000000000000000000000000000000000000000000000000000000602082015250565b6000610f0b602483610c80565b9150610f1682610eaf565b604082019050919050565b60006020820190508181036000830152610f3a81610efe565b9050919050565b6000604082019050610f5660008301856109ab565b610f636020830184610875565b939250505056fea264697066735822122054923c3bee7ccad9793f3416943671028cb9a46f58d9d5758330ef1fedd3e28b64736f6c634300081a0033",
					"opcodes": "PUSH1 0x80 PUSH1 0x40 MSTORE CALLVALUE DUP1 ISZERO PUSH2 0x10 JUMPI PUSH1 0x0 DUP1 REVERT JUMPDEST POP PUSH1 0x40 MLOAD PUSH2 0x1161 CODESIZE SUB DUP1 PUSH2 0x1161 DUP4 CODECOPY DUP2 DUP2 ADD PUSH1 0x40 MSTORE DUP2 ADD SWAP1 PUSH2 0x32 SWAP2 SWAP1 PUSH2 0x15F JUMP JUMPDEST DUP3 PUSH1 0x0 DUP1 PUSH2 0x100 EXP DUP2 SLOAD DUP2 PUSH20 0xFFFFFFFFFFFFFFFFFFFFFFFFFFFFFFFFFFFFFFFF MUL NOT AND SWAP1 DUP4 PUSH20 0xFFFFFFFFFFFFFFFFFFFFFFFFFFFFFFFFFFFFFFFF AND MUL OR SWAP1 SSTORE POP DUP2 PUSH1 0x1 PUSH1 0x0 PUSH2 0x100 EXP DUP2 SLOAD DUP2 PUSH20 0xFFFFFFFFFFFFFFFFFFFFFFFFFFFFFFFFFFFFFFFF MUL NOT AND SWAP1 DUP4 PUSH20 0xFFFFFFFFFFFFFFFFFFFFFFFFFFFFFFFFFFFFFFFF AND MUL OR SWAP1 SSTORE POP DUP1 PUSH1 0x2 PUSH1 0x0 PUSH2 0x100 EXP DUP2 SLOAD DUP2 PUSH20 0xFFFFFFFFFFFFFFFFFFFFFFFFFFFFFFFFFFFFFFFF MUL NOT AND SWAP1 DUP4 PUSH20 0xFFFFFFFFFFFFFFFFFFFFFFFFFFFFFFFFFFFFFFFF AND MUL OR SWAP1 SSTORE POP POP POP POP PUSH2 0x1B2 JUMP JUMPDEST PUSH1 0x0 DUP1 REVERT JUMPDEST PUSH1 0x0 PUSH20 0xFFFFFFFFFFFFFFFFFFFFFFFFFFFFFFFFFFFFFFFF DUP3 AND SWAP1 POP SWAP2 SWAP1 POP JUMP JUMPDEST PUSH1 0x0 PUSH2 0x12C DUP3 PUSH2 0x101 JUMP JUMPDEST SWAP1 POP SWAP2 SWAP1 POP JUMP JUMPDEST PUSH2 0x13C DUP2 PUSH2 0x121 JUMP JUMPDEST DUP2 EQ PUSH2 0x147 JUMPI PUSH1 0x0 DUP1 REVERT JUMPDEST POP JUMP JUMPDEST PUSH1 0x0 DUP2 MLOAD SWAP1 POP PUSH2 0x159 DUP2 PUSH2 0x133 JUMP JUMPDEST SWAP3 SWAP2 POP POP JUMP JUMPDEST PUSH1 0x0 DUP1 PUSH1 0x0 PUSH1 0x60 DUP5 DUP7 SUB SLT ISZERO PUSH2 0x178 JUMPI PUSH2 0x177 PUSH2 0xFC JUMP JUMPDEST JUMPDEST PUSH1 0x0 PUSH2 0x186 DUP7 DUP3 DUP8 ADD PUSH2 0x14A JUMP JUMPDEST SWAP4 POP POP PUSH1 0x20 PUSH2 0x197 DUP7 DUP3 DUP8 ADD PUSH2 0x14A JUMP JUMPDEST SWAP3 POP POP PUSH1 0x40 PUSH2 0x1A8 DUP7 DUP3 DUP8 ADD PUSH2 0x14A JUMP JUMPDEST SWAP2 POP POP SWAP3 POP SWAP3 POP SWAP3 JUMP JUMPDEST PUSH2 0xFA0 DUP1 PUSH2 0x1C1 PUSH1 0x0 CODECOPY PUSH1 0x0 RETURN INVALID PUSH1 0x80 PUSH1 0x40 MSTORE CALLVALUE DUP1 ISZERO PUSH2 0x10 JUMPI PUSH1 0x0 DUP1 REVERT JUMPDEST POP PUSH1 0x4 CALLDATASIZE LT PUSH2 0xB4 JUMPI PUSH1 0x0 CALLDATALOAD PUSH1 0xE0 SHR DUP1 PUSH4 0x9CD441DA GT PUSH2 0x71 JUMPI DUP1 PUSH4 0x9CD441DA EQ PUSH2 0x16E JUMPI DUP1 PUSH4 0xA035B1FE EQ PUSH2 0x18A JUMPI DUP1 PUSH4 0xA932492F EQ PUSH2 0x1A8 JUMPI DUP1 PUSH4 0xD21220A7 EQ PUSH2 0x1C6 JUMPI DUP1 PUSH4 0xDB068E0E EQ PUSH2 0x1E4 JUMPI DUP1 PUSH4 0xECED5526 EQ PUSH2 0x200 JUMPI PUSH2 0xB4 JUMP JUMPDEST DUP1 PUSH4 0x902F1AC EQ PUSH2 0xB9 JUMPI DUP1 PUSH4 0xDFE1681 EQ PUSH2 0xD8 JUMPI DUP1 PUSH4 0x2E0F2625 EQ PUSH2 0xF6 JUMPI DUP1 PUSH4 0x443CB4BC EQ PUSH2 0x114 JUMPI DUP1 PUSH4 0x4DC74D22 EQ PUSH2 0x132 JUMPI DUP1 PUSH4 0x5A76F25E EQ PUSH2 0x150 JUMPI JUMPDEST PUSH1 0x0 DUP1 REVERT JUMPDEST PUSH2 0xC1 PUSH2 0x21E JUMP JUMPDEST PUSH1 0x40 MLOAD PUSH2 0xCF SWAP3 SWAP2 SWAP1 PUSH2 0x884 JUMP JUMPDEST PUSH1 0x40 MLOAD DUP1 SWAP2 SUB SWAP1 RETURN JUMPDEST PUSH2 0xE0 PUSH2 0x25F JUMP JUMPDEST PUSH1 0x40 MLOAD PUSH2 0xED SWAP2 SWAP1 PUSH2 0x92C JUMP JUMPDEST PUSH1 0x40 MLOAD DUP1 SWAP2 SUB SWAP1 RETURN JUMPDEST PUSH2 0xFE PUSH2 0x283 JUMP JUMPDEST PUSH1 0x40 MLOAD PUSH2 0x10B SWAP2 SWAP1 PUSH2 0x963 JUMP JUMPDEST PUSH1 0x40 MLOAD DUP1 SWAP2 SUB SWAP1 RETURN JUMPDEST PUSH2 0x11C PUSH2 0x288 JUMP JUMPDEST PUSH1 0x40 MLOAD PUSH2 0x129 SWAP2 SWAP1 PUSH2 0x97E JUMP JUMPDEST PUSH1 0x40 MLOAD DUP1 SWAP2 SUB SWAP1 RETURN JUMPDEST PUSH2 0x13A PUSH2 0x28E JUMP JUMPDEST PUSH1 0x40 MLOAD PUSH2 0x147 SWAP2 SWAP1 PUSH2 0x9BA JUMP JUMPDEST PUSH1 0x40 MLOAD DUP1 SWAP2 SUB SWAP1 RETURN JUMPDEST PUSH2 0x158 PUSH2 0x2B4 JUMP JUMPDEST PUSH1 0x40 MLOAD PUSH2 0x165 SWAP2 SWAP1 PUSH2 0x97E JUMP JUMPDEST PUSH1 0x40 MLOAD DUP1 SWAP2 SUB SWAP1 RETURN JUMPDEST PUSH2 0x188 PUSH1 0x4 DUP1 CALLDATASIZE SUB DUP2 ADD SWAP1 PUSH2 0x183 SWAP2 SWAP1 PUSH2 0xA06 JUMP JUMPDEST PUSH2 0x2BA JUMP JUMPDEST STOP JUMPDEST PUSH2 0x192 PUSH2 0x4C9 JUMP JUMPDEST PUSH1 0x40 MLOAD PUSH2 0x19F SWAP2 SWAP1 PUSH2 0x97E JUMP JUMPDEST PUSH1 0x40 MLOAD DUP1 SWAP2 SUB SWAP1 RETURN JUMPDEST PUSH2 0x1B0 PUSH2 0x4CF JUMP JUMPDEST PUSH1 0x40 MLOAD PUSH2 0x1BD SWAP2 SWAP1 PUSH2 0x97E JUMP JUMPDEST PUSH1 0x40 MLOAD DUP1 SWAP2 SUB SWAP1 RETURN JUMPDEST PUSH2 0x1CE PUSH2 0x4D5 JUMP JUMPDEST PUSH1 0x40 MLOAD PUSH2 0x1DB SWAP2 SWAP1 PUSH2 0x92C JUMP JUMPDEST PUSH1 0x40 MLOAD DUP1 SWAP2 SUB SWAP1 RETURN JUMPDEST PUSH2 0x1FE PUSH1 0x4 DUP1 CALLDATASIZE SUB DUP2 ADD SWAP1 PUSH2 0x1F9 SWAP2 SWAP1 PUSH2 0xA46 JUMP JUMPDEST PUSH2 0x4FB JUMP JUMPDEST STOP JUMPDEST PUSH2 0x208 PUSH2 0x56C JUMP JUMPDEST PUSH1 0x40 MLOAD PUSH2 0x215 SWAP2 SWAP1 PUSH2 0x97E JUMP JUMPDEST PUSH1 0x40 MLOAD DUP1 SWAP2 SUB SWAP1 RETURN JUMPDEST PUSH1 0x0 DUP1 PUSH1 0x3 PUSH1 0xA PUSH2 0x22F SWAP2 SWAP1 PUSH2 0xBD5 JUMP JUMPDEST PUSH1 0x3 SLOAD PUSH2 0x23C SWAP2 SWAP1 PUSH2 0xC4F JUMP JUMPDEST PUSH1 0x3 PUSH1 0xA PUSH2 0x24A SWAP2 SWAP1 PUSH2 0xBD5 JUMP JUMPDEST PUSH1 0x4 SLOAD PUSH2 0x257 SWAP2 SWAP1 PUSH2 0xC4F JUMP JUMPDEST SWAP2 POP SWAP2 POP SWAP1 SWAP2 JUMP JUMPDEST PUSH1 0x0 DUP1 SLOAD SWAP1 PUSH2 0x100 EXP SWAP1 DIV PUSH20 0xFFFFFFFFFFFFFFFFFFFFFFFFFFFFFFFFFFFFFFFF AND DUP2 JUMP JUMPDEST PUSH1 0x3 DUP2 JUMP JUMPDEST PUSH1 0x3 SLOAD DUP2 JUMP JUMPDEST PUSH1 0x2 PUSH1 0x0 SWAP1 SLOAD SWAP1 PUSH2 0x100 EXP SWAP1 DIV PUSH20 0xFFFFFFFFFFFFFFFFFFFFFFFFFFFFFFFFFFFFFFFF AND DUP2 JUMP JUMPDEST PUSH1 0x4 SLOAD DUP2 JUMP JUMPDEST PUSH1 0x0 DUP3 GT DUP1 ISZERO PUSH2 0x2CA JUMPI POP PUSH1 0x0 DUP2 GT JUMPDEST PUSH2 0x309 JUMPI PUSH1 0x40 MLOAD PUSH32 0x8C379A000000000000000000000000000000000000000000000000000000000 DUP2 MSTORE PUSH1 0x4 ADD PUSH2 0x300 SWAP1 PUSH2 0xCDD JUMP JUMPDEST PUSH1 0x40 MLOAD DUP1 SWAP2 SUB SWAP1 REVERT JUMPDEST PUSH1 0x0 DUP1 SLOAD SWAP1 PUSH2 0x100 EXP SWAP1 DIV PUSH20 0xFFFFFFFFFFFFFFFFFFFFFFFFFFFFFFFFFFFFFFFF AND PUSH20 0xFFFFFFFFFFFFFFFFFFFFFFFFFFFFFFFFFFFFFFFF AND PUSH4 0x23B872DD CALLER ADDRESS DUP6 PUSH1 0x40 MLOAD DUP5 PUSH4 0xFFFFFFFF AND PUSH1 0xE0 SHL DUP2 MSTORE PUSH1 0x4 ADD PUSH2 0x366 SWAP4 SWAP3 SWAP2 SWAP1 PUSH2 0xCFD JUMP JUMPDEST PUSH1 0x20 PUSH1 0x40 MLOAD DUP1 DUP4 SUB DUP2 PUSH1 0x0 DUP8 GAS CALL ISZERO DUP1 ISZERO PUSH2 0x385 JUMPI RETURNDATASIZE PUSH1 0x0 DUP1 RETURNDATACOPY RETURNDATASIZE PUSH1 0x0 REVERT JUMPDEST POP POP POP POP PUSH1 0x40 MLOAD RETURNDATASIZE PUSH1 0x1F NOT PUSH1 0x1F DUP3 ADD AND DUP3 ADD DUP1 PUSH1 0x40 MSTORE POP DUP2 ADD SWAP1 PUSH2 0x3A9 SWAP2 SWAP1 PUSH2 0xD6C JUMP JUMPDEST POP PUSH1 0x1 PUSH1 0x0 SWAP1 SLOAD SWAP1 PUSH2 0x100 EXP SWAP1 DIV PUSH20 0xFFFFFFFFFFFFFFFFFFFFFFFFFFFFFFFFFFFFFFFF AND PUSH20 0xFFFFFFFFFFFFFFFFFFFFFFFFFFFFFFFFFFFFFFFF AND PUSH4 0x23B872DD CALLER ADDRESS DUP5 PUSH1 0x40 MLOAD DUP5 PUSH4 0xFFFFFFFF AND PUSH1 0xE0 SHL DUP2 MSTORE PUSH1 0x4 ADD PUSH2 0x409 SWAP4 SWAP3 SWAP2 SWAP1 PUSH2 0xCFD JUMP JUMPDEST PUSH1 0x20 PUSH1 0x40 MLOAD DUP1 DUP4 SUB DUP2 PUSH1 0x0 DUP8 GAS CALL ISZERO DUP1 ISZERO PUSH2 0x428 JUMPI RETURNDATASIZE PUSH1 0x0 DUP1 RETURNDATACOPY RETURNDATASIZE PUSH1 0x0 REVERT JUMPDEST POP POP POP POP PUSH1 0x40 MLOAD RETURNDATASIZE PUSH1 0x1F NOT PUSH1 0x1F DUP3 ADD AND DUP3 ADD DUP1 PUSH1 0x40 MSTORE POP DUP2 ADD SWAP1 PUSH2 0x44C SWAP2 SWAP1 PUSH2 0xD6C JUMP JUMPDEST POP PUSH1 0x3 PUSH1 0xA PUSH2 0x45B SWAP2 SWAP1 PUSH2 0xBD5 JUMP JUMPDEST DUP3 PUSH2 0x466 SWAP2 SWAP1 PUSH2 0xD99 JUMP JUMPDEST PUSH1 0x3 PUSH1 0x0 DUP3 DUP3 SLOAD PUSH2 0x477 SWAP2 SWAP1 PUSH2 0xDDB JUMP JUMPDEST SWAP3 POP POP DUP2 SWAP1 SSTORE POP PUSH1 0x3 PUSH1 0xA PUSH2 0x48C SWAP2 SWAP1 PUSH2 0xBD5 JUMP JUMPDEST DUP2 PUSH2 0x497 SWAP2 SWAP1 PUSH2 0xD99 JUMP JUMPDEST PUSH1 0x4 PUSH1 0x0 DUP3 DUP3 SLOAD PUSH2 0x4A8 SWAP2 SWAP1 PUSH2 0xDDB JUMP JUMPDEST SWAP3 POP POP DUP2 SWAP1 SSTORE POP PUSH1 0x4 SLOAD PUSH1 0x3 SLOAD PUSH2 0x4BF SWAP2 SWAP1 PUSH2 0xD99 JUMP JUMPDEST PUSH1 0x6 DUP2 SWAP1 SSTORE POP POP POP JUMP JUMPDEST PUSH1 0x5 SLOAD DUP2 JUMP JUMPDEST PUSH1 0x6 SLOAD DUP2 JUMP JUMPDEST PUSH1 0x1 PUSH1 0x0 SWAP1 SLOAD SWAP1 PUSH2 0x100 EXP SWAP1 DIV PUSH20 0xFFFFFFFFFFFFFFFFFFFFFFFFFFFFFFFFFFFFFFFF AND DUP2 JUMP JUMPDEST PUSH1 0x0 DUP2 GT PUSH2 0x53E JUMPI PUSH1 0x40 MLOAD PUSH32 0x8C379A000000000000000000000000000000000000000000000000000000000 DUP2 MSTORE PUSH1 0x4 ADD PUSH2 0x535 SWAP1 PUSH2 0xE5B JUMP JUMPDEST PUSH1 0x40 MLOAD DUP1 SWAP2 SUB SWAP1 REVERT JUMPDEST PUSH1 0x0 DUP1 PUSH1 0x5 SLOAD EQ PUSH2 0x551 JUMPI PUSH1 0x5 SLOAD PUSH2 0x553 JUMP JUMPDEST DUP2 JUMPDEST SWAP1 POP DUP2 PUSH1 0x5 DUP2 SWAP1 SSTORE POP PUSH2 0x568 DUP2 PUSH1 0x5 SLOAD PUSH2 0x57D JUMP JUMPDEST POP POP JUMP JUMPDEST PUSH1 0x3 PUSH1 0xA PUSH2 0x57A SWAP2 SWAP1 PUSH2 0xBD5 JUMP JUMPDEST DUP2 JUMP JUMPDEST DUP1 DUP3 SUB ISZERO PUSH2 0x7ED JUMPI PUSH1 0x0 PUSH2 0x59D DUP3 PUSH1 0x6 SLOAD PUSH2 0x598 SWAP2 SWAP1 PUSH2 0xC4F JUMP JUMPDEST PUSH2 0x7F1 JUMP JUMPDEST SWAP1 POP PUSH1 0x0 DUP3 DUP3 PUSH2 0x5AD SWAP2 SWAP1 PUSH2 0xD99 JUMP JUMPDEST SWAP1 POP DUP3 DUP5 LT ISZERO PUSH2 0x627 JUMPI PUSH1 0x0 PUSH2 0x5CF DUP5 PUSH1 0x6 SLOAD PUSH2 0x5CA SWAP2 SWAP1 PUSH2 0xC4F JUMP JUMPDEST PUSH2 0x7F1 JUMP JUMPDEST PUSH1 0x3 SLOAD PUSH2 0x5DC SWAP2 SWAP1 PUSH2 0xE7B JUMP JUMPDEST SWAP1 POP PUSH1 0x0 DUP5 DUP3 PUSH2 0x5EC SWAP2 SWAP1 PUSH2 0xD99 JUMP JUMPDEST SWAP1 POP DUP2 PUSH1 0x3 PUSH1 0x0 DUP3 DUP3 SLOAD PUSH2 0x600 SWAP2 SWAP1 PUSH2 0xE7B JUMP JUMPDEST SWAP3 POP POP DUP2 SWAP1 SSTORE POP DUP1 PUSH1 0x4 PUSH1 0x0 DUP3 DUP3 SLOAD PUSH2 0x619 SWAP2 SWAP1 PUSH2 0xDDB JUMP JUMPDEST SWAP3 POP POP DUP2 SWAP1 SSTORE POP POP POP PUSH2 0x693 JUMP JUMPDEST PUSH1 0x0 PUSH1 0x3 SLOAD PUSH2 0x642 DUP6 PUSH1 0x6 SLOAD PUSH2 0x63D SWAP2 SWAP1 PUSH2 0xC4F JUMP JUMPDEST PUSH2 0x7F1 JUMP JUMPDEST PUSH2 0x64C SWAP2 SWAP1 PUSH2 0xE7B JUMP JUMPDEST SWAP1 POP PUSH1 0x0 DUP5 DUP3 PUSH2 0x65C SWAP2 SWAP1 PUSH2 0xD99 JUMP JUMPDEST SWAP1 POP DUP1 PUSH1 0x4 PUSH1 0x0 DUP3 DUP3 SLOAD PUSH2 0x670 SWAP2 SWAP1 PUSH2 0xE7B JUMP JUMPDEST SWAP3 POP POP DUP2 SWAP1 SSTORE POP DUP2 PUSH1 0x3 PUSH1 0x0 DUP3 DUP3 SLOAD PUSH2 0x689 SWAP2 SWAP1 PUSH2 0xDDB JUMP JUMPDEST SWAP3 POP POP DUP2 SWAP1 SSTORE POP POP POP JUMPDEST DUP1 PUSH1 0x4 SLOAD GT ISZERO PUSH2 0x7EA JUMPI PUSH1 0x0 DUP2 PUSH1 0x4 SLOAD PUSH2 0x6AD SWAP2 SWAP1 PUSH2 0xE7B JUMP JUMPDEST SWAP1 POP DUP1 PUSH1 0x4 SLOAD LT ISZERO PUSH2 0x6F4 JUMPI PUSH1 0x40 MLOAD PUSH32 0x8C379A000000000000000000000000000000000000000000000000000000000 DUP2 MSTORE PUSH1 0x4 ADD PUSH2 0x6EB SWAP1 PUSH2 0xF21 JUMP JUMPDEST PUSH1 0x40 MLOAD DUP1 SWAP2 SUB SWAP1 REVERT JUMPDEST PUSH1 0x1 PUSH1 0x0 SWAP1 SLOAD SWAP1 PUSH2 0x100 EXP SWAP1 DIV PUSH20 0xFFFFFFFFFFFFFFFFFFFFFFFFFFFFFFFFFFFFFFFF AND PUSH20 0xFFFFFFFFFFFFFFFFFFFFFFFFFFFFFFFFFFFFFFFF AND PUSH4 0xA9059CBB PUSH1 0x2 PUSH1 0x0 SWAP1 SLOAD SWAP1 PUSH2 0x100 EXP SWAP1 DIV PUSH20 0xFFFFFFFFFFFFFFFFFFFFFFFFFFFFFFFFFFFFFFFF AND PUSH1 0x3 PUSH1 0xA PUSH2 0x763 SWAP2 SWAP1 PUSH2 0xBD5 JUMP JUMPDEST DUP5 PUSH2 0x76E SWAP2 SWAP1 PUSH2 0xC4F JUMP JUMPDEST PUSH1 0x40 MLOAD DUP4 PUSH4 0xFFFFFFFF AND PUSH1 0xE0 SHL DUP2 MSTORE PUSH1 0x4 ADD PUSH2 0x78B SWAP3 SWAP2 SWAP1 PUSH2 0xF41 JUMP JUMPDEST PUSH1 0x20 PUSH1 0x40 MLOAD DUP1 DUP4 SUB DUP2 PUSH1 0x0 DUP8 GAS CALL ISZERO DUP1 ISZERO PUSH2 0x7AA JUMPI RETURNDATASIZE PUSH1 0x0 DUP1 RETURNDATACOPY RETURNDATASIZE PUSH1 0x0 REVERT JUMPDEST POP POP POP POP PUSH1 0x40 MLOAD RETURNDATASIZE PUSH1 0x1F NOT PUSH1 0x1F DUP3 ADD AND DUP3 ADD DUP1 PUSH1 0x40 MSTORE POP DUP2 ADD SWAP1 PUSH2 0x7CE SWAP2 SWAP1 PUSH2 0xD6C JUMP JUMPDEST POP DUP1 PUSH1 0x4 PUSH1 0x0 DUP3 DUP3 SLOAD PUSH2 0x7E1 SWAP2 SWAP1 PUSH2 0xE7B JUMP JUMPDEST SWAP3 POP POP DUP2 SWAP1 SSTORE POP POP JUMPDEST POP POP JUMPDEST POP POP JUMP JUMPDEST PUSH1 0x0 PUSH1 0x3 DUP3 GT ISZERO PUSH2 0x858 JUMPI DUP2 SWAP1 POP PUSH1 0x0 PUSH1 0x1 PUSH1 0x2 DUP5 PUSH2 0x810 SWAP2 SWAP1 PUSH2 0xC4F JUMP JUMPDEST PUSH2 0x81A SWAP2 SWAP1 PUSH2 0xDDB JUMP JUMPDEST SWAP1 POP JUMPDEST DUP2 DUP2 LT ISZERO PUSH2 0x852 JUMPI DUP1 SWAP2 POP PUSH1 0x2 DUP2 DUP3 DUP6 PUSH2 0x837 SWAP2 SWAP1 PUSH2 0xC4F JUMP JUMPDEST PUSH2 0x841 SWAP2 SWAP1 PUSH2 0xDDB JUMP JUMPDEST PUSH2 0x84B SWAP2 SWAP1 PUSH2 0xC4F JUMP JUMPDEST SWAP1 POP PUSH2 0x81D JUMP JUMPDEST POP PUSH2 0x866 JUMP JUMPDEST PUSH1 0x0 DUP3 EQ PUSH2 0x865 JUMPI PUSH1 0x1 SWAP1 POP JUMPDEST JUMPDEST SWAP2 SWAP1 POP JUMP JUMPDEST PUSH1 0x0 DUP2 SWAP1 POP SWAP2 SWAP1 POP JUMP JUMPDEST PUSH2 0x87E DUP2 PUSH2 0x86B JUMP JUMPDEST DUP3 MSTORE POP POP JUMP JUMPDEST PUSH1 0x0 PUSH1 0x40 DUP3 ADD SWAP1 POP PUSH2 0x899 PUSH1 0x0 DUP4 ADD DUP6 PUSH2 0x875 JUMP JUMPDEST PUSH2 0x8A6 PUSH1 0x20 DUP4 ADD DUP5 PUSH2 0x875 JUMP JUMPDEST SWAP4 SWAP3 POP POP POP JUMP JUMPDEST PUSH1 0x0 PUSH20 0xFFFFFFFFFFFFFFFFFFFFFFFFFFFFFFFFFFFFFFFF DUP3 AND SWAP1 POP SWAP2 SWAP1 POP JUMP JUMPDEST PUSH1 0x0 DUP2 SWAP1 POP SWAP2 SWAP1 POP JUMP JUMPDEST PUSH1 0x0 PUSH2 0x8F2 PUSH2 0x8ED PUSH2 0x8E8 DUP5 PUSH2 0x8AD JUMP JUMPDEST PUSH2 0x8CD JUMP JUMPDEST PUSH2 0x8AD JUMP JUMPDEST SWAP1 POP SWAP2 SWAP1 POP JUMP JUMPDEST PUSH1 0x0 PUSH2 0x904 DUP3 PUSH2 0x8D7 JUMP JUMPDEST SWAP1 POP SWAP2 SWAP1 POP JUMP JUMPDEST PUSH1 0x0 PUSH2 0x916 DUP3 PUSH2 0x8F9 JUMP JUMPDEST SWAP1 POP SWAP2 SWAP1 POP JUMP JUMPDEST PUSH2 0x926 DUP2 PUSH2 0x90B JUMP JUMPDEST DUP3 MSTORE POP POP JUMP JUMPDEST PUSH1 0x0 PUSH1 0x20 DUP3 ADD SWAP1 POP PUSH2 0x941 PUSH1 0x0 DUP4 ADD DUP5 PUSH2 0x91D JUMP JUMPDEST SWAP3 SWAP2 POP POP JUMP JUMPDEST PUSH1 0x0 PUSH1 0xFF DUP3 AND SWAP1 POP SWAP2 SWAP1 POP JUMP JUMPDEST PUSH2 0x95D DUP2 PUSH2 0x947 JUMP JUMPDEST DUP3 MSTORE POP POP JUMP JUMPDEST PUSH1 0x0 PUSH1 0x20 DUP3 ADD SWAP1 POP PUSH2 0x978 PUSH1 0x0 DUP4 ADD DUP5 PUSH2 0x954 JUMP JUMPDEST SWAP3 SWAP2 POP POP JUMP JUMPDEST PUSH1 0x0 PUSH1 0x20 DUP3 ADD SWAP1 POP PUSH2 0x993 PUSH1 0x0 DUP4 ADD DUP5 PUSH2 0x875 JUMP JUMPDEST SWAP3 SWAP2 POP POP JUMP JUMPDEST PUSH1 0x0 PUSH2 0x9A4 DUP3 PUSH2 0x8AD JUMP JUMPDEST SWAP1 POP SWAP2 SWAP1 POP JUMP JUMPDEST PUSH2 0x9B4 DUP2 PUSH2 0x999 JUMP JUMPDEST DUP3 MSTORE POP POP JUMP JUMPDEST PUSH1 0x0 PUSH1 0x20 DUP3 ADD SWAP1 POP PUSH2 0x9CF PUSH1 0x0 DUP4 ADD DUP5 PUSH2 0x9AB JUMP JUMPDEST SWAP3 SWAP2 POP POP JUMP JUMPDEST PUSH1 0x0 DUP1 REVERT JUMPDEST PUSH2 0x9E3 DUP2 PUSH2 0x86B JUMP JUMPDEST DUP2 EQ PUSH2 0x9EE JUMPI PUSH1 0x0 DUP1 REVERT JUMPDEST POP JUMP JUMPDEST PUSH1 0x0 DUP2 CALLDATALOAD SWAP1 POP PUSH2 0xA00 DUP2 PUSH2 0x9DA JUMP JUMPDEST SWAP3 SWAP2 POP POP JUMP JUMPDEST PUSH1 0x0 DUP1 PUSH1 0x40 DUP4 DUP6 SUB SLT ISZERO PUSH2 0xA1D JUMPI PUSH2 0xA1C PUSH2 0x9D5 JUMP JUMPDEST JUMPDEST PUSH1 0x0 PUSH2 0xA2B DUP6 DUP3 DUP7 ADD PUSH2 0x9F1 JUMP JUMPDEST SWAP3 POP POP PUSH1 0x20 PUSH2 0xA3C DUP6 DUP3 DUP7 ADD PUSH2 0x9F1 JUMP JUMPDEST SWAP2 POP POP SWAP3 POP SWAP3 SWAP1 POP JUMP JUMPDEST PUSH1 0x0 PUSH1 0x20 DUP3 DUP5 SUB SLT ISZERO PUSH2 0xA5C JUMPI PUSH2 0xA5B PUSH2 0x9D5 JUMP JUMPDEST JUMPDEST PUSH1 0x0 PUSH2 0xA6A DUP5 DUP3 DUP6 ADD PUSH2 0x9F1 JUMP JUMPDEST SWAP2 POP POP SWAP3 SWAP2 POP POP JUMP JUMPDEST PUSH32 0x4E487B7100000000000000000000000000000000000000000000000000000000 PUSH1 0x0 MSTORE PUSH1 0x11 PUSH1 0x4 MSTORE PUSH1 0x24 PUSH1 0x0 REVERT JUMPDEST PUSH1 0x0 DUP2 PUSH1 0x1 SHR SWAP1 POP SWAP2 SWAP1 POP JUMP JUMPDEST PUSH1 0x0 DUP1 DUP3 SWAP2 POP DUP4 SWAP1 POP JUMPDEST PUSH1 0x1 DUP6 GT ISZERO PUSH2 0xAF9 JUMPI DUP1 DUP7 DIV DUP2 GT ISZERO PUSH2 0xAD5 JUMPI PUSH2 0xAD4 PUSH2 0xA73 JUMP JUMPDEST JUMPDEST PUSH1 0x1 DUP6 AND ISZERO PUSH2 0xAE4 JUMPI DUP1 DUP3 MUL SWAP2 POP JUMPDEST DUP1 DUP2 MUL SWAP1 POP PUSH2 0xAF2 DUP6 PUSH2 0xAA2 JUMP JUMPDEST SWAP5 POP PUSH2 0xAB9 JUMP JUMPDEST SWAP5 POP SWAP5 SWAP3 POP POP POP JUMP JUMPDEST PUSH1 0x0 DUP3 PUSH2 0xB12 JUMPI PUSH1 0x1 SWAP1 POP PUSH2 0xBCE JUMP JUMPDEST DUP2 PUSH2 0xB20 JUMPI PUSH1 0x0 SWAP1 POP PUSH2 0xBCE JUMP JUMPDEST DUP2 PUSH1 0x1 DUP2 EQ PUSH2 0xB36 JUMPI PUSH1 0x2 DUP2 EQ PUSH2 0xB40 JUMPI PUSH2 0xB6F JUMP JUMPDEST PUSH1 0x1 SWAP2 POP POP PUSH2 0xBCE JUMP JUMPDEST PUSH1 0xFF DUP5 GT ISZERO PUSH2 0xB52 JUMPI PUSH2 0xB51 PUSH2 0xA73 JUMP JUMPDEST JUMPDEST DUP4 PUSH1 0x2 EXP SWAP2 POP DUP5 DUP3 GT ISZERO PUSH2 0xB69 JUMPI PUSH2 0xB68 PUSH2 0xA73 JUMP JUMPDEST JUMPDEST POP PUSH2 0xBCE JUMP JUMPDEST POP PUSH1 0x20 DUP4 LT PUSH2 0x133 DUP4 LT AND PUSH1 0x4E DUP5 LT PUSH1 0xB DUP5 LT AND OR ISZERO PUSH2 0xBA4 JUMPI DUP3 DUP3 EXP SWAP1 POP DUP4 DUP2 GT ISZERO PUSH2 0xB9F JUMPI PUSH2 0xB9E PUSH2 0xA73 JUMP JUMPDEST JUMPDEST PUSH2 0xBCE JUMP JUMPDEST PUSH2 0xBB1 DUP5 DUP5 DUP5 PUSH1 0x1 PUSH2 0xAAF JUMP JUMPDEST SWAP3 POP SWAP1 POP DUP2 DUP5 DIV DUP2 GT ISZERO PUSH2 0xBC8 JUMPI PUSH2 0xBC7 PUSH2 0xA73 JUMP JUMPDEST JUMPDEST DUP2 DUP2 MUL SWAP1 POP JUMPDEST SWAP4 SWAP3 POP POP POP JUMP JUMPDEST PUSH1 0x0 PUSH2 0xBE0 DUP3 PUSH2 0x86B JUMP JUMPDEST SWAP2 POP PUSH2 0xBEB DUP4 PUSH2 0x947 JUMP JUMPDEST SWAP3 POP PUSH2 0xC18 PUSH32 0xFFFFFFFFFFFFFFFFFFFFFFFFFFFFFFFFFFFFFFFFFFFFFFFFFFFFFFFFFFFFFFFF DUP5 DUP5 PUSH2 0xB02 JUMP JUMPDEST SWAP1 POP SWAP3 SWAP2 POP POP JUMP JUMPDEST PUSH32 0x4E487B7100000000000000000000000000000000000000000000000000000000 PUSH1 0x0 MSTORE PUSH1 0x12 PUSH1 0x4 MSTORE PUSH1 0x24 PUSH1 0x0 REVERT JUMPDEST PUSH1 0x0 PUSH2 0xC5A DUP3 PUSH2 0x86B JUMP JUMPDEST SWAP2 POP PUSH2 0xC65 DUP4 PUSH2 0x86B JUMP JUMPDEST SWAP3 POP DUP3 PUSH2 0xC75 JUMPI PUSH2 0xC74 PUSH2 0xC20 JUMP JUMPDEST JUMPDEST DUP3 DUP3 DIV SWAP1 POP SWAP3 SWAP2 POP POP JUMP JUMPDEST PUSH1 0x0 DUP3 DUP3 MSTORE PUSH1 0x20 DUP3 ADD SWAP1 POP SWAP3 SWAP2 POP POP JUMP JUMPDEST PUSH32 0x496E76616C696420616D6F756E74730000000000000000000000000000000000 PUSH1 0x0 DUP3 ADD MSTORE POP JUMP JUMPDEST PUSH1 0x0 PUSH2 0xCC7 PUSH1 0xF DUP4 PUSH2 0xC80 JUMP JUMPDEST SWAP2 POP PUSH2 0xCD2 DUP3 PUSH2 0xC91 JUMP JUMPDEST PUSH1 0x20 DUP3 ADD SWAP1 POP SWAP2 SWAP1 POP JUMP JUMPDEST PUSH1 0x0 PUSH1 0x20 DUP3 ADD SWAP1 POP DUP2 DUP2 SUB PUSH1 0x0 DUP4 ADD MSTORE PUSH2 0xCF6 DUP2 PUSH2 0xCBA JUMP JUMPDEST SWAP1 POP SWAP2 SWAP1 POP JUMP JUMPDEST PUSH1 0x0 PUSH1 0x60 DUP3 ADD SWAP1 POP PUSH2 0xD12 PUSH1 0x0 DUP4 ADD DUP7 PUSH2 0x9AB JUMP JUMPDEST PUSH2 0xD1F PUSH1 0x20 DUP4 ADD DUP6 PUSH2 0x9AB JUMP JUMPDEST PUSH2 0xD2C PUSH1 0x40 DUP4 ADD DUP5 PUSH2 0x875 JUMP JUMPDEST SWAP5 SWAP4 POP POP POP POP JUMP JUMPDEST PUSH1 0x0 DUP2 ISZERO ISZERO SWAP1 POP SWAP2 SWAP1 POP JUMP JUMPDEST PUSH2 0xD49 DUP2 PUSH2 0xD34 JUMP JUMPDEST DUP2 EQ PUSH2 0xD54 JUMPI PUSH1 0x0 DUP1 REVERT JUMPDEST POP JUMP JUMPDEST PUSH1 0x0 DUP2 MLOAD SWAP1 POP PUSH2 0xD66 DUP2 PUSH2 0xD40 JUMP JUMPDEST SWAP3 SWAP2 POP POP JUMP JUMPDEST PUSH1 0x0 PUSH1 0x20 DUP3 DUP5 SUB SLT ISZERO PUSH2 0xD82 JUMPI PUSH2 0xD81 PUSH2 0x9D5 JUMP JUMPDEST JUMPDEST PUSH1 0x0 PUSH2 0xD90 DUP5 DUP3 DUP6 ADD PUSH2 0xD57 JUMP JUMPDEST SWAP2 POP POP SWAP3 SWAP2 POP POP JUMP JUMPDEST PUSH1 0x0 PUSH2 0xDA4 DUP3 PUSH2 0x86B JUMP JUMPDEST SWAP2 POP PUSH2 0xDAF DUP4 PUSH2 0x86B JUMP JUMPDEST SWAP3 POP DUP3 DUP3 MUL PUSH2 0xDBD DUP2 PUSH2 0x86B JUMP JUMPDEST SWAP2 POP DUP3 DUP3 DIV DUP5 EQ DUP4 ISZERO OR PUSH2 0xDD4 JUMPI PUSH2 0xDD3 PUSH2 0xA73 JUMP JUMPDEST JUMPDEST POP SWAP3 SWAP2 POP POP JUMP JUMPDEST PUSH1 0x0 PUSH2 0xDE6 DUP3 PUSH2 0x86B JUMP JUMPDEST SWAP2 POP PUSH2 0xDF1 DUP4 PUSH2 0x86B JUMP JUMPDEST SWAP3 POP DUP3 DUP3 ADD SWAP1 POP DUP1 DUP3 GT ISZERO PUSH2 0xE09 JUMPI PUSH2 0xE08 PUSH2 0xA73 JUMP JUMPDEST JUMPDEST SWAP3 SWAP2 POP POP JUMP JUMPDEST PUSH32 0x496E76616C696420746172676574207072696365000000000000000000000000 PUSH1 0x0 DUP3 ADD MSTORE POP JUMP JUMPDEST PUSH1 0x0 PUSH2 0xE45 PUSH1 0x14 DUP4 PUSH2 0xC80 JUMP JUMPDEST SWAP2 POP PUSH2 0xE50 DUP3 PUSH2 0xE0F JUMP JUMPDEST PUSH1 0x20 DUP3 ADD SWAP1 POP SWAP2 SWAP1 POP JUMP JUMPDEST PUSH1 0x0 PUSH1 0x20 DUP3 ADD SWAP1 POP DUP2 DUP2 SUB PUSH1 0x0 DUP4 ADD MSTORE PUSH2 0xE74 DUP2 PUSH2 0xE38 JUMP JUMPDEST SWAP1 POP SWAP2 SWAP1 POP JUMP JUMPDEST PUSH1 0x0 PUSH2 0xE86 DUP3 PUSH2 0x86B JUMP JUMPDEST SWAP2 POP PUSH2 0xE91 DUP4 PUSH2 0x86B JUMP JUMPDEST SWAP3 POP DUP3 DUP3 SUB SWAP1 POP DUP2 DUP2 GT ISZERO PUSH2 0xEA9 JUMPI PUSH2 0xEA8 PUSH2 0xA73 JUMP JUMPDEST JUMPDEST SWAP3 SWAP2 POP POP JUMP JUMPDEST PUSH32 0x4E6F7420656E6F756768206C697175696469747920666F72204150207472616E PUSH1 0x0 DUP3 ADD MSTORE PUSH32 0x7366657200000000000000000000000000000000000000000000000000000000 PUSH1 0x20 DUP3 ADD MSTORE POP JUMP JUMPDEST PUSH1 0x0 PUSH2 0xF0B PUSH1 0x24 DUP4 PUSH2 0xC80 JUMP JUMPDEST SWAP2 POP PUSH2 0xF16 DUP3 PUSH2 0xEAF JUMP JUMPDEST PUSH1 0x40 DUP3 ADD SWAP1 POP SWAP2 SWAP1 POP JUMP JUMPDEST PUSH1 0x0 PUSH1 0x20 DUP3 ADD SWAP1 POP DUP2 DUP2 SUB PUSH1 0x0 DUP4 ADD MSTORE PUSH2 0xF3A DUP2 PUSH2 0xEFE JUMP JUMPDEST SWAP1 POP SWAP2 SWAP1 POP JUMP JUMPDEST PUSH1 0x0 PUSH1 0x40 DUP3 ADD SWAP1 POP PUSH2 0xF56 PUSH1 0x0 DUP4 ADD DUP6 PUSH2 0x9AB JUMP JUMPDEST PUSH2 0xF63 PUSH1 0x20 DUP4 ADD DUP5 PUSH2 0x875 JUMP JUMPDEST SWAP4 SWAP3 POP POP POP JUMP INVALID LOG2 PUSH5 0x6970667358 0x22 SLT KECCAK256 SLOAD SWAP3 EXTCODECOPY EXTCODESIZE 0xEE PUSH29 0xCAD9793F3416943671028CB9A46F58D9D5758330EF1FEDD3E28B64736F PUSH13 0x634300081A0033000000000000 "
				},
				"gasEstimates": {
					"creation": {
						"codeDepositCost": "800000",
						"executionCost": "infinite",
						"totalCost": "infinite"
					},
					"external": {
						"DECIMALS()": "380",
						"K()": "2473",
						"SCALE()": "infinite",
						"addLiquidity(uint256,uint256)": "infinite",
						"apWallet()": "2603",
						"getReserves()": "infinite",
						"price()": "2451",
						"reserve0()": "2496",
						"reserve1()": "2540",
						"setExchangeRate(uint256)": "infinite",
						"token0()": "infinite",
						"token1()": "infinite"
					},
					"internal": {
						"_internalSwap(int256)": "infinite",
						"balancePool(uint256,uint256)": "infinite",
						"sqrt(uint256)": "infinite"
					}
				},
				"methodIdentifiers": {
					"DECIMALS()": "2e0f2625",
					"K()": "a932492f",
					"SCALE()": "eced5526",
					"addLiquidity(uint256,uint256)": "9cd441da",
					"apWallet()": "4dc74d22",
					"getReserves()": "0902f1ac",
					"price()": "a035b1fe",
					"reserve0()": "443cb4bc",
					"reserve1()": "5a76f25e",
					"setExchangeRate(uint256)": "db068e0e",
					"token0()": "0dfe1681",
					"token1()": "d21220a7"
				}
			},
			"storageLayout": {
				"storage": [
					{
						"astId": 83,
						"contract": "contracts/ConstantProductAMM.sol:ConstantProductAMM",
						"label": "token0",
						"offset": 0,
						"slot": "0",
						"type": "t_contract(IERC20)77"
					},
					{
						"astId": 86,
						"contract": "contracts/ConstantProductAMM.sol:ConstantProductAMM",
						"label": "token1",
						"offset": 0,
						"slot": "1",
						"type": "t_contract(IERC20)77"
					},
					{
						"astId": 88,
						"contract": "contracts/ConstantProductAMM.sol:ConstantProductAMM",
						"label": "apWallet",
						"offset": 0,
						"slot": "2",
						"type": "t_address"
					},
					{
						"astId": 90,
						"contract": "contracts/ConstantProductAMM.sol:ConstantProductAMM",
						"label": "reserve0",
						"offset": 0,
						"slot": "3",
						"type": "t_uint256"
					},
					{
						"astId": 92,
						"contract": "contracts/ConstantProductAMM.sol:ConstantProductAMM",
						"label": "reserve1",
						"offset": 0,
						"slot": "4",
						"type": "t_uint256"
					},
					{
						"astId": 94,
						"contract": "contracts/ConstantProductAMM.sol:ConstantProductAMM",
						"label": "price",
						"offset": 0,
						"slot": "5",
						"type": "t_uint256"
					},
					{
						"astId": 104,
						"contract": "contracts/ConstantProductAMM.sol:ConstantProductAMM",
						"label": "K",
						"offset": 0,
						"slot": "6",
						"type": "t_uint256"
					}
				],
				"types": {
					"t_address": {
						"encoding": "inplace",
						"label": "address",
						"numberOfBytes": "20"
					},
					"t_contract(IERC20)77": {
						"encoding": "inplace",
						"label": "contract IERC20",
						"numberOfBytes": "20"
					},
					"t_uint256": {
						"encoding": "inplace",
						"label": "uint256",
						"numberOfBytes": "32"
					}
				}
			},
			"userdoc": {
				"kind": "user",
				"methods": {},
				"version": 1
			}
		}
	}
}