{
	"contracts/ConstantProductAMM.sol": {
		"ConstantProductAMM": {
			"abi": [
				{
					"inputs": [
						{
							"internalType": "address",
							"name": "_token0",
							"type": "address"
						},
						{
							"internalType": "address",
							"name": "_token1",
							"type": "address"
						}
					],
					"stateMutability": "nonpayable",
					"type": "constructor"
				},
				{
					"inputs": [],
					"name": "DECIMALS",
					"outputs": [
						{
							"internalType": "uint8",
							"name": "",
							"type": "uint8"
						}
					],
					"stateMutability": "view",
					"type": "function"
				},
				{
					"inputs": [],
					"name": "K",
					"outputs": [
						{
							"internalType": "uint256",
							"name": "",
							"type": "uint256"
						}
					],
					"stateMutability": "view",
					"type": "function"
				},
				{
					"inputs": [],
					"name": "SCALE",
					"outputs": [
						{
							"internalType": "uint256",
							"name": "",
							"type": "uint256"
						}
					],
					"stateMutability": "view",
					"type": "function"
				},
				{
					"inputs": [
						{
							"internalType": "uint256",
							"name": "amount0",
							"type": "uint256"
						},
						{
							"internalType": "uint256",
							"name": "amount1",
							"type": "uint256"
						}
					],
					"name": "addLiquidity",
					"outputs": [],
					"stateMutability": "nonpayable",
					"type": "function"
				},
				{
					"inputs": [],
					"name": "getReserves",
					"outputs": [
						{
							"internalType": "uint256",
							"name": "",
							"type": "uint256"
						},
						{
							"internalType": "uint256",
							"name": "",
							"type": "uint256"
						}
					],
					"stateMutability": "view",
					"type": "function"
				},
				{
					"inputs": [],
					"name": "price",
					"outputs": [
						{
							"internalType": "uint256",
							"name": "",
							"type": "uint256"
						}
					],
					"stateMutability": "view",
					"type": "function"
				},
				{
					"inputs": [],
					"name": "reserve0",
					"outputs": [
						{
							"internalType": "uint256",
							"name": "",
							"type": "uint256"
						}
					],
					"stateMutability": "view",
					"type": "function"
				},
				{
					"inputs": [],
					"name": "reserve1",
					"outputs": [
						{
							"internalType": "uint256",
							"name": "",
							"type": "uint256"
						}
					],
					"stateMutability": "view",
					"type": "function"
				},
				{
					"inputs": [
						{
							"internalType": "uint256",
							"name": "targetPrice",
							"type": "uint256"
						}
					],
					"name": "setExchangeRate",
					"outputs": [],
					"stateMutability": "nonpayable",
					"type": "function"
				},
				{
					"inputs": [],
					"name": "token0",
					"outputs": [
						{
							"internalType": "contract IERC20",
							"name": "",
							"type": "address"
						}
					],
					"stateMutability": "view",
					"type": "function"
				},
				{
					"inputs": [],
					"name": "token1",
					"outputs": [
						{
							"internalType": "contract IERC20",
							"name": "",
							"type": "address"
						}
					],
					"stateMutability": "view",
					"type": "function"
				}
			],
			"devdoc": {
				"kind": "dev",
				"methods": {},
				"version": 1
			},
			"evm": {
				"assembly": "    /* \"contracts/ConstantProductAMM.sol\":115:2967  contract ConstantProductAMM {... */\n  mstore(0x40, 0x80)\n    /* \"contracts/ConstantProductAMM.sol\":440:561  constructor(address _token0, address _token1) {... */\n  callvalue\n  dup1\n  iszero\n  tag_1\n  jumpi\n  0x00\n  dup1\n  revert\ntag_1:\n  pop\n  mload(0x40)\n  sub(codesize, bytecodeSize)\n  dup1\n  bytecodeSize\n  dup4\n  codecopy\n  dup2\n  dup2\n  add\n  0x40\n  mstore\n  dup2\n  add\n  swap1\n  tag_2\n  swap2\n  swap1\n  tag_3\n  jump\t// in\ntag_2:\n    /* \"contracts/ConstantProductAMM.sol\":512:519  _token0 */\n  dup2\n    /* \"contracts/ConstantProductAMM.sol\":496:502  token0 */\n  0x00\n  dup1\n    /* \"contracts/ConstantProductAMM.sol\":496:520  token0 = IERC20(_token0) */\n  0x0100\n  exp\n  dup2\n  sload\n  dup2\n  0xffffffffffffffffffffffffffffffffffffffff\n  mul\n  not\n  and\n  swap1\n  dup4\n  0xffffffffffffffffffffffffffffffffffffffff\n  and\n  mul\n  or\n  swap1\n  sstore\n  pop\n    /* \"contracts/ConstantProductAMM.sol\":546:553  _token1 */\n  dup1\n    /* \"contracts/ConstantProductAMM.sol\":530:536  token1 */\n  0x01\n  0x00\n    /* \"contracts/ConstantProductAMM.sol\":530:554  token1 = IERC20(_token1) */\n  0x0100\n  exp\n  dup2\n  sload\n  dup2\n  0xffffffffffffffffffffffffffffffffffffffff\n  mul\n  not\n  and\n  swap1\n  dup4\n  0xffffffffffffffffffffffffffffffffffffffff\n  and\n  mul\n  or\n  swap1\n  sstore\n  pop\n    /* \"contracts/ConstantProductAMM.sol\":440:561  constructor(address _token0, address _token1) {... */\n  pop\n  pop\n    /* \"contracts/ConstantProductAMM.sol\":115:2967  contract ConstantProductAMM {... */\n  jump(tag_6)\n    /* \"#utility.yul\":88:205   */\ntag_8:\n    /* \"#utility.yul\":197:198   */\n  0x00\n    /* \"#utility.yul\":194:195   */\n  dup1\n    /* \"#utility.yul\":187:199   */\n  revert\n    /* \"#utility.yul\":334:460   */\ntag_10:\n    /* \"#utility.yul\":371:378   */\n  0x00\n    /* \"#utility.yul\":411:453   */\n  0xffffffffffffffffffffffffffffffffffffffff\n    /* \"#utility.yul\":404:409   */\n  dup3\n    /* \"#utility.yul\":400:454   */\n  and\n    /* \"#utility.yul\":389:454   */\n  swap1\n  pop\n    /* \"#utility.yul\":334:460   */\n  swap2\n  swap1\n  pop\n  jump\t// out\n    /* \"#utility.yul\":466:562   */\ntag_11:\n    /* \"#utility.yul\":503:510   */\n  0x00\n    /* \"#utility.yul\":532:556   */\n  tag_20\n    /* \"#utility.yul\":550:555   */\n  dup3\n    /* \"#utility.yul\":532:556   */\n  tag_10\n  jump\t// in\ntag_20:\n    /* \"#utility.yul\":521:556   */\n  swap1\n  pop\n    /* \"#utility.yul\":466:562   */\n  swap2\n  swap1\n  pop\n  jump\t// out\n    /* \"#utility.yul\":568:690   */\ntag_12:\n    /* \"#utility.yul\":641:665   */\n  tag_22\n    /* \"#utility.yul\":659:664   */\n  dup2\n    /* \"#utility.yul\":641:665   */\n  tag_11\n  jump\t// in\ntag_22:\n    /* \"#utility.yul\":634:639   */\n  dup2\n    /* \"#utility.yul\":631:666   */\n  eq\n    /* \"#utility.yul\":621:684   */\n  tag_23\n  jumpi\n    /* \"#utility.yul\":680:681   */\n  0x00\n    /* \"#utility.yul\":677:678   */\n  dup1\n    /* \"#utility.yul\":670:682   */\n  revert\n    /* \"#utility.yul\":621:684   */\ntag_23:\n    /* \"#utility.yul\":568:690   */\n  pop\n  jump\t// out\n    /* \"#utility.yul\":696:839   */\ntag_13:\n    /* \"#utility.yul\":753:758   */\n  0x00\n    /* \"#utility.yul\":784:790   */\n  dup2\n    /* \"#utility.yul\":778:791   */\n  mload\n    /* \"#utility.yul\":769:791   */\n  swap1\n  pop\n    /* \"#utility.yul\":800:833   */\n  tag_25\n    /* \"#utility.yul\":827:832   */\n  dup2\n    /* \"#utility.yul\":800:833   */\n  tag_12\n  jump\t// in\ntag_25:\n    /* \"#utility.yul\":696:839   */\n  swap3\n  swap2\n  pop\n  pop\n  jump\t// out\n    /* \"#utility.yul\":845:1352   */\ntag_3:\n    /* \"#utility.yul\":924:930   */\n  0x00\n    /* \"#utility.yul\":932:938   */\n  dup1\n    /* \"#utility.yul\":981:983   */\n  0x40\n    /* \"#utility.yul\":969:978   */\n  dup4\n    /* \"#utility.yul\":960:967   */\n  dup6\n    /* \"#utility.yul\":956:979   */\n  sub\n    /* \"#utility.yul\":952:984   */\n  slt\n    /* \"#utility.yul\":949:1068   */\n  iszero\n  tag_27\n  jumpi\n    /* \"#utility.yul\":987:1066   */\n  tag_28\n  tag_8\n  jump\t// in\ntag_28:\n    /* \"#utility.yul\":949:1068   */\ntag_27:\n    /* \"#utility.yul\":1107:1108   */\n  0x00\n    /* \"#utility.yul\":1132:1196   */\n  tag_29\n    /* \"#utility.yul\":1188:1195   */\n  dup6\n    /* \"#utility.yul\":1179:1185   */\n  dup3\n    /* \"#utility.yul\":1168:1177   */\n  dup7\n    /* \"#utility.yul\":1164:1186   */\n  add\n    /* \"#utility.yul\":1132:1196   */\n  tag_13\n  jump\t// in\ntag_29:\n    /* \"#utility.yul\":1122:1196   */\n  swap3\n  pop\n    /* \"#utility.yul\":1078:1206   */\n  pop\n    /* \"#utility.yul\":1245:1247   */\n  0x20\n    /* \"#utility.yul\":1271:1335   */\n  tag_30\n    /* \"#utility.yul\":1327:1334   */\n  dup6\n    /* \"#utility.yul\":1318:1324   */\n  dup3\n    /* \"#utility.yul\":1307:1316   */\n  dup7\n    /* \"#utility.yul\":1303:1325   */\n  add\n    /* \"#utility.yul\":1271:1335   */\n  tag_13\n  jump\t// in\ntag_30:\n    /* \"#utility.yul\":1261:1335   */\n  swap2\n  pop\n    /* \"#utility.yul\":1216:1345   */\n  pop\n    /* \"#utility.yul\":845:1352   */\n  swap3\n  pop\n  swap3\n  swap1\n  pop\n  jump\t// out\n    /* \"contracts/ConstantProductAMM.sol\":115:2967  contract ConstantProductAMM {... */\ntag_6:\n  dataSize(sub_0)\n  dup1\n  dataOffset(sub_0)\n  0x00\n  codecopy\n  0x00\n  return\nstop\n\nsub_0: assembly {\n        /* \"contracts/ConstantProductAMM.sol\":115:2967  contract ConstantProductAMM {... */\n      mstore(0x40, 0x80)\n      callvalue\n      dup1\n      iszero\n      tag_1\n      jumpi\n      0x00\n      dup1\n      revert\n    tag_1:\n      pop\n      jumpi(tag_2, lt(calldatasize, 0x04))\n      shr(0xe0, calldataload(0x00))\n      dup1\n      0x9cd441da\n      gt\n      tag_14\n      jumpi\n      dup1\n      0x9cd441da\n      eq\n      tag_8\n      jumpi\n      dup1\n      0xa035b1fe\n      eq\n      tag_9\n      jumpi\n      dup1\n      0xa932492f\n      eq\n      tag_10\n      jumpi\n      dup1\n      0xd21220a7\n      eq\n      tag_11\n      jumpi\n      dup1\n      0xdb068e0e\n      eq\n      tag_12\n      jumpi\n      dup1\n      0xeced5526\n      eq\n      tag_13\n      jumpi\n      jump(tag_2)\n    tag_14:\n      dup1\n      0x0902f1ac\n      eq\n      tag_3\n      jumpi\n      dup1\n      0x0dfe1681\n      eq\n      tag_4\n      jumpi\n      dup1\n      0x2e0f2625\n      eq\n      tag_5\n      jumpi\n      dup1\n      0x443cb4bc\n      eq\n      tag_6\n      jumpi\n      dup1\n      0x5a76f25e\n      eq\n      tag_7\n      jumpi\n    tag_2:\n      0x00\n      dup1\n      revert\n        /* \"contracts/ConstantProductAMM.sol\":1651:1773  function getReserves() public view returns (uint256, uint256) {... */\n    tag_3:\n      tag_15\n      tag_16\n      jump\t// in\n    tag_15:\n      mload(0x40)\n      tag_17\n      swap3\n      swap2\n      swap1\n      tag_18\n      jump\t// in\n    tag_17:\n      mload(0x40)\n      dup1\n      swap2\n      sub\n      swap1\n      return\n        /* \"contracts/ConstantProductAMM.sol\":149:169  IERC20 public token0 */\n    tag_4:\n      tag_19\n      tag_20\n      jump\t// in\n    tag_19:\n      mload(0x40)\n      tag_21\n      swap2\n      swap1\n      tag_22\n      jump\t// in\n    tag_21:\n      mload(0x40)\n      dup1\n      swap2\n      sub\n      swap1\n      return\n        /* \"contracts/ConstantProductAMM.sol\":325:359  uint8 public constant DECIMALS = 3 */\n    tag_5:\n      tag_23\n      tag_24\n      jump\t// in\n    tag_23:\n      mload(0x40)\n      tag_25\n      swap2\n      swap1\n      tag_26\n      jump\t// in\n    tag_25:\n      mload(0x40)\n      dup1\n      swap2\n      sub\n      swap1\n      return\n        /* \"contracts/ConstantProductAMM.sol\":201:224  uint256 public reserve0 */\n    tag_6:\n      tag_27\n      tag_28\n      jump\t// in\n    tag_27:\n      mload(0x40)\n      tag_29\n      swap2\n      swap1\n      tag_30\n      jump\t// in\n    tag_29:\n      mload(0x40)\n      dup1\n      swap2\n      sub\n      swap1\n      return\n        /* \"contracts/ConstantProductAMM.sol\":230:253  uint256 public reserve1 */\n    tag_7:\n      tag_31\n      tag_32\n      jump\t// in\n    tag_31:\n      mload(0x40)\n      tag_33\n      swap2\n      swap1\n      tag_30\n      jump\t// in\n    tag_33:\n      mload(0x40)\n      dup1\n      swap2\n      sub\n      swap1\n      return\n        /* \"contracts/ConstantProductAMM.sol\":567:1007  function addLiquidity(uint256 amount0, uint256 amount1) external {... */\n    tag_8:\n      tag_34\n      0x04\n      dup1\n      calldatasize\n      sub\n      dup2\n      add\n      swap1\n      tag_35\n      swap2\n      swap1\n      tag_36\n      jump\t// in\n    tag_35:\n      tag_37\n      jump\t// in\n    tag_34:\n      stop\n        /* \"contracts/ConstantProductAMM.sol\":259:279  uint256 public price */\n    tag_9:\n      tag_38\n      tag_39\n      jump\t// in\n    tag_38:\n      mload(0x40)\n      tag_40\n      swap2\n      swap1\n      tag_30\n      jump\t// in\n    tag_40:\n      mload(0x40)\n      dup1\n      swap2\n      sub\n      swap1\n      return\n        /* \"contracts/ConstantProductAMM.sol\":417:433  uint256 public K */\n    tag_10:\n      tag_41\n      tag_42\n      jump\t// in\n    tag_41:\n      mload(0x40)\n      tag_43\n      swap2\n      swap1\n      tag_30\n      jump\t// in\n    tag_43:\n      mload(0x40)\n      dup1\n      swap2\n      sub\n      swap1\n      return\n        /* \"contracts/ConstantProductAMM.sol\":175:195  IERC20 public token1 */\n    tag_11:\n      tag_44\n      tag_45\n      jump\t// in\n    tag_44:\n      mload(0x40)\n      tag_46\n      swap2\n      swap1\n      tag_22\n      jump\t// in\n    tag_46:\n      mload(0x40)\n      dup1\n      swap2\n      sub\n      swap1\n      return\n        /* \"contracts/ConstantProductAMM.sol\":1779:2029  function setExchangeRate(uint256 targetPrice) external {... */\n    tag_12:\n      tag_47\n      0x04\n      dup1\n      calldatasize\n      sub\n      dup2\n      add\n      swap1\n      tag_48\n      swap2\n      swap1\n      tag_49\n      jump\t// in\n    tag_48:\n      tag_50\n      jump\t// in\n    tag_47:\n      stop\n        /* \"contracts/ConstantProductAMM.sol\":365:411  uint256 public constant SCALE = 10 ** DECIMALS */\n    tag_13:\n      tag_51\n      tag_52\n      jump\t// in\n    tag_51:\n      mload(0x40)\n      tag_53\n      swap2\n      swap1\n      tag_30\n      jump\t// in\n    tag_53:\n      mload(0x40)\n      dup1\n      swap2\n      sub\n      swap1\n      return\n        /* \"contracts/ConstantProductAMM.sol\":1651:1773  function getReserves() public view returns (uint256, uint256) {... */\n    tag_16:\n        /* \"contracts/ConstantProductAMM.sol\":1695:1702  uint256 */\n      0x00\n        /* \"contracts/ConstantProductAMM.sol\":1704:1711  uint256 */\n      dup1\n        /* \"contracts/ConstantProductAMM.sol\":358:359  3 */\n      0x03\n        /* \"contracts/ConstantProductAMM.sol\":397:399  10 */\n      0x0a\n        /* \"contracts/ConstantProductAMM.sol\":397:411  10 ** DECIMALS */\n      tag_55\n      swap2\n      swap1\n      tag_56\n      jump\t// in\n    tag_55:\n        /* \"contracts/ConstantProductAMM.sol\":1731:1739  reserve0 */\n      sload(0x02)\n        /* \"contracts/ConstantProductAMM.sol\":1731:1747  reserve0 / SCALE */\n      tag_57\n      swap2\n      swap1\n      tag_58\n      jump\t// in\n    tag_57:\n        /* \"contracts/ConstantProductAMM.sol\":358:359  3 */\n      0x03\n        /* \"contracts/ConstantProductAMM.sol\":397:399  10 */\n      0x0a\n        /* \"contracts/ConstantProductAMM.sol\":397:411  10 ** DECIMALS */\n      tag_59\n      swap2\n      swap1\n      tag_56\n      jump\t// in\n    tag_59:\n        /* \"contracts/ConstantProductAMM.sol\":1749:1757  reserve1 */\n      sload(0x03)\n        /* \"contracts/ConstantProductAMM.sol\":1749:1765  reserve1 / SCALE */\n      tag_60\n      swap2\n      swap1\n      tag_58\n      jump\t// in\n    tag_60:\n        /* \"contracts/ConstantProductAMM.sol\":1723:1766  return (reserve0 / SCALE, reserve1 / SCALE) */\n      swap2\n      pop\n      swap2\n      pop\n        /* \"contracts/ConstantProductAMM.sol\":1651:1773  function getReserves() public view returns (uint256, uint256) {... */\n      swap1\n      swap2\n      jump\t// out\n        /* \"contracts/ConstantProductAMM.sol\":149:169  IERC20 public token0 */\n    tag_20:\n      0x00\n      dup1\n      sload\n      swap1\n      0x0100\n      exp\n      swap1\n      div\n      0xffffffffffffffffffffffffffffffffffffffff\n      and\n      dup2\n      jump\t// out\n        /* \"contracts/ConstantProductAMM.sol\":325:359  uint8 public constant DECIMALS = 3 */\n    tag_24:\n        /* \"contracts/ConstantProductAMM.sol\":358:359  3 */\n      0x03\n        /* \"contracts/ConstantProductAMM.sol\":325:359  uint8 public constant DECIMALS = 3 */\n      dup2\n      jump\t// out\n        /* \"contracts/ConstantProductAMM.sol\":201:224  uint256 public reserve0 */\n    tag_28:\n      sload(0x02)\n      dup2\n      jump\t// out\n        /* \"contracts/ConstantProductAMM.sol\":230:253  uint256 public reserve1 */\n    tag_32:\n      sload(0x03)\n      dup2\n      jump\t// out\n        /* \"contracts/ConstantProductAMM.sol\":567:1007  function addLiquidity(uint256 amount0, uint256 amount1) external {... */\n    tag_37:\n        /* \"contracts/ConstantProductAMM.sol\":660:661  0 */\n      0x00\n        /* \"contracts/ConstantProductAMM.sol\":650:657  amount0 */\n      dup3\n        /* \"contracts/ConstantProductAMM.sol\":650:661  amount0 > 0 */\n      gt\n        /* \"contracts/ConstantProductAMM.sol\":650:676  amount0 > 0 && amount1 > 0 */\n      dup1\n      iszero\n      tag_62\n      jumpi\n      pop\n        /* \"contracts/ConstantProductAMM.sol\":675:676  0 */\n      0x00\n        /* \"contracts/ConstantProductAMM.sol\":665:672  amount1 */\n      dup2\n        /* \"contracts/ConstantProductAMM.sol\":665:676  amount1 > 0 */\n      gt\n        /* \"contracts/ConstantProductAMM.sol\":650:676  amount0 > 0 && amount1 > 0 */\n    tag_62:\n        /* \"contracts/ConstantProductAMM.sol\":642:696  require(amount0 > 0 && amount1 > 0, \"Invalid amounts\") */\n      tag_63\n      jumpi\n      mload(0x40)\n      0x08c379a000000000000000000000000000000000000000000000000000000000\n      dup2\n      mstore\n      0x04\n      add\n      tag_64\n      swap1\n      tag_65\n      jump\t// in\n    tag_64:\n      mload(0x40)\n      dup1\n      swap2\n      sub\n      swap1\n      revert\n    tag_63:\n        /* \"contracts/ConstantProductAMM.sol\":706:712  token0 */\n      0x00\n      dup1\n      sload\n      swap1\n      0x0100\n      exp\n      swap1\n      div\n      0xffffffffffffffffffffffffffffffffffffffff\n      and\n        /* \"contracts/ConstantProductAMM.sol\":706:725  token0.transferFrom */\n      0xffffffffffffffffffffffffffffffffffffffff\n      and\n      0x23b872dd\n        /* \"contracts/ConstantProductAMM.sol\":726:736  msg.sender */\n      caller\n        /* \"contracts/ConstantProductAMM.sol\":746:750  this */\n      address\n        /* \"contracts/ConstantProductAMM.sol\":753:760  amount0 */\n      dup6\n        /* \"contracts/ConstantProductAMM.sol\":706:761  token0.transferFrom(msg.sender, address(this), amount0) */\n      mload(0x40)\n      dup5\n      0xffffffff\n      and\n      0xe0\n      shl\n      dup2\n      mstore\n      0x04\n      add\n      tag_66\n      swap4\n      swap3\n      swap2\n      swap1\n      tag_67\n      jump\t// in\n    tag_66:\n      0x20\n      mload(0x40)\n      dup1\n      dup4\n      sub\n      dup2\n      0x00\n      dup8\n      gas\n      call\n      iszero\n      dup1\n      iszero\n      tag_69\n      jumpi\n      returndatasize\n      0x00\n      dup1\n      returndatacopy\n      revert(0x00, returndatasize)\n    tag_69:\n      pop\n      pop\n      pop\n      pop\n      mload(0x40)\n      returndatasize\n      not(0x1f)\n      0x1f\n      dup3\n      add\n      and\n      dup3\n      add\n      dup1\n      0x40\n      mstore\n      pop\n      dup2\n      add\n      swap1\n      tag_70\n      swap2\n      swap1\n      tag_71\n      jump\t// in\n    tag_70:\n      pop\n        /* \"contracts/ConstantProductAMM.sol\":771:777  token1 */\n      0x01\n      0x00\n      swap1\n      sload\n      swap1\n      0x0100\n      exp\n      swap1\n      div\n      0xffffffffffffffffffffffffffffffffffffffff\n      and\n        /* \"contracts/ConstantProductAMM.sol\":771:790  token1.transferFrom */\n      0xffffffffffffffffffffffffffffffffffffffff\n      and\n      0x23b872dd\n        /* \"contracts/ConstantProductAMM.sol\":791:801  msg.sender */\n      caller\n        /* \"contracts/ConstantProductAMM.sol\":811:815  this */\n      address\n        /* \"contracts/ConstantProductAMM.sol\":818:825  amount1 */\n      dup5\n        /* \"contracts/ConstantProductAMM.sol\":771:826  token1.transferFrom(msg.sender, address(this), amount1) */\n      mload(0x40)\n      dup5\n      0xffffffff\n      and\n      0xe0\n      shl\n      dup2\n      mstore\n      0x04\n      add\n      tag_72\n      swap4\n      swap3\n      swap2\n      swap1\n      tag_67\n      jump\t// in\n    tag_72:\n      0x20\n      mload(0x40)\n      dup1\n      dup4\n      sub\n      dup2\n      0x00\n      dup8\n      gas\n      call\n      iszero\n      dup1\n      iszero\n      tag_74\n      jumpi\n      returndatasize\n      0x00\n      dup1\n      returndatacopy\n      revert(0x00, returndatasize)\n    tag_74:\n      pop\n      pop\n      pop\n      pop\n      mload(0x40)\n      returndatasize\n      not(0x1f)\n      0x1f\n      dup3\n      add\n      and\n      dup3\n      add\n      dup1\n      0x40\n      mstore\n      pop\n      dup2\n      add\n      swap1\n      tag_75\n      swap2\n      swap1\n      tag_71\n      jump\t// in\n    tag_75:\n      pop\n        /* \"contracts/ConstantProductAMM.sol\":358:359  3 */\n      0x03\n        /* \"contracts/ConstantProductAMM.sol\":397:399  10 */\n      0x0a\n        /* \"contracts/ConstantProductAMM.sol\":397:411  10 ** DECIMALS */\n      tag_76\n      swap2\n      swap1\n      tag_56\n      jump\t// in\n    tag_76:\n        /* \"contracts/ConstantProductAMM.sol\":848:855  amount0 */\n      dup3\n        /* \"contracts/ConstantProductAMM.sol\":848:863  amount0 * SCALE */\n      tag_77\n      swap2\n      swap1\n      tag_78\n      jump\t// in\n    tag_77:\n        /* \"contracts/ConstantProductAMM.sol\":836:844  reserve0 */\n      0x02\n      0x00\n        /* \"contracts/ConstantProductAMM.sol\":836:863  reserve0 += amount0 * SCALE */\n      dup3\n      dup3\n      sload\n      tag_79\n      swap2\n      swap1\n      tag_80\n      jump\t// in\n    tag_79:\n      swap3\n      pop\n      pop\n      dup2\n      swap1\n      sstore\n      pop\n        /* \"contracts/ConstantProductAMM.sol\":358:359  3 */\n      0x03\n        /* \"contracts/ConstantProductAMM.sol\":397:399  10 */\n      0x0a\n        /* \"contracts/ConstantProductAMM.sol\":397:411  10 ** DECIMALS */\n      tag_81\n      swap2\n      swap1\n      tag_56\n      jump\t// in\n    tag_81:\n        /* \"contracts/ConstantProductAMM.sol\":885:892  amount1 */\n      dup2\n        /* \"contracts/ConstantProductAMM.sol\":885:900  amount1 * SCALE */\n      tag_82\n      swap2\n      swap1\n      tag_78\n      jump\t// in\n    tag_82:\n        /* \"contracts/ConstantProductAMM.sol\":873:881  reserve1 */\n      0x03\n      0x00\n        /* \"contracts/ConstantProductAMM.sol\":873:900  reserve1 += amount1 * SCALE */\n      dup3\n      dup3\n      sload\n      tag_83\n      swap2\n      swap1\n      tag_80\n      jump\t// in\n    tag_83:\n      swap3\n      pop\n      pop\n      dup2\n      swap1\n      sstore\n      pop\n        /* \"contracts/ConstantProductAMM.sol\":923:931  reserve1 */\n      sload(0x03)\n        /* \"contracts/ConstantProductAMM.sol\":914:922  reserve0 */\n      sload(0x02)\n        /* \"contracts/ConstantProductAMM.sol\":914:931  reserve0*reserve1 */\n      tag_84\n      swap2\n      swap1\n      tag_78\n      jump\t// in\n    tag_84:\n        /* \"contracts/ConstantProductAMM.sol\":910:911  K */\n      0x05\n        /* \"contracts/ConstantProductAMM.sol\":910:931  K = reserve0*reserve1 */\n      dup2\n      swap1\n      sstore\n      pop\n        /* \"contracts/ConstantProductAMM.sol\":567:1007  function addLiquidity(uint256 amount0, uint256 amount1) external {... */\n      pop\n      pop\n      jump\t// out\n        /* \"contracts/ConstantProductAMM.sol\":259:279  uint256 public price */\n    tag_39:\n      sload(0x04)\n      dup2\n      jump\t// out\n        /* \"contracts/ConstantProductAMM.sol\":417:433  uint256 public K */\n    tag_42:\n      sload(0x05)\n      dup2\n      jump\t// out\n        /* \"contracts/ConstantProductAMM.sol\":175:195  IERC20 public token1 */\n    tag_45:\n      0x01\n      0x00\n      swap1\n      sload\n      swap1\n      0x0100\n      exp\n      swap1\n      div\n      0xffffffffffffffffffffffffffffffffffffffff\n      and\n      dup2\n      jump\t// out\n        /* \"contracts/ConstantProductAMM.sol\":1779:2029  function setExchangeRate(uint256 targetPrice) external {... */\n    tag_50:\n        /* \"contracts/ConstantProductAMM.sol\":1866:1867  0 */\n      0x00\n        /* \"contracts/ConstantProductAMM.sol\":1852:1863  targetPrice */\n      dup2\n        /* \"contracts/ConstantProductAMM.sol\":1852:1867  targetPrice > 0 */\n      gt\n        /* \"contracts/ConstantProductAMM.sol\":1844:1892  require(targetPrice > 0, \"Invalid target price\") */\n      tag_86\n      jumpi\n      mload(0x40)\n      0x08c379a000000000000000000000000000000000000000000000000000000000\n      dup2\n      mstore\n      0x04\n      add\n      tag_87\n      swap1\n      tag_88\n      jump\t// in\n    tag_87:\n      mload(0x40)\n      dup1\n      swap2\n      sub\n      swap1\n      revert\n    tag_86:\n        /* \"contracts/ConstantProductAMM.sol\":1902:1918  uint256 oldPrice */\n      0x00\n        /* \"contracts/ConstantProductAMM.sol\":1931:1932  0 */\n      dup1\n        /* \"contracts/ConstantProductAMM.sol\":1922:1927  price */\n      sload(0x04)\n        /* \"contracts/ConstantProductAMM.sol\":1922:1932  price == 0 */\n      eq\n        /* \"contracts/ConstantProductAMM.sol\":1921:1955  (price == 0) ? targetPrice : price */\n      tag_89\n      jumpi\n        /* \"contracts/ConstantProductAMM.sol\":1950:1955  price */\n      sload(0x04)\n        /* \"contracts/ConstantProductAMM.sol\":1921:1955  (price == 0) ? targetPrice : price */\n      jump(tag_90)\n    tag_89:\n        /* \"contracts/ConstantProductAMM.sol\":1936:1947  targetPrice */\n      dup2\n        /* \"contracts/ConstantProductAMM.sol\":1921:1955  (price == 0) ? targetPrice : price */\n    tag_90:\n        /* \"contracts/ConstantProductAMM.sol\":1902:1955  uint256 oldPrice = (price == 0) ? targetPrice : price */\n      swap1\n      pop\n        /* \"contracts/ConstantProductAMM.sol\":1973:1984  targetPrice */\n      dup2\n        /* \"contracts/ConstantProductAMM.sol\":1965:1970  price */\n      0x04\n        /* \"contracts/ConstantProductAMM.sol\":1965:1984  price = targetPrice */\n      dup2\n      swap1\n      sstore\n      pop\n        /* \"contracts/ConstantProductAMM.sol\":1994:2022  balancePool(oldPrice, price) */\n      tag_91\n        /* \"contracts/ConstantProductAMM.sol\":2006:2014  oldPrice */\n      dup2\n        /* \"contracts/ConstantProductAMM.sol\":2016:2021  price */\n      sload(0x04)\n        /* \"contracts/ConstantProductAMM.sol\":1994:2005  balancePool */\n      tag_92\n        /* \"contracts/ConstantProductAMM.sol\":1994:2022  balancePool(oldPrice, price) */\n      jump\t// in\n    tag_91:\n        /* \"contracts/ConstantProductAMM.sol\":1834:2029  {... */\n      pop\n        /* \"contracts/ConstantProductAMM.sol\":1779:2029  function setExchangeRate(uint256 targetPrice) external {... */\n      pop\n      jump\t// out\n        /* \"contracts/ConstantProductAMM.sol\":365:411  uint256 public constant SCALE = 10 ** DECIMALS */\n    tag_52:\n        /* \"contracts/ConstantProductAMM.sol\":358:359  3 */\n      0x03\n        /* \"contracts/ConstantProductAMM.sol\":397:399  10 */\n      0x0a\n        /* \"contracts/ConstantProductAMM.sol\":397:411  10 ** DECIMALS */\n      tag_93\n      swap2\n      swap1\n      tag_56\n      jump\t// in\n    tag_93:\n        /* \"contracts/ConstantProductAMM.sol\":365:411  uint256 public constant SCALE = 10 ** DECIMALS */\n      dup2\n      jump\t// out\n        /* \"contracts/ConstantProductAMM.sol\":2035:2667  function balancePool(uint256 oldPrice, uint256 newPrice) internal {... */\n    tag_92:\n        /* \"contracts/ConstantProductAMM.sol\":2127:2135  newPrice */\n      dup1\n        /* \"contracts/ConstantProductAMM.sol\":2115:2123  oldPrice */\n      dup3\n        /* \"contracts/ConstantProductAMM.sol\":2115:2135  oldPrice == newPrice */\n      sub\n        /* \"contracts/ConstantProductAMM.sol\":2111:2167  if (oldPrice == newPrice){... */\n      iszero\n        /* \"contracts/ConstantProductAMM.sol\":2150:2157  return; */\n      tag_94\n        /* \"contracts/ConstantProductAMM.sol\":2111:2167  if (oldPrice == newPrice){... */\n      jumpi\n        /* \"contracts/ConstantProductAMM.sol\":2199:2207  newPrice */\n      dup1\n        /* \"contracts/ConstantProductAMM.sol\":2188:2196  oldPrice */\n      dup3\n        /* \"contracts/ConstantProductAMM.sol\":2188:2207  oldPrice < newPrice */\n      lt\n        /* \"contracts/ConstantProductAMM.sol\":2184:2661  if (oldPrice < newPrice) {// selling TOK0... */\n      iszero\n      tag_96\n      jumpi\n        /* \"contracts/ConstantProductAMM.sol\":2238:2258  uint256 amountToSell */\n      0x00\n        /* \"contracts/ConstantProductAMM.sol\":2272:2288  sqrt(K/newPrice) */\n      tag_97\n        /* \"contracts/ConstantProductAMM.sol\":2279:2287  newPrice */\n      dup3\n        /* \"contracts/ConstantProductAMM.sol\":2277:2278  K */\n      sload(0x05)\n        /* \"contracts/ConstantProductAMM.sol\":2277:2287  K/newPrice */\n      tag_98\n      swap2\n      swap1\n      tag_58\n      jump\t// in\n    tag_98:\n        /* \"contracts/ConstantProductAMM.sol\":2272:2276  sqrt */\n      tag_99\n        /* \"contracts/ConstantProductAMM.sol\":2272:2288  sqrt(K/newPrice) */\n      jump\t// in\n    tag_97:\n        /* \"contracts/ConstantProductAMM.sol\":2261:2269  reserve0 */\n      sload(0x02)\n        /* \"contracts/ConstantProductAMM.sol\":2261:2288  reserve0 - sqrt(K/newPrice) */\n      tag_100\n      swap2\n      swap1\n      tag_101\n      jump\t// in\n    tag_100:\n        /* \"contracts/ConstantProductAMM.sol\":2238:2288  uint256 amountToSell = reserve0 - sqrt(K/newPrice) */\n      swap1\n      pop\n        /* \"contracts/ConstantProductAMM.sol\":2302:2322  uint256 amountEarned */\n      0x00\n        /* \"contracts/ConstantProductAMM.sol\":2340:2348  newPrice */\n      dup3\n        /* \"contracts/ConstantProductAMM.sol\":2325:2337  amountToSell */\n      dup3\n        /* \"contracts/ConstantProductAMM.sol\":2325:2348  amountToSell * newPrice */\n      tag_102\n      swap2\n      swap1\n      tag_78\n      jump\t// in\n    tag_102:\n        /* \"contracts/ConstantProductAMM.sol\":2302:2348  uint256 amountEarned = amountToSell * newPrice */\n      swap1\n      pop\n        /* \"contracts/ConstantProductAMM.sol\":2374:2386  amountToSell */\n      dup2\n        /* \"contracts/ConstantProductAMM.sol\":2362:2370  reserve0 */\n      0x02\n      0x00\n        /* \"contracts/ConstantProductAMM.sol\":2362:2386  reserve0 -= amountToSell */\n      dup3\n      dup3\n      sload\n      tag_103\n      swap2\n      swap1\n      tag_101\n      jump\t// in\n    tag_103:\n      swap3\n      pop\n      pop\n      dup2\n      swap1\n      sstore\n      pop\n        /* \"contracts/ConstantProductAMM.sol\":2412:2424  amountEarned */\n      dup1\n        /* \"contracts/ConstantProductAMM.sol\":2400:2408  reserve1 */\n      0x03\n      0x00\n        /* \"contracts/ConstantProductAMM.sol\":2400:2424  reserve1 += amountEarned */\n      dup3\n      dup3\n      sload\n      tag_104\n      swap2\n      swap1\n      tag_80\n      jump\t// in\n    tag_104:\n      swap3\n      pop\n      pop\n      dup2\n      swap1\n      sstore\n      pop\n        /* \"contracts/ConstantProductAMM.sol\":2209:2435  {// selling TOK0... */\n      pop\n      pop\n        /* \"contracts/ConstantProductAMM.sol\":2184:2661  if (oldPrice < newPrice) {// selling TOK0... */\n      jump(tag_105)\n    tag_96:\n        /* \"contracts/ConstantProductAMM.sol\":2470:2489  uint256 amountToBuy */\n      0x00\n        /* \"contracts/ConstantProductAMM.sol\":2509:2517  reserve0 */\n      sload(0x02)\n        /* \"contracts/ConstantProductAMM.sol\":2492:2508  sqrt(K/newPrice) */\n      tag_106\n        /* \"contracts/ConstantProductAMM.sol\":2499:2507  newPrice */\n      dup4\n        /* \"contracts/ConstantProductAMM.sol\":2497:2498  K */\n      sload(0x05)\n        /* \"contracts/ConstantProductAMM.sol\":2497:2507  K/newPrice */\n      tag_107\n      swap2\n      swap1\n      tag_58\n      jump\t// in\n    tag_107:\n        /* \"contracts/ConstantProductAMM.sol\":2492:2496  sqrt */\n      tag_99\n        /* \"contracts/ConstantProductAMM.sol\":2492:2508  sqrt(K/newPrice) */\n      jump\t// in\n    tag_106:\n        /* \"contracts/ConstantProductAMM.sol\":2492:2517  sqrt(K/newPrice)-reserve0 */\n      tag_108\n      swap2\n      swap1\n      tag_101\n      jump\t// in\n    tag_108:\n        /* \"contracts/ConstantProductAMM.sol\":2470:2517  uint256 amountToBuy = sqrt(K/newPrice)-reserve0 */\n      swap1\n      pop\n        /* \"contracts/ConstantProductAMM.sol\":2532:2551  uint256 amountSpent */\n      0x00\n        /* \"contracts/ConstantProductAMM.sol\":2568:2576  newPrice */\n      dup3\n        /* \"contracts/ConstantProductAMM.sol\":2554:2565  amountToBuy */\n      dup3\n        /* \"contracts/ConstantProductAMM.sol\":2554:2576  amountToBuy * newPrice */\n      tag_109\n      swap2\n      swap1\n      tag_78\n      jump\t// in\n    tag_109:\n        /* \"contracts/ConstantProductAMM.sol\":2532:2576  uint256 amountSpent = amountToBuy * newPrice */\n      swap1\n      pop\n        /* \"contracts/ConstantProductAMM.sol\":2602:2613  amountSpent */\n      dup1\n        /* \"contracts/ConstantProductAMM.sol\":2590:2598  reserve1 */\n      0x03\n      0x00\n        /* \"contracts/ConstantProductAMM.sol\":2590:2613  reserve1 -= amountSpent */\n      dup3\n      dup3\n      sload\n      tag_110\n      swap2\n      swap1\n      tag_101\n      jump\t// in\n    tag_110:\n      swap3\n      pop\n      pop\n      dup2\n      swap1\n      sstore\n      pop\n        /* \"contracts/ConstantProductAMM.sol\":2639:2650  amountToBuy */\n      dup2\n        /* \"contracts/ConstantProductAMM.sol\":2627:2635  reserve0 */\n      0x02\n      0x00\n        /* \"contracts/ConstantProductAMM.sol\":2627:2650  reserve0 += amountToBuy */\n      dup3\n      dup3\n      sload\n      tag_111\n      swap2\n      swap1\n      tag_80\n      jump\t// in\n    tag_111:\n      swap3\n      pop\n      pop\n      dup2\n      swap1\n      sstore\n      pop\n        /* \"contracts/ConstantProductAMM.sol\":2441:2661  { // buying TOK0... */\n      pop\n      pop\n        /* \"contracts/ConstantProductAMM.sol\":2184:2661  if (oldPrice < newPrice) {// selling TOK0... */\n    tag_105:\n        /* \"contracts/ConstantProductAMM.sol\":2035:2667  function balancePool(uint256 oldPrice, uint256 newPrice) internal {... */\n    tag_94:\n      pop\n      pop\n      jump\t// out\n        /* \"contracts/ConstantProductAMM.sol\":2673:2965  function sqrt(uint y) internal pure returns (uint z) {... */\n    tag_99:\n        /* \"contracts/ConstantProductAMM.sol\":2718:2724  uint z */\n      0x00\n        /* \"contracts/ConstantProductAMM.sol\":2744:2745  3 */\n      0x03\n        /* \"contracts/ConstantProductAMM.sol\":2740:2741  y */\n      dup3\n        /* \"contracts/ConstantProductAMM.sol\":2740:2745  y > 3 */\n      gt\n        /* \"contracts/ConstantProductAMM.sol\":2736:2959  if (y > 3) {... */\n      iszero\n      tag_113\n      jumpi\n        /* \"contracts/ConstantProductAMM.sol\":2765:2766  y */\n      dup2\n        /* \"contracts/ConstantProductAMM.sol\":2761:2766  z = y */\n      swap1\n      pop\n        /* \"contracts/ConstantProductAMM.sol\":2780:2786  uint x */\n      0x00\n        /* \"contracts/ConstantProductAMM.sol\":2797:2798  1 */\n      0x01\n        /* \"contracts/ConstantProductAMM.sol\":2793:2794  2 */\n      0x02\n        /* \"contracts/ConstantProductAMM.sol\":2789:2790  y */\n      dup5\n        /* \"contracts/ConstantProductAMM.sol\":2789:2794  y / 2 */\n      tag_114\n      swap2\n      swap1\n      tag_58\n      jump\t// in\n    tag_114:\n        /* \"contracts/ConstantProductAMM.sol\":2789:2798  y / 2 + 1 */\n      tag_115\n      swap2\n      swap1\n      tag_80\n      jump\t// in\n    tag_115:\n        /* \"contracts/ConstantProductAMM.sol\":2780:2798  uint x = y / 2 + 1 */\n      swap1\n      pop\n        /* \"contracts/ConstantProductAMM.sol\":2812:2901  while (x < z) {... */\n    tag_116:\n        /* \"contracts/ConstantProductAMM.sol\":2823:2824  z */\n      dup2\n        /* \"contracts/ConstantProductAMM.sol\":2819:2820  x */\n      dup2\n        /* \"contracts/ConstantProductAMM.sol\":2819:2824  x < z */\n      lt\n        /* \"contracts/ConstantProductAMM.sol\":2812:2901  while (x < z) {... */\n      iszero\n      tag_117\n      jumpi\n        /* \"contracts/ConstantProductAMM.sol\":2848:2849  x */\n      dup1\n        /* \"contracts/ConstantProductAMM.sol\":2844:2849  z = x */\n      swap2\n      pop\n        /* \"contracts/ConstantProductAMM.sol\":2885:2886  2 */\n      0x02\n        /* \"contracts/ConstantProductAMM.sol\":2880:2881  x */\n      dup2\n        /* \"contracts/ConstantProductAMM.sol\":2876:2877  x */\n      dup3\n        /* \"contracts/ConstantProductAMM.sol\":2872:2873  y */\n      dup6\n        /* \"contracts/ConstantProductAMM.sol\":2872:2877  y / x */\n      tag_118\n      swap2\n      swap1\n      tag_58\n      jump\t// in\n    tag_118:\n        /* \"contracts/ConstantProductAMM.sol\":2872:2881  y / x + x */\n      tag_119\n      swap2\n      swap1\n      tag_80\n      jump\t// in\n    tag_119:\n        /* \"contracts/ConstantProductAMM.sol\":2871:2886  (y / x + x) / 2 */\n      tag_120\n      swap2\n      swap1\n      tag_58\n      jump\t// in\n    tag_120:\n        /* \"contracts/ConstantProductAMM.sol\":2867:2886  x = (y / x + x) / 2 */\n      swap1\n      pop\n        /* \"contracts/ConstantProductAMM.sol\":2812:2901  while (x < z) {... */\n      jump(tag_116)\n    tag_117:\n        /* \"contracts/ConstantProductAMM.sol\":2747:2911  {... */\n      pop\n        /* \"contracts/ConstantProductAMM.sol\":2736:2959  if (y > 3) {... */\n      jump(tag_121)\n    tag_113:\n        /* \"contracts/ConstantProductAMM.sol\":2926:2927  0 */\n      0x00\n        /* \"contracts/ConstantProductAMM.sol\":2921:2922  y */\n      dup3\n        /* \"contracts/ConstantProductAMM.sol\":2921:2927  y != 0 */\n      eq\n        /* \"contracts/ConstantProductAMM.sol\":2917:2959  if (y != 0) {... */\n      tag_122\n      jumpi\n        /* \"contracts/ConstantProductAMM.sol\":2947:2948  1 */\n      0x01\n        /* \"contracts/ConstantProductAMM.sol\":2943:2948  z = 1 */\n      swap1\n      pop\n        /* \"contracts/ConstantProductAMM.sol\":2917:2959  if (y != 0) {... */\n    tag_122:\n        /* \"contracts/ConstantProductAMM.sol\":2736:2959  if (y > 3) {... */\n    tag_121:\n        /* \"contracts/ConstantProductAMM.sol\":2673:2965  function sqrt(uint y) internal pure returns (uint z) {... */\n      swap2\n      swap1\n      pop\n      jump\t// out\n        /* \"#utility.yul\":7:84   */\n    tag_123:\n        /* \"#utility.yul\":44:51   */\n      0x00\n        /* \"#utility.yul\":73:78   */\n      dup2\n        /* \"#utility.yul\":62:78   */\n      swap1\n      pop\n        /* \"#utility.yul\":7:84   */\n      swap2\n      swap1\n      pop\n      jump\t// out\n        /* \"#utility.yul\":90:208   */\n    tag_124:\n        /* \"#utility.yul\":177:201   */\n      tag_156\n        /* \"#utility.yul\":195:200   */\n      dup2\n        /* \"#utility.yul\":177:201   */\n      tag_123\n      jump\t// in\n    tag_156:\n        /* \"#utility.yul\":172:175   */\n      dup3\n        /* \"#utility.yul\":165:202   */\n      mstore\n        /* \"#utility.yul\":90:208   */\n      pop\n      pop\n      jump\t// out\n        /* \"#utility.yul\":214:546   */\n    tag_18:\n        /* \"#utility.yul\":335:339   */\n      0x00\n        /* \"#utility.yul\":373:375   */\n      0x40\n        /* \"#utility.yul\":362:371   */\n      dup3\n        /* \"#utility.yul\":358:376   */\n      add\n        /* \"#utility.yul\":350:376   */\n      swap1\n      pop\n        /* \"#utility.yul\":386:457   */\n      tag_158\n        /* \"#utility.yul\":454:455   */\n      0x00\n        /* \"#utility.yul\":443:452   */\n      dup4\n        /* \"#utility.yul\":439:456   */\n      add\n        /* \"#utility.yul\":430:436   */\n      dup6\n        /* \"#utility.yul\":386:457   */\n      tag_124\n      jump\t// in\n    tag_158:\n        /* \"#utility.yul\":467:539   */\n      tag_159\n        /* \"#utility.yul\":535:537   */\n      0x20\n        /* \"#utility.yul\":524:533   */\n      dup4\n        /* \"#utility.yul\":520:538   */\n      add\n        /* \"#utility.yul\":511:517   */\n      dup5\n        /* \"#utility.yul\":467:539   */\n      tag_124\n      jump\t// in\n    tag_159:\n        /* \"#utility.yul\":214:546   */\n      swap4\n      swap3\n      pop\n      pop\n      pop\n      jump\t// out\n        /* \"#utility.yul\":552:678   */\n    tag_125:\n        /* \"#utility.yul\":589:596   */\n      0x00\n        /* \"#utility.yul\":629:671   */\n      0xffffffffffffffffffffffffffffffffffffffff\n        /* \"#utility.yul\":622:627   */\n      dup3\n        /* \"#utility.yul\":618:672   */\n      and\n        /* \"#utility.yul\":607:672   */\n      swap1\n      pop\n        /* \"#utility.yul\":552:678   */\n      swap2\n      swap1\n      pop\n      jump\t// out\n        /* \"#utility.yul\":684:744   */\n    tag_126:\n        /* \"#utility.yul\":712:715   */\n      0x00\n        /* \"#utility.yul\":733:738   */\n      dup2\n        /* \"#utility.yul\":726:738   */\n      swap1\n      pop\n        /* \"#utility.yul\":684:744   */\n      swap2\n      swap1\n      pop\n      jump\t// out\n        /* \"#utility.yul\":750:892   */\n    tag_127:\n        /* \"#utility.yul\":800:809   */\n      0x00\n        /* \"#utility.yul\":833:886   */\n      tag_163\n        /* \"#utility.yul\":851:885   */\n      tag_164\n        /* \"#utility.yul\":860:884   */\n      tag_165\n        /* \"#utility.yul\":878:883   */\n      dup5\n        /* \"#utility.yul\":860:884   */\n      tag_125\n      jump\t// in\n    tag_165:\n        /* \"#utility.yul\":851:885   */\n      tag_126\n      jump\t// in\n    tag_164:\n        /* \"#utility.yul\":833:886   */\n      tag_125\n      jump\t// in\n    tag_163:\n        /* \"#utility.yul\":820:886   */\n      swap1\n      pop\n        /* \"#utility.yul\":750:892   */\n      swap2\n      swap1\n      pop\n      jump\t// out\n        /* \"#utility.yul\":898:1024   */\n    tag_128:\n        /* \"#utility.yul\":948:957   */\n      0x00\n        /* \"#utility.yul\":981:1018   */\n      tag_167\n        /* \"#utility.yul\":1012:1017   */\n      dup3\n        /* \"#utility.yul\":981:1018   */\n      tag_127\n      jump\t// in\n    tag_167:\n        /* \"#utility.yul\":968:1018   */\n      swap1\n      pop\n        /* \"#utility.yul\":898:1024   */\n      swap2\n      swap1\n      pop\n      jump\t// out\n        /* \"#utility.yul\":1030:1169   */\n    tag_129:\n        /* \"#utility.yul\":1093:1102   */\n      0x00\n        /* \"#utility.yul\":1126:1163   */\n      tag_169\n        /* \"#utility.yul\":1157:1162   */\n      dup3\n        /* \"#utility.yul\":1126:1163   */\n      tag_128\n      jump\t// in\n    tag_169:\n        /* \"#utility.yul\":1113:1163   */\n      swap1\n      pop\n        /* \"#utility.yul\":1030:1169   */\n      swap2\n      swap1\n      pop\n      jump\t// out\n        /* \"#utility.yul\":1175:1332   */\n    tag_130:\n        /* \"#utility.yul\":1275:1325   */\n      tag_171\n        /* \"#utility.yul\":1319:1324   */\n      dup2\n        /* \"#utility.yul\":1275:1325   */\n      tag_129\n      jump\t// in\n    tag_171:\n        /* \"#utility.yul\":1270:1273   */\n      dup3\n        /* \"#utility.yul\":1263:1326   */\n      mstore\n        /* \"#utility.yul\":1175:1332   */\n      pop\n      pop\n      jump\t// out\n        /* \"#utility.yul\":1338:1586   */\n    tag_22:\n        /* \"#utility.yul\":1444:1448   */\n      0x00\n        /* \"#utility.yul\":1482:1484   */\n      0x20\n        /* \"#utility.yul\":1471:1480   */\n      dup3\n        /* \"#utility.yul\":1467:1485   */\n      add\n        /* \"#utility.yul\":1459:1485   */\n      swap1\n      pop\n        /* \"#utility.yul\":1495:1579   */\n      tag_173\n        /* \"#utility.yul\":1576:1577   */\n      0x00\n        /* \"#utility.yul\":1565:1574   */\n      dup4\n        /* \"#utility.yul\":1561:1578   */\n      add\n        /* \"#utility.yul\":1552:1558   */\n      dup5\n        /* \"#utility.yul\":1495:1579   */\n      tag_130\n      jump\t// in\n    tag_173:\n        /* \"#utility.yul\":1338:1586   */\n      swap3\n      swap2\n      pop\n      pop\n      jump\t// out\n        /* \"#utility.yul\":1592:1678   */\n    tag_131:\n        /* \"#utility.yul\":1627:1634   */\n      0x00\n        /* \"#utility.yul\":1667:1671   */\n      0xff\n        /* \"#utility.yul\":1660:1665   */\n      dup3\n        /* \"#utility.yul\":1656:1672   */\n      and\n        /* \"#utility.yul\":1645:1672   */\n      swap1\n      pop\n        /* \"#utility.yul\":1592:1678   */\n      swap2\n      swap1\n      pop\n      jump\t// out\n        /* \"#utility.yul\":1684:1796   */\n    tag_132:\n        /* \"#utility.yul\":1767:1789   */\n      tag_176\n        /* \"#utility.yul\":1783:1788   */\n      dup2\n        /* \"#utility.yul\":1767:1789   */\n      tag_131\n      jump\t// in\n    tag_176:\n        /* \"#utility.yul\":1762:1765   */\n      dup3\n        /* \"#utility.yul\":1755:1790   */\n      mstore\n        /* \"#utility.yul\":1684:1796   */\n      pop\n      pop\n      jump\t// out\n        /* \"#utility.yul\":1802:2016   */\n    tag_26:\n        /* \"#utility.yul\":1891:1895   */\n      0x00\n        /* \"#utility.yul\":1929:1931   */\n      0x20\n        /* \"#utility.yul\":1918:1927   */\n      dup3\n        /* \"#utility.yul\":1914:1932   */\n      add\n        /* \"#utility.yul\":1906:1932   */\n      swap1\n      pop\n        /* \"#utility.yul\":1942:2009   */\n      tag_178\n        /* \"#utility.yul\":2006:2007   */\n      0x00\n        /* \"#utility.yul\":1995:2004   */\n      dup4\n        /* \"#utility.yul\":1991:2008   */\n      add\n        /* \"#utility.yul\":1982:1988   */\n      dup5\n        /* \"#utility.yul\":1942:2009   */\n      tag_132\n      jump\t// in\n    tag_178:\n        /* \"#utility.yul\":1802:2016   */\n      swap3\n      swap2\n      pop\n      pop\n      jump\t// out\n        /* \"#utility.yul\":2022:2244   */\n    tag_30:\n        /* \"#utility.yul\":2115:2119   */\n      0x00\n        /* \"#utility.yul\":2153:2155   */\n      0x20\n        /* \"#utility.yul\":2142:2151   */\n      dup3\n        /* \"#utility.yul\":2138:2156   */\n      add\n        /* \"#utility.yul\":2130:2156   */\n      swap1\n      pop\n        /* \"#utility.yul\":2166:2237   */\n      tag_180\n        /* \"#utility.yul\":2234:2235   */\n      0x00\n        /* \"#utility.yul\":2223:2232   */\n      dup4\n        /* \"#utility.yul\":2219:2236   */\n      add\n        /* \"#utility.yul\":2210:2216   */\n      dup5\n        /* \"#utility.yul\":2166:2237   */\n      tag_124\n      jump\t// in\n    tag_180:\n        /* \"#utility.yul\":2022:2244   */\n      swap3\n      swap2\n      pop\n      pop\n      jump\t// out\n        /* \"#utility.yul\":2331:2448   */\n    tag_134:\n        /* \"#utility.yul\":2440:2441   */\n      0x00\n        /* \"#utility.yul\":2437:2438   */\n      dup1\n        /* \"#utility.yul\":2430:2442   */\n      revert\n        /* \"#utility.yul\":2577:2699   */\n    tag_136:\n        /* \"#utility.yul\":2650:2674   */\n      tag_185\n        /* \"#utility.yul\":2668:2673   */\n      dup2\n        /* \"#utility.yul\":2650:2674   */\n      tag_123\n      jump\t// in\n    tag_185:\n        /* \"#utility.yul\":2643:2648   */\n      dup2\n        /* \"#utility.yul\":2640:2675   */\n      eq\n        /* \"#utility.yul\":2630:2693   */\n      tag_186\n      jumpi\n        /* \"#utility.yul\":2689:2690   */\n      0x00\n        /* \"#utility.yul\":2686:2687   */\n      dup1\n        /* \"#utility.yul\":2679:2691   */\n      revert\n        /* \"#utility.yul\":2630:2693   */\n    tag_186:\n        /* \"#utility.yul\":2577:2699   */\n      pop\n      jump\t// out\n        /* \"#utility.yul\":2705:2844   */\n    tag_137:\n        /* \"#utility.yul\":2751:2756   */\n      0x00\n        /* \"#utility.yul\":2789:2795   */\n      dup2\n        /* \"#utility.yul\":2776:2796   */\n      calldataload\n        /* \"#utility.yul\":2767:2796   */\n      swap1\n      pop\n        /* \"#utility.yul\":2805:2838   */\n      tag_188\n        /* \"#utility.yul\":2832:2837   */\n      dup2\n        /* \"#utility.yul\":2805:2838   */\n      tag_136\n      jump\t// in\n    tag_188:\n        /* \"#utility.yul\":2705:2844   */\n      swap3\n      swap2\n      pop\n      pop\n      jump\t// out\n        /* \"#utility.yul\":2850:3324   */\n    tag_36:\n        /* \"#utility.yul\":2918:2924   */\n      0x00\n        /* \"#utility.yul\":2926:2932   */\n      dup1\n        /* \"#utility.yul\":2975:2977   */\n      0x40\n        /* \"#utility.yul\":2963:2972   */\n      dup4\n        /* \"#utility.yul\":2954:2961   */\n      dup6\n        /* \"#utility.yul\":2950:2973   */\n      sub\n        /* \"#utility.yul\":2946:2978   */\n      slt\n        /* \"#utility.yul\":2943:3062   */\n      iszero\n      tag_190\n      jumpi\n        /* \"#utility.yul\":2981:3060   */\n      tag_191\n      tag_134\n      jump\t// in\n    tag_191:\n        /* \"#utility.yul\":2943:3062   */\n    tag_190:\n        /* \"#utility.yul\":3101:3102   */\n      0x00\n        /* \"#utility.yul\":3126:3179   */\n      tag_192\n        /* \"#utility.yul\":3171:3178   */\n      dup6\n        /* \"#utility.yul\":3162:3168   */\n      dup3\n        /* \"#utility.yul\":3151:3160   */\n      dup7\n        /* \"#utility.yul\":3147:3169   */\n      add\n        /* \"#utility.yul\":3126:3179   */\n      tag_137\n      jump\t// in\n    tag_192:\n        /* \"#utility.yul\":3116:3179   */\n      swap3\n      pop\n        /* \"#utility.yul\":3072:3189   */\n      pop\n        /* \"#utility.yul\":3228:3230   */\n      0x20\n        /* \"#utility.yul\":3254:3307   */\n      tag_193\n        /* \"#utility.yul\":3299:3306   */\n      dup6\n        /* \"#utility.yul\":3290:3296   */\n      dup3\n        /* \"#utility.yul\":3279:3288   */\n      dup7\n        /* \"#utility.yul\":3275:3297   */\n      add\n        /* \"#utility.yul\":3254:3307   */\n      tag_137\n      jump\t// in\n    tag_193:\n        /* \"#utility.yul\":3244:3307   */\n      swap2\n      pop\n        /* \"#utility.yul\":3199:3317   */\n      pop\n        /* \"#utility.yul\":2850:3324   */\n      swap3\n      pop\n      swap3\n      swap1\n      pop\n      jump\t// out\n        /* \"#utility.yul\":3330:3659   */\n    tag_49:\n        /* \"#utility.yul\":3389:3395   */\n      0x00\n        /* \"#utility.yul\":3438:3440   */\n      0x20\n        /* \"#utility.yul\":3426:3435   */\n      dup3\n        /* \"#utility.yul\":3417:3424   */\n      dup5\n        /* \"#utility.yul\":3413:3436   */\n      sub\n        /* \"#utility.yul\":3409:3441   */\n      slt\n        /* \"#utility.yul\":3406:3525   */\n      iszero\n      tag_195\n      jumpi\n        /* \"#utility.yul\":3444:3523   */\n      tag_196\n      tag_134\n      jump\t// in\n    tag_196:\n        /* \"#utility.yul\":3406:3525   */\n    tag_195:\n        /* \"#utility.yul\":3564:3565   */\n      0x00\n        /* \"#utility.yul\":3589:3642   */\n      tag_197\n        /* \"#utility.yul\":3634:3641   */\n      dup5\n        /* \"#utility.yul\":3625:3631   */\n      dup3\n        /* \"#utility.yul\":3614:3623   */\n      dup6\n        /* \"#utility.yul\":3610:3632   */\n      add\n        /* \"#utility.yul\":3589:3642   */\n      tag_137\n      jump\t// in\n    tag_197:\n        /* \"#utility.yul\":3579:3642   */\n      swap2\n      pop\n        /* \"#utility.yul\":3535:3652   */\n      pop\n        /* \"#utility.yul\":3330:3659   */\n      swap3\n      swap2\n      pop\n      pop\n      jump\t// out\n        /* \"#utility.yul\":3665:3845   */\n    tag_138:\n        /* \"#utility.yul\":3713:3790   */\n      0x4e487b7100000000000000000000000000000000000000000000000000000000\n        /* \"#utility.yul\":3710:3711   */\n      0x00\n        /* \"#utility.yul\":3703:3791   */\n      mstore\n        /* \"#utility.yul\":3810:3814   */\n      0x11\n        /* \"#utility.yul\":3807:3808   */\n      0x04\n        /* \"#utility.yul\":3800:3815   */\n      mstore\n        /* \"#utility.yul\":3834:3838   */\n      0x24\n        /* \"#utility.yul\":3831:3832   */\n      0x00\n        /* \"#utility.yul\":3824:3839   */\n      revert\n        /* \"#utility.yul\":3851:3953   */\n    tag_139:\n        /* \"#utility.yul\":3893:3901   */\n      0x00\n        /* \"#utility.yul\":3940:3945   */\n      dup2\n        /* \"#utility.yul\":3937:3938   */\n      0x01\n        /* \"#utility.yul\":3933:3946   */\n      shr\n        /* \"#utility.yul\":3912:3946   */\n      swap1\n      pop\n        /* \"#utility.yul\":3851:3953   */\n      swap2\n      swap1\n      pop\n      jump\t// out\n        /* \"#utility.yul\":3959:4807   */\n    tag_140:\n        /* \"#utility.yul\":4020:4025   */\n      0x00\n        /* \"#utility.yul\":4027:4031   */\n      dup1\n        /* \"#utility.yul\":4051:4057   */\n      dup3\n        /* \"#utility.yul\":4042:4057   */\n      swap2\n      pop\n        /* \"#utility.yul\":4075:4080   */\n      dup4\n        /* \"#utility.yul\":4066:4080   */\n      swap1\n      pop\n        /* \"#utility.yul\":4089:4801   */\n    tag_201:\n        /* \"#utility.yul\":4110:4111   */\n      0x01\n        /* \"#utility.yul\":4100:4108   */\n      dup6\n        /* \"#utility.yul\":4097:4112   */\n      gt\n        /* \"#utility.yul\":4089:4801   */\n      iszero\n      tag_203\n      jumpi\n        /* \"#utility.yul\":4205:4209   */\n      dup1\n        /* \"#utility.yul\":4200:4203   */\n      dup7\n        /* \"#utility.yul\":4196:4210   */\n      div\n        /* \"#utility.yul\":4190:4194   */\n      dup2\n        /* \"#utility.yul\":4187:4211   */\n      gt\n        /* \"#utility.yul\":4184:4234   */\n      iszero\n      tag_204\n      jumpi\n        /* \"#utility.yul\":4214:4232   */\n      tag_205\n      tag_138\n      jump\t// in\n    tag_205:\n        /* \"#utility.yul\":4184:4234   */\n    tag_204:\n        /* \"#utility.yul\":4264:4265   */\n      0x01\n        /* \"#utility.yul\":4254:4262   */\n      dup6\n        /* \"#utility.yul\":4250:4266   */\n      and\n        /* \"#utility.yul\":4247:4698   */\n      iszero\n      tag_206\n      jumpi\n        /* \"#utility.yul\":4679:4683   */\n      dup1\n        /* \"#utility.yul\":4672:4677   */\n      dup3\n        /* \"#utility.yul\":4668:4684   */\n      mul\n        /* \"#utility.yul\":4659:4684   */\n      swap2\n      pop\n        /* \"#utility.yul\":4247:4698   */\n    tag_206:\n        /* \"#utility.yul\":4729:4733   */\n      dup1\n        /* \"#utility.yul\":4723:4727   */\n      dup2\n        /* \"#utility.yul\":4719:4734   */\n      mul\n        /* \"#utility.yul\":4711:4734   */\n      swap1\n      pop\n        /* \"#utility.yul\":4759:4791   */\n      tag_207\n        /* \"#utility.yul\":4782:4790   */\n      dup6\n        /* \"#utility.yul\":4759:4791   */\n      tag_139\n      jump\t// in\n    tag_207:\n        /* \"#utility.yul\":4747:4791   */\n      swap5\n      pop\n        /* \"#utility.yul\":4089:4801   */\n      jump(tag_201)\n    tag_203:\n        /* \"#utility.yul\":3959:4807   */\n      swap5\n      pop\n      swap5\n      swap3\n      pop\n      pop\n      pop\n      jump\t// out\n        /* \"#utility.yul\":4813:5886   */\n    tag_141:\n        /* \"#utility.yul\":4867:4872   */\n      0x00\n        /* \"#utility.yul\":5058:5066   */\n      dup3\n        /* \"#utility.yul\":5048:5088   */\n      tag_209\n      jumpi\n        /* \"#utility.yul\":5079:5080   */\n      0x01\n        /* \"#utility.yul\":5070:5080   */\n      swap1\n      pop\n        /* \"#utility.yul\":5081:5086   */\n      jump(tag_208)\n        /* \"#utility.yul\":5048:5088   */\n    tag_209:\n        /* \"#utility.yul\":5107:5111   */\n      dup2\n        /* \"#utility.yul\":5097:5133   */\n      tag_210\n      jumpi\n        /* \"#utility.yul\":5124:5125   */\n      0x00\n        /* \"#utility.yul\":5115:5125   */\n      swap1\n      pop\n        /* \"#utility.yul\":5126:5131   */\n      jump(tag_208)\n        /* \"#utility.yul\":5097:5133   */\n    tag_210:\n        /* \"#utility.yul\":5193:5197   */\n      dup2\n        /* \"#utility.yul\":5241:5242   */\n      0x01\n        /* \"#utility.yul\":5236:5263   */\n      dup2\n      eq\n      tag_212\n      jumpi\n        /* \"#utility.yul\":5277:5278   */\n      0x02\n        /* \"#utility.yul\":5272:5463   */\n      dup2\n      eq\n      tag_213\n      jumpi\n        /* \"#utility.yul\":5186:5463   */\n      jump(tag_211)\n        /* \"#utility.yul\":5236:5263   */\n    tag_212:\n        /* \"#utility.yul\":5254:5255   */\n      0x01\n        /* \"#utility.yul\":5245:5255   */\n      swap2\n      pop\n        /* \"#utility.yul\":5256:5261   */\n      pop\n      jump(tag_208)\n        /* \"#utility.yul\":5272:5463   */\n    tag_213:\n        /* \"#utility.yul\":5317:5320   */\n      0xff\n        /* \"#utility.yul\":5307:5315   */\n      dup5\n        /* \"#utility.yul\":5304:5321   */\n      gt\n        /* \"#utility.yul\":5301:5344   */\n      iszero\n      tag_214\n      jumpi\n        /* \"#utility.yul\":5324:5342   */\n      tag_215\n      tag_138\n      jump\t// in\n    tag_215:\n        /* \"#utility.yul\":5301:5344   */\n    tag_214:\n        /* \"#utility.yul\":5373:5381   */\n      dup4\n        /* \"#utility.yul\":5370:5371   */\n      0x02\n        /* \"#utility.yul\":5366:5382   */\n      exp\n        /* \"#utility.yul\":5357:5382   */\n      swap2\n      pop\n        /* \"#utility.yul\":5408:5411   */\n      dup5\n        /* \"#utility.yul\":5401:5406   */\n      dup3\n        /* \"#utility.yul\":5398:5412   */\n      gt\n        /* \"#utility.yul\":5395:5435   */\n      iszero\n      tag_216\n      jumpi\n        /* \"#utility.yul\":5415:5433   */\n      tag_217\n      tag_138\n      jump\t// in\n    tag_217:\n        /* \"#utility.yul\":5395:5435   */\n    tag_216:\n        /* \"#utility.yul\":5448:5453   */\n      pop\n      jump(tag_208)\n        /* \"#utility.yul\":5186:5463   */\n    tag_211:\n      pop\n        /* \"#utility.yul\":5572:5574   */\n      0x20\n        /* \"#utility.yul\":5562:5570   */\n      dup4\n        /* \"#utility.yul\":5559:5575   */\n      lt\n        /* \"#utility.yul\":5553:5556   */\n      0x0133\n        /* \"#utility.yul\":5547:5551   */\n      dup4\n        /* \"#utility.yul\":5544:5557   */\n      lt\n        /* \"#utility.yul\":5540:5576   */\n      and\n        /* \"#utility.yul\":5522:5524   */\n      0x4e\n        /* \"#utility.yul\":5512:5520   */\n      dup5\n        /* \"#utility.yul\":5509:5525   */\n      lt\n        /* \"#utility.yul\":5504:5506   */\n      0x0b\n        /* \"#utility.yul\":5498:5502   */\n      dup5\n        /* \"#utility.yul\":5495:5507   */\n      lt\n        /* \"#utility.yul\":5491:5526   */\n      and\n        /* \"#utility.yul\":5475:5586   */\n      or\n        /* \"#utility.yul\":5472:5718   */\n      iszero\n      tag_218\n      jumpi\n        /* \"#utility.yul\":5628:5636   */\n      dup3\n        /* \"#utility.yul\":5622:5626   */\n      dup3\n        /* \"#utility.yul\":5618:5637   */\n      exp\n        /* \"#utility.yul\":5609:5637   */\n      swap1\n      pop\n        /* \"#utility.yul\":5663:5666   */\n      dup4\n        /* \"#utility.yul\":5656:5661   */\n      dup2\n        /* \"#utility.yul\":5653:5667   */\n      gt\n        /* \"#utility.yul\":5650:5690   */\n      iszero\n      tag_219\n      jumpi\n        /* \"#utility.yul\":5670:5688   */\n      tag_220\n      tag_138\n      jump\t// in\n    tag_220:\n        /* \"#utility.yul\":5650:5690   */\n    tag_219:\n        /* \"#utility.yul\":5703:5708   */\n      jump(tag_208)\n        /* \"#utility.yul\":5472:5718   */\n    tag_218:\n        /* \"#utility.yul\":5743:5785   */\n      tag_221\n        /* \"#utility.yul\":5781:5784   */\n      dup5\n        /* \"#utility.yul\":5771:5779   */\n      dup5\n        /* \"#utility.yul\":5765:5769   */\n      dup5\n        /* \"#utility.yul\":5762:5763   */\n      0x01\n        /* \"#utility.yul\":5743:5785   */\n      tag_140\n      jump\t// in\n    tag_221:\n        /* \"#utility.yul\":5728:5785   */\n      swap3\n      pop\n      swap1\n      pop\n        /* \"#utility.yul\":5817:5821   */\n      dup2\n        /* \"#utility.yul\":5812:5815   */\n      dup5\n        /* \"#utility.yul\":5808:5822   */\n      div\n        /* \"#utility.yul\":5801:5806   */\n      dup2\n        /* \"#utility.yul\":5798:5823   */\n      gt\n        /* \"#utility.yul\":5795:5846   */\n      iszero\n      tag_222\n      jumpi\n        /* \"#utility.yul\":5826:5844   */\n      tag_223\n      tag_138\n      jump\t// in\n    tag_223:\n        /* \"#utility.yul\":5795:5846   */\n    tag_222:\n        /* \"#utility.yul\":5875:5879   */\n      dup2\n        /* \"#utility.yul\":5868:5873   */\n      dup2\n        /* \"#utility.yul\":5864:5880   */\n      mul\n        /* \"#utility.yul\":5855:5880   */\n      swap1\n      pop\n        /* \"#utility.yul\":4813:5886   */\n    tag_208:\n      swap4\n      swap3\n      pop\n      pop\n      pop\n      jump\t// out\n        /* \"#utility.yul\":5892:6173   */\n    tag_56:\n        /* \"#utility.yul\":5950:5955   */\n      0x00\n        /* \"#utility.yul\":5974:5997   */\n      tag_225\n        /* \"#utility.yul\":5992:5996   */\n      dup3\n        /* \"#utility.yul\":5974:5997   */\n      tag_123\n      jump\t// in\n    tag_225:\n        /* \"#utility.yul\":5966:5997   */\n      swap2\n      pop\n        /* \"#utility.yul\":6018:6043   */\n      tag_226\n        /* \"#utility.yul\":6034:6042   */\n      dup4\n        /* \"#utility.yul\":6018:6043   */\n      tag_131\n      jump\t// in\n    tag_226:\n        /* \"#utility.yul\":6006:6043   */\n      swap3\n      pop\n        /* \"#utility.yul\":6062:6166   */\n      tag_227\n        /* \"#utility.yul\":6099:6165   */\n      0xffffffffffffffffffffffffffffffffffffffffffffffffffffffffffffffff\n        /* \"#utility.yul\":6089:6097   */\n      dup5\n        /* \"#utility.yul\":6083:6087   */\n      dup5\n        /* \"#utility.yul\":6062:6166   */\n      tag_141\n      jump\t// in\n    tag_227:\n        /* \"#utility.yul\":6053:6166   */\n      swap1\n      pop\n        /* \"#utility.yul\":5892:6173   */\n      swap3\n      swap2\n      pop\n      pop\n      jump\t// out\n        /* \"#utility.yul\":6179:6359   */\n    tag_142:\n        /* \"#utility.yul\":6227:6304   */\n      0x4e487b7100000000000000000000000000000000000000000000000000000000\n        /* \"#utility.yul\":6224:6225   */\n      0x00\n        /* \"#utility.yul\":6217:6305   */\n      mstore\n        /* \"#utility.yul\":6324:6328   */\n      0x12\n        /* \"#utility.yul\":6321:6322   */\n      0x04\n        /* \"#utility.yul\":6314:6329   */\n      mstore\n        /* \"#utility.yul\":6348:6352   */\n      0x24\n        /* \"#utility.yul\":6345:6346   */\n      0x00\n        /* \"#utility.yul\":6338:6353   */\n      revert\n        /* \"#utility.yul\":6365:6550   */\n    tag_58:\n        /* \"#utility.yul\":6405:6406   */\n      0x00\n        /* \"#utility.yul\":6422:6442   */\n      tag_230\n        /* \"#utility.yul\":6440:6441   */\n      dup3\n        /* \"#utility.yul\":6422:6442   */\n      tag_123\n      jump\t// in\n    tag_230:\n        /* \"#utility.yul\":6417:6442   */\n      swap2\n      pop\n        /* \"#utility.yul\":6456:6476   */\n      tag_231\n        /* \"#utility.yul\":6474:6475   */\n      dup4\n        /* \"#utility.yul\":6456:6476   */\n      tag_123\n      jump\t// in\n    tag_231:\n        /* \"#utility.yul\":6451:6476   */\n      swap3\n      pop\n        /* \"#utility.yul\":6495:6496   */\n      dup3\n        /* \"#utility.yul\":6485:6520   */\n      tag_232\n      jumpi\n        /* \"#utility.yul\":6500:6518   */\n      tag_233\n      tag_142\n      jump\t// in\n    tag_233:\n        /* \"#utility.yul\":6485:6520   */\n    tag_232:\n        /* \"#utility.yul\":6542:6543   */\n      dup3\n        /* \"#utility.yul\":6539:6540   */\n      dup3\n        /* \"#utility.yul\":6535:6544   */\n      div\n        /* \"#utility.yul\":6530:6544   */\n      swap1\n      pop\n        /* \"#utility.yul\":6365:6550   */\n      swap3\n      swap2\n      pop\n      pop\n      jump\t// out\n        /* \"#utility.yul\":6556:6725   */\n    tag_143:\n        /* \"#utility.yul\":6640:6651   */\n      0x00\n        /* \"#utility.yul\":6674:6680   */\n      dup3\n        /* \"#utility.yul\":6669:6672   */\n      dup3\n        /* \"#utility.yul\":6662:6681   */\n      mstore\n        /* \"#utility.yul\":6714:6718   */\n      0x20\n        /* \"#utility.yul\":6709:6712   */\n      dup3\n        /* \"#utility.yul\":6705:6719   */\n      add\n        /* \"#utility.yul\":6690:6719   */\n      swap1\n      pop\n        /* \"#utility.yul\":6556:6725   */\n      swap3\n      swap2\n      pop\n      pop\n      jump\t// out\n        /* \"#utility.yul\":6731:6896   */\n    tag_144:\n        /* \"#utility.yul\":6871:6888   */\n      0x496e76616c696420616d6f756e74730000000000000000000000000000000000\n        /* \"#utility.yul\":6867:6868   */\n      0x00\n        /* \"#utility.yul\":6859:6865   */\n      dup3\n        /* \"#utility.yul\":6855:6869   */\n      add\n        /* \"#utility.yul\":6848:6889   */\n      mstore\n        /* \"#utility.yul\":6731:6896   */\n      pop\n      jump\t// out\n        /* \"#utility.yul\":6902:7268   */\n    tag_145:\n        /* \"#utility.yul\":7044:7047   */\n      0x00\n        /* \"#utility.yul\":7065:7132   */\n      tag_237\n        /* \"#utility.yul\":7129:7131   */\n      0x0f\n        /* \"#utility.yul\":7124:7127   */\n      dup4\n        /* \"#utility.yul\":7065:7132   */\n      tag_143\n      jump\t// in\n    tag_237:\n        /* \"#utility.yul\":7058:7132   */\n      swap2\n      pop\n        /* \"#utility.yul\":7141:7234   */\n      tag_238\n        /* \"#utility.yul\":7230:7233   */\n      dup3\n        /* \"#utility.yul\":7141:7234   */\n      tag_144\n      jump\t// in\n    tag_238:\n        /* \"#utility.yul\":7259:7261   */\n      0x20\n        /* \"#utility.yul\":7254:7257   */\n      dup3\n        /* \"#utility.yul\":7250:7262   */\n      add\n        /* \"#utility.yul\":7243:7262   */\n      swap1\n      pop\n        /* \"#utility.yul\":6902:7268   */\n      swap2\n      swap1\n      pop\n      jump\t// out\n        /* \"#utility.yul\":7274:7693   */\n    tag_65:\n        /* \"#utility.yul\":7440:7444   */\n      0x00\n        /* \"#utility.yul\":7478:7480   */\n      0x20\n        /* \"#utility.yul\":7467:7476   */\n      dup3\n        /* \"#utility.yul\":7463:7481   */\n      add\n        /* \"#utility.yul\":7455:7481   */\n      swap1\n      pop\n        /* \"#utility.yul\":7527:7536   */\n      dup2\n        /* \"#utility.yul\":7521:7525   */\n      dup2\n        /* \"#utility.yul\":7517:7537   */\n      sub\n        /* \"#utility.yul\":7513:7514   */\n      0x00\n        /* \"#utility.yul\":7502:7511   */\n      dup4\n        /* \"#utility.yul\":7498:7515   */\n      add\n        /* \"#utility.yul\":7491:7538   */\n      mstore\n        /* \"#utility.yul\":7555:7686   */\n      tag_240\n        /* \"#utility.yul\":7681:7685   */\n      dup2\n        /* \"#utility.yul\":7555:7686   */\n      tag_145\n      jump\t// in\n    tag_240:\n        /* \"#utility.yul\":7547:7686   */\n      swap1\n      pop\n        /* \"#utility.yul\":7274:7693   */\n      swap2\n      swap1\n      pop\n      jump\t// out\n        /* \"#utility.yul\":7699:7795   */\n    tag_146:\n        /* \"#utility.yul\":7736:7743   */\n      0x00\n        /* \"#utility.yul\":7765:7789   */\n      tag_242\n        /* \"#utility.yul\":7783:7788   */\n      dup3\n        /* \"#utility.yul\":7765:7789   */\n      tag_125\n      jump\t// in\n    tag_242:\n        /* \"#utility.yul\":7754:7789   */\n      swap1\n      pop\n        /* \"#utility.yul\":7699:7795   */\n      swap2\n      swap1\n      pop\n      jump\t// out\n        /* \"#utility.yul\":7801:7919   */\n    tag_147:\n        /* \"#utility.yul\":7888:7912   */\n      tag_244\n        /* \"#utility.yul\":7906:7911   */\n      dup2\n        /* \"#utility.yul\":7888:7912   */\n      tag_146\n      jump\t// in\n    tag_244:\n        /* \"#utility.yul\":7883:7886   */\n      dup3\n        /* \"#utility.yul\":7876:7913   */\n      mstore\n        /* \"#utility.yul\":7801:7919   */\n      pop\n      pop\n      jump\t// out\n        /* \"#utility.yul\":7925:8367   */\n    tag_67:\n        /* \"#utility.yul\":8074:8078   */\n      0x00\n        /* \"#utility.yul\":8112:8114   */\n      0x60\n        /* \"#utility.yul\":8101:8110   */\n      dup3\n        /* \"#utility.yul\":8097:8115   */\n      add\n        /* \"#utility.yul\":8089:8115   */\n      swap1\n      pop\n        /* \"#utility.yul\":8125:8196   */\n      tag_246\n        /* \"#utility.yul\":8193:8194   */\n      0x00\n        /* \"#utility.yul\":8182:8191   */\n      dup4\n        /* \"#utility.yul\":8178:8195   */\n      add\n        /* \"#utility.yul\":8169:8175   */\n      dup7\n        /* \"#utility.yul\":8125:8196   */\n      tag_147\n      jump\t// in\n    tag_246:\n        /* \"#utility.yul\":8206:8278   */\n      tag_247\n        /* \"#utility.yul\":8274:8276   */\n      0x20\n        /* \"#utility.yul\":8263:8272   */\n      dup4\n        /* \"#utility.yul\":8259:8277   */\n      add\n        /* \"#utility.yul\":8250:8256   */\n      dup6\n        /* \"#utility.yul\":8206:8278   */\n      tag_147\n      jump\t// in\n    tag_247:\n        /* \"#utility.yul\":8288:8360   */\n      tag_248\n        /* \"#utility.yul\":8356:8358   */\n      0x40\n        /* \"#utility.yul\":8345:8354   */\n      dup4\n        /* \"#utility.yul\":8341:8359   */\n      add\n        /* \"#utility.yul\":8332:8338   */\n      dup5\n        /* \"#utility.yul\":8288:8360   */\n      tag_124\n      jump\t// in\n    tag_248:\n        /* \"#utility.yul\":7925:8367   */\n      swap5\n      swap4\n      pop\n      pop\n      pop\n      pop\n      jump\t// out\n        /* \"#utility.yul\":8373:8463   */\n    tag_148:\n        /* \"#utility.yul\":8407:8414   */\n      0x00\n        /* \"#utility.yul\":8450:8455   */\n      dup2\n        /* \"#utility.yul\":8443:8456   */\n      iszero\n        /* \"#utility.yul\":8436:8457   */\n      iszero\n        /* \"#utility.yul\":8425:8457   */\n      swap1\n      pop\n        /* \"#utility.yul\":8373:8463   */\n      swap2\n      swap1\n      pop\n      jump\t// out\n        /* \"#utility.yul\":8469:8585   */\n    tag_149:\n        /* \"#utility.yul\":8539:8560   */\n      tag_251\n        /* \"#utility.yul\":8554:8559   */\n      dup2\n        /* \"#utility.yul\":8539:8560   */\n      tag_148\n      jump\t// in\n    tag_251:\n        /* \"#utility.yul\":8532:8537   */\n      dup2\n        /* \"#utility.yul\":8529:8561   */\n      eq\n        /* \"#utility.yul\":8519:8579   */\n      tag_252\n      jumpi\n        /* \"#utility.yul\":8575:8576   */\n      0x00\n        /* \"#utility.yul\":8572:8573   */\n      dup1\n        /* \"#utility.yul\":8565:8577   */\n      revert\n        /* \"#utility.yul\":8519:8579   */\n    tag_252:\n        /* \"#utility.yul\":8469:8585   */\n      pop\n      jump\t// out\n        /* \"#utility.yul\":8591:8728   */\n    tag_150:\n        /* \"#utility.yul\":8645:8650   */\n      0x00\n        /* \"#utility.yul\":8676:8682   */\n      dup2\n        /* \"#utility.yul\":8670:8683   */\n      mload\n        /* \"#utility.yul\":8661:8683   */\n      swap1\n      pop\n        /* \"#utility.yul\":8692:8722   */\n      tag_254\n        /* \"#utility.yul\":8716:8721   */\n      dup2\n        /* \"#utility.yul\":8692:8722   */\n      tag_149\n      jump\t// in\n    tag_254:\n        /* \"#utility.yul\":8591:8728   */\n      swap3\n      swap2\n      pop\n      pop\n      jump\t// out\n        /* \"#utility.yul\":8734:9079   */\n    tag_71:\n        /* \"#utility.yul\":8801:8807   */\n      0x00\n        /* \"#utility.yul\":8850:8852   */\n      0x20\n        /* \"#utility.yul\":8838:8847   */\n      dup3\n        /* \"#utility.yul\":8829:8836   */\n      dup5\n        /* \"#utility.yul\":8825:8848   */\n      sub\n        /* \"#utility.yul\":8821:8853   */\n      slt\n        /* \"#utility.yul\":8818:8937   */\n      iszero\n      tag_256\n      jumpi\n        /* \"#utility.yul\":8856:8935   */\n      tag_257\n      tag_134\n      jump\t// in\n    tag_257:\n        /* \"#utility.yul\":8818:8937   */\n    tag_256:\n        /* \"#utility.yul\":8976:8977   */\n      0x00\n        /* \"#utility.yul\":9001:9062   */\n      tag_258\n        /* \"#utility.yul\":9054:9061   */\n      dup5\n        /* \"#utility.yul\":9045:9051   */\n      dup3\n        /* \"#utility.yul\":9034:9043   */\n      dup6\n        /* \"#utility.yul\":9030:9052   */\n      add\n        /* \"#utility.yul\":9001:9062   */\n      tag_150\n      jump\t// in\n    tag_258:\n        /* \"#utility.yul\":8991:9062   */\n      swap2\n      pop\n        /* \"#utility.yul\":8947:9072   */\n      pop\n        /* \"#utility.yul\":8734:9079   */\n      swap3\n      swap2\n      pop\n      pop\n      jump\t// out\n        /* \"#utility.yul\":9085:9495   */\n    tag_78:\n        /* \"#utility.yul\":9125:9132   */\n      0x00\n        /* \"#utility.yul\":9148:9168   */\n      tag_260\n        /* \"#utility.yul\":9166:9167   */\n      dup3\n        /* \"#utility.yul\":9148:9168   */\n      tag_123\n      jump\t// in\n    tag_260:\n        /* \"#utility.yul\":9143:9168   */\n      swap2\n      pop\n        /* \"#utility.yul\":9182:9202   */\n      tag_261\n        /* \"#utility.yul\":9200:9201   */\n      dup4\n        /* \"#utility.yul\":9182:9202   */\n      tag_123\n      jump\t// in\n    tag_261:\n        /* \"#utility.yul\":9177:9202   */\n      swap3\n      pop\n        /* \"#utility.yul\":9237:9238   */\n      dup3\n        /* \"#utility.yul\":9234:9235   */\n      dup3\n        /* \"#utility.yul\":9230:9239   */\n      mul\n        /* \"#utility.yul\":9259:9289   */\n      tag_262\n        /* \"#utility.yul\":9277:9288   */\n      dup2\n        /* \"#utility.yul\":9259:9289   */\n      tag_123\n      jump\t// in\n    tag_262:\n        /* \"#utility.yul\":9248:9289   */\n      swap2\n      pop\n        /* \"#utility.yul\":9438:9439   */\n      dup3\n        /* \"#utility.yul\":9429:9436   */\n      dup3\n        /* \"#utility.yul\":9425:9440   */\n      div\n        /* \"#utility.yul\":9422:9423   */\n      dup5\n        /* \"#utility.yul\":9419:9441   */\n      eq\n        /* \"#utility.yul\":9399:9400   */\n      dup4\n        /* \"#utility.yul\":9392:9401   */\n      iszero\n        /* \"#utility.yul\":9372:9455   */\n      or\n        /* \"#utility.yul\":9349:9488   */\n      tag_263\n      jumpi\n        /* \"#utility.yul\":9468:9486   */\n      tag_264\n      tag_138\n      jump\t// in\n    tag_264:\n        /* \"#utility.yul\":9349:9488   */\n    tag_263:\n        /* \"#utility.yul\":9133:9495   */\n      pop\n        /* \"#utility.yul\":9085:9495   */\n      swap3\n      swap2\n      pop\n      pop\n      jump\t// out\n        /* \"#utility.yul\":9501:9692   */\n    tag_80:\n        /* \"#utility.yul\":9541:9544   */\n      0x00\n        /* \"#utility.yul\":9560:9580   */\n      tag_266\n        /* \"#utility.yul\":9578:9579   */\n      dup3\n        /* \"#utility.yul\":9560:9580   */\n      tag_123\n      jump\t// in\n    tag_266:\n        /* \"#utility.yul\":9555:9580   */\n      swap2\n      pop\n        /* \"#utility.yul\":9594:9614   */\n      tag_267\n        /* \"#utility.yul\":9612:9613   */\n      dup4\n        /* \"#utility.yul\":9594:9614   */\n      tag_123\n      jump\t// in\n    tag_267:\n        /* \"#utility.yul\":9589:9614   */\n      swap3\n      pop\n        /* \"#utility.yul\":9637:9638   */\n      dup3\n        /* \"#utility.yul\":9634:9635   */\n      dup3\n        /* \"#utility.yul\":9630:9639   */\n      add\n        /* \"#utility.yul\":9623:9639   */\n      swap1\n      pop\n        /* \"#utility.yul\":9658:9661   */\n      dup1\n        /* \"#utility.yul\":9655:9656   */\n      dup3\n        /* \"#utility.yul\":9652:9662   */\n      gt\n        /* \"#utility.yul\":9649:9685   */\n      iszero\n      tag_268\n      jumpi\n        /* \"#utility.yul\":9665:9683   */\n      tag_269\n      tag_138\n      jump\t// in\n    tag_269:\n        /* \"#utility.yul\":9649:9685   */\n    tag_268:\n        /* \"#utility.yul\":9501:9692   */\n      swap3\n      swap2\n      pop\n      pop\n      jump\t// out\n        /* \"#utility.yul\":9698:9868   */\n    tag_151:\n        /* \"#utility.yul\":9838:9860   */\n      0x496e76616c696420746172676574207072696365000000000000000000000000\n        /* \"#utility.yul\":9834:9835   */\n      0x00\n        /* \"#utility.yul\":9826:9832   */\n      dup3\n        /* \"#utility.yul\":9822:9836   */\n      add\n        /* \"#utility.yul\":9815:9861   */\n      mstore\n        /* \"#utility.yul\":9698:9868   */\n      pop\n      jump\t// out\n        /* \"#utility.yul\":9874:10240   */\n    tag_152:\n        /* \"#utility.yul\":10016:10019   */\n      0x00\n        /* \"#utility.yul\":10037:10104   */\n      tag_272\n        /* \"#utility.yul\":10101:10103   */\n      0x14\n        /* \"#utility.yul\":10096:10099   */\n      dup4\n        /* \"#utility.yul\":10037:10104   */\n      tag_143\n      jump\t// in\n    tag_272:\n        /* \"#utility.yul\":10030:10104   */\n      swap2\n      pop\n        /* \"#utility.yul\":10113:10206   */\n      tag_273\n        /* \"#utility.yul\":10202:10205   */\n      dup3\n        /* \"#utility.yul\":10113:10206   */\n      tag_151\n      jump\t// in\n    tag_273:\n        /* \"#utility.yul\":10231:10233   */\n      0x20\n        /* \"#utility.yul\":10226:10229   */\n      dup3\n        /* \"#utility.yul\":10222:10234   */\n      add\n        /* \"#utility.yul\":10215:10234   */\n      swap1\n      pop\n        /* \"#utility.yul\":9874:10240   */\n      swap2\n      swap1\n      pop\n      jump\t// out\n        /* \"#utility.yul\":10246:10665   */\n    tag_88:\n        /* \"#utility.yul\":10412:10416   */\n      0x00\n        /* \"#utility.yul\":10450:10452   */\n      0x20\n        /* \"#utility.yul\":10439:10448   */\n      dup3\n        /* \"#utility.yul\":10435:10453   */\n      add\n        /* \"#utility.yul\":10427:10453   */\n      swap1\n      pop\n        /* \"#utility.yul\":10499:10508   */\n      dup2\n        /* \"#utility.yul\":10493:10497   */\n      dup2\n        /* \"#utility.yul\":10489:10509   */\n      sub\n        /* \"#utility.yul\":10485:10486   */\n      0x00\n        /* \"#utility.yul\":10474:10483   */\n      dup4\n        /* \"#utility.yul\":10470:10487   */\n      add\n        /* \"#utility.yul\":10463:10510   */\n      mstore\n        /* \"#utility.yul\":10527:10658   */\n      tag_275\n        /* \"#utility.yul\":10653:10657   */\n      dup2\n        /* \"#utility.yul\":10527:10658   */\n      tag_152\n      jump\t// in\n    tag_275:\n        /* \"#utility.yul\":10519:10658   */\n      swap1\n      pop\n        /* \"#utility.yul\":10246:10665   */\n      swap2\n      swap1\n      pop\n      jump\t// out\n        /* \"#utility.yul\":10671:10865   */\n    tag_101:\n        /* \"#utility.yul\":10711:10715   */\n      0x00\n        /* \"#utility.yul\":10731:10751   */\n      tag_277\n        /* \"#utility.yul\":10749:10750   */\n      dup3\n        /* \"#utility.yul\":10731:10751   */\n      tag_123\n      jump\t// in\n    tag_277:\n        /* \"#utility.yul\":10726:10751   */\n      swap2\n      pop\n        /* \"#utility.yul\":10765:10785   */\n      tag_278\n        /* \"#utility.yul\":10783:10784   */\n      dup4\n        /* \"#utility.yul\":10765:10785   */\n      tag_123\n      jump\t// in\n    tag_278:\n        /* \"#utility.yul\":10760:10785   */\n      swap3\n      pop\n        /* \"#utility.yul\":10809:10810   */\n      dup3\n        /* \"#utility.yul\":10806:10807   */\n      dup3\n        /* \"#utility.yul\":10802:10811   */\n      sub\n        /* \"#utility.yul\":10794:10811   */\n      swap1\n      pop\n        /* \"#utility.yul\":10833:10834   */\n      dup2\n        /* \"#utility.yul\":10827:10831   */\n      dup2\n        /* \"#utility.yul\":10824:10835   */\n      gt\n        /* \"#utility.yul\":10821:10858   */\n      iszero\n      tag_279\n      jumpi\n        /* \"#utility.yul\":10838:10856   */\n      tag_280\n      tag_138\n      jump\t// in\n    tag_280:\n        /* \"#utility.yul\":10821:10858   */\n    tag_279:\n        /* \"#utility.yul\":10671:10865   */\n      swap3\n      swap2\n      pop\n      pop\n      jump\t// out\n\n    auxdata: 0xa26469706673582212202c20be3966e3d1d1801c70e977c3d563761be1b6a95c579a8f5b629266feedba64736f6c634300081a0033\n}\n",
				"bytecode": {
					"linkReferences": {},
					"object": "608060405234801561001057600080fd5b50604051610e64380380610e648339818101604052810190610032919061011d565b816000806101000a81548173ffffffffffffffffffffffffffffffffffffffff021916908373ffffffffffffffffffffffffffffffffffffffff16021790555080600160006101000a81548173ffffffffffffffffffffffffffffffffffffffff021916908373ffffffffffffffffffffffffffffffffffffffff160217905550505061015d565b600080fd5b600073ffffffffffffffffffffffffffffffffffffffff82169050919050565b60006100ea826100bf565b9050919050565b6100fa816100df565b811461010557600080fd5b50565b600081519050610117816100f1565b92915050565b60008060408385031215610134576101336100ba565b5b600061014285828601610108565b925050602061015385828601610108565b9150509250929050565b610cf88061016c6000396000f3fe608060405234801561001057600080fd5b50600436106100a95760003560e01c80639cd441da116100715780639cd441da14610145578063a035b1fe14610161578063a932492f1461017f578063d21220a71461019d578063db068e0e146101bb578063eced5526146101d7576100a9565b80630902f1ac146100ae5780630dfe1681146100cd5780632e0f2625146100eb578063443cb4bc146101095780635a76f25e14610127575b600080fd5b6100b66101f5565b6040516100c49291906106b2565b60405180910390f35b6100d5610236565b6040516100e2919061075a565b60405180910390f35b6100f361025a565b6040516101009190610791565b60405180910390f35b61011161025f565b60405161011e91906107ac565b60405180910390f35b61012f610265565b60405161013c91906107ac565b60405180910390f35b61015f600480360381019061015a91906107f8565b61026b565b005b61016961047a565b60405161017691906107ac565b60405180910390f35b610187610480565b60405161019491906107ac565b60405180910390f35b6101a5610486565b6040516101b2919061075a565b60405180910390f35b6101d560048036038101906101d09190610838565b6104ac565b005b6101df61051d565b6040516101ec91906107ac565b60405180910390f35b6000806003600a61020691906109c7565b6002546102139190610a41565b6003600a61022191906109c7565b60035461022e9190610a41565b915091509091565b60008054906101000a900473ffffffffffffffffffffffffffffffffffffffff1681565b600381565b60025481565b60035481565b60008211801561027b5750600081115b6102ba576040517f08c379a00000000000000000000000000000000000000000000000000000000081526004016102b190610acf565b60405180910390fd5b60008054906101000a900473ffffffffffffffffffffffffffffffffffffffff1673ffffffffffffffffffffffffffffffffffffffff166323b872dd3330856040518463ffffffff1660e01b815260040161031793929190610b10565b6020604051808303816000875af1158015610336573d6000803e3d6000fd5b505050506040513d601f19601f8201168201806040525081019061035a9190610b7f565b50600160009054906101000a900473ffffffffffffffffffffffffffffffffffffffff1673ffffffffffffffffffffffffffffffffffffffff166323b872dd3330846040518463ffffffff1660e01b81526004016103ba93929190610b10565b6020604051808303816000875af11580156103d9573d6000803e3d6000fd5b505050506040513d601f19601f820116820180604052508101906103fd9190610b7f565b506003600a61040c91906109c7565b826104179190610bac565b600260008282546104289190610bee565b925050819055506003600a61043d91906109c7565b816104489190610bac565b600360008282546104599190610bee565b925050819055506003546002546104709190610bac565b6005819055505050565b60045481565b60055481565b600160009054906101000a900473ffffffffffffffffffffffffffffffffffffffff1681565b600081116104ef576040517f08c379a00000000000000000000000000000000000000000000000000000000081526004016104e690610c6e565b60405180910390fd5b6000806004541461050257600454610504565b815b9050816004819055506105198160045461052e565b5050565b6003600a61052b91906109c7565b81565b8082031561061b57808210156105ae576000610556826005546105519190610a41565b61061f565b6002546105639190610c8e565b9050600082826105739190610bac565b905081600260008282546105879190610c8e565b9250508190555080600360008282546105a09190610bee565b92505081905550505061061a565b60006002546105c9836005546105c49190610a41565b61061f565b6105d39190610c8e565b9050600082826105e39190610bac565b905080600360008282546105f79190610c8e565b9250508190555081600260008282546106109190610bee565b9250508190555050505b5b5050565b60006003821115610686578190506000600160028461063e9190610a41565b6106489190610bee565b90505b818110156106805780915060028182856106659190610a41565b61066f9190610bee565b6106799190610a41565b905061064b565b50610694565b6000821461069357600190505b5b919050565b6000819050919050565b6106ac81610699565b82525050565b60006040820190506106c760008301856106a3565b6106d460208301846106a3565b9392505050565b600073ffffffffffffffffffffffffffffffffffffffff82169050919050565b6000819050919050565b600061072061071b610716846106db565b6106fb565b6106db565b9050919050565b600061073282610705565b9050919050565b600061074482610727565b9050919050565b61075481610739565b82525050565b600060208201905061076f600083018461074b565b92915050565b600060ff82169050919050565b61078b81610775565b82525050565b60006020820190506107a66000830184610782565b92915050565b60006020820190506107c160008301846106a3565b92915050565b600080fd5b6107d581610699565b81146107e057600080fd5b50565b6000813590506107f2816107cc565b92915050565b6000806040838503121561080f5761080e6107c7565b5b600061081d858286016107e3565b925050602061082e858286016107e3565b9150509250929050565b60006020828403121561084e5761084d6107c7565b5b600061085c848285016107e3565b91505092915050565b7f4e487b7100000000000000000000000000000000000000000000000000000000600052601160045260246000fd5b60008160011c9050919050565b6000808291508390505b60018511156108eb578086048111156108c7576108c6610865565b5b60018516156108d65780820291505b80810290506108e485610894565b94506108ab565b94509492505050565b60008261090457600190506109c0565b8161091257600090506109c0565b8160018114610928576002811461093257610961565b60019150506109c0565b60ff84111561094457610943610865565b5b8360020a91508482111561095b5761095a610865565b5b506109c0565b5060208310610133831016604e8410600b84101617156109965782820a90508381111561099157610990610865565b5b6109c0565b6109a384848460016108a1565b925090508184048111156109ba576109b9610865565b5b81810290505b9392505050565b60006109d282610699565b91506109dd83610775565b9250610a0a7fffffffffffffffffffffffffffffffffffffffffffffffffffffffffffffffff84846108f4565b905092915050565b7f4e487b7100000000000000000000000000000000000000000000000000000000600052601260045260246000fd5b6000610a4c82610699565b9150610a5783610699565b925082610a6757610a66610a12565b5b828204905092915050565b600082825260208201905092915050565b7f496e76616c696420616d6f756e74730000000000000000000000000000000000600082015250565b6000610ab9600f83610a72565b9150610ac482610a83565b602082019050919050565b60006020820190508181036000830152610ae881610aac565b9050919050565b6000610afa826106db565b9050919050565b610b0a81610aef565b82525050565b6000606082019050610b256000830186610b01565b610b326020830185610b01565b610b3f60408301846106a3565b949350505050565b60008115159050919050565b610b5c81610b47565b8114610b6757600080fd5b50565b600081519050610b7981610b53565b92915050565b600060208284031215610b9557610b946107c7565b5b6000610ba384828501610b6a565b91505092915050565b6000610bb782610699565b9150610bc283610699565b9250828202610bd081610699565b91508282048414831517610be757610be6610865565b5b5092915050565b6000610bf982610699565b9150610c0483610699565b9250828201905080821115610c1c57610c1b610865565b5b92915050565b7f496e76616c696420746172676574207072696365000000000000000000000000600082015250565b6000610c58601483610a72565b9150610c6382610c22565b602082019050919050565b60006020820190508181036000830152610c8781610c4b565b9050919050565b6000610c9982610699565b9150610ca483610699565b9250828203905081811115610cbc57610cbb610865565b5b9291505056fea26469706673582212202c20be3966e3d1d1801c70e977c3d563761be1b6a95c579a8f5b629266feedba64736f6c634300081a0033",
					"opcodes": "PUSH1 0x80 PUSH1 0x40 MSTORE CALLVALUE DUP1 ISZERO PUSH2 0x10 JUMPI PUSH1 0x0 DUP1 REVERT JUMPDEST POP PUSH1 0x40 MLOAD PUSH2 0xE64 CODESIZE SUB DUP1 PUSH2 0xE64 DUP4 CODECOPY DUP2 DUP2 ADD PUSH1 0x40 MSTORE DUP2 ADD SWAP1 PUSH2 0x32 SWAP2 SWAP1 PUSH2 0x11D JUMP JUMPDEST DUP2 PUSH1 0x0 DUP1 PUSH2 0x100 EXP DUP2 SLOAD DUP2 PUSH20 0xFFFFFFFFFFFFFFFFFFFFFFFFFFFFFFFFFFFFFFFF MUL NOT AND SWAP1 DUP4 PUSH20 0xFFFFFFFFFFFFFFFFFFFFFFFFFFFFFFFFFFFFFFFF AND MUL OR SWAP1 SSTORE POP DUP1 PUSH1 0x1 PUSH1 0x0 PUSH2 0x100 EXP DUP2 SLOAD DUP2 PUSH20 0xFFFFFFFFFFFFFFFFFFFFFFFFFFFFFFFFFFFFFFFF MUL NOT AND SWAP1 DUP4 PUSH20 0xFFFFFFFFFFFFFFFFFFFFFFFFFFFFFFFFFFFFFFFF AND MUL OR SWAP1 SSTORE POP POP POP PUSH2 0x15D JUMP JUMPDEST PUSH1 0x0 DUP1 REVERT JUMPDEST PUSH1 0x0 PUSH20 0xFFFFFFFFFFFFFFFFFFFFFFFFFFFFFFFFFFFFFFFF DUP3 AND SWAP1 POP SWAP2 SWAP1 POP JUMP JUMPDEST PUSH1 0x0 PUSH2 0xEA DUP3 PUSH2 0xBF JUMP JUMPDEST SWAP1 POP SWAP2 SWAP1 POP JUMP JUMPDEST PUSH2 0xFA DUP2 PUSH2 0xDF JUMP JUMPDEST DUP2 EQ PUSH2 0x105 JUMPI PUSH1 0x0 DUP1 REVERT JUMPDEST POP JUMP JUMPDEST PUSH1 0x0 DUP2 MLOAD SWAP1 POP PUSH2 0x117 DUP2 PUSH2 0xF1 JUMP JUMPDEST SWAP3 SWAP2 POP POP JUMP JUMPDEST PUSH1 0x0 DUP1 PUSH1 0x40 DUP4 DUP6 SUB SLT ISZERO PUSH2 0x134 JUMPI PUSH2 0x133 PUSH2 0xBA JUMP JUMPDEST JUMPDEST PUSH1 0x0 PUSH2 0x142 DUP6 DUP3 DUP7 ADD PUSH2 0x108 JUMP JUMPDEST SWAP3 POP POP PUSH1 0x20 PUSH2 0x153 DUP6 DUP3 DUP7 ADD PUSH2 0x108 JUMP JUMPDEST SWAP2 POP POP SWAP3 POP SWAP3 SWAP1 POP JUMP JUMPDEST PUSH2 0xCF8 DUP1 PUSH2 0x16C PUSH1 0x0 CODECOPY PUSH1 0x0 RETURN INVALID PUSH1 0x80 PUSH1 0x40 MSTORE CALLVALUE DUP1 ISZERO PUSH2 0x10 JUMPI PUSH1 0x0 DUP1 REVERT JUMPDEST POP PUSH1 0x4 CALLDATASIZE LT PUSH2 0xA9 JUMPI PUSH1 0x0 CALLDATALOAD PUSH1 0xE0 SHR DUP1 PUSH4 0x9CD441DA GT PUSH2 0x71 JUMPI DUP1 PUSH4 0x9CD441DA EQ PUSH2 0x145 JUMPI DUP1 PUSH4 0xA035B1FE EQ PUSH2 0x161 JUMPI DUP1 PUSH4 0xA932492F EQ PUSH2 0x17F JUMPI DUP1 PUSH4 0xD21220A7 EQ PUSH2 0x19D JUMPI DUP1 PUSH4 0xDB068E0E EQ PUSH2 0x1BB JUMPI DUP1 PUSH4 0xECED5526 EQ PUSH2 0x1D7 JUMPI PUSH2 0xA9 JUMP JUMPDEST DUP1 PUSH4 0x902F1AC EQ PUSH2 0xAE JUMPI DUP1 PUSH4 0xDFE1681 EQ PUSH2 0xCD JUMPI DUP1 PUSH4 0x2E0F2625 EQ PUSH2 0xEB JUMPI DUP1 PUSH4 0x443CB4BC EQ PUSH2 0x109 JUMPI DUP1 PUSH4 0x5A76F25E EQ PUSH2 0x127 JUMPI JUMPDEST PUSH1 0x0 DUP1 REVERT JUMPDEST PUSH2 0xB6 PUSH2 0x1F5 JUMP JUMPDEST PUSH1 0x40 MLOAD PUSH2 0xC4 SWAP3 SWAP2 SWAP1 PUSH2 0x6B2 JUMP JUMPDEST PUSH1 0x40 MLOAD DUP1 SWAP2 SUB SWAP1 RETURN JUMPDEST PUSH2 0xD5 PUSH2 0x236 JUMP JUMPDEST PUSH1 0x40 MLOAD PUSH2 0xE2 SWAP2 SWAP1 PUSH2 0x75A JUMP JUMPDEST PUSH1 0x40 MLOAD DUP1 SWAP2 SUB SWAP1 RETURN JUMPDEST PUSH2 0xF3 PUSH2 0x25A JUMP JUMPDEST PUSH1 0x40 MLOAD PUSH2 0x100 SWAP2 SWAP1 PUSH2 0x791 JUMP JUMPDEST PUSH1 0x40 MLOAD DUP1 SWAP2 SUB SWAP1 RETURN JUMPDEST PUSH2 0x111 PUSH2 0x25F JUMP JUMPDEST PUSH1 0x40 MLOAD PUSH2 0x11E SWAP2 SWAP1 PUSH2 0x7AC JUMP JUMPDEST PUSH1 0x40 MLOAD DUP1 SWAP2 SUB SWAP1 RETURN JUMPDEST PUSH2 0x12F PUSH2 0x265 JUMP JUMPDEST PUSH1 0x40 MLOAD PUSH2 0x13C SWAP2 SWAP1 PUSH2 0x7AC JUMP JUMPDEST PUSH1 0x40 MLOAD DUP1 SWAP2 SUB SWAP1 RETURN JUMPDEST PUSH2 0x15F PUSH1 0x4 DUP1 CALLDATASIZE SUB DUP2 ADD SWAP1 PUSH2 0x15A SWAP2 SWAP1 PUSH2 0x7F8 JUMP JUMPDEST PUSH2 0x26B JUMP JUMPDEST STOP JUMPDEST PUSH2 0x169 PUSH2 0x47A JUMP JUMPDEST PUSH1 0x40 MLOAD PUSH2 0x176 SWAP2 SWAP1 PUSH2 0x7AC JUMP JUMPDEST PUSH1 0x40 MLOAD DUP1 SWAP2 SUB SWAP1 RETURN JUMPDEST PUSH2 0x187 PUSH2 0x480 JUMP JUMPDEST PUSH1 0x40 MLOAD PUSH2 0x194 SWAP2 SWAP1 PUSH2 0x7AC JUMP JUMPDEST PUSH1 0x40 MLOAD DUP1 SWAP2 SUB SWAP1 RETURN JUMPDEST PUSH2 0x1A5 PUSH2 0x486 JUMP JUMPDEST PUSH1 0x40 MLOAD PUSH2 0x1B2 SWAP2 SWAP1 PUSH2 0x75A JUMP JUMPDEST PUSH1 0x40 MLOAD DUP1 SWAP2 SUB SWAP1 RETURN JUMPDEST PUSH2 0x1D5 PUSH1 0x4 DUP1 CALLDATASIZE SUB DUP2 ADD SWAP1 PUSH2 0x1D0 SWAP2 SWAP1 PUSH2 0x838 JUMP JUMPDEST PUSH2 0x4AC JUMP JUMPDEST STOP JUMPDEST PUSH2 0x1DF PUSH2 0x51D JUMP JUMPDEST PUSH1 0x40 MLOAD PUSH2 0x1EC SWAP2 SWAP1 PUSH2 0x7AC JUMP JUMPDEST PUSH1 0x40 MLOAD DUP1 SWAP2 SUB SWAP1 RETURN JUMPDEST PUSH1 0x0 DUP1 PUSH1 0x3 PUSH1 0xA PUSH2 0x206 SWAP2 SWAP1 PUSH2 0x9C7 JUMP JUMPDEST PUSH1 0x2 SLOAD PUSH2 0x213 SWAP2 SWAP1 PUSH2 0xA41 JUMP JUMPDEST PUSH1 0x3 PUSH1 0xA PUSH2 0x221 SWAP2 SWAP1 PUSH2 0x9C7 JUMP JUMPDEST PUSH1 0x3 SLOAD PUSH2 0x22E SWAP2 SWAP1 PUSH2 0xA41 JUMP JUMPDEST SWAP2 POP SWAP2 POP SWAP1 SWAP2 JUMP JUMPDEST PUSH1 0x0 DUP1 SLOAD SWAP1 PUSH2 0x100 EXP SWAP1 DIV PUSH20 0xFFFFFFFFFFFFFFFFFFFFFFFFFFFFFFFFFFFFFFFF AND DUP2 JUMP JUMPDEST PUSH1 0x3 DUP2 JUMP JUMPDEST PUSH1 0x2 SLOAD DUP2 JUMP JUMPDEST PUSH1 0x3 SLOAD DUP2 JUMP JUMPDEST PUSH1 0x0 DUP3 GT DUP1 ISZERO PUSH2 0x27B JUMPI POP PUSH1 0x0 DUP2 GT JUMPDEST PUSH2 0x2BA JUMPI PUSH1 0x40 MLOAD PUSH32 0x8C379A000000000000000000000000000000000000000000000000000000000 DUP2 MSTORE PUSH1 0x4 ADD PUSH2 0x2B1 SWAP1 PUSH2 0xACF JUMP JUMPDEST PUSH1 0x40 MLOAD DUP1 SWAP2 SUB SWAP1 REVERT JUMPDEST PUSH1 0x0 DUP1 SLOAD SWAP1 PUSH2 0x100 EXP SWAP1 DIV PUSH20 0xFFFFFFFFFFFFFFFFFFFFFFFFFFFFFFFFFFFFFFFF AND PUSH20 0xFFFFFFFFFFFFFFFFFFFFFFFFFFFFFFFFFFFFFFFF AND PUSH4 0x23B872DD CALLER ADDRESS DUP6 PUSH1 0x40 MLOAD DUP5 PUSH4 0xFFFFFFFF AND PUSH1 0xE0 SHL DUP2 MSTORE PUSH1 0x4 ADD PUSH2 0x317 SWAP4 SWAP3 SWAP2 SWAP1 PUSH2 0xB10 JUMP JUMPDEST PUSH1 0x20 PUSH1 0x40 MLOAD DUP1 DUP4 SUB DUP2 PUSH1 0x0 DUP8 GAS CALL ISZERO DUP1 ISZERO PUSH2 0x336 JUMPI RETURNDATASIZE PUSH1 0x0 DUP1 RETURNDATACOPY RETURNDATASIZE PUSH1 0x0 REVERT JUMPDEST POP POP POP POP PUSH1 0x40 MLOAD RETURNDATASIZE PUSH1 0x1F NOT PUSH1 0x1F DUP3 ADD AND DUP3 ADD DUP1 PUSH1 0x40 MSTORE POP DUP2 ADD SWAP1 PUSH2 0x35A SWAP2 SWAP1 PUSH2 0xB7F JUMP JUMPDEST POP PUSH1 0x1 PUSH1 0x0 SWAP1 SLOAD SWAP1 PUSH2 0x100 EXP SWAP1 DIV PUSH20 0xFFFFFFFFFFFFFFFFFFFFFFFFFFFFFFFFFFFFFFFF AND PUSH20 0xFFFFFFFFFFFFFFFFFFFFFFFFFFFFFFFFFFFFFFFF AND PUSH4 0x23B872DD CALLER ADDRESS DUP5 PUSH1 0x40 MLOAD DUP5 PUSH4 0xFFFFFFFF AND PUSH1 0xE0 SHL DUP2 MSTORE PUSH1 0x4 ADD PUSH2 0x3BA SWAP4 SWAP3 SWAP2 SWAP1 PUSH2 0xB10 JUMP JUMPDEST PUSH1 0x20 PUSH1 0x40 MLOAD DUP1 DUP4 SUB DUP2 PUSH1 0x0 DUP8 GAS CALL ISZERO DUP1 ISZERO PUSH2 0x3D9 JUMPI RETURNDATASIZE PUSH1 0x0 DUP1 RETURNDATACOPY RETURNDATASIZE PUSH1 0x0 REVERT JUMPDEST POP POP POP POP PUSH1 0x40 MLOAD RETURNDATASIZE PUSH1 0x1F NOT PUSH1 0x1F DUP3 ADD AND DUP3 ADD DUP1 PUSH1 0x40 MSTORE POP DUP2 ADD SWAP1 PUSH2 0x3FD SWAP2 SWAP1 PUSH2 0xB7F JUMP JUMPDEST POP PUSH1 0x3 PUSH1 0xA PUSH2 0x40C SWAP2 SWAP1 PUSH2 0x9C7 JUMP JUMPDEST DUP3 PUSH2 0x417 SWAP2 SWAP1 PUSH2 0xBAC JUMP JUMPDEST PUSH1 0x2 PUSH1 0x0 DUP3 DUP3 SLOAD PUSH2 0x428 SWAP2 SWAP1 PUSH2 0xBEE JUMP JUMPDEST SWAP3 POP POP DUP2 SWAP1 SSTORE POP PUSH1 0x3 PUSH1 0xA PUSH2 0x43D SWAP2 SWAP1 PUSH2 0x9C7 JUMP JUMPDEST DUP2 PUSH2 0x448 SWAP2 SWAP1 PUSH2 0xBAC JUMP JUMPDEST PUSH1 0x3 PUSH1 0x0 DUP3 DUP3 SLOAD PUSH2 0x459 SWAP2 SWAP1 PUSH2 0xBEE JUMP JUMPDEST SWAP3 POP POP DUP2 SWAP1 SSTORE POP PUSH1 0x3 SLOAD PUSH1 0x2 SLOAD PUSH2 0x470 SWAP2 SWAP1 PUSH2 0xBAC JUMP JUMPDEST PUSH1 0x5 DUP2 SWAP1 SSTORE POP POP POP JUMP JUMPDEST PUSH1 0x4 SLOAD DUP2 JUMP JUMPDEST PUSH1 0x5 SLOAD DUP2 JUMP JUMPDEST PUSH1 0x1 PUSH1 0x0 SWAP1 SLOAD SWAP1 PUSH2 0x100 EXP SWAP1 DIV PUSH20 0xFFFFFFFFFFFFFFFFFFFFFFFFFFFFFFFFFFFFFFFF AND DUP2 JUMP JUMPDEST PUSH1 0x0 DUP2 GT PUSH2 0x4EF JUMPI PUSH1 0x40 MLOAD PUSH32 0x8C379A000000000000000000000000000000000000000000000000000000000 DUP2 MSTORE PUSH1 0x4 ADD PUSH2 0x4E6 SWAP1 PUSH2 0xC6E JUMP JUMPDEST PUSH1 0x40 MLOAD DUP1 SWAP2 SUB SWAP1 REVERT JUMPDEST PUSH1 0x0 DUP1 PUSH1 0x4 SLOAD EQ PUSH2 0x502 JUMPI PUSH1 0x4 SLOAD PUSH2 0x504 JUMP JUMPDEST DUP2 JUMPDEST SWAP1 POP DUP2 PUSH1 0x4 DUP2 SWAP1 SSTORE POP PUSH2 0x519 DUP2 PUSH1 0x4 SLOAD PUSH2 0x52E JUMP JUMPDEST POP POP JUMP JUMPDEST PUSH1 0x3 PUSH1 0xA PUSH2 0x52B SWAP2 SWAP1 PUSH2 0x9C7 JUMP JUMPDEST DUP2 JUMP JUMPDEST DUP1 DUP3 SUB ISZERO PUSH2 0x61B JUMPI DUP1 DUP3 LT ISZERO PUSH2 0x5AE JUMPI PUSH1 0x0 PUSH2 0x556 DUP3 PUSH1 0x5 SLOAD PUSH2 0x551 SWAP2 SWAP1 PUSH2 0xA41 JUMP JUMPDEST PUSH2 0x61F JUMP JUMPDEST PUSH1 0x2 SLOAD PUSH2 0x563 SWAP2 SWAP1 PUSH2 0xC8E JUMP JUMPDEST SWAP1 POP PUSH1 0x0 DUP3 DUP3 PUSH2 0x573 SWAP2 SWAP1 PUSH2 0xBAC JUMP JUMPDEST SWAP1 POP DUP2 PUSH1 0x2 PUSH1 0x0 DUP3 DUP3 SLOAD PUSH2 0x587 SWAP2 SWAP1 PUSH2 0xC8E JUMP JUMPDEST SWAP3 POP POP DUP2 SWAP1 SSTORE POP DUP1 PUSH1 0x3 PUSH1 0x0 DUP3 DUP3 SLOAD PUSH2 0x5A0 SWAP2 SWAP1 PUSH2 0xBEE JUMP JUMPDEST SWAP3 POP POP DUP2 SWAP1 SSTORE POP POP POP PUSH2 0x61A JUMP JUMPDEST PUSH1 0x0 PUSH1 0x2 SLOAD PUSH2 0x5C9 DUP4 PUSH1 0x5 SLOAD PUSH2 0x5C4 SWAP2 SWAP1 PUSH2 0xA41 JUMP JUMPDEST PUSH2 0x61F JUMP JUMPDEST PUSH2 0x5D3 SWAP2 SWAP1 PUSH2 0xC8E JUMP JUMPDEST SWAP1 POP PUSH1 0x0 DUP3 DUP3 PUSH2 0x5E3 SWAP2 SWAP1 PUSH2 0xBAC JUMP JUMPDEST SWAP1 POP DUP1 PUSH1 0x3 PUSH1 0x0 DUP3 DUP3 SLOAD PUSH2 0x5F7 SWAP2 SWAP1 PUSH2 0xC8E JUMP JUMPDEST SWAP3 POP POP DUP2 SWAP1 SSTORE POP DUP2 PUSH1 0x2 PUSH1 0x0 DUP3 DUP3 SLOAD PUSH2 0x610 SWAP2 SWAP1 PUSH2 0xBEE JUMP JUMPDEST SWAP3 POP POP DUP2 SWAP1 SSTORE POP POP POP JUMPDEST JUMPDEST POP POP JUMP JUMPDEST PUSH1 0x0 PUSH1 0x3 DUP3 GT ISZERO PUSH2 0x686 JUMPI DUP2 SWAP1 POP PUSH1 0x0 PUSH1 0x1 PUSH1 0x2 DUP5 PUSH2 0x63E SWAP2 SWAP1 PUSH2 0xA41 JUMP JUMPDEST PUSH2 0x648 SWAP2 SWAP1 PUSH2 0xBEE JUMP JUMPDEST SWAP1 POP JUMPDEST DUP2 DUP2 LT ISZERO PUSH2 0x680 JUMPI DUP1 SWAP2 POP PUSH1 0x2 DUP2 DUP3 DUP6 PUSH2 0x665 SWAP2 SWAP1 PUSH2 0xA41 JUMP JUMPDEST PUSH2 0x66F SWAP2 SWAP1 PUSH2 0xBEE JUMP JUMPDEST PUSH2 0x679 SWAP2 SWAP1 PUSH2 0xA41 JUMP JUMPDEST SWAP1 POP PUSH2 0x64B JUMP JUMPDEST POP PUSH2 0x694 JUMP JUMPDEST PUSH1 0x0 DUP3 EQ PUSH2 0x693 JUMPI PUSH1 0x1 SWAP1 POP JUMPDEST JUMPDEST SWAP2 SWAP1 POP JUMP JUMPDEST PUSH1 0x0 DUP2 SWAP1 POP SWAP2 SWAP1 POP JUMP JUMPDEST PUSH2 0x6AC DUP2 PUSH2 0x699 JUMP JUMPDEST DUP3 MSTORE POP POP JUMP JUMPDEST PUSH1 0x0 PUSH1 0x40 DUP3 ADD SWAP1 POP PUSH2 0x6C7 PUSH1 0x0 DUP4 ADD DUP6 PUSH2 0x6A3 JUMP JUMPDEST PUSH2 0x6D4 PUSH1 0x20 DUP4 ADD DUP5 PUSH2 0x6A3 JUMP JUMPDEST SWAP4 SWAP3 POP POP POP JUMP JUMPDEST PUSH1 0x0 PUSH20 0xFFFFFFFFFFFFFFFFFFFFFFFFFFFFFFFFFFFFFFFF DUP3 AND SWAP1 POP SWAP2 SWAP1 POP JUMP JUMPDEST PUSH1 0x0 DUP2 SWAP1 POP SWAP2 SWAP1 POP JUMP JUMPDEST PUSH1 0x0 PUSH2 0x720 PUSH2 0x71B PUSH2 0x716 DUP5 PUSH2 0x6DB JUMP JUMPDEST PUSH2 0x6FB JUMP JUMPDEST PUSH2 0x6DB JUMP JUMPDEST SWAP1 POP SWAP2 SWAP1 POP JUMP JUMPDEST PUSH1 0x0 PUSH2 0x732 DUP3 PUSH2 0x705 JUMP JUMPDEST SWAP1 POP SWAP2 SWAP1 POP JUMP JUMPDEST PUSH1 0x0 PUSH2 0x744 DUP3 PUSH2 0x727 JUMP JUMPDEST SWAP1 POP SWAP2 SWAP1 POP JUMP JUMPDEST PUSH2 0x754 DUP2 PUSH2 0x739 JUMP JUMPDEST DUP3 MSTORE POP POP JUMP JUMPDEST PUSH1 0x0 PUSH1 0x20 DUP3 ADD SWAP1 POP PUSH2 0x76F PUSH1 0x0 DUP4 ADD DUP5 PUSH2 0x74B JUMP JUMPDEST SWAP3 SWAP2 POP POP JUMP JUMPDEST PUSH1 0x0 PUSH1 0xFF DUP3 AND SWAP1 POP SWAP2 SWAP1 POP JUMP JUMPDEST PUSH2 0x78B DUP2 PUSH2 0x775 JUMP JUMPDEST DUP3 MSTORE POP POP JUMP JUMPDEST PUSH1 0x0 PUSH1 0x20 DUP3 ADD SWAP1 POP PUSH2 0x7A6 PUSH1 0x0 DUP4 ADD DUP5 PUSH2 0x782 JUMP JUMPDEST SWAP3 SWAP2 POP POP JUMP JUMPDEST PUSH1 0x0 PUSH1 0x20 DUP3 ADD SWAP1 POP PUSH2 0x7C1 PUSH1 0x0 DUP4 ADD DUP5 PUSH2 0x6A3 JUMP JUMPDEST SWAP3 SWAP2 POP POP JUMP JUMPDEST PUSH1 0x0 DUP1 REVERT JUMPDEST PUSH2 0x7D5 DUP2 PUSH2 0x699 JUMP JUMPDEST DUP2 EQ PUSH2 0x7E0 JUMPI PUSH1 0x0 DUP1 REVERT JUMPDEST POP JUMP JUMPDEST PUSH1 0x0 DUP2 CALLDATALOAD SWAP1 POP PUSH2 0x7F2 DUP2 PUSH2 0x7CC JUMP JUMPDEST SWAP3 SWAP2 POP POP JUMP JUMPDEST PUSH1 0x0 DUP1 PUSH1 0x40 DUP4 DUP6 SUB SLT ISZERO PUSH2 0x80F JUMPI PUSH2 0x80E PUSH2 0x7C7 JUMP JUMPDEST JUMPDEST PUSH1 0x0 PUSH2 0x81D DUP6 DUP3 DUP7 ADD PUSH2 0x7E3 JUMP JUMPDEST SWAP3 POP POP PUSH1 0x20 PUSH2 0x82E DUP6 DUP3 DUP7 ADD PUSH2 0x7E3 JUMP JUMPDEST SWAP2 POP POP SWAP3 POP SWAP3 SWAP1 POP JUMP JUMPDEST PUSH1 0x0 PUSH1 0x20 DUP3 DUP5 SUB SLT ISZERO PUSH2 0x84E JUMPI PUSH2 0x84D PUSH2 0x7C7 JUMP JUMPDEST JUMPDEST PUSH1 0x0 PUSH2 0x85C DUP5 DUP3 DUP6 ADD PUSH2 0x7E3 JUMP JUMPDEST SWAP2 POP POP SWAP3 SWAP2 POP POP JUMP JUMPDEST PUSH32 0x4E487B7100000000000000000000000000000000000000000000000000000000 PUSH1 0x0 MSTORE PUSH1 0x11 PUSH1 0x4 MSTORE PUSH1 0x24 PUSH1 0x0 REVERT JUMPDEST PUSH1 0x0 DUP2 PUSH1 0x1 SHR SWAP1 POP SWAP2 SWAP1 POP JUMP JUMPDEST PUSH1 0x0 DUP1 DUP3 SWAP2 POP DUP4 SWAP1 POP JUMPDEST PUSH1 0x1 DUP6 GT ISZERO PUSH2 0x8EB JUMPI DUP1 DUP7 DIV DUP2 GT ISZERO PUSH2 0x8C7 JUMPI PUSH2 0x8C6 PUSH2 0x865 JUMP JUMPDEST JUMPDEST PUSH1 0x1 DUP6 AND ISZERO PUSH2 0x8D6 JUMPI DUP1 DUP3 MUL SWAP2 POP JUMPDEST DUP1 DUP2 MUL SWAP1 POP PUSH2 0x8E4 DUP6 PUSH2 0x894 JUMP JUMPDEST SWAP5 POP PUSH2 0x8AB JUMP JUMPDEST SWAP5 POP SWAP5 SWAP3 POP POP POP JUMP JUMPDEST PUSH1 0x0 DUP3 PUSH2 0x904 JUMPI PUSH1 0x1 SWAP1 POP PUSH2 0x9C0 JUMP JUMPDEST DUP2 PUSH2 0x912 JUMPI PUSH1 0x0 SWAP1 POP PUSH2 0x9C0 JUMP JUMPDEST DUP2 PUSH1 0x1 DUP2 EQ PUSH2 0x928 JUMPI PUSH1 0x2 DUP2 EQ PUSH2 0x932 JUMPI PUSH2 0x961 JUMP JUMPDEST PUSH1 0x1 SWAP2 POP POP PUSH2 0x9C0 JUMP JUMPDEST PUSH1 0xFF DUP5 GT ISZERO PUSH2 0x944 JUMPI PUSH2 0x943 PUSH2 0x865 JUMP JUMPDEST JUMPDEST DUP4 PUSH1 0x2 EXP SWAP2 POP DUP5 DUP3 GT ISZERO PUSH2 0x95B JUMPI PUSH2 0x95A PUSH2 0x865 JUMP JUMPDEST JUMPDEST POP PUSH2 0x9C0 JUMP JUMPDEST POP PUSH1 0x20 DUP4 LT PUSH2 0x133 DUP4 LT AND PUSH1 0x4E DUP5 LT PUSH1 0xB DUP5 LT AND OR ISZERO PUSH2 0x996 JUMPI DUP3 DUP3 EXP SWAP1 POP DUP4 DUP2 GT ISZERO PUSH2 0x991 JUMPI PUSH2 0x990 PUSH2 0x865 JUMP JUMPDEST JUMPDEST PUSH2 0x9C0 JUMP JUMPDEST PUSH2 0x9A3 DUP5 DUP5 DUP5 PUSH1 0x1 PUSH2 0x8A1 JUMP JUMPDEST SWAP3 POP SWAP1 POP DUP2 DUP5 DIV DUP2 GT ISZERO PUSH2 0x9BA JUMPI PUSH2 0x9B9 PUSH2 0x865 JUMP JUMPDEST JUMPDEST DUP2 DUP2 MUL SWAP1 POP JUMPDEST SWAP4 SWAP3 POP POP POP JUMP JUMPDEST PUSH1 0x0 PUSH2 0x9D2 DUP3 PUSH2 0x699 JUMP JUMPDEST SWAP2 POP PUSH2 0x9DD DUP4 PUSH2 0x775 JUMP JUMPDEST SWAP3 POP PUSH2 0xA0A PUSH32 0xFFFFFFFFFFFFFFFFFFFFFFFFFFFFFFFFFFFFFFFFFFFFFFFFFFFFFFFFFFFFFFFF DUP5 DUP5 PUSH2 0x8F4 JUMP JUMPDEST SWAP1 POP SWAP3 SWAP2 POP POP JUMP JUMPDEST PUSH32 0x4E487B7100000000000000000000000000000000000000000000000000000000 PUSH1 0x0 MSTORE PUSH1 0x12 PUSH1 0x4 MSTORE PUSH1 0x24 PUSH1 0x0 REVERT JUMPDEST PUSH1 0x0 PUSH2 0xA4C DUP3 PUSH2 0x699 JUMP JUMPDEST SWAP2 POP PUSH2 0xA57 DUP4 PUSH2 0x699 JUMP JUMPDEST SWAP3 POP DUP3 PUSH2 0xA67 JUMPI PUSH2 0xA66 PUSH2 0xA12 JUMP JUMPDEST JUMPDEST DUP3 DUP3 DIV SWAP1 POP SWAP3 SWAP2 POP POP JUMP JUMPDEST PUSH1 0x0 DUP3 DUP3 MSTORE PUSH1 0x20 DUP3 ADD SWAP1 POP SWAP3 SWAP2 POP POP JUMP JUMPDEST PUSH32 0x496E76616C696420616D6F756E74730000000000000000000000000000000000 PUSH1 0x0 DUP3 ADD MSTORE POP JUMP JUMPDEST PUSH1 0x0 PUSH2 0xAB9 PUSH1 0xF DUP4 PUSH2 0xA72 JUMP JUMPDEST SWAP2 POP PUSH2 0xAC4 DUP3 PUSH2 0xA83 JUMP JUMPDEST PUSH1 0x20 DUP3 ADD SWAP1 POP SWAP2 SWAP1 POP JUMP JUMPDEST PUSH1 0x0 PUSH1 0x20 DUP3 ADD SWAP1 POP DUP2 DUP2 SUB PUSH1 0x0 DUP4 ADD MSTORE PUSH2 0xAE8 DUP2 PUSH2 0xAAC JUMP JUMPDEST SWAP1 POP SWAP2 SWAP1 POP JUMP JUMPDEST PUSH1 0x0 PUSH2 0xAFA DUP3 PUSH2 0x6DB JUMP JUMPDEST SWAP1 POP SWAP2 SWAP1 POP JUMP JUMPDEST PUSH2 0xB0A DUP2 PUSH2 0xAEF JUMP JUMPDEST DUP3 MSTORE POP POP JUMP JUMPDEST PUSH1 0x0 PUSH1 0x60 DUP3 ADD SWAP1 POP PUSH2 0xB25 PUSH1 0x0 DUP4 ADD DUP7 PUSH2 0xB01 JUMP JUMPDEST PUSH2 0xB32 PUSH1 0x20 DUP4 ADD DUP6 PUSH2 0xB01 JUMP JUMPDEST PUSH2 0xB3F PUSH1 0x40 DUP4 ADD DUP5 PUSH2 0x6A3 JUMP JUMPDEST SWAP5 SWAP4 POP POP POP POP JUMP JUMPDEST PUSH1 0x0 DUP2 ISZERO ISZERO SWAP1 POP SWAP2 SWAP1 POP JUMP JUMPDEST PUSH2 0xB5C DUP2 PUSH2 0xB47 JUMP JUMPDEST DUP2 EQ PUSH2 0xB67 JUMPI PUSH1 0x0 DUP1 REVERT JUMPDEST POP JUMP JUMPDEST PUSH1 0x0 DUP2 MLOAD SWAP1 POP PUSH2 0xB79 DUP2 PUSH2 0xB53 JUMP JUMPDEST SWAP3 SWAP2 POP POP JUMP JUMPDEST PUSH1 0x0 PUSH1 0x20 DUP3 DUP5 SUB SLT ISZERO PUSH2 0xB95 JUMPI PUSH2 0xB94 PUSH2 0x7C7 JUMP JUMPDEST JUMPDEST PUSH1 0x0 PUSH2 0xBA3 DUP5 DUP3 DUP6 ADD PUSH2 0xB6A JUMP JUMPDEST SWAP2 POP POP SWAP3 SWAP2 POP POP JUMP JUMPDEST PUSH1 0x0 PUSH2 0xBB7 DUP3 PUSH2 0x699 JUMP JUMPDEST SWAP2 POP PUSH2 0xBC2 DUP4 PUSH2 0x699 JUMP JUMPDEST SWAP3 POP DUP3 DUP3 MUL PUSH2 0xBD0 DUP2 PUSH2 0x699 JUMP JUMPDEST SWAP2 POP DUP3 DUP3 DIV DUP5 EQ DUP4 ISZERO OR PUSH2 0xBE7 JUMPI PUSH2 0xBE6 PUSH2 0x865 JUMP JUMPDEST JUMPDEST POP SWAP3 SWAP2 POP POP JUMP JUMPDEST PUSH1 0x0 PUSH2 0xBF9 DUP3 PUSH2 0x699 JUMP JUMPDEST SWAP2 POP PUSH2 0xC04 DUP4 PUSH2 0x699 JUMP JUMPDEST SWAP3 POP DUP3 DUP3 ADD SWAP1 POP DUP1 DUP3 GT ISZERO PUSH2 0xC1C JUMPI PUSH2 0xC1B PUSH2 0x865 JUMP JUMPDEST JUMPDEST SWAP3 SWAP2 POP POP JUMP JUMPDEST PUSH32 0x496E76616C696420746172676574207072696365000000000000000000000000 PUSH1 0x0 DUP3 ADD MSTORE POP JUMP JUMPDEST PUSH1 0x0 PUSH2 0xC58 PUSH1 0x14 DUP4 PUSH2 0xA72 JUMP JUMPDEST SWAP2 POP PUSH2 0xC63 DUP3 PUSH2 0xC22 JUMP JUMPDEST PUSH1 0x20 DUP3 ADD SWAP1 POP SWAP2 SWAP1 POP JUMP JUMPDEST PUSH1 0x0 PUSH1 0x20 DUP3 ADD SWAP1 POP DUP2 DUP2 SUB PUSH1 0x0 DUP4 ADD MSTORE PUSH2 0xC87 DUP2 PUSH2 0xC4B JUMP JUMPDEST SWAP1 POP SWAP2 SWAP1 POP JUMP JUMPDEST PUSH1 0x0 PUSH2 0xC99 DUP3 PUSH2 0x699 JUMP JUMPDEST SWAP2 POP PUSH2 0xCA4 DUP4 PUSH2 0x699 JUMP JUMPDEST SWAP3 POP DUP3 DUP3 SUB SWAP1 POP DUP2 DUP2 GT ISZERO PUSH2 0xCBC JUMPI PUSH2 0xCBB PUSH2 0x865 JUMP JUMPDEST JUMPDEST SWAP3 SWAP2 POP POP JUMP INVALID LOG2 PUSH5 0x6970667358 0x22 SLT KECCAK256 0x2C KECCAK256 0xBE CODECOPY PUSH7 0xE3D1D1801C70E9 PUSH24 0xC3D563761BE1B6A95C579A8F5B629266FEEDBA64736F6C63 NUMBER STOP ADDMOD BYTE STOP CALLER "
				},
				"gasEstimates": {
					"creation": {
						"codeDepositCost": "664000",
						"executionCost": "infinite",
						"totalCost": "infinite"
					},
					"external": {
						"DECIMALS()": "380",
						"K()": "2473",
						"SCALE()": "infinite",
						"addLiquidity(uint256,uint256)": "infinite",
						"getReserves()": "infinite",
						"price()": "2451",
						"reserve0()": "2496",
						"reserve1()": "2518",
						"setExchangeRate(uint256)": "infinite",
						"token0()": "infinite",
						"token1()": "infinite"
					},
					"internal": {
						"_internalSwap(int256)": "infinite",
						"balancePool(uint256,uint256)": "infinite",
						"sqrt(uint256)": "infinite"
					}
				},
				"methodIdentifiers": {
					"DECIMALS()": "2e0f2625",
					"K()": "a932492f",
					"SCALE()": "eced5526",
					"addLiquidity(uint256,uint256)": "9cd441da",
					"getReserves()": "0902f1ac",
					"price()": "a035b1fe",
					"reserve0()": "443cb4bc",
					"reserve1()": "5a76f25e",
					"setExchangeRate(uint256)": "db068e0e",
					"token0()": "0dfe1681",
					"token1()": "d21220a7"
				}
			},
			"storageLayout": {
				"storage": [
					{
						"astId": 83,
						"contract": "contracts/ConstantProductAMM.sol:ConstantProductAMM",
						"label": "token0",
						"offset": 0,
						"slot": "0",
						"type": "t_contract(IERC20)77"
					},
					{
						"astId": 86,
						"contract": "contracts/ConstantProductAMM.sol:ConstantProductAMM",
						"label": "token1",
						"offset": 0,
						"slot": "1",
						"type": "t_contract(IERC20)77"
					},
					{
						"astId": 88,
						"contract": "contracts/ConstantProductAMM.sol:ConstantProductAMM",
						"label": "reserve0",
						"offset": 0,
						"slot": "2",
						"type": "t_uint256"
					},
					{
						"astId": 90,
						"contract": "contracts/ConstantProductAMM.sol:ConstantProductAMM",
						"label": "reserve1",
						"offset": 0,
						"slot": "3",
						"type": "t_uint256"
					},
					{
						"astId": 92,
						"contract": "contracts/ConstantProductAMM.sol:ConstantProductAMM",
						"label": "price",
						"offset": 0,
						"slot": "4",
						"type": "t_uint256"
					},
					{
						"astId": 102,
						"contract": "contracts/ConstantProductAMM.sol:ConstantProductAMM",
						"label": "K",
						"offset": 0,
						"slot": "5",
						"type": "t_uint256"
					}
				],
				"types": {
					"t_contract(IERC20)77": {
						"encoding": "inplace",
						"label": "contract IERC20",
						"numberOfBytes": "20"
					},
					"t_uint256": {
						"encoding": "inplace",
						"label": "uint256",
						"numberOfBytes": "32"
					}
				}
			},
			"userdoc": {
				"kind": "user",
				"methods": {},
				"version": 1
			}
		}
	}
}