{
	"AMMProject/contracts/ConstantProductAMM.sol": {
		"ConstantProductAMM": {
			"abi": [
				{
					"inputs": [
						{
							"internalType": "address",
							"name": "_token0",
							"type": "address"
						},
						{
							"internalType": "address",
							"name": "_token1",
							"type": "address"
						}
					],
					"stateMutability": "nonpayable",
					"type": "constructor"
				},
				{
					"inputs": [],
					"name": "DECIMALS",
					"outputs": [
						{
							"internalType": "uint8",
							"name": "",
							"type": "uint8"
						}
					],
					"stateMutability": "view",
					"type": "function"
				},
				{
					"inputs": [],
					"name": "SCALE",
					"outputs": [
						{
							"internalType": "uint256",
							"name": "",
							"type": "uint256"
						}
					],
					"stateMutability": "view",
					"type": "function"
				},
				{
					"inputs": [
						{
							"internalType": "uint256",
							"name": "amount0",
							"type": "uint256"
						},
						{
							"internalType": "uint256",
							"name": "amount1",
							"type": "uint256"
						}
					],
					"name": "addLiquidity",
					"outputs": [],
					"stateMutability": "nonpayable",
					"type": "function"
				},
				{
					"inputs": [],
					"name": "getReserves",
					"outputs": [
						{
							"internalType": "uint256",
							"name": "",
							"type": "uint256"
						},
						{
							"internalType": "uint256",
							"name": "",
							"type": "uint256"
						}
					],
					"stateMutability": "view",
					"type": "function"
				},
				{
					"inputs": [],
					"name": "price",
					"outputs": [
						{
							"internalType": "uint256",
							"name": "",
							"type": "uint256"
						}
					],
					"stateMutability": "view",
					"type": "function"
				},
				{
					"inputs": [],
					"name": "reserve0",
					"outputs": [
						{
							"internalType": "uint256",
							"name": "",
							"type": "uint256"
						}
					],
					"stateMutability": "view",
					"type": "function"
				},
				{
					"inputs": [],
					"name": "reserve1",
					"outputs": [
						{
							"internalType": "uint256",
							"name": "",
							"type": "uint256"
						}
					],
					"stateMutability": "view",
					"type": "function"
				},
				{
					"inputs": [
						{
							"internalType": "uint256",
							"name": "targetPrice",
							"type": "uint256"
						}
					],
					"name": "setExchangeRate",
					"outputs": [],
					"stateMutability": "nonpayable",
					"type": "function"
				},
				{
					"inputs": [],
					"name": "token0",
					"outputs": [
						{
							"internalType": "contract IERC20",
							"name": "",
							"type": "address"
						}
					],
					"stateMutability": "view",
					"type": "function"
				},
				{
					"inputs": [],
					"name": "token1",
					"outputs": [
						{
							"internalType": "contract IERC20",
							"name": "",
							"type": "address"
						}
					],
					"stateMutability": "view",
					"type": "function"
				}
			],
			"devdoc": {
				"kind": "dev",
				"methods": {},
				"version": 1
			},
			"evm": {
				"assembly": "    /* \"AMMProject/contracts/ConstantProductAMM.sol\":115:4268  contract ConstantProductAMM {... */\n  mstore(0x40, 0x80)\n    /* \"AMMProject/contracts/ConstantProductAMM.sol\":509:630  constructor(address _token0, address _token1) {... */\n  callvalue\n  dup1\n  iszero\n  tag_1\n  jumpi\n  0x00\n  dup1\n  revert\ntag_1:\n  pop\n  mload(0x40)\n  sub(codesize, bytecodeSize)\n  dup1\n  bytecodeSize\n  dup4\n  codecopy\n  dup2\n  dup2\n  add\n  0x40\n  mstore\n  dup2\n  add\n  swap1\n  tag_2\n  swap2\n  swap1\n  tag_3\n  jump\t// in\ntag_2:\n    /* \"AMMProject/contracts/ConstantProductAMM.sol\":581:588  _token0 */\n  dup2\n    /* \"AMMProject/contracts/ConstantProductAMM.sol\":565:571  token0 */\n  0x00\n  dup1\n    /* \"AMMProject/contracts/ConstantProductAMM.sol\":565:589  token0 = IERC20(_token0) */\n  0x0100\n  exp\n  dup2\n  sload\n  dup2\n  0xffffffffffffffffffffffffffffffffffffffff\n  mul\n  not\n  and\n  swap1\n  dup4\n  0xffffffffffffffffffffffffffffffffffffffff\n  and\n  mul\n  or\n  swap1\n  sstore\n  pop\n    /* \"AMMProject/contracts/ConstantProductAMM.sol\":615:622  _token1 */\n  dup1\n    /* \"AMMProject/contracts/ConstantProductAMM.sol\":599:605  token1 */\n  0x01\n  0x00\n    /* \"AMMProject/contracts/ConstantProductAMM.sol\":599:623  token1 = IERC20(_token1) */\n  0x0100\n  exp\n  dup2\n  sload\n  dup2\n  0xffffffffffffffffffffffffffffffffffffffff\n  mul\n  not\n  and\n  swap1\n  dup4\n  0xffffffffffffffffffffffffffffffffffffffff\n  and\n  mul\n  or\n  swap1\n  sstore\n  pop\n    /* \"AMMProject/contracts/ConstantProductAMM.sol\":509:630  constructor(address _token0, address _token1) {... */\n  pop\n  pop\n    /* \"AMMProject/contracts/ConstantProductAMM.sol\":115:4268  contract ConstantProductAMM {... */\n  jump(tag_6)\n    /* \"#utility.yul\":88:205   */\ntag_8:\n    /* \"#utility.yul\":197:198   */\n  0x00\n    /* \"#utility.yul\":194:195   */\n  dup1\n    /* \"#utility.yul\":187:199   */\n  revert\n    /* \"#utility.yul\":334:460   */\ntag_10:\n    /* \"#utility.yul\":371:378   */\n  0x00\n    /* \"#utility.yul\":411:453   */\n  0xffffffffffffffffffffffffffffffffffffffff\n    /* \"#utility.yul\":404:409   */\n  dup3\n    /* \"#utility.yul\":400:454   */\n  and\n    /* \"#utility.yul\":389:454   */\n  swap1\n  pop\n    /* \"#utility.yul\":334:460   */\n  swap2\n  swap1\n  pop\n  jump\t// out\n    /* \"#utility.yul\":466:562   */\ntag_11:\n    /* \"#utility.yul\":503:510   */\n  0x00\n    /* \"#utility.yul\":532:556   */\n  tag_20\n    /* \"#utility.yul\":550:555   */\n  dup3\n    /* \"#utility.yul\":532:556   */\n  tag_10\n  jump\t// in\ntag_20:\n    /* \"#utility.yul\":521:556   */\n  swap1\n  pop\n    /* \"#utility.yul\":466:562   */\n  swap2\n  swap1\n  pop\n  jump\t// out\n    /* \"#utility.yul\":568:690   */\ntag_12:\n    /* \"#utility.yul\":641:665   */\n  tag_22\n    /* \"#utility.yul\":659:664   */\n  dup2\n    /* \"#utility.yul\":641:665   */\n  tag_11\n  jump\t// in\ntag_22:\n    /* \"#utility.yul\":634:639   */\n  dup2\n    /* \"#utility.yul\":631:666   */\n  eq\n    /* \"#utility.yul\":621:684   */\n  tag_23\n  jumpi\n    /* \"#utility.yul\":680:681   */\n  0x00\n    /* \"#utility.yul\":677:678   */\n  dup1\n    /* \"#utility.yul\":670:682   */\n  revert\n    /* \"#utility.yul\":621:684   */\ntag_23:\n    /* \"#utility.yul\":568:690   */\n  pop\n  jump\t// out\n    /* \"#utility.yul\":696:839   */\ntag_13:\n    /* \"#utility.yul\":753:758   */\n  0x00\n    /* \"#utility.yul\":784:790   */\n  dup2\n    /* \"#utility.yul\":778:791   */\n  mload\n    /* \"#utility.yul\":769:791   */\n  swap1\n  pop\n    /* \"#utility.yul\":800:833   */\n  tag_25\n    /* \"#utility.yul\":827:832   */\n  dup2\n    /* \"#utility.yul\":800:833   */\n  tag_12\n  jump\t// in\ntag_25:\n    /* \"#utility.yul\":696:839   */\n  swap3\n  swap2\n  pop\n  pop\n  jump\t// out\n    /* \"#utility.yul\":845:1352   */\ntag_3:\n    /* \"#utility.yul\":924:930   */\n  0x00\n    /* \"#utility.yul\":932:938   */\n  dup1\n    /* \"#utility.yul\":981:983   */\n  0x40\n    /* \"#utility.yul\":969:978   */\n  dup4\n    /* \"#utility.yul\":960:967   */\n  dup6\n    /* \"#utility.yul\":956:979   */\n  sub\n    /* \"#utility.yul\":952:984   */\n  slt\n    /* \"#utility.yul\":949:1068   */\n  iszero\n  tag_27\n  jumpi\n    /* \"#utility.yul\":987:1066   */\n  tag_28\n  tag_8\n  jump\t// in\ntag_28:\n    /* \"#utility.yul\":949:1068   */\ntag_27:\n    /* \"#utility.yul\":1107:1108   */\n  0x00\n    /* \"#utility.yul\":1132:1196   */\n  tag_29\n    /* \"#utility.yul\":1188:1195   */\n  dup6\n    /* \"#utility.yul\":1179:1185   */\n  dup3\n    /* \"#utility.yul\":1168:1177   */\n  dup7\n    /* \"#utility.yul\":1164:1186   */\n  add\n    /* \"#utility.yul\":1132:1196   */\n  tag_13\n  jump\t// in\ntag_29:\n    /* \"#utility.yul\":1122:1196   */\n  swap3\n  pop\n    /* \"#utility.yul\":1078:1206   */\n  pop\n    /* \"#utility.yul\":1245:1247   */\n  0x20\n    /* \"#utility.yul\":1271:1335   */\n  tag_30\n    /* \"#utility.yul\":1327:1334   */\n  dup6\n    /* \"#utility.yul\":1318:1324   */\n  dup3\n    /* \"#utility.yul\":1307:1316   */\n  dup7\n    /* \"#utility.yul\":1303:1325   */\n  add\n    /* \"#utility.yul\":1271:1335   */\n  tag_13\n  jump\t// in\ntag_30:\n    /* \"#utility.yul\":1261:1335   */\n  swap2\n  pop\n    /* \"#utility.yul\":1216:1345   */\n  pop\n    /* \"#utility.yul\":845:1352   */\n  swap3\n  pop\n  swap3\n  swap1\n  pop\n  jump\t// out\n    /* \"AMMProject/contracts/ConstantProductAMM.sol\":115:4268  contract ConstantProductAMM {... */\ntag_6:\n  dataSize(sub_0)\n  dup1\n  dataOffset(sub_0)\n  0x00\n  codecopy\n  0x00\n  return\nstop\n\nsub_0: assembly {\n        /* \"AMMProject/contracts/ConstantProductAMM.sol\":115:4268  contract ConstantProductAMM {... */\n      mstore(0x40, 0x80)\n      callvalue\n      dup1\n      iszero\n      tag_1\n      jumpi\n      0x00\n      dup1\n      revert\n    tag_1:\n      pop\n      jumpi(tag_2, lt(calldatasize, 0x04))\n      shr(0xe0, calldataload(0x00))\n      dup1\n      0x9cd441da\n      gt\n      tag_13\n      jumpi\n      dup1\n      0x9cd441da\n      eq\n      tag_8\n      jumpi\n      dup1\n      0xa035b1fe\n      eq\n      tag_9\n      jumpi\n      dup1\n      0xd21220a7\n      eq\n      tag_10\n      jumpi\n      dup1\n      0xdb068e0e\n      eq\n      tag_11\n      jumpi\n      dup1\n      0xeced5526\n      eq\n      tag_12\n      jumpi\n      jump(tag_2)\n    tag_13:\n      dup1\n      0x0902f1ac\n      eq\n      tag_3\n      jumpi\n      dup1\n      0x0dfe1681\n      eq\n      tag_4\n      jumpi\n      dup1\n      0x2e0f2625\n      eq\n      tag_5\n      jumpi\n      dup1\n      0x443cb4bc\n      eq\n      tag_6\n      jumpi\n      dup1\n      0x5a76f25e\n      eq\n      tag_7\n      jumpi\n    tag_2:\n      0x00\n      dup1\n      revert\n        /* \"AMMProject/contracts/ConstantProductAMM.sol\":3181:3303  function getReserves() public view returns (uint256, uint256) {... */\n    tag_3:\n      tag_14\n      tag_15\n      jump\t// in\n    tag_14:\n      mload(0x40)\n      tag_16\n      swap3\n      swap2\n      swap1\n      tag_17\n      jump\t// in\n    tag_16:\n      mload(0x40)\n      dup1\n      swap2\n      sub\n      swap1\n      return\n        /* \"AMMProject/contracts/ConstantProductAMM.sol\":149:169  IERC20 public token0 */\n    tag_4:\n      tag_18\n      tag_19\n      jump\t// in\n    tag_18:\n      mload(0x40)\n      tag_20\n      swap2\n      swap1\n      tag_21\n      jump\t// in\n    tag_20:\n      mload(0x40)\n      dup1\n      swap2\n      sub\n      swap1\n      return\n        /* \"AMMProject/contracts/ConstantProductAMM.sol\":347:381  uint8 public constant DECIMALS = 3 */\n    tag_5:\n      tag_22\n      tag_23\n      jump\t// in\n    tag_22:\n      mload(0x40)\n      tag_24\n      swap2\n      swap1\n      tag_25\n      jump\t// in\n    tag_24:\n      mload(0x40)\n      dup1\n      swap2\n      sub\n      swap1\n      return\n        /* \"AMMProject/contracts/ConstantProductAMM.sol\":201:224  uint256 public reserve0 */\n    tag_6:\n      tag_26\n      tag_27\n      jump\t// in\n    tag_26:\n      mload(0x40)\n      tag_28\n      swap2\n      swap1\n      tag_29\n      jump\t// in\n    tag_28:\n      mload(0x40)\n      dup1\n      swap2\n      sub\n      swap1\n      return\n        /* \"AMMProject/contracts/ConstantProductAMM.sol\":230:253  uint256 public reserve1 */\n    tag_7:\n      tag_30\n      tag_31\n      jump\t// in\n    tag_30:\n      mload(0x40)\n      tag_32\n      swap2\n      swap1\n      tag_29\n      jump\t// in\n    tag_32:\n      mload(0x40)\n      dup1\n      swap2\n      sub\n      swap1\n      return\n        /* \"AMMProject/contracts/ConstantProductAMM.sol\":636:976  function addLiquidity(uint256 amount0, uint256 amount1) external {... */\n    tag_8:\n      tag_33\n      0x04\n      dup1\n      calldatasize\n      sub\n      dup2\n      add\n      swap1\n      tag_34\n      swap2\n      swap1\n      tag_35\n      jump\t// in\n    tag_34:\n      tag_36\n      jump\t// in\n    tag_33:\n      stop\n        /* \"AMMProject/contracts/ConstantProductAMM.sol\":259:279  uint256 public price */\n    tag_9:\n      tag_37\n      tag_38\n      jump\t// in\n    tag_37:\n      mload(0x40)\n      tag_39\n      swap2\n      swap1\n      tag_29\n      jump\t// in\n    tag_39:\n      mload(0x40)\n      dup1\n      swap2\n      sub\n      swap1\n      return\n        /* \"AMMProject/contracts/ConstantProductAMM.sol\":175:195  IERC20 public token1 */\n    tag_10:\n      tag_40\n      tag_41\n      jump\t// in\n    tag_40:\n      mload(0x40)\n      tag_42\n      swap2\n      swap1\n      tag_21\n      jump\t// in\n    tag_42:\n      mload(0x40)\n      dup1\n      swap2\n      sub\n      swap1\n      return\n        /* \"AMMProject/contracts/ConstantProductAMM.sol\":3309:3575  function setExchangeRate(uint256 targetPrice) external {... */\n    tag_11:\n      tag_43\n      0x04\n      dup1\n      calldatasize\n      sub\n      dup2\n      add\n      swap1\n      tag_44\n      swap2\n      swap1\n      tag_45\n      jump\t// in\n    tag_44:\n      tag_46\n      jump\t// in\n    tag_43:\n      stop\n        /* \"AMMProject/contracts/ConstantProductAMM.sol\":387:433  uint256 public constant SCALE = 10 ** DECIMALS */\n    tag_12:\n      tag_47\n      tag_48\n      jump\t// in\n    tag_47:\n      mload(0x40)\n      tag_49\n      swap2\n      swap1\n      tag_29\n      jump\t// in\n    tag_49:\n      mload(0x40)\n      dup1\n      swap2\n      sub\n      swap1\n      return\n        /* \"AMMProject/contracts/ConstantProductAMM.sol\":3181:3303  function getReserves() public view returns (uint256, uint256) {... */\n    tag_15:\n        /* \"AMMProject/contracts/ConstantProductAMM.sol\":3225:3232  uint256 */\n      0x00\n        /* \"AMMProject/contracts/ConstantProductAMM.sol\":3234:3241  uint256 */\n      dup1\n        /* \"AMMProject/contracts/ConstantProductAMM.sol\":380:381  3 */\n      0x03\n        /* \"AMMProject/contracts/ConstantProductAMM.sol\":419:421  10 */\n      0x0a\n        /* \"AMMProject/contracts/ConstantProductAMM.sol\":419:433  10 ** DECIMALS */\n      tag_51\n      swap2\n      swap1\n      tag_52\n      jump\t// in\n    tag_51:\n        /* \"AMMProject/contracts/ConstantProductAMM.sol\":3261:3269  reserve0 */\n      sload(0x02)\n        /* \"AMMProject/contracts/ConstantProductAMM.sol\":3261:3277  reserve0 / SCALE */\n      tag_53\n      swap2\n      swap1\n      tag_54\n      jump\t// in\n    tag_53:\n        /* \"AMMProject/contracts/ConstantProductAMM.sol\":380:381  3 */\n      0x03\n        /* \"AMMProject/contracts/ConstantProductAMM.sol\":419:421  10 */\n      0x0a\n        /* \"AMMProject/contracts/ConstantProductAMM.sol\":419:433  10 ** DECIMALS */\n      tag_55\n      swap2\n      swap1\n      tag_52\n      jump\t// in\n    tag_55:\n        /* \"AMMProject/contracts/ConstantProductAMM.sol\":3279:3287  reserve1 */\n      sload(0x03)\n        /* \"AMMProject/contracts/ConstantProductAMM.sol\":3279:3295  reserve1 / SCALE */\n      tag_56\n      swap2\n      swap1\n      tag_54\n      jump\t// in\n    tag_56:\n        /* \"AMMProject/contracts/ConstantProductAMM.sol\":3253:3296  return (reserve0 / SCALE, reserve1 / SCALE) */\n      swap2\n      pop\n      swap2\n      pop\n        /* \"AMMProject/contracts/ConstantProductAMM.sol\":3181:3303  function getReserves() public view returns (uint256, uint256) {... */\n      swap1\n      swap2\n      jump\t// out\n        /* \"AMMProject/contracts/ConstantProductAMM.sol\":149:169  IERC20 public token0 */\n    tag_19:\n      0x00\n      dup1\n      sload\n      swap1\n      0x0100\n      exp\n      swap1\n      div\n      0xffffffffffffffffffffffffffffffffffffffff\n      and\n      dup2\n      jump\t// out\n        /* \"AMMProject/contracts/ConstantProductAMM.sol\":347:381  uint8 public constant DECIMALS = 3 */\n    tag_23:\n        /* \"AMMProject/contracts/ConstantProductAMM.sol\":380:381  3 */\n      0x03\n        /* \"AMMProject/contracts/ConstantProductAMM.sol\":347:381  uint8 public constant DECIMALS = 3 */\n      dup2\n      jump\t// out\n        /* \"AMMProject/contracts/ConstantProductAMM.sol\":201:224  uint256 public reserve0 */\n    tag_27:\n      sload(0x02)\n      dup2\n      jump\t// out\n        /* \"AMMProject/contracts/ConstantProductAMM.sol\":230:253  uint256 public reserve1 */\n    tag_31:\n      sload(0x03)\n      dup2\n      jump\t// out\n        /* \"AMMProject/contracts/ConstantProductAMM.sol\":636:976  function addLiquidity(uint256 amount0, uint256 amount1) external {... */\n    tag_36:\n        /* \"AMMProject/contracts/ConstantProductAMM.sol\":729:730  0 */\n      0x00\n        /* \"AMMProject/contracts/ConstantProductAMM.sol\":719:726  amount0 */\n      dup3\n        /* \"AMMProject/contracts/ConstantProductAMM.sol\":719:730  amount0 > 0 */\n      gt\n        /* \"AMMProject/contracts/ConstantProductAMM.sol\":719:745  amount0 > 0 && amount1 > 0 */\n      dup1\n      iszero\n      tag_58\n      jumpi\n      pop\n        /* \"AMMProject/contracts/ConstantProductAMM.sol\":744:745  0 */\n      0x00\n        /* \"AMMProject/contracts/ConstantProductAMM.sol\":734:741  amount1 */\n      dup2\n        /* \"AMMProject/contracts/ConstantProductAMM.sol\":734:745  amount1 > 0 */\n      gt\n        /* \"AMMProject/contracts/ConstantProductAMM.sol\":719:745  amount0 > 0 && amount1 > 0 */\n    tag_58:\n        /* \"AMMProject/contracts/ConstantProductAMM.sol\":711:765  require(amount0 > 0 && amount1 > 0, \"Invalid amounts\") */\n      tag_59\n      jumpi\n      mload(0x40)\n      0x08c379a000000000000000000000000000000000000000000000000000000000\n      dup2\n      mstore\n      0x04\n      add\n      tag_60\n      swap1\n      tag_61\n      jump\t// in\n    tag_60:\n      mload(0x40)\n      dup1\n      swap2\n      sub\n      swap1\n      revert\n    tag_59:\n        /* \"AMMProject/contracts/ConstantProductAMM.sol\":775:781  token0 */\n      0x00\n      dup1\n      sload\n      swap1\n      0x0100\n      exp\n      swap1\n      div\n      0xffffffffffffffffffffffffffffffffffffffff\n      and\n        /* \"AMMProject/contracts/ConstantProductAMM.sol\":775:794  token0.transferFrom */\n      0xffffffffffffffffffffffffffffffffffffffff\n      and\n      0x23b872dd\n        /* \"AMMProject/contracts/ConstantProductAMM.sol\":795:805  msg.sender */\n      caller\n        /* \"AMMProject/contracts/ConstantProductAMM.sol\":815:819  this */\n      address\n        /* \"AMMProject/contracts/ConstantProductAMM.sol\":822:829  amount0 */\n      dup6\n        /* \"AMMProject/contracts/ConstantProductAMM.sol\":775:830  token0.transferFrom(msg.sender, address(this), amount0) */\n      mload(0x40)\n      dup5\n      0xffffffff\n      and\n      0xe0\n      shl\n      dup2\n      mstore\n      0x04\n      add\n      tag_62\n      swap4\n      swap3\n      swap2\n      swap1\n      tag_63\n      jump\t// in\n    tag_62:\n      0x20\n      mload(0x40)\n      dup1\n      dup4\n      sub\n      dup2\n      0x00\n      dup8\n      gas\n      call\n      iszero\n      dup1\n      iszero\n      tag_65\n      jumpi\n      returndatasize\n      0x00\n      dup1\n      returndatacopy\n      revert(0x00, returndatasize)\n    tag_65:\n      pop\n      pop\n      pop\n      pop\n      mload(0x40)\n      returndatasize\n      not(0x1f)\n      0x1f\n      dup3\n      add\n      and\n      dup3\n      add\n      dup1\n      0x40\n      mstore\n      pop\n      dup2\n      add\n      swap1\n      tag_66\n      swap2\n      swap1\n      tag_67\n      jump\t// in\n    tag_66:\n      pop\n        /* \"AMMProject/contracts/ConstantProductAMM.sol\":840:846  token1 */\n      0x01\n      0x00\n      swap1\n      sload\n      swap1\n      0x0100\n      exp\n      swap1\n      div\n      0xffffffffffffffffffffffffffffffffffffffff\n      and\n        /* \"AMMProject/contracts/ConstantProductAMM.sol\":840:859  token1.transferFrom */\n      0xffffffffffffffffffffffffffffffffffffffff\n      and\n      0x23b872dd\n        /* \"AMMProject/contracts/ConstantProductAMM.sol\":860:870  msg.sender */\n      caller\n        /* \"AMMProject/contracts/ConstantProductAMM.sol\":880:884  this */\n      address\n        /* \"AMMProject/contracts/ConstantProductAMM.sol\":887:894  amount1 */\n      dup5\n        /* \"AMMProject/contracts/ConstantProductAMM.sol\":840:895  token1.transferFrom(msg.sender, address(this), amount1) */\n      mload(0x40)\n      dup5\n      0xffffffff\n      and\n      0xe0\n      shl\n      dup2\n      mstore\n      0x04\n      add\n      tag_68\n      swap4\n      swap3\n      swap2\n      swap1\n      tag_63\n      jump\t// in\n    tag_68:\n      0x20\n      mload(0x40)\n      dup1\n      dup4\n      sub\n      dup2\n      0x00\n      dup8\n      gas\n      call\n      iszero\n      dup1\n      iszero\n      tag_70\n      jumpi\n      returndatasize\n      0x00\n      dup1\n      returndatacopy\n      revert(0x00, returndatasize)\n    tag_70:\n      pop\n      pop\n      pop\n      pop\n      mload(0x40)\n      returndatasize\n      not(0x1f)\n      0x1f\n      dup3\n      add\n      and\n      dup3\n      add\n      dup1\n      0x40\n      mstore\n      pop\n      dup2\n      add\n      swap1\n      tag_71\n      swap2\n      swap1\n      tag_67\n      jump\t// in\n    tag_71:\n      pop\n        /* \"AMMProject/contracts/ConstantProductAMM.sol\":380:381  3 */\n      0x03\n        /* \"AMMProject/contracts/ConstantProductAMM.sol\":419:421  10 */\n      0x0a\n        /* \"AMMProject/contracts/ConstantProductAMM.sol\":419:433  10 ** DECIMALS */\n      tag_72\n      swap2\n      swap1\n      tag_52\n      jump\t// in\n    tag_72:\n        /* \"AMMProject/contracts/ConstantProductAMM.sol\":917:924  amount0 */\n      dup3\n        /* \"AMMProject/contracts/ConstantProductAMM.sol\":917:932  amount0 * SCALE */\n      tag_73\n      swap2\n      swap1\n      tag_74\n      jump\t// in\n    tag_73:\n        /* \"AMMProject/contracts/ConstantProductAMM.sol\":905:913  reserve0 */\n      0x02\n      0x00\n        /* \"AMMProject/contracts/ConstantProductAMM.sol\":905:932  reserve0 += amount0 * SCALE */\n      dup3\n      dup3\n      sload\n      tag_75\n      swap2\n      swap1\n      tag_76\n      jump\t// in\n    tag_75:\n      swap3\n      pop\n      pop\n      dup2\n      swap1\n      sstore\n      pop\n        /* \"AMMProject/contracts/ConstantProductAMM.sol\":380:381  3 */\n      0x03\n        /* \"AMMProject/contracts/ConstantProductAMM.sol\":419:421  10 */\n      0x0a\n        /* \"AMMProject/contracts/ConstantProductAMM.sol\":419:433  10 ** DECIMALS */\n      tag_77\n      swap2\n      swap1\n      tag_52\n      jump\t// in\n    tag_77:\n        /* \"AMMProject/contracts/ConstantProductAMM.sol\":954:961  amount1 */\n      dup2\n        /* \"AMMProject/contracts/ConstantProductAMM.sol\":954:969  amount1 * SCALE */\n      tag_78\n      swap2\n      swap1\n      tag_74\n      jump\t// in\n    tag_78:\n        /* \"AMMProject/contracts/ConstantProductAMM.sol\":942:950  reserve1 */\n      0x03\n      0x00\n        /* \"AMMProject/contracts/ConstantProductAMM.sol\":942:969  reserve1 += amount1 * SCALE */\n      dup3\n      dup3\n      sload\n      tag_79\n      swap2\n      swap1\n      tag_76\n      jump\t// in\n    tag_79:\n      swap3\n      pop\n      pop\n      dup2\n      swap1\n      sstore\n      pop\n        /* \"AMMProject/contracts/ConstantProductAMM.sol\":636:976  function addLiquidity(uint256 amount0, uint256 amount1) external {... */\n      pop\n      pop\n      jump\t// out\n        /* \"AMMProject/contracts/ConstantProductAMM.sol\":259:279  uint256 public price */\n    tag_38:\n      sload(0x04)\n      dup2\n      jump\t// out\n        /* \"AMMProject/contracts/ConstantProductAMM.sol\":175:195  IERC20 public token1 */\n    tag_41:\n      0x01\n      0x00\n      swap1\n      sload\n      swap1\n      0x0100\n      exp\n      swap1\n      div\n      0xffffffffffffffffffffffffffffffffffffffff\n      and\n      dup2\n      jump\t// out\n        /* \"AMMProject/contracts/ConstantProductAMM.sol\":3309:3575  function setExchangeRate(uint256 targetPrice) external {... */\n    tag_46:\n        /* \"AMMProject/contracts/ConstantProductAMM.sol\":3396:3397  0 */\n      0x00\n        /* \"AMMProject/contracts/ConstantProductAMM.sol\":3382:3393  targetPrice */\n      dup2\n        /* \"AMMProject/contracts/ConstantProductAMM.sol\":3382:3397  targetPrice > 0 */\n      gt\n        /* \"AMMProject/contracts/ConstantProductAMM.sol\":3374:3422  require(targetPrice > 0, \"Invalid target price\") */\n      tag_81\n      jumpi\n      mload(0x40)\n      0x08c379a000000000000000000000000000000000000000000000000000000000\n      dup2\n      mstore\n      0x04\n      add\n      tag_82\n      swap1\n      tag_83\n      jump\t// in\n    tag_82:\n      mload(0x40)\n      dup1\n      swap2\n      sub\n      swap1\n      revert\n    tag_81:\n        /* \"AMMProject/contracts/ConstantProductAMM.sol\":3432:3448  uint256 oldPrice */\n      0x00\n        /* \"AMMProject/contracts/ConstantProductAMM.sol\":3461:3462  0 */\n      dup1\n        /* \"AMMProject/contracts/ConstantProductAMM.sol\":3452:3457  price */\n      sload(0x04)\n        /* \"AMMProject/contracts/ConstantProductAMM.sol\":3452:3462  price == 0 */\n      eq\n        /* \"AMMProject/contracts/ConstantProductAMM.sol\":3451:3493  (price == 0) ? targetPrice * SCALE : price */\n      tag_84\n      jumpi\n        /* \"AMMProject/contracts/ConstantProductAMM.sol\":3488:3493  price */\n      sload(0x04)\n        /* \"AMMProject/contracts/ConstantProductAMM.sol\":3451:3493  (price == 0) ? targetPrice * SCALE : price */\n      jump(tag_85)\n    tag_84:\n        /* \"AMMProject/contracts/ConstantProductAMM.sol\":380:381  3 */\n      0x03\n        /* \"AMMProject/contracts/ConstantProductAMM.sol\":419:421  10 */\n      0x0a\n        /* \"AMMProject/contracts/ConstantProductAMM.sol\":419:433  10 ** DECIMALS */\n      tag_86\n      swap2\n      swap1\n      tag_52\n      jump\t// in\n    tag_86:\n        /* \"AMMProject/contracts/ConstantProductAMM.sol\":3466:3477  targetPrice */\n      dup3\n        /* \"AMMProject/contracts/ConstantProductAMM.sol\":3466:3485  targetPrice * SCALE */\n      tag_87\n      swap2\n      swap1\n      tag_74\n      jump\t// in\n    tag_87:\n        /* \"AMMProject/contracts/ConstantProductAMM.sol\":3451:3493  (price == 0) ? targetPrice * SCALE : price */\n    tag_85:\n        /* \"AMMProject/contracts/ConstantProductAMM.sol\":3432:3493  uint256 oldPrice = (price == 0) ? targetPrice * SCALE : price */\n      swap1\n      pop\n        /* \"AMMProject/contracts/ConstantProductAMM.sol\":380:381  3 */\n      0x03\n        /* \"AMMProject/contracts/ConstantProductAMM.sol\":419:421  10 */\n      0x0a\n        /* \"AMMProject/contracts/ConstantProductAMM.sol\":419:433  10 ** DECIMALS */\n      tag_88\n      swap2\n      swap1\n      tag_52\n      jump\t// in\n    tag_88:\n        /* \"AMMProject/contracts/ConstantProductAMM.sol\":3511:3522  targetPrice */\n      dup3\n        /* \"AMMProject/contracts/ConstantProductAMM.sol\":3511:3530  targetPrice * SCALE */\n      tag_89\n      swap2\n      swap1\n      tag_74\n      jump\t// in\n    tag_89:\n        /* \"AMMProject/contracts/ConstantProductAMM.sol\":3503:3508  price */\n      0x04\n        /* \"AMMProject/contracts/ConstantProductAMM.sol\":3503:3530  price = targetPrice * SCALE */\n      dup2\n      swap1\n      sstore\n      pop\n        /* \"AMMProject/contracts/ConstantProductAMM.sol\":3540:3568  balancePool(oldPrice, price) */\n      tag_90\n        /* \"AMMProject/contracts/ConstantProductAMM.sol\":3552:3560  oldPrice */\n      dup2\n        /* \"AMMProject/contracts/ConstantProductAMM.sol\":3562:3567  price */\n      sload(0x04)\n        /* \"AMMProject/contracts/ConstantProductAMM.sol\":3540:3551  balancePool */\n      tag_91\n        /* \"AMMProject/contracts/ConstantProductAMM.sol\":3540:3568  balancePool(oldPrice, price) */\n      jump\t// in\n    tag_90:\n        /* \"AMMProject/contracts/ConstantProductAMM.sol\":3364:3575  {... */\n      pop\n        /* \"AMMProject/contracts/ConstantProductAMM.sol\":3309:3575  function setExchangeRate(uint256 targetPrice) external {... */\n      pop\n      jump\t// out\n        /* \"AMMProject/contracts/ConstantProductAMM.sol\":387:433  uint256 public constant SCALE = 10 ** DECIMALS */\n    tag_48:\n        /* \"AMMProject/contracts/ConstantProductAMM.sol\":380:381  3 */\n      0x03\n        /* \"AMMProject/contracts/ConstantProductAMM.sol\":419:421  10 */\n      0x0a\n        /* \"AMMProject/contracts/ConstantProductAMM.sol\":419:433  10 ** DECIMALS */\n      tag_92\n      swap2\n      swap1\n      tag_52\n      jump\t// in\n    tag_92:\n        /* \"AMMProject/contracts/ConstantProductAMM.sol\":387:433  uint256 public constant SCALE = 10 ** DECIMALS */\n      dup2\n      jump\t// out\n        /* \"AMMProject/contracts/ConstantProductAMM.sol\":3581:3968  function balancePool(uint256 oldPrice, uint256 newPrice) internal {... */\n    tag_91:\n        /* \"AMMProject/contracts/ConstantProductAMM.sol\":3673:3681  newPrice */\n      dup1\n        /* \"AMMProject/contracts/ConstantProductAMM.sol\":3661:3669  oldPrice */\n      dup3\n        /* \"AMMProject/contracts/ConstantProductAMM.sol\":3661:3681  oldPrice == newPrice */\n      sub\n        /* \"AMMProject/contracts/ConstantProductAMM.sol\":3657:3713  if (oldPrice == newPrice){... */\n      iszero\n        /* \"AMMProject/contracts/ConstantProductAMM.sol\":3696:3703  return; */\n      tag_93\n        /* \"AMMProject/contracts/ConstantProductAMM.sol\":3657:3713  if (oldPrice == newPrice){... */\n      jumpi\n        /* \"AMMProject/contracts/ConstantProductAMM.sol\":3722:3745  uint256 desiredReserve1 */\n      0x00\n        /* \"AMMProject/contracts/ConstantProductAMM.sol\":380:381  3 */\n      0x03\n        /* \"AMMProject/contracts/ConstantProductAMM.sol\":419:421  10 */\n      0x0a\n        /* \"AMMProject/contracts/ConstantProductAMM.sol\":419:433  10 ** DECIMALS */\n      tag_95\n      swap2\n      swap1\n      tag_52\n      jump\t// in\n    tag_95:\n        /* \"AMMProject/contracts/ConstantProductAMM.sol\":3748:3793  sqrt((oldPrice * newPrice) / (SCALE * SCALE)) */\n      tag_96\n        /* \"AMMProject/contracts/ConstantProductAMM.sol\":380:381  3 */\n      0x03\n        /* \"AMMProject/contracts/ConstantProductAMM.sol\":419:421  10 */\n      0x0a\n        /* \"AMMProject/contracts/ConstantProductAMM.sol\":419:433  10 ** DECIMALS */\n      tag_97\n      swap2\n      swap1\n      tag_52\n      jump\t// in\n    tag_97:\n        /* \"AMMProject/contracts/ConstantProductAMM.sol\":380:381  3 */\n      0x03\n        /* \"AMMProject/contracts/ConstantProductAMM.sol\":419:421  10 */\n      0x0a\n        /* \"AMMProject/contracts/ConstantProductAMM.sol\":419:433  10 ** DECIMALS */\n      tag_98\n      swap2\n      swap1\n      tag_52\n      jump\t// in\n    tag_98:\n        /* \"AMMProject/contracts/ConstantProductAMM.sol\":3778:3791  SCALE * SCALE */\n      tag_99\n      swap2\n      swap1\n      tag_74\n      jump\t// in\n    tag_99:\n        /* \"AMMProject/contracts/ConstantProductAMM.sol\":3765:3773  newPrice */\n      dup5\n        /* \"AMMProject/contracts/ConstantProductAMM.sol\":3754:3762  oldPrice */\n      dup7\n        /* \"AMMProject/contracts/ConstantProductAMM.sol\":3754:3773  oldPrice * newPrice */\n      tag_100\n      swap2\n      swap1\n      tag_74\n      jump\t// in\n    tag_100:\n        /* \"AMMProject/contracts/ConstantProductAMM.sol\":3753:3792  (oldPrice * newPrice) / (SCALE * SCALE) */\n      tag_101\n      swap2\n      swap1\n      tag_54\n      jump\t// in\n    tag_101:\n        /* \"AMMProject/contracts/ConstantProductAMM.sol\":3748:3752  sqrt */\n      tag_102\n        /* \"AMMProject/contracts/ConstantProductAMM.sol\":3748:3793  sqrt((oldPrice * newPrice) / (SCALE * SCALE)) */\n      jump\t// in\n    tag_96:\n        /* \"AMMProject/contracts/ConstantProductAMM.sol\":3748:3799  sqrt((oldPrice * newPrice) / (SCALE * SCALE))*SCALE */\n      tag_103\n      swap2\n      swap1\n      tag_74\n      jump\t// in\n    tag_103:\n        /* \"AMMProject/contracts/ConstantProductAMM.sol\":3722:3799  uint256 desiredReserve1 = sqrt((oldPrice * newPrice) / (SCALE * SCALE))*SCALE */\n      swap1\n      pop\n        /* \"AMMProject/contracts/ConstantProductAMM.sol\":3809:3832  uint256 desiredReserve0 */\n      0x00\n        /* \"AMMProject/contracts/ConstantProductAMM.sol\":3851:3859  newPrice */\n      dup3\n        /* \"AMMProject/contracts/ConstantProductAMM.sol\":3835:3850  desiredReserve1 */\n      dup3\n        /* \"AMMProject/contracts/ConstantProductAMM.sol\":3835:3859  desiredReserve1/newPrice */\n      tag_104\n      swap2\n      swap1\n      tag_54\n      jump\t// in\n    tag_104:\n        /* \"AMMProject/contracts/ConstantProductAMM.sol\":3809:3859  uint256 desiredReserve0 = desiredReserve1/newPrice */\n      swap1\n      pop\n        /* \"AMMProject/contracts/ConstantProductAMM.sol\":3874:3894  uint256 amountToSwap */\n      0x00\n        /* \"AMMProject/contracts/ConstantProductAMM.sol\":3915:3923  reserve0 */\n      sload(0x02)\n        /* \"AMMProject/contracts/ConstantProductAMM.sol\":3897:3912  desiredReserve0 */\n      dup3\n        /* \"AMMProject/contracts/ConstantProductAMM.sol\":3897:3923  desiredReserve0 - reserve0 */\n      tag_105\n      swap2\n      swap1\n      tag_106\n      jump\t// in\n    tag_105:\n        /* \"AMMProject/contracts/ConstantProductAMM.sol\":3874:3923  uint256 amountToSwap = desiredReserve0 - reserve0 */\n      swap1\n      pop\n        /* \"AMMProject/contracts/ConstantProductAMM.sol\":3933:3960  _internalSwap(amountToSwap) */\n      tag_107\n        /* \"AMMProject/contracts/ConstantProductAMM.sol\":3947:3959  amountToSwap */\n      dup2\n        /* \"AMMProject/contracts/ConstantProductAMM.sol\":3933:3946  _internalSwap */\n      tag_108\n        /* \"AMMProject/contracts/ConstantProductAMM.sol\":3933:3960  _internalSwap(amountToSwap) */\n      jump\t// in\n    tag_107:\n        /* \"AMMProject/contracts/ConstantProductAMM.sol\":3647:3968  {... */\n      pop\n      pop\n      pop\n        /* \"AMMProject/contracts/ConstantProductAMM.sol\":3581:3968  function balancePool(uint256 oldPrice, uint256 newPrice) internal {... */\n    tag_93:\n      pop\n      pop\n      jump\t// out\n        /* \"AMMProject/contracts/ConstantProductAMM.sol\":3974:4266  function sqrt(uint y) internal pure returns (uint z) {... */\n    tag_102:\n        /* \"AMMProject/contracts/ConstantProductAMM.sol\":4019:4025  uint z */\n      0x00\n        /* \"AMMProject/contracts/ConstantProductAMM.sol\":4045:4046  3 */\n      0x03\n        /* \"AMMProject/contracts/ConstantProductAMM.sol\":4041:4042  y */\n      dup3\n        /* \"AMMProject/contracts/ConstantProductAMM.sol\":4041:4046  y > 3 */\n      gt\n        /* \"AMMProject/contracts/ConstantProductAMM.sol\":4037:4260  if (y > 3) {... */\n      iszero\n      tag_110\n      jumpi\n        /* \"AMMProject/contracts/ConstantProductAMM.sol\":4066:4067  y */\n      dup2\n        /* \"AMMProject/contracts/ConstantProductAMM.sol\":4062:4067  z = y */\n      swap1\n      pop\n        /* \"AMMProject/contracts/ConstantProductAMM.sol\":4081:4087  uint x */\n      0x00\n        /* \"AMMProject/contracts/ConstantProductAMM.sol\":4098:4099  1 */\n      0x01\n        /* \"AMMProject/contracts/ConstantProductAMM.sol\":4094:4095  2 */\n      0x02\n        /* \"AMMProject/contracts/ConstantProductAMM.sol\":4090:4091  y */\n      dup5\n        /* \"AMMProject/contracts/ConstantProductAMM.sol\":4090:4095  y / 2 */\n      tag_111\n      swap2\n      swap1\n      tag_54\n      jump\t// in\n    tag_111:\n        /* \"AMMProject/contracts/ConstantProductAMM.sol\":4090:4099  y / 2 + 1 */\n      tag_112\n      swap2\n      swap1\n      tag_76\n      jump\t// in\n    tag_112:\n        /* \"AMMProject/contracts/ConstantProductAMM.sol\":4081:4099  uint x = y / 2 + 1 */\n      swap1\n      pop\n        /* \"AMMProject/contracts/ConstantProductAMM.sol\":4113:4202  while (x < z) {... */\n    tag_113:\n        /* \"AMMProject/contracts/ConstantProductAMM.sol\":4124:4125  z */\n      dup2\n        /* \"AMMProject/contracts/ConstantProductAMM.sol\":4120:4121  x */\n      dup2\n        /* \"AMMProject/contracts/ConstantProductAMM.sol\":4120:4125  x < z */\n      lt\n        /* \"AMMProject/contracts/ConstantProductAMM.sol\":4113:4202  while (x < z) {... */\n      iszero\n      tag_114\n      jumpi\n        /* \"AMMProject/contracts/ConstantProductAMM.sol\":4149:4150  x */\n      dup1\n        /* \"AMMProject/contracts/ConstantProductAMM.sol\":4145:4150  z = x */\n      swap2\n      pop\n        /* \"AMMProject/contracts/ConstantProductAMM.sol\":4186:4187  2 */\n      0x02\n        /* \"AMMProject/contracts/ConstantProductAMM.sol\":4181:4182  x */\n      dup2\n        /* \"AMMProject/contracts/ConstantProductAMM.sol\":4177:4178  x */\n      dup3\n        /* \"AMMProject/contracts/ConstantProductAMM.sol\":4173:4174  y */\n      dup6\n        /* \"AMMProject/contracts/ConstantProductAMM.sol\":4173:4178  y / x */\n      tag_115\n      swap2\n      swap1\n      tag_54\n      jump\t// in\n    tag_115:\n        /* \"AMMProject/contracts/ConstantProductAMM.sol\":4173:4182  y / x + x */\n      tag_116\n      swap2\n      swap1\n      tag_76\n      jump\t// in\n    tag_116:\n        /* \"AMMProject/contracts/ConstantProductAMM.sol\":4172:4187  (y / x + x) / 2 */\n      tag_117\n      swap2\n      swap1\n      tag_54\n      jump\t// in\n    tag_117:\n        /* \"AMMProject/contracts/ConstantProductAMM.sol\":4168:4187  x = (y / x + x) / 2 */\n      swap1\n      pop\n        /* \"AMMProject/contracts/ConstantProductAMM.sol\":4113:4202  while (x < z) {... */\n      jump(tag_113)\n    tag_114:\n        /* \"AMMProject/contracts/ConstantProductAMM.sol\":4048:4212  {... */\n      pop\n        /* \"AMMProject/contracts/ConstantProductAMM.sol\":4037:4260  if (y > 3) {... */\n      jump(tag_118)\n    tag_110:\n        /* \"AMMProject/contracts/ConstantProductAMM.sol\":4227:4228  0 */\n      0x00\n        /* \"AMMProject/contracts/ConstantProductAMM.sol\":4222:4223  y */\n      dup3\n        /* \"AMMProject/contracts/ConstantProductAMM.sol\":4222:4228  y != 0 */\n      eq\n        /* \"AMMProject/contracts/ConstantProductAMM.sol\":4218:4260  if (y != 0) {... */\n      tag_119\n      jumpi\n        /* \"AMMProject/contracts/ConstantProductAMM.sol\":4248:4249  1 */\n      0x01\n        /* \"AMMProject/contracts/ConstantProductAMM.sol\":4244:4249  z = 1 */\n      swap1\n      pop\n        /* \"AMMProject/contracts/ConstantProductAMM.sol\":4218:4260  if (y != 0) {... */\n    tag_119:\n        /* \"AMMProject/contracts/ConstantProductAMM.sol\":4037:4260  if (y > 3) {... */\n    tag_118:\n        /* \"AMMProject/contracts/ConstantProductAMM.sol\":3974:4266  function sqrt(uint y) internal pure returns (uint z) {... */\n      swap2\n      swap1\n      pop\n      jump\t// out\n        /* \"AMMProject/contracts/ConstantProductAMM.sol\":2817:3175  function _internalSwap(uint256 amount) internal {... */\n    tag_108:\n        /* \"AMMProject/contracts/ConstantProductAMM.sol\":2888:2889  0 */\n      0x00\n        /* \"AMMProject/contracts/ConstantProductAMM.sol\":2879:2885  amount */\n      dup2\n        /* \"AMMProject/contracts/ConstantProductAMM.sol\":2879:2889  amount < 0 */\n      lt\n        /* \"AMMProject/contracts/ConstantProductAMM.sol\":2875:3103  if (amount < 0){... */\n      iszero\n      tag_121\n      jumpi\n        /* \"AMMProject/contracts/ConstantProductAMM.sol\":2928:2936  reserve1 */\n      sload(0x03)\n        /* \"AMMProject/contracts/ConstantProductAMM.sol\":2919:2924  price */\n      sload(0x04)\n        /* \"AMMProject/contracts/ConstantProductAMM.sol\":2912:2918  amount */\n      dup3\n        /* \"AMMProject/contracts/ConstantProductAMM.sol\":2912:2924  amount*price */\n      tag_122\n      swap2\n      swap1\n      tag_74\n      jump\t// in\n    tag_122:\n        /* \"AMMProject/contracts/ConstantProductAMM.sol\":2912:2936  amount*price <= reserve1 */\n      gt\n      iszero\n        /* \"AMMProject/contracts/ConstantProductAMM.sol\":2904:2961  require(amount*price <= reserve1, \"Not enough liquidity\") */\n      tag_123\n      jumpi\n      mload(0x40)\n      0x08c379a000000000000000000000000000000000000000000000000000000000\n      dup2\n      mstore\n      0x04\n      add\n      tag_124\n      swap1\n      tag_125\n      jump\t// in\n    tag_124:\n      mload(0x40)\n      dup1\n      swap2\n      sub\n      swap1\n      revert\n    tag_123:\n        /* \"AMMProject/contracts/ConstantProductAMM.sol\":2875:3103  if (amount < 0){... */\n      jump(tag_126)\n    tag_121:\n        /* \"AMMProject/contracts/ConstantProductAMM.sol\":2991:2992  0 */\n      0x00\n        /* \"AMMProject/contracts/ConstantProductAMM.sol\":2981:2987  amount */\n      dup2\n        /* \"AMMProject/contracts/ConstantProductAMM.sol\":2981:2992  amount == 0 */\n      sub\n        /* \"AMMProject/contracts/ConstantProductAMM.sol\":2977:3103  if (amount == 0){... */\n      iszero\n        /* \"AMMProject/contracts/ConstantProductAMM.sol\":3007:3014  return; */\n      tag_120\n        /* \"AMMProject/contracts/ConstantProductAMM.sol\":2977:3103  if (amount == 0){... */\n      jumpi\n        /* \"AMMProject/contracts/ConstantProductAMM.sol\":3059:3067  reserve0 */\n      sload(0x02)\n        /* \"AMMProject/contracts/ConstantProductAMM.sol\":3050:3056  amount */\n      dup2\n        /* \"AMMProject/contracts/ConstantProductAMM.sol\":3050:3067  amount > reserve0 */\n      gt\n        /* \"AMMProject/contracts/ConstantProductAMM.sol\":3042:3092  require(amount > reserve0, \"Not enough liquidity\") */\n      tag_129\n      jumpi\n      mload(0x40)\n      0x08c379a000000000000000000000000000000000000000000000000000000000\n      dup2\n      mstore\n      0x04\n      add\n      tag_130\n      swap1\n      tag_125\n      jump\t// in\n    tag_130:\n      mload(0x40)\n      dup1\n      swap2\n      sub\n      swap1\n      revert\n    tag_129:\n        /* \"AMMProject/contracts/ConstantProductAMM.sol\":2875:3103  if (amount < 0){... */\n    tag_126:\n        /* \"AMMProject/contracts/ConstantProductAMM.sol\":3124:3130  amount */\n      dup1\n        /* \"AMMProject/contracts/ConstantProductAMM.sol\":3112:3120  reserve0 */\n      0x02\n      0x00\n        /* \"AMMProject/contracts/ConstantProductAMM.sol\":3112:3130  reserve0 -= amount */\n      dup3\n      dup3\n      sload\n      tag_131\n      swap2\n      swap1\n      tag_106\n      jump\t// in\n    tag_131:\n      swap3\n      pop\n      pop\n      dup2\n      swap1\n      sstore\n      pop\n        /* \"AMMProject/contracts/ConstantProductAMM.sol\":3162:3167  price */\n      sload(0x04)\n        /* \"AMMProject/contracts/ConstantProductAMM.sol\":3153:3159  amount */\n      dup2\n        /* \"AMMProject/contracts/ConstantProductAMM.sol\":3153:3167  amount * price */\n      tag_132\n      swap2\n      swap1\n      tag_74\n      jump\t// in\n    tag_132:\n        /* \"AMMProject/contracts/ConstantProductAMM.sol\":3140:3148  reserve1 */\n      0x03\n      0x00\n        /* \"AMMProject/contracts/ConstantProductAMM.sol\":3140:3168  reserve1 += (amount * price) */\n      dup3\n      dup3\n      sload\n      tag_133\n      swap2\n      swap1\n      tag_76\n      jump\t// in\n    tag_133:\n      swap3\n      pop\n      pop\n      dup2\n      swap1\n      sstore\n      pop\n        /* \"AMMProject/contracts/ConstantProductAMM.sol\":2817:3175  function _internalSwap(uint256 amount) internal {... */\n    tag_120:\n      pop\n      jump\t// out\n        /* \"#utility.yul\":7:84   */\n    tag_134:\n        /* \"#utility.yul\":44:51   */\n      0x00\n        /* \"#utility.yul\":73:78   */\n      dup2\n        /* \"#utility.yul\":62:78   */\n      swap1\n      pop\n        /* \"#utility.yul\":7:84   */\n      swap2\n      swap1\n      pop\n      jump\t// out\n        /* \"#utility.yul\":90:208   */\n    tag_135:\n        /* \"#utility.yul\":177:201   */\n      tag_169\n        /* \"#utility.yul\":195:200   */\n      dup2\n        /* \"#utility.yul\":177:201   */\n      tag_134\n      jump\t// in\n    tag_169:\n        /* \"#utility.yul\":172:175   */\n      dup3\n        /* \"#utility.yul\":165:202   */\n      mstore\n        /* \"#utility.yul\":90:208   */\n      pop\n      pop\n      jump\t// out\n        /* \"#utility.yul\":214:546   */\n    tag_17:\n        /* \"#utility.yul\":335:339   */\n      0x00\n        /* \"#utility.yul\":373:375   */\n      0x40\n        /* \"#utility.yul\":362:371   */\n      dup3\n        /* \"#utility.yul\":358:376   */\n      add\n        /* \"#utility.yul\":350:376   */\n      swap1\n      pop\n        /* \"#utility.yul\":386:457   */\n      tag_171\n        /* \"#utility.yul\":454:455   */\n      0x00\n        /* \"#utility.yul\":443:452   */\n      dup4\n        /* \"#utility.yul\":439:456   */\n      add\n        /* \"#utility.yul\":430:436   */\n      dup6\n        /* \"#utility.yul\":386:457   */\n      tag_135\n      jump\t// in\n    tag_171:\n        /* \"#utility.yul\":467:539   */\n      tag_172\n        /* \"#utility.yul\":535:537   */\n      0x20\n        /* \"#utility.yul\":524:533   */\n      dup4\n        /* \"#utility.yul\":520:538   */\n      add\n        /* \"#utility.yul\":511:517   */\n      dup5\n        /* \"#utility.yul\":467:539   */\n      tag_135\n      jump\t// in\n    tag_172:\n        /* \"#utility.yul\":214:546   */\n      swap4\n      swap3\n      pop\n      pop\n      pop\n      jump\t// out\n        /* \"#utility.yul\":552:678   */\n    tag_136:\n        /* \"#utility.yul\":589:596   */\n      0x00\n        /* \"#utility.yul\":629:671   */\n      0xffffffffffffffffffffffffffffffffffffffff\n        /* \"#utility.yul\":622:627   */\n      dup3\n        /* \"#utility.yul\":618:672   */\n      and\n        /* \"#utility.yul\":607:672   */\n      swap1\n      pop\n        /* \"#utility.yul\":552:678   */\n      swap2\n      swap1\n      pop\n      jump\t// out\n        /* \"#utility.yul\":684:744   */\n    tag_137:\n        /* \"#utility.yul\":712:715   */\n      0x00\n        /* \"#utility.yul\":733:738   */\n      dup2\n        /* \"#utility.yul\":726:738   */\n      swap1\n      pop\n        /* \"#utility.yul\":684:744   */\n      swap2\n      swap1\n      pop\n      jump\t// out\n        /* \"#utility.yul\":750:892   */\n    tag_138:\n        /* \"#utility.yul\":800:809   */\n      0x00\n        /* \"#utility.yul\":833:886   */\n      tag_176\n        /* \"#utility.yul\":851:885   */\n      tag_177\n        /* \"#utility.yul\":860:884   */\n      tag_178\n        /* \"#utility.yul\":878:883   */\n      dup5\n        /* \"#utility.yul\":860:884   */\n      tag_136\n      jump\t// in\n    tag_178:\n        /* \"#utility.yul\":851:885   */\n      tag_137\n      jump\t// in\n    tag_177:\n        /* \"#utility.yul\":833:886   */\n      tag_136\n      jump\t// in\n    tag_176:\n        /* \"#utility.yul\":820:886   */\n      swap1\n      pop\n        /* \"#utility.yul\":750:892   */\n      swap2\n      swap1\n      pop\n      jump\t// out\n        /* \"#utility.yul\":898:1024   */\n    tag_139:\n        /* \"#utility.yul\":948:957   */\n      0x00\n        /* \"#utility.yul\":981:1018   */\n      tag_180\n        /* \"#utility.yul\":1012:1017   */\n      dup3\n        /* \"#utility.yul\":981:1018   */\n      tag_138\n      jump\t// in\n    tag_180:\n        /* \"#utility.yul\":968:1018   */\n      swap1\n      pop\n        /* \"#utility.yul\":898:1024   */\n      swap2\n      swap1\n      pop\n      jump\t// out\n        /* \"#utility.yul\":1030:1169   */\n    tag_140:\n        /* \"#utility.yul\":1093:1102   */\n      0x00\n        /* \"#utility.yul\":1126:1163   */\n      tag_182\n        /* \"#utility.yul\":1157:1162   */\n      dup3\n        /* \"#utility.yul\":1126:1163   */\n      tag_139\n      jump\t// in\n    tag_182:\n        /* \"#utility.yul\":1113:1163   */\n      swap1\n      pop\n        /* \"#utility.yul\":1030:1169   */\n      swap2\n      swap1\n      pop\n      jump\t// out\n        /* \"#utility.yul\":1175:1332   */\n    tag_141:\n        /* \"#utility.yul\":1275:1325   */\n      tag_184\n        /* \"#utility.yul\":1319:1324   */\n      dup2\n        /* \"#utility.yul\":1275:1325   */\n      tag_140\n      jump\t// in\n    tag_184:\n        /* \"#utility.yul\":1270:1273   */\n      dup3\n        /* \"#utility.yul\":1263:1326   */\n      mstore\n        /* \"#utility.yul\":1175:1332   */\n      pop\n      pop\n      jump\t// out\n        /* \"#utility.yul\":1338:1586   */\n    tag_21:\n        /* \"#utility.yul\":1444:1448   */\n      0x00\n        /* \"#utility.yul\":1482:1484   */\n      0x20\n        /* \"#utility.yul\":1471:1480   */\n      dup3\n        /* \"#utility.yul\":1467:1485   */\n      add\n        /* \"#utility.yul\":1459:1485   */\n      swap1\n      pop\n        /* \"#utility.yul\":1495:1579   */\n      tag_186\n        /* \"#utility.yul\":1576:1577   */\n      0x00\n        /* \"#utility.yul\":1565:1574   */\n      dup4\n        /* \"#utility.yul\":1561:1578   */\n      add\n        /* \"#utility.yul\":1552:1558   */\n      dup5\n        /* \"#utility.yul\":1495:1579   */\n      tag_141\n      jump\t// in\n    tag_186:\n        /* \"#utility.yul\":1338:1586   */\n      swap3\n      swap2\n      pop\n      pop\n      jump\t// out\n        /* \"#utility.yul\":1592:1678   */\n    tag_142:\n        /* \"#utility.yul\":1627:1634   */\n      0x00\n        /* \"#utility.yul\":1667:1671   */\n      0xff\n        /* \"#utility.yul\":1660:1665   */\n      dup3\n        /* \"#utility.yul\":1656:1672   */\n      and\n        /* \"#utility.yul\":1645:1672   */\n      swap1\n      pop\n        /* \"#utility.yul\":1592:1678   */\n      swap2\n      swap1\n      pop\n      jump\t// out\n        /* \"#utility.yul\":1684:1796   */\n    tag_143:\n        /* \"#utility.yul\":1767:1789   */\n      tag_189\n        /* \"#utility.yul\":1783:1788   */\n      dup2\n        /* \"#utility.yul\":1767:1789   */\n      tag_142\n      jump\t// in\n    tag_189:\n        /* \"#utility.yul\":1762:1765   */\n      dup3\n        /* \"#utility.yul\":1755:1790   */\n      mstore\n        /* \"#utility.yul\":1684:1796   */\n      pop\n      pop\n      jump\t// out\n        /* \"#utility.yul\":1802:2016   */\n    tag_25:\n        /* \"#utility.yul\":1891:1895   */\n      0x00\n        /* \"#utility.yul\":1929:1931   */\n      0x20\n        /* \"#utility.yul\":1918:1927   */\n      dup3\n        /* \"#utility.yul\":1914:1932   */\n      add\n        /* \"#utility.yul\":1906:1932   */\n      swap1\n      pop\n        /* \"#utility.yul\":1942:2009   */\n      tag_191\n        /* \"#utility.yul\":2006:2007   */\n      0x00\n        /* \"#utility.yul\":1995:2004   */\n      dup4\n        /* \"#utility.yul\":1991:2008   */\n      add\n        /* \"#utility.yul\":1982:1988   */\n      dup5\n        /* \"#utility.yul\":1942:2009   */\n      tag_143\n      jump\t// in\n    tag_191:\n        /* \"#utility.yul\":1802:2016   */\n      swap3\n      swap2\n      pop\n      pop\n      jump\t// out\n        /* \"#utility.yul\":2022:2244   */\n    tag_29:\n        /* \"#utility.yul\":2115:2119   */\n      0x00\n        /* \"#utility.yul\":2153:2155   */\n      0x20\n        /* \"#utility.yul\":2142:2151   */\n      dup3\n        /* \"#utility.yul\":2138:2156   */\n      add\n        /* \"#utility.yul\":2130:2156   */\n      swap1\n      pop\n        /* \"#utility.yul\":2166:2237   */\n      tag_193\n        /* \"#utility.yul\":2234:2235   */\n      0x00\n        /* \"#utility.yul\":2223:2232   */\n      dup4\n        /* \"#utility.yul\":2219:2236   */\n      add\n        /* \"#utility.yul\":2210:2216   */\n      dup5\n        /* \"#utility.yul\":2166:2237   */\n      tag_135\n      jump\t// in\n    tag_193:\n        /* \"#utility.yul\":2022:2244   */\n      swap3\n      swap2\n      pop\n      pop\n      jump\t// out\n        /* \"#utility.yul\":2331:2448   */\n    tag_145:\n        /* \"#utility.yul\":2440:2441   */\n      0x00\n        /* \"#utility.yul\":2437:2438   */\n      dup1\n        /* \"#utility.yul\":2430:2442   */\n      revert\n        /* \"#utility.yul\":2577:2699   */\n    tag_147:\n        /* \"#utility.yul\":2650:2674   */\n      tag_198\n        /* \"#utility.yul\":2668:2673   */\n      dup2\n        /* \"#utility.yul\":2650:2674   */\n      tag_134\n      jump\t// in\n    tag_198:\n        /* \"#utility.yul\":2643:2648   */\n      dup2\n        /* \"#utility.yul\":2640:2675   */\n      eq\n        /* \"#utility.yul\":2630:2693   */\n      tag_199\n      jumpi\n        /* \"#utility.yul\":2689:2690   */\n      0x00\n        /* \"#utility.yul\":2686:2687   */\n      dup1\n        /* \"#utility.yul\":2679:2691   */\n      revert\n        /* \"#utility.yul\":2630:2693   */\n    tag_199:\n        /* \"#utility.yul\":2577:2699   */\n      pop\n      jump\t// out\n        /* \"#utility.yul\":2705:2844   */\n    tag_148:\n        /* \"#utility.yul\":2751:2756   */\n      0x00\n        /* \"#utility.yul\":2789:2795   */\n      dup2\n        /* \"#utility.yul\":2776:2796   */\n      calldataload\n        /* \"#utility.yul\":2767:2796   */\n      swap1\n      pop\n        /* \"#utility.yul\":2805:2838   */\n      tag_201\n        /* \"#utility.yul\":2832:2837   */\n      dup2\n        /* \"#utility.yul\":2805:2838   */\n      tag_147\n      jump\t// in\n    tag_201:\n        /* \"#utility.yul\":2705:2844   */\n      swap3\n      swap2\n      pop\n      pop\n      jump\t// out\n        /* \"#utility.yul\":2850:3324   */\n    tag_35:\n        /* \"#utility.yul\":2918:2924   */\n      0x00\n        /* \"#utility.yul\":2926:2932   */\n      dup1\n        /* \"#utility.yul\":2975:2977   */\n      0x40\n        /* \"#utility.yul\":2963:2972   */\n      dup4\n        /* \"#utility.yul\":2954:2961   */\n      dup6\n        /* \"#utility.yul\":2950:2973   */\n      sub\n        /* \"#utility.yul\":2946:2978   */\n      slt\n        /* \"#utility.yul\":2943:3062   */\n      iszero\n      tag_203\n      jumpi\n        /* \"#utility.yul\":2981:3060   */\n      tag_204\n      tag_145\n      jump\t// in\n    tag_204:\n        /* \"#utility.yul\":2943:3062   */\n    tag_203:\n        /* \"#utility.yul\":3101:3102   */\n      0x00\n        /* \"#utility.yul\":3126:3179   */\n      tag_205\n        /* \"#utility.yul\":3171:3178   */\n      dup6\n        /* \"#utility.yul\":3162:3168   */\n      dup3\n        /* \"#utility.yul\":3151:3160   */\n      dup7\n        /* \"#utility.yul\":3147:3169   */\n      add\n        /* \"#utility.yul\":3126:3179   */\n      tag_148\n      jump\t// in\n    tag_205:\n        /* \"#utility.yul\":3116:3179   */\n      swap3\n      pop\n        /* \"#utility.yul\":3072:3189   */\n      pop\n        /* \"#utility.yul\":3228:3230   */\n      0x20\n        /* \"#utility.yul\":3254:3307   */\n      tag_206\n        /* \"#utility.yul\":3299:3306   */\n      dup6\n        /* \"#utility.yul\":3290:3296   */\n      dup3\n        /* \"#utility.yul\":3279:3288   */\n      dup7\n        /* \"#utility.yul\":3275:3297   */\n      add\n        /* \"#utility.yul\":3254:3307   */\n      tag_148\n      jump\t// in\n    tag_206:\n        /* \"#utility.yul\":3244:3307   */\n      swap2\n      pop\n        /* \"#utility.yul\":3199:3317   */\n      pop\n        /* \"#utility.yul\":2850:3324   */\n      swap3\n      pop\n      swap3\n      swap1\n      pop\n      jump\t// out\n        /* \"#utility.yul\":3330:3659   */\n    tag_45:\n        /* \"#utility.yul\":3389:3395   */\n      0x00\n        /* \"#utility.yul\":3438:3440   */\n      0x20\n        /* \"#utility.yul\":3426:3435   */\n      dup3\n        /* \"#utility.yul\":3417:3424   */\n      dup5\n        /* \"#utility.yul\":3413:3436   */\n      sub\n        /* \"#utility.yul\":3409:3441   */\n      slt\n        /* \"#utility.yul\":3406:3525   */\n      iszero\n      tag_208\n      jumpi\n        /* \"#utility.yul\":3444:3523   */\n      tag_209\n      tag_145\n      jump\t// in\n    tag_209:\n        /* \"#utility.yul\":3406:3525   */\n    tag_208:\n        /* \"#utility.yul\":3564:3565   */\n      0x00\n        /* \"#utility.yul\":3589:3642   */\n      tag_210\n        /* \"#utility.yul\":3634:3641   */\n      dup5\n        /* \"#utility.yul\":3625:3631   */\n      dup3\n        /* \"#utility.yul\":3614:3623   */\n      dup6\n        /* \"#utility.yul\":3610:3632   */\n      add\n        /* \"#utility.yul\":3589:3642   */\n      tag_148\n      jump\t// in\n    tag_210:\n        /* \"#utility.yul\":3579:3642   */\n      swap2\n      pop\n        /* \"#utility.yul\":3535:3652   */\n      pop\n        /* \"#utility.yul\":3330:3659   */\n      swap3\n      swap2\n      pop\n      pop\n      jump\t// out\n        /* \"#utility.yul\":3665:3845   */\n    tag_149:\n        /* \"#utility.yul\":3713:3790   */\n      0x4e487b7100000000000000000000000000000000000000000000000000000000\n        /* \"#utility.yul\":3710:3711   */\n      0x00\n        /* \"#utility.yul\":3703:3791   */\n      mstore\n        /* \"#utility.yul\":3810:3814   */\n      0x11\n        /* \"#utility.yul\":3807:3808   */\n      0x04\n        /* \"#utility.yul\":3800:3815   */\n      mstore\n        /* \"#utility.yul\":3834:3838   */\n      0x24\n        /* \"#utility.yul\":3831:3832   */\n      0x00\n        /* \"#utility.yul\":3824:3839   */\n      revert\n        /* \"#utility.yul\":3851:3953   */\n    tag_150:\n        /* \"#utility.yul\":3893:3901   */\n      0x00\n        /* \"#utility.yul\":3940:3945   */\n      dup2\n        /* \"#utility.yul\":3937:3938   */\n      0x01\n        /* \"#utility.yul\":3933:3946   */\n      shr\n        /* \"#utility.yul\":3912:3946   */\n      swap1\n      pop\n        /* \"#utility.yul\":3851:3953   */\n      swap2\n      swap1\n      pop\n      jump\t// out\n        /* \"#utility.yul\":3959:4807   */\n    tag_151:\n        /* \"#utility.yul\":4020:4025   */\n      0x00\n        /* \"#utility.yul\":4027:4031   */\n      dup1\n        /* \"#utility.yul\":4051:4057   */\n      dup3\n        /* \"#utility.yul\":4042:4057   */\n      swap2\n      pop\n        /* \"#utility.yul\":4075:4080   */\n      dup4\n        /* \"#utility.yul\":4066:4080   */\n      swap1\n      pop\n        /* \"#utility.yul\":4089:4801   */\n    tag_214:\n        /* \"#utility.yul\":4110:4111   */\n      0x01\n        /* \"#utility.yul\":4100:4108   */\n      dup6\n        /* \"#utility.yul\":4097:4112   */\n      gt\n        /* \"#utility.yul\":4089:4801   */\n      iszero\n      tag_216\n      jumpi\n        /* \"#utility.yul\":4205:4209   */\n      dup1\n        /* \"#utility.yul\":4200:4203   */\n      dup7\n        /* \"#utility.yul\":4196:4210   */\n      div\n        /* \"#utility.yul\":4190:4194   */\n      dup2\n        /* \"#utility.yul\":4187:4211   */\n      gt\n        /* \"#utility.yul\":4184:4234   */\n      iszero\n      tag_217\n      jumpi\n        /* \"#utility.yul\":4214:4232   */\n      tag_218\n      tag_149\n      jump\t// in\n    tag_218:\n        /* \"#utility.yul\":4184:4234   */\n    tag_217:\n        /* \"#utility.yul\":4264:4265   */\n      0x01\n        /* \"#utility.yul\":4254:4262   */\n      dup6\n        /* \"#utility.yul\":4250:4266   */\n      and\n        /* \"#utility.yul\":4247:4698   */\n      iszero\n      tag_219\n      jumpi\n        /* \"#utility.yul\":4679:4683   */\n      dup1\n        /* \"#utility.yul\":4672:4677   */\n      dup3\n        /* \"#utility.yul\":4668:4684   */\n      mul\n        /* \"#utility.yul\":4659:4684   */\n      swap2\n      pop\n        /* \"#utility.yul\":4247:4698   */\n    tag_219:\n        /* \"#utility.yul\":4729:4733   */\n      dup1\n        /* \"#utility.yul\":4723:4727   */\n      dup2\n        /* \"#utility.yul\":4719:4734   */\n      mul\n        /* \"#utility.yul\":4711:4734   */\n      swap1\n      pop\n        /* \"#utility.yul\":4759:4791   */\n      tag_220\n        /* \"#utility.yul\":4782:4790   */\n      dup6\n        /* \"#utility.yul\":4759:4791   */\n      tag_150\n      jump\t// in\n    tag_220:\n        /* \"#utility.yul\":4747:4791   */\n      swap5\n      pop\n        /* \"#utility.yul\":4089:4801   */\n      jump(tag_214)\n    tag_216:\n        /* \"#utility.yul\":3959:4807   */\n      swap5\n      pop\n      swap5\n      swap3\n      pop\n      pop\n      pop\n      jump\t// out\n        /* \"#utility.yul\":4813:5886   */\n    tag_152:\n        /* \"#utility.yul\":4867:4872   */\n      0x00\n        /* \"#utility.yul\":5058:5066   */\n      dup3\n        /* \"#utility.yul\":5048:5088   */\n      tag_222\n      jumpi\n        /* \"#utility.yul\":5079:5080   */\n      0x01\n        /* \"#utility.yul\":5070:5080   */\n      swap1\n      pop\n        /* \"#utility.yul\":5081:5086   */\n      jump(tag_221)\n        /* \"#utility.yul\":5048:5088   */\n    tag_222:\n        /* \"#utility.yul\":5107:5111   */\n      dup2\n        /* \"#utility.yul\":5097:5133   */\n      tag_223\n      jumpi\n        /* \"#utility.yul\":5124:5125   */\n      0x00\n        /* \"#utility.yul\":5115:5125   */\n      swap1\n      pop\n        /* \"#utility.yul\":5126:5131   */\n      jump(tag_221)\n        /* \"#utility.yul\":5097:5133   */\n    tag_223:\n        /* \"#utility.yul\":5193:5197   */\n      dup2\n        /* \"#utility.yul\":5241:5242   */\n      0x01\n        /* \"#utility.yul\":5236:5263   */\n      dup2\n      eq\n      tag_225\n      jumpi\n        /* \"#utility.yul\":5277:5278   */\n      0x02\n        /* \"#utility.yul\":5272:5463   */\n      dup2\n      eq\n      tag_226\n      jumpi\n        /* \"#utility.yul\":5186:5463   */\n      jump(tag_224)\n        /* \"#utility.yul\":5236:5263   */\n    tag_225:\n        /* \"#utility.yul\":5254:5255   */\n      0x01\n        /* \"#utility.yul\":5245:5255   */\n      swap2\n      pop\n        /* \"#utility.yul\":5256:5261   */\n      pop\n      jump(tag_221)\n        /* \"#utility.yul\":5272:5463   */\n    tag_226:\n        /* \"#utility.yul\":5317:5320   */\n      0xff\n        /* \"#utility.yul\":5307:5315   */\n      dup5\n        /* \"#utility.yul\":5304:5321   */\n      gt\n        /* \"#utility.yul\":5301:5344   */\n      iszero\n      tag_227\n      jumpi\n        /* \"#utility.yul\":5324:5342   */\n      tag_228\n      tag_149\n      jump\t// in\n    tag_228:\n        /* \"#utility.yul\":5301:5344   */\n    tag_227:\n        /* \"#utility.yul\":5373:5381   */\n      dup4\n        /* \"#utility.yul\":5370:5371   */\n      0x02\n        /* \"#utility.yul\":5366:5382   */\n      exp\n        /* \"#utility.yul\":5357:5382   */\n      swap2\n      pop\n        /* \"#utility.yul\":5408:5411   */\n      dup5\n        /* \"#utility.yul\":5401:5406   */\n      dup3\n        /* \"#utility.yul\":5398:5412   */\n      gt\n        /* \"#utility.yul\":5395:5435   */\n      iszero\n      tag_229\n      jumpi\n        /* \"#utility.yul\":5415:5433   */\n      tag_230\n      tag_149\n      jump\t// in\n    tag_230:\n        /* \"#utility.yul\":5395:5435   */\n    tag_229:\n        /* \"#utility.yul\":5448:5453   */\n      pop\n      jump(tag_221)\n        /* \"#utility.yul\":5186:5463   */\n    tag_224:\n      pop\n        /* \"#utility.yul\":5572:5574   */\n      0x20\n        /* \"#utility.yul\":5562:5570   */\n      dup4\n        /* \"#utility.yul\":5559:5575   */\n      lt\n        /* \"#utility.yul\":5553:5556   */\n      0x0133\n        /* \"#utility.yul\":5547:5551   */\n      dup4\n        /* \"#utility.yul\":5544:5557   */\n      lt\n        /* \"#utility.yul\":5540:5576   */\n      and\n        /* \"#utility.yul\":5522:5524   */\n      0x4e\n        /* \"#utility.yul\":5512:5520   */\n      dup5\n        /* \"#utility.yul\":5509:5525   */\n      lt\n        /* \"#utility.yul\":5504:5506   */\n      0x0b\n        /* \"#utility.yul\":5498:5502   */\n      dup5\n        /* \"#utility.yul\":5495:5507   */\n      lt\n        /* \"#utility.yul\":5491:5526   */\n      and\n        /* \"#utility.yul\":5475:5586   */\n      or\n        /* \"#utility.yul\":5472:5718   */\n      iszero\n      tag_231\n      jumpi\n        /* \"#utility.yul\":5628:5636   */\n      dup3\n        /* \"#utility.yul\":5622:5626   */\n      dup3\n        /* \"#utility.yul\":5618:5637   */\n      exp\n        /* \"#utility.yul\":5609:5637   */\n      swap1\n      pop\n        /* \"#utility.yul\":5663:5666   */\n      dup4\n        /* \"#utility.yul\":5656:5661   */\n      dup2\n        /* \"#utility.yul\":5653:5667   */\n      gt\n        /* \"#utility.yul\":5650:5690   */\n      iszero\n      tag_232\n      jumpi\n        /* \"#utility.yul\":5670:5688   */\n      tag_233\n      tag_149\n      jump\t// in\n    tag_233:\n        /* \"#utility.yul\":5650:5690   */\n    tag_232:\n        /* \"#utility.yul\":5703:5708   */\n      jump(tag_221)\n        /* \"#utility.yul\":5472:5718   */\n    tag_231:\n        /* \"#utility.yul\":5743:5785   */\n      tag_234\n        /* \"#utility.yul\":5781:5784   */\n      dup5\n        /* \"#utility.yul\":5771:5779   */\n      dup5\n        /* \"#utility.yul\":5765:5769   */\n      dup5\n        /* \"#utility.yul\":5762:5763   */\n      0x01\n        /* \"#utility.yul\":5743:5785   */\n      tag_151\n      jump\t// in\n    tag_234:\n        /* \"#utility.yul\":5728:5785   */\n      swap3\n      pop\n      swap1\n      pop\n        /* \"#utility.yul\":5817:5821   */\n      dup2\n        /* \"#utility.yul\":5812:5815   */\n      dup5\n        /* \"#utility.yul\":5808:5822   */\n      div\n        /* \"#utility.yul\":5801:5806   */\n      dup2\n        /* \"#utility.yul\":5798:5823   */\n      gt\n        /* \"#utility.yul\":5795:5846   */\n      iszero\n      tag_235\n      jumpi\n        /* \"#utility.yul\":5826:5844   */\n      tag_236\n      tag_149\n      jump\t// in\n    tag_236:\n        /* \"#utility.yul\":5795:5846   */\n    tag_235:\n        /* \"#utility.yul\":5875:5879   */\n      dup2\n        /* \"#utility.yul\":5868:5873   */\n      dup2\n        /* \"#utility.yul\":5864:5880   */\n      mul\n        /* \"#utility.yul\":5855:5880   */\n      swap1\n      pop\n        /* \"#utility.yul\":4813:5886   */\n    tag_221:\n      swap4\n      swap3\n      pop\n      pop\n      pop\n      jump\t// out\n        /* \"#utility.yul\":5892:6173   */\n    tag_52:\n        /* \"#utility.yul\":5950:5955   */\n      0x00\n        /* \"#utility.yul\":5974:5997   */\n      tag_238\n        /* \"#utility.yul\":5992:5996   */\n      dup3\n        /* \"#utility.yul\":5974:5997   */\n      tag_134\n      jump\t// in\n    tag_238:\n        /* \"#utility.yul\":5966:5997   */\n      swap2\n      pop\n        /* \"#utility.yul\":6018:6043   */\n      tag_239\n        /* \"#utility.yul\":6034:6042   */\n      dup4\n        /* \"#utility.yul\":6018:6043   */\n      tag_142\n      jump\t// in\n    tag_239:\n        /* \"#utility.yul\":6006:6043   */\n      swap3\n      pop\n        /* \"#utility.yul\":6062:6166   */\n      tag_240\n        /* \"#utility.yul\":6099:6165   */\n      0xffffffffffffffffffffffffffffffffffffffffffffffffffffffffffffffff\n        /* \"#utility.yul\":6089:6097   */\n      dup5\n        /* \"#utility.yul\":6083:6087   */\n      dup5\n        /* \"#utility.yul\":6062:6166   */\n      tag_152\n      jump\t// in\n    tag_240:\n        /* \"#utility.yul\":6053:6166   */\n      swap1\n      pop\n        /* \"#utility.yul\":5892:6173   */\n      swap3\n      swap2\n      pop\n      pop\n      jump\t// out\n        /* \"#utility.yul\":6179:6359   */\n    tag_153:\n        /* \"#utility.yul\":6227:6304   */\n      0x4e487b7100000000000000000000000000000000000000000000000000000000\n        /* \"#utility.yul\":6224:6225   */\n      0x00\n        /* \"#utility.yul\":6217:6305   */\n      mstore\n        /* \"#utility.yul\":6324:6328   */\n      0x12\n        /* \"#utility.yul\":6321:6322   */\n      0x04\n        /* \"#utility.yul\":6314:6329   */\n      mstore\n        /* \"#utility.yul\":6348:6352   */\n      0x24\n        /* \"#utility.yul\":6345:6346   */\n      0x00\n        /* \"#utility.yul\":6338:6353   */\n      revert\n        /* \"#utility.yul\":6365:6550   */\n    tag_54:\n        /* \"#utility.yul\":6405:6406   */\n      0x00\n        /* \"#utility.yul\":6422:6442   */\n      tag_243\n        /* \"#utility.yul\":6440:6441   */\n      dup3\n        /* \"#utility.yul\":6422:6442   */\n      tag_134\n      jump\t// in\n    tag_243:\n        /* \"#utility.yul\":6417:6442   */\n      swap2\n      pop\n        /* \"#utility.yul\":6456:6476   */\n      tag_244\n        /* \"#utility.yul\":6474:6475   */\n      dup4\n        /* \"#utility.yul\":6456:6476   */\n      tag_134\n      jump\t// in\n    tag_244:\n        /* \"#utility.yul\":6451:6476   */\n      swap3\n      pop\n        /* \"#utility.yul\":6495:6496   */\n      dup3\n        /* \"#utility.yul\":6485:6520   */\n      tag_245\n      jumpi\n        /* \"#utility.yul\":6500:6518   */\n      tag_246\n      tag_153\n      jump\t// in\n    tag_246:\n        /* \"#utility.yul\":6485:6520   */\n    tag_245:\n        /* \"#utility.yul\":6542:6543   */\n      dup3\n        /* \"#utility.yul\":6539:6540   */\n      dup3\n        /* \"#utility.yul\":6535:6544   */\n      div\n        /* \"#utility.yul\":6530:6544   */\n      swap1\n      pop\n        /* \"#utility.yul\":6365:6550   */\n      swap3\n      swap2\n      pop\n      pop\n      jump\t// out\n        /* \"#utility.yul\":6556:6725   */\n    tag_154:\n        /* \"#utility.yul\":6640:6651   */\n      0x00\n        /* \"#utility.yul\":6674:6680   */\n      dup3\n        /* \"#utility.yul\":6669:6672   */\n      dup3\n        /* \"#utility.yul\":6662:6681   */\n      mstore\n        /* \"#utility.yul\":6714:6718   */\n      0x20\n        /* \"#utility.yul\":6709:6712   */\n      dup3\n        /* \"#utility.yul\":6705:6719   */\n      add\n        /* \"#utility.yul\":6690:6719   */\n      swap1\n      pop\n        /* \"#utility.yul\":6556:6725   */\n      swap3\n      swap2\n      pop\n      pop\n      jump\t// out\n        /* \"#utility.yul\":6731:6896   */\n    tag_155:\n        /* \"#utility.yul\":6871:6888   */\n      0x496e76616c696420616d6f756e74730000000000000000000000000000000000\n        /* \"#utility.yul\":6867:6868   */\n      0x00\n        /* \"#utility.yul\":6859:6865   */\n      dup3\n        /* \"#utility.yul\":6855:6869   */\n      add\n        /* \"#utility.yul\":6848:6889   */\n      mstore\n        /* \"#utility.yul\":6731:6896   */\n      pop\n      jump\t// out\n        /* \"#utility.yul\":6902:7268   */\n    tag_156:\n        /* \"#utility.yul\":7044:7047   */\n      0x00\n        /* \"#utility.yul\":7065:7132   */\n      tag_250\n        /* \"#utility.yul\":7129:7131   */\n      0x0f\n        /* \"#utility.yul\":7124:7127   */\n      dup4\n        /* \"#utility.yul\":7065:7132   */\n      tag_154\n      jump\t// in\n    tag_250:\n        /* \"#utility.yul\":7058:7132   */\n      swap2\n      pop\n        /* \"#utility.yul\":7141:7234   */\n      tag_251\n        /* \"#utility.yul\":7230:7233   */\n      dup3\n        /* \"#utility.yul\":7141:7234   */\n      tag_155\n      jump\t// in\n    tag_251:\n        /* \"#utility.yul\":7259:7261   */\n      0x20\n        /* \"#utility.yul\":7254:7257   */\n      dup3\n        /* \"#utility.yul\":7250:7262   */\n      add\n        /* \"#utility.yul\":7243:7262   */\n      swap1\n      pop\n        /* \"#utility.yul\":6902:7268   */\n      swap2\n      swap1\n      pop\n      jump\t// out\n        /* \"#utility.yul\":7274:7693   */\n    tag_61:\n        /* \"#utility.yul\":7440:7444   */\n      0x00\n        /* \"#utility.yul\":7478:7480   */\n      0x20\n        /* \"#utility.yul\":7467:7476   */\n      dup3\n        /* \"#utility.yul\":7463:7481   */\n      add\n        /* \"#utility.yul\":7455:7481   */\n      swap1\n      pop\n        /* \"#utility.yul\":7527:7536   */\n      dup2\n        /* \"#utility.yul\":7521:7525   */\n      dup2\n        /* \"#utility.yul\":7517:7537   */\n      sub\n        /* \"#utility.yul\":7513:7514   */\n      0x00\n        /* \"#utility.yul\":7502:7511   */\n      dup4\n        /* \"#utility.yul\":7498:7515   */\n      add\n        /* \"#utility.yul\":7491:7538   */\n      mstore\n        /* \"#utility.yul\":7555:7686   */\n      tag_253\n        /* \"#utility.yul\":7681:7685   */\n      dup2\n        /* \"#utility.yul\":7555:7686   */\n      tag_156\n      jump\t// in\n    tag_253:\n        /* \"#utility.yul\":7547:7686   */\n      swap1\n      pop\n        /* \"#utility.yul\":7274:7693   */\n      swap2\n      swap1\n      pop\n      jump\t// out\n        /* \"#utility.yul\":7699:7795   */\n    tag_157:\n        /* \"#utility.yul\":7736:7743   */\n      0x00\n        /* \"#utility.yul\":7765:7789   */\n      tag_255\n        /* \"#utility.yul\":7783:7788   */\n      dup3\n        /* \"#utility.yul\":7765:7789   */\n      tag_136\n      jump\t// in\n    tag_255:\n        /* \"#utility.yul\":7754:7789   */\n      swap1\n      pop\n        /* \"#utility.yul\":7699:7795   */\n      swap2\n      swap1\n      pop\n      jump\t// out\n        /* \"#utility.yul\":7801:7919   */\n    tag_158:\n        /* \"#utility.yul\":7888:7912   */\n      tag_257\n        /* \"#utility.yul\":7906:7911   */\n      dup2\n        /* \"#utility.yul\":7888:7912   */\n      tag_157\n      jump\t// in\n    tag_257:\n        /* \"#utility.yul\":7883:7886   */\n      dup3\n        /* \"#utility.yul\":7876:7913   */\n      mstore\n        /* \"#utility.yul\":7801:7919   */\n      pop\n      pop\n      jump\t// out\n        /* \"#utility.yul\":7925:8367   */\n    tag_63:\n        /* \"#utility.yul\":8074:8078   */\n      0x00\n        /* \"#utility.yul\":8112:8114   */\n      0x60\n        /* \"#utility.yul\":8101:8110   */\n      dup3\n        /* \"#utility.yul\":8097:8115   */\n      add\n        /* \"#utility.yul\":8089:8115   */\n      swap1\n      pop\n        /* \"#utility.yul\":8125:8196   */\n      tag_259\n        /* \"#utility.yul\":8193:8194   */\n      0x00\n        /* \"#utility.yul\":8182:8191   */\n      dup4\n        /* \"#utility.yul\":8178:8195   */\n      add\n        /* \"#utility.yul\":8169:8175   */\n      dup7\n        /* \"#utility.yul\":8125:8196   */\n      tag_158\n      jump\t// in\n    tag_259:\n        /* \"#utility.yul\":8206:8278   */\n      tag_260\n        /* \"#utility.yul\":8274:8276   */\n      0x20\n        /* \"#utility.yul\":8263:8272   */\n      dup4\n        /* \"#utility.yul\":8259:8277   */\n      add\n        /* \"#utility.yul\":8250:8256   */\n      dup6\n        /* \"#utility.yul\":8206:8278   */\n      tag_158\n      jump\t// in\n    tag_260:\n        /* \"#utility.yul\":8288:8360   */\n      tag_261\n        /* \"#utility.yul\":8356:8358   */\n      0x40\n        /* \"#utility.yul\":8345:8354   */\n      dup4\n        /* \"#utility.yul\":8341:8359   */\n      add\n        /* \"#utility.yul\":8332:8338   */\n      dup5\n        /* \"#utility.yul\":8288:8360   */\n      tag_135\n      jump\t// in\n    tag_261:\n        /* \"#utility.yul\":7925:8367   */\n      swap5\n      swap4\n      pop\n      pop\n      pop\n      pop\n      jump\t// out\n        /* \"#utility.yul\":8373:8463   */\n    tag_159:\n        /* \"#utility.yul\":8407:8414   */\n      0x00\n        /* \"#utility.yul\":8450:8455   */\n      dup2\n        /* \"#utility.yul\":8443:8456   */\n      iszero\n        /* \"#utility.yul\":8436:8457   */\n      iszero\n        /* \"#utility.yul\":8425:8457   */\n      swap1\n      pop\n        /* \"#utility.yul\":8373:8463   */\n      swap2\n      swap1\n      pop\n      jump\t// out\n        /* \"#utility.yul\":8469:8585   */\n    tag_160:\n        /* \"#utility.yul\":8539:8560   */\n      tag_264\n        /* \"#utility.yul\":8554:8559   */\n      dup2\n        /* \"#utility.yul\":8539:8560   */\n      tag_159\n      jump\t// in\n    tag_264:\n        /* \"#utility.yul\":8532:8537   */\n      dup2\n        /* \"#utility.yul\":8529:8561   */\n      eq\n        /* \"#utility.yul\":8519:8579   */\n      tag_265\n      jumpi\n        /* \"#utility.yul\":8575:8576   */\n      0x00\n        /* \"#utility.yul\":8572:8573   */\n      dup1\n        /* \"#utility.yul\":8565:8577   */\n      revert\n        /* \"#utility.yul\":8519:8579   */\n    tag_265:\n        /* \"#utility.yul\":8469:8585   */\n      pop\n      jump\t// out\n        /* \"#utility.yul\":8591:8728   */\n    tag_161:\n        /* \"#utility.yul\":8645:8650   */\n      0x00\n        /* \"#utility.yul\":8676:8682   */\n      dup2\n        /* \"#utility.yul\":8670:8683   */\n      mload\n        /* \"#utility.yul\":8661:8683   */\n      swap1\n      pop\n        /* \"#utility.yul\":8692:8722   */\n      tag_267\n        /* \"#utility.yul\":8716:8721   */\n      dup2\n        /* \"#utility.yul\":8692:8722   */\n      tag_160\n      jump\t// in\n    tag_267:\n        /* \"#utility.yul\":8591:8728   */\n      swap3\n      swap2\n      pop\n      pop\n      jump\t// out\n        /* \"#utility.yul\":8734:9079   */\n    tag_67:\n        /* \"#utility.yul\":8801:8807   */\n      0x00\n        /* \"#utility.yul\":8850:8852   */\n      0x20\n        /* \"#utility.yul\":8838:8847   */\n      dup3\n        /* \"#utility.yul\":8829:8836   */\n      dup5\n        /* \"#utility.yul\":8825:8848   */\n      sub\n        /* \"#utility.yul\":8821:8853   */\n      slt\n        /* \"#utility.yul\":8818:8937   */\n      iszero\n      tag_269\n      jumpi\n        /* \"#utility.yul\":8856:8935   */\n      tag_270\n      tag_145\n      jump\t// in\n    tag_270:\n        /* \"#utility.yul\":8818:8937   */\n    tag_269:\n        /* \"#utility.yul\":8976:8977   */\n      0x00\n        /* \"#utility.yul\":9001:9062   */\n      tag_271\n        /* \"#utility.yul\":9054:9061   */\n      dup5\n        /* \"#utility.yul\":9045:9051   */\n      dup3\n        /* \"#utility.yul\":9034:9043   */\n      dup6\n        /* \"#utility.yul\":9030:9052   */\n      add\n        /* \"#utility.yul\":9001:9062   */\n      tag_161\n      jump\t// in\n    tag_271:\n        /* \"#utility.yul\":8991:9062   */\n      swap2\n      pop\n        /* \"#utility.yul\":8947:9072   */\n      pop\n        /* \"#utility.yul\":8734:9079   */\n      swap3\n      swap2\n      pop\n      pop\n      jump\t// out\n        /* \"#utility.yul\":9085:9495   */\n    tag_74:\n        /* \"#utility.yul\":9125:9132   */\n      0x00\n        /* \"#utility.yul\":9148:9168   */\n      tag_273\n        /* \"#utility.yul\":9166:9167   */\n      dup3\n        /* \"#utility.yul\":9148:9168   */\n      tag_134\n      jump\t// in\n    tag_273:\n        /* \"#utility.yul\":9143:9168   */\n      swap2\n      pop\n        /* \"#utility.yul\":9182:9202   */\n      tag_274\n        /* \"#utility.yul\":9200:9201   */\n      dup4\n        /* \"#utility.yul\":9182:9202   */\n      tag_134\n      jump\t// in\n    tag_274:\n        /* \"#utility.yul\":9177:9202   */\n      swap3\n      pop\n        /* \"#utility.yul\":9237:9238   */\n      dup3\n        /* \"#utility.yul\":9234:9235   */\n      dup3\n        /* \"#utility.yul\":9230:9239   */\n      mul\n        /* \"#utility.yul\":9259:9289   */\n      tag_275\n        /* \"#utility.yul\":9277:9288   */\n      dup2\n        /* \"#utility.yul\":9259:9289   */\n      tag_134\n      jump\t// in\n    tag_275:\n        /* \"#utility.yul\":9248:9289   */\n      swap2\n      pop\n        /* \"#utility.yul\":9438:9439   */\n      dup3\n        /* \"#utility.yul\":9429:9436   */\n      dup3\n        /* \"#utility.yul\":9425:9440   */\n      div\n        /* \"#utility.yul\":9422:9423   */\n      dup5\n        /* \"#utility.yul\":9419:9441   */\n      eq\n        /* \"#utility.yul\":9399:9400   */\n      dup4\n        /* \"#utility.yul\":9392:9401   */\n      iszero\n        /* \"#utility.yul\":9372:9455   */\n      or\n        /* \"#utility.yul\":9349:9488   */\n      tag_276\n      jumpi\n        /* \"#utility.yul\":9468:9486   */\n      tag_277\n      tag_149\n      jump\t// in\n    tag_277:\n        /* \"#utility.yul\":9349:9488   */\n    tag_276:\n        /* \"#utility.yul\":9133:9495   */\n      pop\n        /* \"#utility.yul\":9085:9495   */\n      swap3\n      swap2\n      pop\n      pop\n      jump\t// out\n        /* \"#utility.yul\":9501:9692   */\n    tag_76:\n        /* \"#utility.yul\":9541:9544   */\n      0x00\n        /* \"#utility.yul\":9560:9580   */\n      tag_279\n        /* \"#utility.yul\":9578:9579   */\n      dup3\n        /* \"#utility.yul\":9560:9580   */\n      tag_134\n      jump\t// in\n    tag_279:\n        /* \"#utility.yul\":9555:9580   */\n      swap2\n      pop\n        /* \"#utility.yul\":9594:9614   */\n      tag_280\n        /* \"#utility.yul\":9612:9613   */\n      dup4\n        /* \"#utility.yul\":9594:9614   */\n      tag_134\n      jump\t// in\n    tag_280:\n        /* \"#utility.yul\":9589:9614   */\n      swap3\n      pop\n        /* \"#utility.yul\":9637:9638   */\n      dup3\n        /* \"#utility.yul\":9634:9635   */\n      dup3\n        /* \"#utility.yul\":9630:9639   */\n      add\n        /* \"#utility.yul\":9623:9639   */\n      swap1\n      pop\n        /* \"#utility.yul\":9658:9661   */\n      dup1\n        /* \"#utility.yul\":9655:9656   */\n      dup3\n        /* \"#utility.yul\":9652:9662   */\n      gt\n        /* \"#utility.yul\":9649:9685   */\n      iszero\n      tag_281\n      jumpi\n        /* \"#utility.yul\":9665:9683   */\n      tag_282\n      tag_149\n      jump\t// in\n    tag_282:\n        /* \"#utility.yul\":9649:9685   */\n    tag_281:\n        /* \"#utility.yul\":9501:9692   */\n      swap3\n      swap2\n      pop\n      pop\n      jump\t// out\n        /* \"#utility.yul\":9698:9868   */\n    tag_162:\n        /* \"#utility.yul\":9838:9860   */\n      0x496e76616c696420746172676574207072696365000000000000000000000000\n        /* \"#utility.yul\":9834:9835   */\n      0x00\n        /* \"#utility.yul\":9826:9832   */\n      dup3\n        /* \"#utility.yul\":9822:9836   */\n      add\n        /* \"#utility.yul\":9815:9861   */\n      mstore\n        /* \"#utility.yul\":9698:9868   */\n      pop\n      jump\t// out\n        /* \"#utility.yul\":9874:10240   */\n    tag_163:\n        /* \"#utility.yul\":10016:10019   */\n      0x00\n        /* \"#utility.yul\":10037:10104   */\n      tag_285\n        /* \"#utility.yul\":10101:10103   */\n      0x14\n        /* \"#utility.yul\":10096:10099   */\n      dup4\n        /* \"#utility.yul\":10037:10104   */\n      tag_154\n      jump\t// in\n    tag_285:\n        /* \"#utility.yul\":10030:10104   */\n      swap2\n      pop\n        /* \"#utility.yul\":10113:10206   */\n      tag_286\n        /* \"#utility.yul\":10202:10205   */\n      dup3\n        /* \"#utility.yul\":10113:10206   */\n      tag_162\n      jump\t// in\n    tag_286:\n        /* \"#utility.yul\":10231:10233   */\n      0x20\n        /* \"#utility.yul\":10226:10229   */\n      dup3\n        /* \"#utility.yul\":10222:10234   */\n      add\n        /* \"#utility.yul\":10215:10234   */\n      swap1\n      pop\n        /* \"#utility.yul\":9874:10240   */\n      swap2\n      swap1\n      pop\n      jump\t// out\n        /* \"#utility.yul\":10246:10665   */\n    tag_83:\n        /* \"#utility.yul\":10412:10416   */\n      0x00\n        /* \"#utility.yul\":10450:10452   */\n      0x20\n        /* \"#utility.yul\":10439:10448   */\n      dup3\n        /* \"#utility.yul\":10435:10453   */\n      add\n        /* \"#utility.yul\":10427:10453   */\n      swap1\n      pop\n        /* \"#utility.yul\":10499:10508   */\n      dup2\n        /* \"#utility.yul\":10493:10497   */\n      dup2\n        /* \"#utility.yul\":10489:10509   */\n      sub\n        /* \"#utility.yul\":10485:10486   */\n      0x00\n        /* \"#utility.yul\":10474:10483   */\n      dup4\n        /* \"#utility.yul\":10470:10487   */\n      add\n        /* \"#utility.yul\":10463:10510   */\n      mstore\n        /* \"#utility.yul\":10527:10658   */\n      tag_288\n        /* \"#utility.yul\":10653:10657   */\n      dup2\n        /* \"#utility.yul\":10527:10658   */\n      tag_163\n      jump\t// in\n    tag_288:\n        /* \"#utility.yul\":10519:10658   */\n      swap1\n      pop\n        /* \"#utility.yul\":10246:10665   */\n      swap2\n      swap1\n      pop\n      jump\t// out\n        /* \"#utility.yul\":10671:10865   */\n    tag_106:\n        /* \"#utility.yul\":10711:10715   */\n      0x00\n        /* \"#utility.yul\":10731:10751   */\n      tag_290\n        /* \"#utility.yul\":10749:10750   */\n      dup3\n        /* \"#utility.yul\":10731:10751   */\n      tag_134\n      jump\t// in\n    tag_290:\n        /* \"#utility.yul\":10726:10751   */\n      swap2\n      pop\n        /* \"#utility.yul\":10765:10785   */\n      tag_291\n        /* \"#utility.yul\":10783:10784   */\n      dup4\n        /* \"#utility.yul\":10765:10785   */\n      tag_134\n      jump\t// in\n    tag_291:\n        /* \"#utility.yul\":10760:10785   */\n      swap3\n      pop\n        /* \"#utility.yul\":10809:10810   */\n      dup3\n        /* \"#utility.yul\":10806:10807   */\n      dup3\n        /* \"#utility.yul\":10802:10811   */\n      sub\n        /* \"#utility.yul\":10794:10811   */\n      swap1\n      pop\n        /* \"#utility.yul\":10833:10834   */\n      dup2\n        /* \"#utility.yul\":10827:10831   */\n      dup2\n        /* \"#utility.yul\":10824:10835   */\n      gt\n        /* \"#utility.yul\":10821:10858   */\n      iszero\n      tag_292\n      jumpi\n        /* \"#utility.yul\":10838:10856   */\n      tag_293\n      tag_149\n      jump\t// in\n    tag_293:\n        /* \"#utility.yul\":10821:10858   */\n    tag_292:\n        /* \"#utility.yul\":10671:10865   */\n      swap3\n      swap2\n      pop\n      pop\n      jump\t// out\n        /* \"#utility.yul\":10871:11041   */\n    tag_164:\n        /* \"#utility.yul\":11011:11033   */\n      0x4e6f7420656e6f756768206c6971756964697479000000000000000000000000\n        /* \"#utility.yul\":11007:11008   */\n      0x00\n        /* \"#utility.yul\":10999:11005   */\n      dup3\n        /* \"#utility.yul\":10995:11009   */\n      add\n        /* \"#utility.yul\":10988:11034   */\n      mstore\n        /* \"#utility.yul\":10871:11041   */\n      pop\n      jump\t// out\n        /* \"#utility.yul\":11047:11413   */\n    tag_165:\n        /* \"#utility.yul\":11189:11192   */\n      0x00\n        /* \"#utility.yul\":11210:11277   */\n      tag_296\n        /* \"#utility.yul\":11274:11276   */\n      0x14\n        /* \"#utility.yul\":11269:11272   */\n      dup4\n        /* \"#utility.yul\":11210:11277   */\n      tag_154\n      jump\t// in\n    tag_296:\n        /* \"#utility.yul\":11203:11277   */\n      swap2\n      pop\n        /* \"#utility.yul\":11286:11379   */\n      tag_297\n        /* \"#utility.yul\":11375:11378   */\n      dup3\n        /* \"#utility.yul\":11286:11379   */\n      tag_164\n      jump\t// in\n    tag_297:\n        /* \"#utility.yul\":11404:11406   */\n      0x20\n        /* \"#utility.yul\":11399:11402   */\n      dup3\n        /* \"#utility.yul\":11395:11407   */\n      add\n        /* \"#utility.yul\":11388:11407   */\n      swap1\n      pop\n        /* \"#utility.yul\":11047:11413   */\n      swap2\n      swap1\n      pop\n      jump\t// out\n        /* \"#utility.yul\":11419:11838   */\n    tag_125:\n        /* \"#utility.yul\":11585:11589   */\n      0x00\n        /* \"#utility.yul\":11623:11625   */\n      0x20\n        /* \"#utility.yul\":11612:11621   */\n      dup3\n        /* \"#utility.yul\":11608:11626   */\n      add\n        /* \"#utility.yul\":11600:11626   */\n      swap1\n      pop\n        /* \"#utility.yul\":11672:11681   */\n      dup2\n        /* \"#utility.yul\":11666:11670   */\n      dup2\n        /* \"#utility.yul\":11662:11682   */\n      sub\n        /* \"#utility.yul\":11658:11659   */\n      0x00\n        /* \"#utility.yul\":11647:11656   */\n      dup4\n        /* \"#utility.yul\":11643:11660   */\n      add\n        /* \"#utility.yul\":11636:11683   */\n      mstore\n        /* \"#utility.yul\":11700:11831   */\n      tag_299\n        /* \"#utility.yul\":11826:11830   */\n      dup2\n        /* \"#utility.yul\":11700:11831   */\n      tag_165\n      jump\t// in\n    tag_299:\n        /* \"#utility.yul\":11692:11831   */\n      swap1\n      pop\n        /* \"#utility.yul\":11419:11838   */\n      swap2\n      swap1\n      pop\n      jump\t// out\n\n    auxdata: 0xa2646970667358221220d3edd44064abaf4e0cd99eb75f656237c397a7bd7fea2e552dc4f41d9aa6e71c64736f6c634300081a0033\n}\n",
				"bytecode": {
					"linkReferences": {},
					"object": "608060405234801561001057600080fd5b50604051610f56380380610f568339818101604052810190610032919061011d565b816000806101000a81548173ffffffffffffffffffffffffffffffffffffffff021916908373ffffffffffffffffffffffffffffffffffffffff16021790555080600160006101000a81548173ffffffffffffffffffffffffffffffffffffffff021916908373ffffffffffffffffffffffffffffffffffffffff160217905550505061015d565b600080fd5b600073ffffffffffffffffffffffffffffffffffffffff82169050919050565b60006100ea826100bf565b9050919050565b6100fa816100df565b811461010557600080fd5b50565b600081519050610117816100f1565b92915050565b60008060408385031215610134576101336100ba565b5b600061014285828601610108565b925050602061015385828601610108565b9150509250929050565b610dea8061016c6000396000f3fe608060405234801561001057600080fd5b506004361061009e5760003560e01c80639cd441da116100665780639cd441da1461013a578063a035b1fe14610156578063d21220a714610174578063db068e0e14610192578063eced5526146101ae5761009e565b80630902f1ac146100a35780630dfe1681146100c25780632e0f2625146100e0578063443cb4bc146100fe5780635a76f25e1461011c575b600080fd5b6100ab6101cc565b6040516100b9929190610738565b60405180910390f35b6100ca61020d565b6040516100d791906107e0565b60405180910390f35b6100e8610231565b6040516100f59190610817565b60405180910390f35b610106610236565b6040516101139190610832565b60405180910390f35b61012461023c565b6040516101319190610832565b60405180910390f35b610154600480360381019061014f919061087e565b610242565b005b61015e61043b565b60405161016b9190610832565b60405180910390f35b61017c610441565b60405161018991906107e0565b60405180910390f35b6101ac60048036038101906101a791906108be565b610467565b005b6101b6610508565b6040516101c39190610832565b60405180910390f35b6000806003600a6101dd9190610a4d565b6002546101ea9190610ac7565b6003600a6101f89190610a4d565b6003546102059190610ac7565b915091509091565b60008054906101000a900473ffffffffffffffffffffffffffffffffffffffff1681565b600381565b60025481565b60035481565b6000821180156102525750600081115b610291576040517f08c379a000000000000000000000000000000000000000000000000000000000815260040161028890610b55565b60405180910390fd5b60008054906101000a900473ffffffffffffffffffffffffffffffffffffffff1673ffffffffffffffffffffffffffffffffffffffff166323b872dd3330856040518463ffffffff1660e01b81526004016102ee93929190610b96565b6020604051808303816000875af115801561030d573d6000803e3d6000fd5b505050506040513d601f19601f820116820180604052508101906103319190610c05565b50600160009054906101000a900473ffffffffffffffffffffffffffffffffffffffff1673ffffffffffffffffffffffffffffffffffffffff166323b872dd3330846040518463ffffffff1660e01b815260040161039193929190610b96565b6020604051808303816000875af11580156103b0573d6000803e3d6000fd5b505050506040513d601f19601f820116820180604052508101906103d49190610c05565b506003600a6103e39190610a4d565b826103ee9190610c32565b600260008282546103ff9190610c74565b925050819055506003600a6104149190610a4d565b8161041f9190610c32565b600360008282546104309190610c74565b925050819055505050565b60045481565b600160009054906101000a900473ffffffffffffffffffffffffffffffffffffffff1681565b600081116104aa576040517f08c379a00000000000000000000000000000000000000000000000000000000081526004016104a190610cf4565b60405180910390fd5b600080600454146104bd576004546104d7565b6003600a6104cb9190610a4d565b826104d69190610c32565b5b90506003600a6104e79190610a4d565b826104f29190610c32565b60048190555061050481600454610519565b5050565b6003600a6105169190610a4d565b81565b808203156105b05760006003600a6105319190610a4d565b6105756003600a6105429190610a4d565b6003600a6105509190610a4d565b61055a9190610c32565b84866105669190610c32565b6105709190610ac7565b6105b4565b61057f9190610c32565b90506000828261058f9190610ac7565b90506000600254826105a19190610d14565b90506105ac8161062e565b5050505b5050565b6000600382111561061b57819050600060016002846105d39190610ac7565b6105dd9190610c74565b90505b818110156106155780915060028182856105fa9190610ac7565b6106049190610c74565b61060e9190610ac7565b90506105e0565b50610629565b6000821461062857600190505b5b919050565b600081101561068e57600354600454826106489190610c32565b1115610689576040517f08c379a000000000000000000000000000000000000000000000000000000000815260040161068090610d94565b60405180910390fd5b6106dc565b600081031561071c5760025481116106db576040517f08c379a00000000000000000000000000000000000000000000000000000000081526004016106d290610d94565b60405180910390fd5b5b80600260008282546106ee9190610d14565b92505081905550600454816107039190610c32565b600360008282546107149190610c74565b925050819055505b50565b6000819050919050565b6107328161071f565b82525050565b600060408201905061074d6000830185610729565b61075a6020830184610729565b9392505050565b600073ffffffffffffffffffffffffffffffffffffffff82169050919050565b6000819050919050565b60006107a66107a161079c84610761565b610781565b610761565b9050919050565b60006107b88261078b565b9050919050565b60006107ca826107ad565b9050919050565b6107da816107bf565b82525050565b60006020820190506107f560008301846107d1565b92915050565b600060ff82169050919050565b610811816107fb565b82525050565b600060208201905061082c6000830184610808565b92915050565b60006020820190506108476000830184610729565b92915050565b600080fd5b61085b8161071f565b811461086657600080fd5b50565b60008135905061087881610852565b92915050565b600080604083850312156108955761089461084d565b5b60006108a385828601610869565b92505060206108b485828601610869565b9150509250929050565b6000602082840312156108d4576108d361084d565b5b60006108e284828501610869565b91505092915050565b7f4e487b7100000000000000000000000000000000000000000000000000000000600052601160045260246000fd5b60008160011c9050919050565b6000808291508390505b60018511156109715780860481111561094d5761094c6108eb565b5b600185161561095c5780820291505b808102905061096a8561091a565b9450610931565b94509492505050565b60008261098a5760019050610a46565b816109985760009050610a46565b81600181146109ae57600281146109b8576109e7565b6001915050610a46565b60ff8411156109ca576109c96108eb565b5b8360020a9150848211156109e1576109e06108eb565b5b50610a46565b5060208310610133831016604e8410600b8410161715610a1c5782820a905083811115610a1757610a166108eb565b5b610a46565b610a298484846001610927565b92509050818404811115610a4057610a3f6108eb565b5b81810290505b9392505050565b6000610a588261071f565b9150610a63836107fb565b9250610a907fffffffffffffffffffffffffffffffffffffffffffffffffffffffffffffffff848461097a565b905092915050565b7f4e487b7100000000000000000000000000000000000000000000000000000000600052601260045260246000fd5b6000610ad28261071f565b9150610add8361071f565b925082610aed57610aec610a98565b5b828204905092915050565b600082825260208201905092915050565b7f496e76616c696420616d6f756e74730000000000000000000000000000000000600082015250565b6000610b3f600f83610af8565b9150610b4a82610b09565b602082019050919050565b60006020820190508181036000830152610b6e81610b32565b9050919050565b6000610b8082610761565b9050919050565b610b9081610b75565b82525050565b6000606082019050610bab6000830186610b87565b610bb86020830185610b87565b610bc56040830184610729565b949350505050565b60008115159050919050565b610be281610bcd565b8114610bed57600080fd5b50565b600081519050610bff81610bd9565b92915050565b600060208284031215610c1b57610c1a61084d565b5b6000610c2984828501610bf0565b91505092915050565b6000610c3d8261071f565b9150610c488361071f565b9250828202610c568161071f565b91508282048414831517610c6d57610c6c6108eb565b5b5092915050565b6000610c7f8261071f565b9150610c8a8361071f565b9250828201905080821115610ca257610ca16108eb565b5b92915050565b7f496e76616c696420746172676574207072696365000000000000000000000000600082015250565b6000610cde601483610af8565b9150610ce982610ca8565b602082019050919050565b60006020820190508181036000830152610d0d81610cd1565b9050919050565b6000610d1f8261071f565b9150610d2a8361071f565b9250828203905081811115610d4257610d416108eb565b5b92915050565b7f4e6f7420656e6f756768206c6971756964697479000000000000000000000000600082015250565b6000610d7e601483610af8565b9150610d8982610d48565b602082019050919050565b60006020820190508181036000830152610dad81610d71565b905091905056fea2646970667358221220d3edd44064abaf4e0cd99eb75f656237c397a7bd7fea2e552dc4f41d9aa6e71c64736f6c634300081a0033",
					"opcodes": "PUSH1 0x80 PUSH1 0x40 MSTORE CALLVALUE DUP1 ISZERO PUSH2 0x10 JUMPI PUSH1 0x0 DUP1 REVERT JUMPDEST POP PUSH1 0x40 MLOAD PUSH2 0xF56 CODESIZE SUB DUP1 PUSH2 0xF56 DUP4 CODECOPY DUP2 DUP2 ADD PUSH1 0x40 MSTORE DUP2 ADD SWAP1 PUSH2 0x32 SWAP2 SWAP1 PUSH2 0x11D JUMP JUMPDEST DUP2 PUSH1 0x0 DUP1 PUSH2 0x100 EXP DUP2 SLOAD DUP2 PUSH20 0xFFFFFFFFFFFFFFFFFFFFFFFFFFFFFFFFFFFFFFFF MUL NOT AND SWAP1 DUP4 PUSH20 0xFFFFFFFFFFFFFFFFFFFFFFFFFFFFFFFFFFFFFFFF AND MUL OR SWAP1 SSTORE POP DUP1 PUSH1 0x1 PUSH1 0x0 PUSH2 0x100 EXP DUP2 SLOAD DUP2 PUSH20 0xFFFFFFFFFFFFFFFFFFFFFFFFFFFFFFFFFFFFFFFF MUL NOT AND SWAP1 DUP4 PUSH20 0xFFFFFFFFFFFFFFFFFFFFFFFFFFFFFFFFFFFFFFFF AND MUL OR SWAP1 SSTORE POP POP POP PUSH2 0x15D JUMP JUMPDEST PUSH1 0x0 DUP1 REVERT JUMPDEST PUSH1 0x0 PUSH20 0xFFFFFFFFFFFFFFFFFFFFFFFFFFFFFFFFFFFFFFFF DUP3 AND SWAP1 POP SWAP2 SWAP1 POP JUMP JUMPDEST PUSH1 0x0 PUSH2 0xEA DUP3 PUSH2 0xBF JUMP JUMPDEST SWAP1 POP SWAP2 SWAP1 POP JUMP JUMPDEST PUSH2 0xFA DUP2 PUSH2 0xDF JUMP JUMPDEST DUP2 EQ PUSH2 0x105 JUMPI PUSH1 0x0 DUP1 REVERT JUMPDEST POP JUMP JUMPDEST PUSH1 0x0 DUP2 MLOAD SWAP1 POP PUSH2 0x117 DUP2 PUSH2 0xF1 JUMP JUMPDEST SWAP3 SWAP2 POP POP JUMP JUMPDEST PUSH1 0x0 DUP1 PUSH1 0x40 DUP4 DUP6 SUB SLT ISZERO PUSH2 0x134 JUMPI PUSH2 0x133 PUSH2 0xBA JUMP JUMPDEST JUMPDEST PUSH1 0x0 PUSH2 0x142 DUP6 DUP3 DUP7 ADD PUSH2 0x108 JUMP JUMPDEST SWAP3 POP POP PUSH1 0x20 PUSH2 0x153 DUP6 DUP3 DUP7 ADD PUSH2 0x108 JUMP JUMPDEST SWAP2 POP POP SWAP3 POP SWAP3 SWAP1 POP JUMP JUMPDEST PUSH2 0xDEA DUP1 PUSH2 0x16C PUSH1 0x0 CODECOPY PUSH1 0x0 RETURN INVALID PUSH1 0x80 PUSH1 0x40 MSTORE CALLVALUE DUP1 ISZERO PUSH2 0x10 JUMPI PUSH1 0x0 DUP1 REVERT JUMPDEST POP PUSH1 0x4 CALLDATASIZE LT PUSH2 0x9E JUMPI PUSH1 0x0 CALLDATALOAD PUSH1 0xE0 SHR DUP1 PUSH4 0x9CD441DA GT PUSH2 0x66 JUMPI DUP1 PUSH4 0x9CD441DA EQ PUSH2 0x13A JUMPI DUP1 PUSH4 0xA035B1FE EQ PUSH2 0x156 JUMPI DUP1 PUSH4 0xD21220A7 EQ PUSH2 0x174 JUMPI DUP1 PUSH4 0xDB068E0E EQ PUSH2 0x192 JUMPI DUP1 PUSH4 0xECED5526 EQ PUSH2 0x1AE JUMPI PUSH2 0x9E JUMP JUMPDEST DUP1 PUSH4 0x902F1AC EQ PUSH2 0xA3 JUMPI DUP1 PUSH4 0xDFE1681 EQ PUSH2 0xC2 JUMPI DUP1 PUSH4 0x2E0F2625 EQ PUSH2 0xE0 JUMPI DUP1 PUSH4 0x443CB4BC EQ PUSH2 0xFE JUMPI DUP1 PUSH4 0x5A76F25E EQ PUSH2 0x11C JUMPI JUMPDEST PUSH1 0x0 DUP1 REVERT JUMPDEST PUSH2 0xAB PUSH2 0x1CC JUMP JUMPDEST PUSH1 0x40 MLOAD PUSH2 0xB9 SWAP3 SWAP2 SWAP1 PUSH2 0x738 JUMP JUMPDEST PUSH1 0x40 MLOAD DUP1 SWAP2 SUB SWAP1 RETURN JUMPDEST PUSH2 0xCA PUSH2 0x20D JUMP JUMPDEST PUSH1 0x40 MLOAD PUSH2 0xD7 SWAP2 SWAP1 PUSH2 0x7E0 JUMP JUMPDEST PUSH1 0x40 MLOAD DUP1 SWAP2 SUB SWAP1 RETURN JUMPDEST PUSH2 0xE8 PUSH2 0x231 JUMP JUMPDEST PUSH1 0x40 MLOAD PUSH2 0xF5 SWAP2 SWAP1 PUSH2 0x817 JUMP JUMPDEST PUSH1 0x40 MLOAD DUP1 SWAP2 SUB SWAP1 RETURN JUMPDEST PUSH2 0x106 PUSH2 0x236 JUMP JUMPDEST PUSH1 0x40 MLOAD PUSH2 0x113 SWAP2 SWAP1 PUSH2 0x832 JUMP JUMPDEST PUSH1 0x40 MLOAD DUP1 SWAP2 SUB SWAP1 RETURN JUMPDEST PUSH2 0x124 PUSH2 0x23C JUMP JUMPDEST PUSH1 0x40 MLOAD PUSH2 0x131 SWAP2 SWAP1 PUSH2 0x832 JUMP JUMPDEST PUSH1 0x40 MLOAD DUP1 SWAP2 SUB SWAP1 RETURN JUMPDEST PUSH2 0x154 PUSH1 0x4 DUP1 CALLDATASIZE SUB DUP2 ADD SWAP1 PUSH2 0x14F SWAP2 SWAP1 PUSH2 0x87E JUMP JUMPDEST PUSH2 0x242 JUMP JUMPDEST STOP JUMPDEST PUSH2 0x15E PUSH2 0x43B JUMP JUMPDEST PUSH1 0x40 MLOAD PUSH2 0x16B SWAP2 SWAP1 PUSH2 0x832 JUMP JUMPDEST PUSH1 0x40 MLOAD DUP1 SWAP2 SUB SWAP1 RETURN JUMPDEST PUSH2 0x17C PUSH2 0x441 JUMP JUMPDEST PUSH1 0x40 MLOAD PUSH2 0x189 SWAP2 SWAP1 PUSH2 0x7E0 JUMP JUMPDEST PUSH1 0x40 MLOAD DUP1 SWAP2 SUB SWAP1 RETURN JUMPDEST PUSH2 0x1AC PUSH1 0x4 DUP1 CALLDATASIZE SUB DUP2 ADD SWAP1 PUSH2 0x1A7 SWAP2 SWAP1 PUSH2 0x8BE JUMP JUMPDEST PUSH2 0x467 JUMP JUMPDEST STOP JUMPDEST PUSH2 0x1B6 PUSH2 0x508 JUMP JUMPDEST PUSH1 0x40 MLOAD PUSH2 0x1C3 SWAP2 SWAP1 PUSH2 0x832 JUMP JUMPDEST PUSH1 0x40 MLOAD DUP1 SWAP2 SUB SWAP1 RETURN JUMPDEST PUSH1 0x0 DUP1 PUSH1 0x3 PUSH1 0xA PUSH2 0x1DD SWAP2 SWAP1 PUSH2 0xA4D JUMP JUMPDEST PUSH1 0x2 SLOAD PUSH2 0x1EA SWAP2 SWAP1 PUSH2 0xAC7 JUMP JUMPDEST PUSH1 0x3 PUSH1 0xA PUSH2 0x1F8 SWAP2 SWAP1 PUSH2 0xA4D JUMP JUMPDEST PUSH1 0x3 SLOAD PUSH2 0x205 SWAP2 SWAP1 PUSH2 0xAC7 JUMP JUMPDEST SWAP2 POP SWAP2 POP SWAP1 SWAP2 JUMP JUMPDEST PUSH1 0x0 DUP1 SLOAD SWAP1 PUSH2 0x100 EXP SWAP1 DIV PUSH20 0xFFFFFFFFFFFFFFFFFFFFFFFFFFFFFFFFFFFFFFFF AND DUP2 JUMP JUMPDEST PUSH1 0x3 DUP2 JUMP JUMPDEST PUSH1 0x2 SLOAD DUP2 JUMP JUMPDEST PUSH1 0x3 SLOAD DUP2 JUMP JUMPDEST PUSH1 0x0 DUP3 GT DUP1 ISZERO PUSH2 0x252 JUMPI POP PUSH1 0x0 DUP2 GT JUMPDEST PUSH2 0x291 JUMPI PUSH1 0x40 MLOAD PUSH32 0x8C379A000000000000000000000000000000000000000000000000000000000 DUP2 MSTORE PUSH1 0x4 ADD PUSH2 0x288 SWAP1 PUSH2 0xB55 JUMP JUMPDEST PUSH1 0x40 MLOAD DUP1 SWAP2 SUB SWAP1 REVERT JUMPDEST PUSH1 0x0 DUP1 SLOAD SWAP1 PUSH2 0x100 EXP SWAP1 DIV PUSH20 0xFFFFFFFFFFFFFFFFFFFFFFFFFFFFFFFFFFFFFFFF AND PUSH20 0xFFFFFFFFFFFFFFFFFFFFFFFFFFFFFFFFFFFFFFFF AND PUSH4 0x23B872DD CALLER ADDRESS DUP6 PUSH1 0x40 MLOAD DUP5 PUSH4 0xFFFFFFFF AND PUSH1 0xE0 SHL DUP2 MSTORE PUSH1 0x4 ADD PUSH2 0x2EE SWAP4 SWAP3 SWAP2 SWAP1 PUSH2 0xB96 JUMP JUMPDEST PUSH1 0x20 PUSH1 0x40 MLOAD DUP1 DUP4 SUB DUP2 PUSH1 0x0 DUP8 GAS CALL ISZERO DUP1 ISZERO PUSH2 0x30D JUMPI RETURNDATASIZE PUSH1 0x0 DUP1 RETURNDATACOPY RETURNDATASIZE PUSH1 0x0 REVERT JUMPDEST POP POP POP POP PUSH1 0x40 MLOAD RETURNDATASIZE PUSH1 0x1F NOT PUSH1 0x1F DUP3 ADD AND DUP3 ADD DUP1 PUSH1 0x40 MSTORE POP DUP2 ADD SWAP1 PUSH2 0x331 SWAP2 SWAP1 PUSH2 0xC05 JUMP JUMPDEST POP PUSH1 0x1 PUSH1 0x0 SWAP1 SLOAD SWAP1 PUSH2 0x100 EXP SWAP1 DIV PUSH20 0xFFFFFFFFFFFFFFFFFFFFFFFFFFFFFFFFFFFFFFFF AND PUSH20 0xFFFFFFFFFFFFFFFFFFFFFFFFFFFFFFFFFFFFFFFF AND PUSH4 0x23B872DD CALLER ADDRESS DUP5 PUSH1 0x40 MLOAD DUP5 PUSH4 0xFFFFFFFF AND PUSH1 0xE0 SHL DUP2 MSTORE PUSH1 0x4 ADD PUSH2 0x391 SWAP4 SWAP3 SWAP2 SWAP1 PUSH2 0xB96 JUMP JUMPDEST PUSH1 0x20 PUSH1 0x40 MLOAD DUP1 DUP4 SUB DUP2 PUSH1 0x0 DUP8 GAS CALL ISZERO DUP1 ISZERO PUSH2 0x3B0 JUMPI RETURNDATASIZE PUSH1 0x0 DUP1 RETURNDATACOPY RETURNDATASIZE PUSH1 0x0 REVERT JUMPDEST POP POP POP POP PUSH1 0x40 MLOAD RETURNDATASIZE PUSH1 0x1F NOT PUSH1 0x1F DUP3 ADD AND DUP3 ADD DUP1 PUSH1 0x40 MSTORE POP DUP2 ADD SWAP1 PUSH2 0x3D4 SWAP2 SWAP1 PUSH2 0xC05 JUMP JUMPDEST POP PUSH1 0x3 PUSH1 0xA PUSH2 0x3E3 SWAP2 SWAP1 PUSH2 0xA4D JUMP JUMPDEST DUP3 PUSH2 0x3EE SWAP2 SWAP1 PUSH2 0xC32 JUMP JUMPDEST PUSH1 0x2 PUSH1 0x0 DUP3 DUP3 SLOAD PUSH2 0x3FF SWAP2 SWAP1 PUSH2 0xC74 JUMP JUMPDEST SWAP3 POP POP DUP2 SWAP1 SSTORE POP PUSH1 0x3 PUSH1 0xA PUSH2 0x414 SWAP2 SWAP1 PUSH2 0xA4D JUMP JUMPDEST DUP2 PUSH2 0x41F SWAP2 SWAP1 PUSH2 0xC32 JUMP JUMPDEST PUSH1 0x3 PUSH1 0x0 DUP3 DUP3 SLOAD PUSH2 0x430 SWAP2 SWAP1 PUSH2 0xC74 JUMP JUMPDEST SWAP3 POP POP DUP2 SWAP1 SSTORE POP POP POP JUMP JUMPDEST PUSH1 0x4 SLOAD DUP2 JUMP JUMPDEST PUSH1 0x1 PUSH1 0x0 SWAP1 SLOAD SWAP1 PUSH2 0x100 EXP SWAP1 DIV PUSH20 0xFFFFFFFFFFFFFFFFFFFFFFFFFFFFFFFFFFFFFFFF AND DUP2 JUMP JUMPDEST PUSH1 0x0 DUP2 GT PUSH2 0x4AA JUMPI PUSH1 0x40 MLOAD PUSH32 0x8C379A000000000000000000000000000000000000000000000000000000000 DUP2 MSTORE PUSH1 0x4 ADD PUSH2 0x4A1 SWAP1 PUSH2 0xCF4 JUMP JUMPDEST PUSH1 0x40 MLOAD DUP1 SWAP2 SUB SWAP1 REVERT JUMPDEST PUSH1 0x0 DUP1 PUSH1 0x4 SLOAD EQ PUSH2 0x4BD JUMPI PUSH1 0x4 SLOAD PUSH2 0x4D7 JUMP JUMPDEST PUSH1 0x3 PUSH1 0xA PUSH2 0x4CB SWAP2 SWAP1 PUSH2 0xA4D JUMP JUMPDEST DUP3 PUSH2 0x4D6 SWAP2 SWAP1 PUSH2 0xC32 JUMP JUMPDEST JUMPDEST SWAP1 POP PUSH1 0x3 PUSH1 0xA PUSH2 0x4E7 SWAP2 SWAP1 PUSH2 0xA4D JUMP JUMPDEST DUP3 PUSH2 0x4F2 SWAP2 SWAP1 PUSH2 0xC32 JUMP JUMPDEST PUSH1 0x4 DUP2 SWAP1 SSTORE POP PUSH2 0x504 DUP2 PUSH1 0x4 SLOAD PUSH2 0x519 JUMP JUMPDEST POP POP JUMP JUMPDEST PUSH1 0x3 PUSH1 0xA PUSH2 0x516 SWAP2 SWAP1 PUSH2 0xA4D JUMP JUMPDEST DUP2 JUMP JUMPDEST DUP1 DUP3 SUB ISZERO PUSH2 0x5B0 JUMPI PUSH1 0x0 PUSH1 0x3 PUSH1 0xA PUSH2 0x531 SWAP2 SWAP1 PUSH2 0xA4D JUMP JUMPDEST PUSH2 0x575 PUSH1 0x3 PUSH1 0xA PUSH2 0x542 SWAP2 SWAP1 PUSH2 0xA4D JUMP JUMPDEST PUSH1 0x3 PUSH1 0xA PUSH2 0x550 SWAP2 SWAP1 PUSH2 0xA4D JUMP JUMPDEST PUSH2 0x55A SWAP2 SWAP1 PUSH2 0xC32 JUMP JUMPDEST DUP5 DUP7 PUSH2 0x566 SWAP2 SWAP1 PUSH2 0xC32 JUMP JUMPDEST PUSH2 0x570 SWAP2 SWAP1 PUSH2 0xAC7 JUMP JUMPDEST PUSH2 0x5B4 JUMP JUMPDEST PUSH2 0x57F SWAP2 SWAP1 PUSH2 0xC32 JUMP JUMPDEST SWAP1 POP PUSH1 0x0 DUP3 DUP3 PUSH2 0x58F SWAP2 SWAP1 PUSH2 0xAC7 JUMP JUMPDEST SWAP1 POP PUSH1 0x0 PUSH1 0x2 SLOAD DUP3 PUSH2 0x5A1 SWAP2 SWAP1 PUSH2 0xD14 JUMP JUMPDEST SWAP1 POP PUSH2 0x5AC DUP2 PUSH2 0x62E JUMP JUMPDEST POP POP POP JUMPDEST POP POP JUMP JUMPDEST PUSH1 0x0 PUSH1 0x3 DUP3 GT ISZERO PUSH2 0x61B JUMPI DUP2 SWAP1 POP PUSH1 0x0 PUSH1 0x1 PUSH1 0x2 DUP5 PUSH2 0x5D3 SWAP2 SWAP1 PUSH2 0xAC7 JUMP JUMPDEST PUSH2 0x5DD SWAP2 SWAP1 PUSH2 0xC74 JUMP JUMPDEST SWAP1 POP JUMPDEST DUP2 DUP2 LT ISZERO PUSH2 0x615 JUMPI DUP1 SWAP2 POP PUSH1 0x2 DUP2 DUP3 DUP6 PUSH2 0x5FA SWAP2 SWAP1 PUSH2 0xAC7 JUMP JUMPDEST PUSH2 0x604 SWAP2 SWAP1 PUSH2 0xC74 JUMP JUMPDEST PUSH2 0x60E SWAP2 SWAP1 PUSH2 0xAC7 JUMP JUMPDEST SWAP1 POP PUSH2 0x5E0 JUMP JUMPDEST POP PUSH2 0x629 JUMP JUMPDEST PUSH1 0x0 DUP3 EQ PUSH2 0x628 JUMPI PUSH1 0x1 SWAP1 POP JUMPDEST JUMPDEST SWAP2 SWAP1 POP JUMP JUMPDEST PUSH1 0x0 DUP2 LT ISZERO PUSH2 0x68E JUMPI PUSH1 0x3 SLOAD PUSH1 0x4 SLOAD DUP3 PUSH2 0x648 SWAP2 SWAP1 PUSH2 0xC32 JUMP JUMPDEST GT ISZERO PUSH2 0x689 JUMPI PUSH1 0x40 MLOAD PUSH32 0x8C379A000000000000000000000000000000000000000000000000000000000 DUP2 MSTORE PUSH1 0x4 ADD PUSH2 0x680 SWAP1 PUSH2 0xD94 JUMP JUMPDEST PUSH1 0x40 MLOAD DUP1 SWAP2 SUB SWAP1 REVERT JUMPDEST PUSH2 0x6DC JUMP JUMPDEST PUSH1 0x0 DUP2 SUB ISZERO PUSH2 0x71C JUMPI PUSH1 0x2 SLOAD DUP2 GT PUSH2 0x6DB JUMPI PUSH1 0x40 MLOAD PUSH32 0x8C379A000000000000000000000000000000000000000000000000000000000 DUP2 MSTORE PUSH1 0x4 ADD PUSH2 0x6D2 SWAP1 PUSH2 0xD94 JUMP JUMPDEST PUSH1 0x40 MLOAD DUP1 SWAP2 SUB SWAP1 REVERT JUMPDEST JUMPDEST DUP1 PUSH1 0x2 PUSH1 0x0 DUP3 DUP3 SLOAD PUSH2 0x6EE SWAP2 SWAP1 PUSH2 0xD14 JUMP JUMPDEST SWAP3 POP POP DUP2 SWAP1 SSTORE POP PUSH1 0x4 SLOAD DUP2 PUSH2 0x703 SWAP2 SWAP1 PUSH2 0xC32 JUMP JUMPDEST PUSH1 0x3 PUSH1 0x0 DUP3 DUP3 SLOAD PUSH2 0x714 SWAP2 SWAP1 PUSH2 0xC74 JUMP JUMPDEST SWAP3 POP POP DUP2 SWAP1 SSTORE POP JUMPDEST POP JUMP JUMPDEST PUSH1 0x0 DUP2 SWAP1 POP SWAP2 SWAP1 POP JUMP JUMPDEST PUSH2 0x732 DUP2 PUSH2 0x71F JUMP JUMPDEST DUP3 MSTORE POP POP JUMP JUMPDEST PUSH1 0x0 PUSH1 0x40 DUP3 ADD SWAP1 POP PUSH2 0x74D PUSH1 0x0 DUP4 ADD DUP6 PUSH2 0x729 JUMP JUMPDEST PUSH2 0x75A PUSH1 0x20 DUP4 ADD DUP5 PUSH2 0x729 JUMP JUMPDEST SWAP4 SWAP3 POP POP POP JUMP JUMPDEST PUSH1 0x0 PUSH20 0xFFFFFFFFFFFFFFFFFFFFFFFFFFFFFFFFFFFFFFFF DUP3 AND SWAP1 POP SWAP2 SWAP1 POP JUMP JUMPDEST PUSH1 0x0 DUP2 SWAP1 POP SWAP2 SWAP1 POP JUMP JUMPDEST PUSH1 0x0 PUSH2 0x7A6 PUSH2 0x7A1 PUSH2 0x79C DUP5 PUSH2 0x761 JUMP JUMPDEST PUSH2 0x781 JUMP JUMPDEST PUSH2 0x761 JUMP JUMPDEST SWAP1 POP SWAP2 SWAP1 POP JUMP JUMPDEST PUSH1 0x0 PUSH2 0x7B8 DUP3 PUSH2 0x78B JUMP JUMPDEST SWAP1 POP SWAP2 SWAP1 POP JUMP JUMPDEST PUSH1 0x0 PUSH2 0x7CA DUP3 PUSH2 0x7AD JUMP JUMPDEST SWAP1 POP SWAP2 SWAP1 POP JUMP JUMPDEST PUSH2 0x7DA DUP2 PUSH2 0x7BF JUMP JUMPDEST DUP3 MSTORE POP POP JUMP JUMPDEST PUSH1 0x0 PUSH1 0x20 DUP3 ADD SWAP1 POP PUSH2 0x7F5 PUSH1 0x0 DUP4 ADD DUP5 PUSH2 0x7D1 JUMP JUMPDEST SWAP3 SWAP2 POP POP JUMP JUMPDEST PUSH1 0x0 PUSH1 0xFF DUP3 AND SWAP1 POP SWAP2 SWAP1 POP JUMP JUMPDEST PUSH2 0x811 DUP2 PUSH2 0x7FB JUMP JUMPDEST DUP3 MSTORE POP POP JUMP JUMPDEST PUSH1 0x0 PUSH1 0x20 DUP3 ADD SWAP1 POP PUSH2 0x82C PUSH1 0x0 DUP4 ADD DUP5 PUSH2 0x808 JUMP JUMPDEST SWAP3 SWAP2 POP POP JUMP JUMPDEST PUSH1 0x0 PUSH1 0x20 DUP3 ADD SWAP1 POP PUSH2 0x847 PUSH1 0x0 DUP4 ADD DUP5 PUSH2 0x729 JUMP JUMPDEST SWAP3 SWAP2 POP POP JUMP JUMPDEST PUSH1 0x0 DUP1 REVERT JUMPDEST PUSH2 0x85B DUP2 PUSH2 0x71F JUMP JUMPDEST DUP2 EQ PUSH2 0x866 JUMPI PUSH1 0x0 DUP1 REVERT JUMPDEST POP JUMP JUMPDEST PUSH1 0x0 DUP2 CALLDATALOAD SWAP1 POP PUSH2 0x878 DUP2 PUSH2 0x852 JUMP JUMPDEST SWAP3 SWAP2 POP POP JUMP JUMPDEST PUSH1 0x0 DUP1 PUSH1 0x40 DUP4 DUP6 SUB SLT ISZERO PUSH2 0x895 JUMPI PUSH2 0x894 PUSH2 0x84D JUMP JUMPDEST JUMPDEST PUSH1 0x0 PUSH2 0x8A3 DUP6 DUP3 DUP7 ADD PUSH2 0x869 JUMP JUMPDEST SWAP3 POP POP PUSH1 0x20 PUSH2 0x8B4 DUP6 DUP3 DUP7 ADD PUSH2 0x869 JUMP JUMPDEST SWAP2 POP POP SWAP3 POP SWAP3 SWAP1 POP JUMP JUMPDEST PUSH1 0x0 PUSH1 0x20 DUP3 DUP5 SUB SLT ISZERO PUSH2 0x8D4 JUMPI PUSH2 0x8D3 PUSH2 0x84D JUMP JUMPDEST JUMPDEST PUSH1 0x0 PUSH2 0x8E2 DUP5 DUP3 DUP6 ADD PUSH2 0x869 JUMP JUMPDEST SWAP2 POP POP SWAP3 SWAP2 POP POP JUMP JUMPDEST PUSH32 0x4E487B7100000000000000000000000000000000000000000000000000000000 PUSH1 0x0 MSTORE PUSH1 0x11 PUSH1 0x4 MSTORE PUSH1 0x24 PUSH1 0x0 REVERT JUMPDEST PUSH1 0x0 DUP2 PUSH1 0x1 SHR SWAP1 POP SWAP2 SWAP1 POP JUMP JUMPDEST PUSH1 0x0 DUP1 DUP3 SWAP2 POP DUP4 SWAP1 POP JUMPDEST PUSH1 0x1 DUP6 GT ISZERO PUSH2 0x971 JUMPI DUP1 DUP7 DIV DUP2 GT ISZERO PUSH2 0x94D JUMPI PUSH2 0x94C PUSH2 0x8EB JUMP JUMPDEST JUMPDEST PUSH1 0x1 DUP6 AND ISZERO PUSH2 0x95C JUMPI DUP1 DUP3 MUL SWAP2 POP JUMPDEST DUP1 DUP2 MUL SWAP1 POP PUSH2 0x96A DUP6 PUSH2 0x91A JUMP JUMPDEST SWAP5 POP PUSH2 0x931 JUMP JUMPDEST SWAP5 POP SWAP5 SWAP3 POP POP POP JUMP JUMPDEST PUSH1 0x0 DUP3 PUSH2 0x98A JUMPI PUSH1 0x1 SWAP1 POP PUSH2 0xA46 JUMP JUMPDEST DUP2 PUSH2 0x998 JUMPI PUSH1 0x0 SWAP1 POP PUSH2 0xA46 JUMP JUMPDEST DUP2 PUSH1 0x1 DUP2 EQ PUSH2 0x9AE JUMPI PUSH1 0x2 DUP2 EQ PUSH2 0x9B8 JUMPI PUSH2 0x9E7 JUMP JUMPDEST PUSH1 0x1 SWAP2 POP POP PUSH2 0xA46 JUMP JUMPDEST PUSH1 0xFF DUP5 GT ISZERO PUSH2 0x9CA JUMPI PUSH2 0x9C9 PUSH2 0x8EB JUMP JUMPDEST JUMPDEST DUP4 PUSH1 0x2 EXP SWAP2 POP DUP5 DUP3 GT ISZERO PUSH2 0x9E1 JUMPI PUSH2 0x9E0 PUSH2 0x8EB JUMP JUMPDEST JUMPDEST POP PUSH2 0xA46 JUMP JUMPDEST POP PUSH1 0x20 DUP4 LT PUSH2 0x133 DUP4 LT AND PUSH1 0x4E DUP5 LT PUSH1 0xB DUP5 LT AND OR ISZERO PUSH2 0xA1C JUMPI DUP3 DUP3 EXP SWAP1 POP DUP4 DUP2 GT ISZERO PUSH2 0xA17 JUMPI PUSH2 0xA16 PUSH2 0x8EB JUMP JUMPDEST JUMPDEST PUSH2 0xA46 JUMP JUMPDEST PUSH2 0xA29 DUP5 DUP5 DUP5 PUSH1 0x1 PUSH2 0x927 JUMP JUMPDEST SWAP3 POP SWAP1 POP DUP2 DUP5 DIV DUP2 GT ISZERO PUSH2 0xA40 JUMPI PUSH2 0xA3F PUSH2 0x8EB JUMP JUMPDEST JUMPDEST DUP2 DUP2 MUL SWAP1 POP JUMPDEST SWAP4 SWAP3 POP POP POP JUMP JUMPDEST PUSH1 0x0 PUSH2 0xA58 DUP3 PUSH2 0x71F JUMP JUMPDEST SWAP2 POP PUSH2 0xA63 DUP4 PUSH2 0x7FB JUMP JUMPDEST SWAP3 POP PUSH2 0xA90 PUSH32 0xFFFFFFFFFFFFFFFFFFFFFFFFFFFFFFFFFFFFFFFFFFFFFFFFFFFFFFFFFFFFFFFF DUP5 DUP5 PUSH2 0x97A JUMP JUMPDEST SWAP1 POP SWAP3 SWAP2 POP POP JUMP JUMPDEST PUSH32 0x4E487B7100000000000000000000000000000000000000000000000000000000 PUSH1 0x0 MSTORE PUSH1 0x12 PUSH1 0x4 MSTORE PUSH1 0x24 PUSH1 0x0 REVERT JUMPDEST PUSH1 0x0 PUSH2 0xAD2 DUP3 PUSH2 0x71F JUMP JUMPDEST SWAP2 POP PUSH2 0xADD DUP4 PUSH2 0x71F JUMP JUMPDEST SWAP3 POP DUP3 PUSH2 0xAED JUMPI PUSH2 0xAEC PUSH2 0xA98 JUMP JUMPDEST JUMPDEST DUP3 DUP3 DIV SWAP1 POP SWAP3 SWAP2 POP POP JUMP JUMPDEST PUSH1 0x0 DUP3 DUP3 MSTORE PUSH1 0x20 DUP3 ADD SWAP1 POP SWAP3 SWAP2 POP POP JUMP JUMPDEST PUSH32 0x496E76616C696420616D6F756E74730000000000000000000000000000000000 PUSH1 0x0 DUP3 ADD MSTORE POP JUMP JUMPDEST PUSH1 0x0 PUSH2 0xB3F PUSH1 0xF DUP4 PUSH2 0xAF8 JUMP JUMPDEST SWAP2 POP PUSH2 0xB4A DUP3 PUSH2 0xB09 JUMP JUMPDEST PUSH1 0x20 DUP3 ADD SWAP1 POP SWAP2 SWAP1 POP JUMP JUMPDEST PUSH1 0x0 PUSH1 0x20 DUP3 ADD SWAP1 POP DUP2 DUP2 SUB PUSH1 0x0 DUP4 ADD MSTORE PUSH2 0xB6E DUP2 PUSH2 0xB32 JUMP JUMPDEST SWAP1 POP SWAP2 SWAP1 POP JUMP JUMPDEST PUSH1 0x0 PUSH2 0xB80 DUP3 PUSH2 0x761 JUMP JUMPDEST SWAP1 POP SWAP2 SWAP1 POP JUMP JUMPDEST PUSH2 0xB90 DUP2 PUSH2 0xB75 JUMP JUMPDEST DUP3 MSTORE POP POP JUMP JUMPDEST PUSH1 0x0 PUSH1 0x60 DUP3 ADD SWAP1 POP PUSH2 0xBAB PUSH1 0x0 DUP4 ADD DUP7 PUSH2 0xB87 JUMP JUMPDEST PUSH2 0xBB8 PUSH1 0x20 DUP4 ADD DUP6 PUSH2 0xB87 JUMP JUMPDEST PUSH2 0xBC5 PUSH1 0x40 DUP4 ADD DUP5 PUSH2 0x729 JUMP JUMPDEST SWAP5 SWAP4 POP POP POP POP JUMP JUMPDEST PUSH1 0x0 DUP2 ISZERO ISZERO SWAP1 POP SWAP2 SWAP1 POP JUMP JUMPDEST PUSH2 0xBE2 DUP2 PUSH2 0xBCD JUMP JUMPDEST DUP2 EQ PUSH2 0xBED JUMPI PUSH1 0x0 DUP1 REVERT JUMPDEST POP JUMP JUMPDEST PUSH1 0x0 DUP2 MLOAD SWAP1 POP PUSH2 0xBFF DUP2 PUSH2 0xBD9 JUMP JUMPDEST SWAP3 SWAP2 POP POP JUMP JUMPDEST PUSH1 0x0 PUSH1 0x20 DUP3 DUP5 SUB SLT ISZERO PUSH2 0xC1B JUMPI PUSH2 0xC1A PUSH2 0x84D JUMP JUMPDEST JUMPDEST PUSH1 0x0 PUSH2 0xC29 DUP5 DUP3 DUP6 ADD PUSH2 0xBF0 JUMP JUMPDEST SWAP2 POP POP SWAP3 SWAP2 POP POP JUMP JUMPDEST PUSH1 0x0 PUSH2 0xC3D DUP3 PUSH2 0x71F JUMP JUMPDEST SWAP2 POP PUSH2 0xC48 DUP4 PUSH2 0x71F JUMP JUMPDEST SWAP3 POP DUP3 DUP3 MUL PUSH2 0xC56 DUP2 PUSH2 0x71F JUMP JUMPDEST SWAP2 POP DUP3 DUP3 DIV DUP5 EQ DUP4 ISZERO OR PUSH2 0xC6D JUMPI PUSH2 0xC6C PUSH2 0x8EB JUMP JUMPDEST JUMPDEST POP SWAP3 SWAP2 POP POP JUMP JUMPDEST PUSH1 0x0 PUSH2 0xC7F DUP3 PUSH2 0x71F JUMP JUMPDEST SWAP2 POP PUSH2 0xC8A DUP4 PUSH2 0x71F JUMP JUMPDEST SWAP3 POP DUP3 DUP3 ADD SWAP1 POP DUP1 DUP3 GT ISZERO PUSH2 0xCA2 JUMPI PUSH2 0xCA1 PUSH2 0x8EB JUMP JUMPDEST JUMPDEST SWAP3 SWAP2 POP POP JUMP JUMPDEST PUSH32 0x496E76616C696420746172676574207072696365000000000000000000000000 PUSH1 0x0 DUP3 ADD MSTORE POP JUMP JUMPDEST PUSH1 0x0 PUSH2 0xCDE PUSH1 0x14 DUP4 PUSH2 0xAF8 JUMP JUMPDEST SWAP2 POP PUSH2 0xCE9 DUP3 PUSH2 0xCA8 JUMP JUMPDEST PUSH1 0x20 DUP3 ADD SWAP1 POP SWAP2 SWAP1 POP JUMP JUMPDEST PUSH1 0x0 PUSH1 0x20 DUP3 ADD SWAP1 POP DUP2 DUP2 SUB PUSH1 0x0 DUP4 ADD MSTORE PUSH2 0xD0D DUP2 PUSH2 0xCD1 JUMP JUMPDEST SWAP1 POP SWAP2 SWAP1 POP JUMP JUMPDEST PUSH1 0x0 PUSH2 0xD1F DUP3 PUSH2 0x71F JUMP JUMPDEST SWAP2 POP PUSH2 0xD2A DUP4 PUSH2 0x71F JUMP JUMPDEST SWAP3 POP DUP3 DUP3 SUB SWAP1 POP DUP2 DUP2 GT ISZERO PUSH2 0xD42 JUMPI PUSH2 0xD41 PUSH2 0x8EB JUMP JUMPDEST JUMPDEST SWAP3 SWAP2 POP POP JUMP JUMPDEST PUSH32 0x4E6F7420656E6F756768206C6971756964697479000000000000000000000000 PUSH1 0x0 DUP3 ADD MSTORE POP JUMP JUMPDEST PUSH1 0x0 PUSH2 0xD7E PUSH1 0x14 DUP4 PUSH2 0xAF8 JUMP JUMPDEST SWAP2 POP PUSH2 0xD89 DUP3 PUSH2 0xD48 JUMP JUMPDEST PUSH1 0x20 DUP3 ADD SWAP1 POP SWAP2 SWAP1 POP JUMP JUMPDEST PUSH1 0x0 PUSH1 0x20 DUP3 ADD SWAP1 POP DUP2 DUP2 SUB PUSH1 0x0 DUP4 ADD MSTORE PUSH2 0xDAD DUP2 PUSH2 0xD71 JUMP JUMPDEST SWAP1 POP SWAP2 SWAP1 POP JUMP INVALID LOG2 PUSH5 0x6970667358 0x22 SLT KECCAK256 0xD3 0xED 0xD4 BLOCKHASH PUSH5 0xABAF4E0CD9 SWAP15 0xB7 PUSH0 PUSH6 0x6237C397A7BD PUSH32 0xEA2E552DC4F41D9AA6E71C64736F6C634300081A003300000000000000000000 "
				},
				"gasEstimates": {
					"creation": {
						"codeDepositCost": "712400",
						"executionCost": "infinite",
						"totalCost": "infinite"
					},
					"external": {
						"DECIMALS()": "380",
						"SCALE()": "infinite",
						"addLiquidity(uint256,uint256)": "infinite",
						"getReserves()": "infinite",
						"price()": "2451",
						"reserve0()": "2496",
						"reserve1()": "2518",
						"setExchangeRate(uint256)": "infinite",
						"token0()": "infinite",
						"token1()": "infinite"
					},
					"internal": {
						"_internalSwap(uint256)": "infinite",
						"balancePool(uint256,uint256)": "infinite",
						"sqrt(uint256)": "infinite"
					}
				},
				"methodIdentifiers": {
					"DECIMALS()": "2e0f2625",
					"SCALE()": "eced5526",
					"addLiquidity(uint256,uint256)": "9cd441da",
					"getReserves()": "0902f1ac",
					"price()": "a035b1fe",
					"reserve0()": "443cb4bc",
					"reserve1()": "5a76f25e",
					"setExchangeRate(uint256)": "db068e0e",
					"token0()": "0dfe1681",
					"token1()": "d21220a7"
				}
			},
			"storageLayout": {
				"storage": [
					{
						"astId": 83,
						"contract": "AMMProject/contracts/ConstantProductAMM.sol:ConstantProductAMM",
						"label": "token0",
						"offset": 0,
						"slot": "0",
						"type": "t_contract(IERC20)77"
					},
					{
						"astId": 86,
						"contract": "AMMProject/contracts/ConstantProductAMM.sol:ConstantProductAMM",
						"label": "token1",
						"offset": 0,
						"slot": "1",
						"type": "t_contract(IERC20)77"
					},
					{
						"astId": 88,
						"contract": "AMMProject/contracts/ConstantProductAMM.sol:ConstantProductAMM",
						"label": "reserve0",
						"offset": 0,
						"slot": "2",
						"type": "t_uint256"
					},
					{
						"astId": 90,
						"contract": "AMMProject/contracts/ConstantProductAMM.sol:ConstantProductAMM",
						"label": "reserve1",
						"offset": 0,
						"slot": "3",
						"type": "t_uint256"
					},
					{
						"astId": 92,
						"contract": "AMMProject/contracts/ConstantProductAMM.sol:ConstantProductAMM",
						"label": "price",
						"offset": 0,
						"slot": "4",
						"type": "t_uint256"
					}
				],
				"types": {
					"t_contract(IERC20)77": {
						"encoding": "inplace",
						"label": "contract IERC20",
						"numberOfBytes": "20"
					},
					"t_uint256": {
						"encoding": "inplace",
						"label": "uint256",
						"numberOfBytes": "32"
					}
				}
			},
			"userdoc": {
				"kind": "user",
				"methods": {},
				"version": 1
			}
		}
	}
}